{
	"data": {
		"bytecode": {
			"linkReferences": {},
			"object": "6080346200016757601f62005aab38819003918201601f19168301916001600160401b038311848410176200016c5780849260209460405283398101031262000167575180151580910362000167576001604081815560418054336001600160a01b0319808316821790935592519492906001600160a01b03167f8be0079c531659141344cd1fd0a4f28419497f9722a3daafe3b4186f6b6457e0600087a36000603455621e84808060355561032060365566038d7ea4c680006039557350c7d3e7f7c656493d1d76aaa1a836cedfcbb16a82603a541617603a5573ba50f5340fb9f3bd074bd638c9be13ecb36e603d82603b541617603b55603c55732d567ece699eabe5afcd141edb7a4f2d0d6ce8a081603d541617603d5573f6beeebb578e214ca9e23b0e9683454ff88ed2a7908181603e541617603e55603f541617603f5560ff199060ff826000541691161760005560085416176008556159289081620001838239f35b600080fd5b634e487b7160e01b600052604160045260246000fdfe60806040526004361015610023575b361561001957600080fd5b6100216121cb565b005b60003560e01c8063029d67131461041657806317db9bad1461040d5780631d6e477a146104045780631e08e7c7146103fb5780631f3d25a9146103f257806327240768146103e9578063274f28ce146103e0578063295f4906146103d75780632ef423aa146103ce5780632feada0f146103c557806330009341146103bc5780633157a4ac146103b357806334ab66d3146103aa57806336ae7c18146103a15780633c6cf473146103985780633e99e9ce1461038f5780633eb0b2ad146103865780634552f5631461037d57806345c10b681461037457806354fd4d501461036b57806359f89787146103625780635ec6a8df1461035957806362e740931461035057806364a9c88a1461034757806366c5c4a01461033e57806368346a92146103355780636a7ea8221461032c578063715018a6146103235780637599735c1461031a57806380a0567c14610311578063858616aa146103085780638d080d1d146102ff5780638da5cb5b146102f65780638db4e89d146102ed57806398825f98146102e457806399464c89146102db5780639a2ed203146102d25780639efeff1c146102c95780639fb4159b146102c0578063a196e766146102c0578063a542648b146102b7578063affed0e0146102ae578063c7b51826146102a5578063dfe942d11461029c578063e4407b1514610293578063ecd8dc3a1461028a578063ed762d4414610281578063f2fde38b14610278578063f3fef3a31461026f578063fdf928cf146102665763ffa1ad740361000e57610261612156565b61000e565b50610261612137565b506102616120a6565b50610261611faa565b50610261611f47565b50610261611ee7565b50610261611eca565b50610261611c7f565b50610261611c58565b50610261611c2f565b50610261611c10565b50610261611b9a565b50610261611b37565b50610261611a7e565b506102616119f0565b50610261611610565b506102616115e8565b506102616115c0565b50610261611593565b5061026161154f565b506102616114ee565b506102616114a3565b5061026161142b565b506102616113b1565b506102616112ef565b50610261611261565b50610261611242565b50610261610f8c565b50610261610f36565b50610261610ef5565b50610261610ed3565b50610261610eab565b50610261610e8c565b50610261610e6d565b50610261610e49565b50610261610e04565b50610261610d85565b50610261610cef565b50610261610c5b565b50610261610c33565b50610261610c0b565b50610261610be3565b50610261610b6a565b50610261610aef565b5061026161095d565b506102616108f5565b506102616108cd565b5061026161084d565b506102616106cc565b5061026161043b565b6004359067ffffffffffffffff8216820361043657565b600080fd5b50346104365760206003193601126104365767ffffffffffffffff61045e61041f565b1660005260016020526020604060002054604051908152f35b507f4e487b7100000000000000000000000000000000000000000000000000000000600052604160045260246000fd5b67ffffffffffffffff81116104bb57604052565b6104c3610477565b604052565b6040810190811067ffffffffffffffff8211176104bb57604052565b6020810190811067ffffffffffffffff8211176104bb57604052565b90601f601f19910116810190811067ffffffffffffffff8211176104bb57604052565b604051906060820182811067ffffffffffffffff8211176104bb57604052565b60405190610550826104c8565b565b60209067ffffffffffffffff811161056c575b60051b0190565b610574610477565b610565565b6004359063ffffffff8216820361043657565b610404359063ffffffff8216820361043657565b359063ffffffff8216820361043657565b6001600160a01b0381160361043657565b81601f82011215610436578035916105d983610552565b926105e76040519485610500565b808452602092838086019260051b820101928311610436578301905b828210610611575050505090565b838091833561061f816105b1565b815201910190610603565b9060406003198301126104365767ffffffffffffffff600435818111610436578360238201121561043657806004013561066381610552565b916106716040519384610500565b81835260209160248385019160051b8301019187831161043657602401905b8282106106b5575050505092602435918211610436576106b2916004016105c2565b90565b8380916106c1846105a0565b815201910190610690565b5034610436576106db3661062a565b6106e3612173565b600091825b8151811015610765578061075b6001600160a01b0361070a610760948761229a565b511663ffffffff61071b848761229a565b51168752600560205260408720906001600160a01b03167fffffffffffffffffffffffff0000000000000000000000000000000000000000825416179055565b61224e565b6106e8565b83604051f35b601f19601f60209267ffffffffffffffff8111610789575b01160190565b610791610477565b610783565b9291926107a28261076b565b916107b06040519384610500565b829481845281830111610436578281602093846000960137010152565b929190926107da84610552565b916107e86040519384610500565b829480845260208094019060051b8301928284116104365780915b84831061081257505050505050565b823567ffffffffffffffff811161043657820184601f820112156104365786916108428683858095359101610796565b815201920191610803565b50346104365760e06003193601126104365760043561086b816105b1565b6084359067ffffffffffffffff82116104365736602383011215610436576108a06100219236906024816004013591016107cd565b60a435906108ad826105b1565b60c435926064359060443590602435906122bc565b600091031261043657565b50346104365760006003193601126104365760206001600160a01b03603e5416604051908152f35b503461043657602060031936011261043657600063ffffffff610916610579565b61091e612173565b1680825260066020526040822060ff198154169055604051907f9fd67bd682613b07687b42f99d8b24402d09feabb75df93abdb26b8fcf9845838383a2f35b5034610436576000600319360112610436576020603654604051908152f35b507f4e487b7100000000000000000000000000000000000000000000000000000000600052603260045260246000fd5b90600182811c921680156109f5575b60208310146109c657565b7f4e487b7100000000000000000000000000000000000000000000000000000000600052602260045260246000fd5b91607f16916109bb565b9060009291805491610a10836109ac565b918282526001938481169081600014610a725750600114610a32575b50505050565b90919394506000526020928360002092846000945b838610610a5e575050505001019038808080610a2c565b805485870183015294019385908201610a47565b915050602094955060ff199193501683830152151560051b01019038808080610a2c565b60005b838110610aa95750506000910152565b8181015183820152602001610a99565b90601f19601f602093610ad781518092818752878088019101610a96565b0116010190565b9060206106b2928181520190610ab9565b50346104365760206003193601126104365760043560375481101561043657610b4b610b52610b66926037600052604051928380927f42a7b7dd785cd69714a189dffb3fd7d7174edc9ece837694ce50f7078f7c31ae016109ff565b0382610500565b604051918291602083526020830190610ab9565b0390f35b503461043657604060031936011261043657600435610b88816105b1565b602435610b94816105b1565b610b9c612173565b6001600160a01b0390817fffffffffffffffffffffffff0000000000000000000000000000000000000000931683603e541617603e551690603f541617603f556000604051f35b50346104365760006003193601126104365760206001600160a01b03603b5416604051908152f35b50346104365760006003193601126104365760206001600160a01b03603f5416604051908152f35b50346104365760006003193601126104365760206001600160a01b0360385416604051908152f35b503461043657610c6a3661062a565b610c72612173565b600091825b8151811015610765578061075b6001600160a01b03610c99610cea948761229a565b511663ffffffff610caa848761229a565b51168752600460205260408720906001600160a01b03167fffffffffffffffffffffffff0000000000000000000000000000000000000000825416179055565b610c77565b503461043657608060031936011261043657600435610d0d816105b1565b602435610d19816105b1565b606435610d25816105b1565b610d2d612173565b6001600160a01b038092817fffffffffffffffffffffffff0000000000000000000000000000000000000000951685603a541617603a551683603b541617603b55604435603c551690603d541617603d556000604051f35b50346104365760206003193601126104365763ffffffff610da4610579565b166000526006602052602060ff604060002054166040519015158152f35b507f4e487b7100000000000000000000000000000000000000000000000000000000600052602160045260246000fd5b60031115610dfc57565b610550610dc2565b5034610436576020600319360112610436576004356000526007602052602060ff60406000205416604051906003811015610e3d578152f35b610e45610dc2565b8152f35b503461043657600060031936011261043657602060ff600054166040519015158152f35b5034610436576000600319360112610436576020603954604051908152f35b5034610436576000600319360112610436576020600354604051908152f35b50346104365760006003193601126104365760206001600160a01b03603a5416604051908152f35b503461043657600060031936011261043657602060ff60085416604051908152f35b50346104365760206003193601126104365763ffffffff610f14610579565b16600052600560205260206001600160a01b0360406000205416604051908152f35b50346104365760006003193601126104365760206001600160a01b03603d5416604051908152f35b9181601f840112156104365782359167ffffffffffffffff8311610436576020838186019501011161043657565b50346104365761046060031936011261043657366104041161043657610fb061058c565b610444359067ffffffffffffffff82116104365760206111a7610fda6111ad943690600401610f5e565b610fe261265f565b61101161100c611005336001600160a01b03166000526032602052604060002090565b5460ff1690565b6126b4565b6111a06111856110218385612c5b565b969097600080819060054614611221575b8b6105a246146111f2575b61107a61106d611057604061113d94015163ffffffff1690565b63ffffffff166000526005602052604060002090565b546001600160a01b031690565b9261112f8d6040519485938a8501973092899390607195937f010000000000000000000000000000000000000000000000000000000000000086527fffffffff00000000000000000000000000000000000000000000000000000000809260e01b1660018701527fffffffffffffffffffffffffffffffffffffffff000000000000000000000000809460601b16600587015260e01b16601985015260601b16601d8301526000603183015260518201520190565b03601f198101835282610500565b5190209160006001600160a01b036040518097819682957ffb5708340000000000000000000000000000000000000000000000000000000084526104243591600485016129a3565b0393165af19081156111e5575b6000916111b7575b5061289a565b3691610796565b91612a4f565b6100216001604055565b6111d8915060203d81116111de575b6111d08183610500565b8101906127fb565b3861119a565b503d6111c6565b6111ed612607565b611192565b5050505061121761120b603f546001600160a01b031690565b6001600160a01b031690565b600160008b61103d565b50505061123961120b603e546001600160a01b031690565b60006001611032565b5034610436576000600319360112610436576020603454604051908152f35b5034610436576000806003193601126112ec5761127c612173565b805b600390815463ffffffff9081831610156112c2576112bd9261129f83611ae9565b9054911b1c16835260066020526040832060ff19815416905561222c565b61127e565b836040517fe6fdbf73945dd61794a752b9181ea29f77170a7b1ffd37e0a7ff9d2c6f7258b98282a1f35b80fd5b503461043657606060031936011261043657611309610579565b60243590611316826105b1565b60443567ffffffffffffffff811161043657611336903690600401610f5e565b9060ff60005416156113565760209361134e93612f69565b604051908152f35b60046040517f29256c5e000000000000000000000000000000000000000000000000000000008152fd5b9181601f840112156104365782359167ffffffffffffffff8311610436576020808501948460051b01011161043657565b50346104365760c0600319360112610436576004356113cf816105b1565b60643561ffff811681036104365767ffffffffffffffff91608435838111610436576113ff903690600401610f5e565b9060a4359485116104365761141b610021953690600401611380565b94909360443590602435906126ff565b5034610436576000806003193601126112ec57611446612173565b6041547fffffffffffffffffffffffff00000000000000000000000000000000000000008116604155816001600160a01b0360405192167f8be0079c531659141344cd1fd0a4f28419497f9722a3daafe3b4186f6b6457e08284a3f35b50346104365760206003193601126104365763ffffffff6114c2610579565b16600052600460205260206001600160a01b0360406000205416604051908152f35b8015150361043657565b50346104365760206003193601126104365760043561150c816114e4565b611514612173565b7fffffffffffffffffffffffffffffffffffffffffffffffffffffffffffff00ff61ff0060005492151560081b169116176000556000604051f35b5034610436576020600319360112610436576001600160a01b03600435611575816105b1565b166000526032602052602060ff604060002054166040519015158152f35b50346104365760206003193601126104365760043560005260096020526020604060002054604051908152f35b50346104365760006003193601126104365760206001600160a01b0360415416604051908152f35b50346104365760006003193601126104365760206001600160a01b0360335416604051908152f35b50346104365760806003193601126104365761162a61041f565b67ffffffffffffffff906024358281116104365761164c903690600401610f5e565b929060443582811161043657611666903690600401611380565b949060643593841161043657611683611908943690600401611380565b61168e95919561265f565b6116988486612c5b565b968198889560409b8c92838601916116bc6116b7845163ffffffff1690565b612eee565b825163ffffffff16936116e261106d8663ffffffff166000526005602052604060002090565b938651958661177860209787898401948591927fffffffffffffffff0000000000000000000000000000000000000000000000006020947fffffffff000000000000000000000000000000000000000000000000000000007fffffffffffffffffffffffffffffffffffffffff0000000000000000000000009460e01b16855260c01b16600484015260601b16600c8201520190565b039661178c601f1998898101835282610500565b519020936117a4856000526009602052604060002090565b546119c05794611895996118f79561188261183d8b9a978597876119029f9e6118eb9d89916117f961120b61106d6117e36118a69f5163ffffffff1690565b63ffffffff166000526004602052604060002090565b905180809881947f5fa21f910000000000000000000000000000000000000000000000000000000083526004830191909167ffffffffffffffff6020820193169052565b03915afa9384156119b3575b600094611972575b509061187561106d61105761187d9461186b881515612614565b5163ffffffff1690565b9236916107cd565b615764565b9b8c916000526009602052604060002090565b555b015167ffffffffffffffff1690565b855167ffffffffffffffff90911682820190815260016020820152906118d6816040840103858101835282610500565b51902094519081019485529283906020860190565b03908101835282610500565b5190209336916107cd565b91613c50565b0361192e57916111a76000959492611921943691610796565b61192b6001604055565b51f35b845162461bcd60e51b815260206004820152601560248201527f496e76616c6964206d65737361676520686173682e00000000000000000000006044820152606490fd5b61187d9291945061106d6110576119a1611875938c8d3d106119ac575b6119998183610500565b8101906125f8565b969394505050611851565b503d61198f565b6119bb612607565b611849565b50505050611902949392826118a66118eb946119e96118f7956000526009602052604060002090565b5499611897565b5034610436576000806003193601126112ec57611a0b612173565b805b600390815463ffffffff908183161015611a5457611a4f92611a2e83611ae9565b9054911b1c168352600660205260408320600160ff1982541617905561222c565b611a0d565b836040517f61340a1b154d5d21d259a74bf95379201799b9d12cc6509bb46cb56dc281df558282a1f35b503461043657602060031936011261043657600063ffffffff611a9f610579565b611aa7612173565b16808252600660205260408220600160ff19825416179055604051907ff6cf9095f1dcea2429c26c832cbcc084fa0a1692b2c301601edd75b9d83520b28383a2f35b90600354821015611b2a575b6003600052601c8260031c7fc2575a0e9e593c00f959f8c92f12db2869c3395a3b0502d05e2516446f71f85b019260021b1690565b611b3261097c565b611af5565b50346104365760206003193601126104365760043560035481101561043657602090600360005263ffffffff8160031c7fc2575a0e9e593c00f959f8c92f12db2869c3395a3b0502d05e2516446f71f85b015460e06040519360051b161c168152f35b50346104365760206003193601126104365760043567ffffffffffffffff811161043657611bcf611c09913690600401610f5e565b90611bd861265f565b336000526032602052611bf260ff604060002054166126b4565b6111a7611bff8383612c5b565b9290933691610796565b6001604055005b5034610436576000600319360112610436576020603c54604051908152f35b503461043657600060031936011261043657602067ffffffffffffffff60025416604051908152f35b503461043657600060031936011261043657602060ff60005460081c166040519015158152f35b50346104365760806003193601126104365760043560243567ffffffffffffffff60443581811161043657611cb8903690600401610f5e565b92909160643590811161043657611cd3903690600401610f5e565b611cdb61265f565b3360009081526032602052604090205460ff16611cf7906126b4565b611d018183612c5b565b9490956040870151611d169063ffffffff1690565b611d309063ffffffff166000526005602052604060002090565b546001600160a01b0316976040519060209982808c809501927f8ef1332e000000000000000000000000000000000000000000000000000000008452888a86306024860194611d7e9561290b565b03601f1981018252611d909082610500565b519020603d546040517f116a1f42000000000000000000000000000000000000000000000000000000008152600481018a90526001600160a01b0390911695909484866024818a5afa6111ad9d6111a79b6111a099611e6799611e3f94611e06918115611ebd575b600091611ea0575b50612958565b60405180809581947fea5f084f000000000000000000000000000000000000000000000000000000008352600483019190602083019252565b03915afa958615611e93575b600096611e6c575b505090611e61913691610796565b92615833565b61289a565b611e61939296509081611e8a92903d106119ac576119998183610500565b94909138611e53565b611e9b612607565b611e4b565b611eb79150853d87116111de576111d08183610500565b38611e00565b611ec5612607565b611df8565b503461043657600060031936011261043657602060405160788152f35b503461043657604060031936011261043657600435611f05816105b1565b6001600160a01b0360243591611f1a836114e4565b611f22612173565b16600052603260205260406000209060ff60ff19835416911515161790556000604051f35b5034610436576020600319360112610436577f3eea1dc6ce990571e1081137b38c853529a3893b52e9719a48a2f4ac5e3a956c6020600435611f88816114e4565b611f90612173565b151560ff196000541660ff821617600055604051908152a1005b503461043657602060031936011261043657600435611fc8816105b1565b611fd0612173565b6001600160a01b0380911690811561203c5760009160415491817fffffffffffffffffffffffff000000000000000000000000000000000000000084161760415560405192167f8be0079c531659141344cd1fd0a4f28419497f9722a3daafe3b4186f6b6457e08484a3f35b608460405162461bcd60e51b815260206004820152602660248201527f4f776e61626c653a206e6577206f776e657220697320746865207a65726f206160448201527f64647265737300000000000000000000000000000000000000000000000000006064820152fd5b503461043657604060031936011261043657600080806004356120c8816105b1565b6120d0612173565b604051906001600160a01b0360243591165af16120eb6125c8565b50156120f357005b606460405162461bcd60e51b815260206004820152600e60248201527f5769746864726177204661696c210000000000000000000000000000000000006044820152fd5b5034610436576000600319360112610436576020603554604051908152f35b503461043657600060031936011261043657602060405160018152f35b6001600160a01b0360415416330361218757565b606460405162461bcd60e51b815260206004820152602060248201527f4f776e61626c653a2063616c6c6572206973206e6f7420746865206f776e65726044820152fd5b7f88a5966d370b9919b20f3e2c13ff65706f196a4e32cc2c12bf57088f8852587460408051338152346020820152a1565b507f4e487b7100000000000000000000000000000000000000000000000000000000600052601160045260246000fd5b60019063ffffffff809116908114612242570190565b61224a6121fc565b0190565b6001906000198114612242570190565b60409080516001101561226f570190565b61224a61097c565b6102209080516010101561226f570190565b60609080516002101561226f570190565b60209181518110156122af575b60051b010190565b6122b761097c565b6122a7565b6001600160a01b03906122cd612173565b167fffffffffffffffffffffffff0000000000000000000000000000000000000000603354161760335560345560355560365580519068010000000000000000821161245f575b603754826037558083106123bd575b5060376000526020908101907f42a7b7dd785cd69714a189dffb3fd7d7174edc9ece837694ce50f7078f7c31ae6000925b8484106123a15750505050509061239c610550926001600160a01b03167fffffffffffffffffffffffff00000000000000000000000000000000000000006038541617603855565b603955565b600183826123b1839451866124ec565b01920193019290612354565b600060378152837f42a7b7dd785cd69714a189dffb3fd7d7174edc9ece837694ce50f7078f7c31ae92830192015b8281106123f9575050612323565b80612406600192546109ac565b80612413575b50016123eb565b601f90818111841461242b5750508281555b3861240c565b8361244d9261243f85600052602060002090565b920160051c82019101612490565b60008181526020812081835555612425565b612467610477565b612314565b806000190460021181151516612483575b60011b90565b61248b6121fc565b61247d565b81811061249b575050565b60008155600101612490565b9190601f81116124b657505050565b610550926000526020600020906020601f840160051c830193106124e2575b601f0160051c0190612490565b90915081906124d5565b919091825167ffffffffffffffff81116125bb575b6125158161250f84546109ac565b846124a7565b602080601f8311600114612550575081929394600092612545575b50506000198260011b9260031b1c1916179055565b015190503880612530565b90601f1983169561256685600052602060002090565b926000905b8882106125a35750508360019596971061258a575b505050811b019055565b015160001960f88460031b161c19169055388080612580565b8060018596829496860151815501950193019061256b565b6125c3610477565b612501565b3d156125f3573d906125d98261076b565b916125e76040519384610500565b82523d6000602084013e565b606090565b90816020910312610436575190565b506040513d6000823e3d90fd5b1561261b57565b606460405162461bcd60e51b815260206004820152601f60248201527f457865637574696f6e20537461746520526f6f74206973206e6f7420736574006044820152fd5b600260405414612670576002604055565b606460405162461bcd60e51b815260206004820152601f60248201527f5265656e7472616e637947756172643a207265656e7472616e742063616c6c006044820152fd5b156126bb57565b606460405162461bcd60e51b815260206004820152600d60248201527f57726f6e672053656e64657221000000000000000000000000000000000000006044820152fd5b9560206111a795946127f199986127d898956001600160a01b036111a09661272561265f565b61274861100c611005336001600160a01b03166000526032602052604060002090565b612752898b612c5b565b9c909d61279261276d61120b6033546001600160a01b031690565b96612783612779610523565b61ffff909a168a52565b6001600160a01b0316888a0152565b61279d368c8e610796565b6040880152604051988997889687957fe4948f4300000000000000000000000000000000000000000000000000000000875260048701612810565b0392165afa9081156111e5576000916111b7575061289a565b6105506001604055565b9081602091031261043657516106b2816114e4565b92612856926040928552602085015260808285015261ffff81511660808501526001600160a01b0360208201511660a08501520151606060c084015260e0830190610ab9565b9060608183039101528281527f07ffffffffffffffffffffffffffffffffffffffffffffffffffffffffffffff83116104365760209260051b809284830137010190565b156128a157565b608460405162461bcd60e51b815260206004820152602160248201527f4661696c656420746f2070726f7665206d65737361676520696e636c7573696f60448201527f6e000000000000000000000000000000000000000000000000000000000000006064820152fd5b939460c095601f19948293601f956001600160a01b03809216895216602088015260006040880152606087015260a060808701528160a08701528686013760008582860101520116010190565b1561295f57565b606460405162461bcd60e51b815260206004820152601660248201527f4261746368206973206e6f742066696e616c697a6564000000000000000000006044820152fd5b63ffffffff61044092959493610460830196835261040060046020850137166104208201520152565b6001600160a01b036106b2949363ffffffff6060941683521660208201528160408201520190610ab9565b9081602091031261043657517fffffffff00000000000000000000000000000000000000000000000000000000811681036104365790565b90612a47602091949394604084526040840190610ab9565b931515910152565b9091604082018051612a649063ffffffff1690565b60608401516001600160a01b03169060c085015190604051809160208201937fb958fbbf00000000000000000000000000000000000000000000000000000000958686526024840192612ab6936129cc565b03601f1981018252612ac89082610500565b60a08601516001600160a01b031690515a9260008094938194f18091612aec6125c8565b906000918051602081149667ffffffffffffffff96612b9095612b7a95602095612b6a957f011c6a43a0a4bffc4a181a856a4c71d63b723a7ad77e3f135784091fd7c9bf459c612bc6575b50505081612bbe575b5015612b955761186b612b5d8c6000526007602052604060002090565b600260ff19825416179055565b97015167ffffffffffffffff1690565b9163ffffffff6040519485941697169583612a2f565b0390a4565b612bb9612bac8c6000526007602052604060002090565b600160ff19825416179055565b61186b565b905038612b40565b7fffffffff00000000000000000000000000000000000000000000000000000000929350908780612bfb9383010191016129f7565b1614388080612b37565b6040519060e0820182811067ffffffffffffffff821117612c4e575b604052606060c0836000808252806020830152806040830152808483015280608083015260a08201520152565b612c56610477565b612c21565b612c8690929192612c6a612c05565b50612c7e612c79368684610796565b613a5c565b933691610796565b6020815191012091612ca5611005846000526007602052604060002090565b612cae81610df2565b15612cf85760405162461bcd60e51b815260206004820152601960248201527f4d65737361676520616c72656164792065786563757465642e000000000000006044820152606490fd5b608081015163ffffffff9081164614612d505760405162461bcd60e51b815260206004820152600c60248201527f57726f6e6720636861696e2e00000000000000000000000000000000000000006044820152606490fd5b815160ff1660ff612d6c612d6660085460ff1690565b60ff1690565b911614612db85760405162461bcd60e51b815260206004820152600e60248201527f57726f6e672076657273696f6e2e0000000000000000000000000000000000006044820152606490fd5b60408201906001600160a01b03612ddc61120b61106d6117e3865163ffffffff1690565b16159081612ee1575b5015612e565760405162461bcd60e51b815260206004820152602860248201527f4c6967687420636c69656e7420666f7220736f7572636520636861696e20697360448201527f206e6f74207365740000000000000000000000000000000000000000000000006064820152608490fd5b61120b61106d611057612e6d935163ffffffff1690565b15612e76579190565b60405162461bcd60e51b815260206004820152602660248201527f62726f6164636173746572666f7220736f7572636520636861696e206973206e60448201527f6f742073657400000000000000000000000000000000000000000000000000006064820152608490fd5b6061915046161438612de5565b63ffffffff16600052600660205260ff60406000205416612f0b57565b606460405162461bcd60e51b815260206004820152601360248201527f436f6e74726163742069732066726f7a656e2e000000000000000000000000006044820152fd5b60019067ffffffffffffffff809116908114612242570190565b9263ffffffff84169246841461321a576001600160a01b03612f8c9316856135f8565b92839283612fc0612fa660025467ffffffffffffffff1690565b67ffffffffffffffff166000526001602052604060002090565b5546600514808061320f575b6131aa576101184614806131a0575b613191575b62aa36a780461480613185575b61315a575b6208274f46149081613150575b50613125575b8061311a575b6130ef575b6105a2461490816130e4575b506130b8575b507f089838497d0371e85258abf1462b498f919f05d446929f3aeb404427e29842d367ffffffffffffffff61306060025467ffffffffffffffff1690565b6130a161306c82612f4f565b67ffffffffffffffff167fffffffffffffffffffffffffffffffffffffffffffffffff00000000000000006002541617600255565b6130b2604051928392169482610ade565b0390a390565b6130d861106d6130de9263ffffffff166000526005602052604060002090565b826132dc565b38613022565b60059150143861301c565b61311561310f61106d8463ffffffff166000526005602052604060002090565b84613244565b613010565b506105a2811461300b565b61314b61314561106d8563ffffffff166000526005602052604060002090565b85613579565b613005565b9050821438612fff565b61318061317a61106d8663ffffffff166000526005602052604060002090565b8661339a565b612ff2565b506208274f8314612fed565b61319a846138d6565b50612fe0565b5060058214612fdb565b50506131cc61106d6131d29263ffffffff166000526005602052604060002090565b826137ee565b7fc9ca8a7ba72ebbe0ac6b18f4fabfddb2a18d3cd093b75a95421c38fa72e1563b67ffffffffffffffff61306060025467ffffffffffffffff1690565b506101188214612fcc565b60046040517fb0747d81000000000000000000000000000000000000000000000000000000008152fd5b906001600160a01b039182603e5416803b15610436576132b49360008094604051968795869485937f240ff3780000000000000000000000000000000000000000000000000000000085526001600486015216602484015260016044840152608060648401526084830190610ab9565b03925af180156132cf575b6132c65750565b610550906104a7565b6132d7612607565b6132bf565b906001600160a01b039182603f5416803b15610436576132b49360008094604051968795869485937f240ff37800000000000000000000000000000000000000000000000000000000855285600486015216602484015260016044840152608060648401526084830190610ab9565b9081602091031261043657516106b2816105b1565b92949361338e6080936001600160a01b0380941686526000602087015260a0604087015260a0860190610ab9565b95606085015216910152565b90604051906133e5826133d76020957f9fb4159b000000000000000000000000000000000000000000000000000000008784015260248301610ade565b03601f198101845283610500565b6133fd61120b61120b603a546001600160a01b031690565b6040517f3b70c18a0000000000000000000000000000000000000000000000000000000081528481600481855afa90811561356c575b60009161353f575b50603c54908560405180927fd7704bae000000000000000000000000000000000000000000000000000000008252816001600160a01b038161348588600483019190602083019252565b0392165afa958615613532575b600096613513575b5050813b15610436576134e194600094604051968795869485937f5f7b15770000000000000000000000000000000000000000000000000000000085528260048601613360565b03925af18015613506575b6134f35750565b80613500610550926104a7565b806108c2565b61350e612607565b6134ec565b61352a929650803d106119ac576119998183610500565b93388061349a565b61353a612607565b613492565b61355f9150853d8711613565575b6135578183610500565b81019061334b565b3861343b565b503d61354d565b613574612607565b613433565b906001600160a01b039182603b5416803b15610436576135e19360008094604051968795869485937fb2267a7b000000000000000000000000000000000000000000000000000000008552166004840152836024840152608060448401526084830190610ab9565b82606483015203925af180156132cf576132c65750565b9260656136d8917fffffffffffffffff00000000000000000000000000000000000000000000000096949361363560085495600254933691610796565b906040519889937fff00000000000000000000000000000000000000000000000000000000000000602086019860f81b16885260c01b1660218401527fffffffff00000000000000000000000000000000000000000000000000000000804660e01b1660298501523360601b602d8501528860e01b16604184015260458301526136c88151809260208686019101610a96565b8101036045810187520185610500565b835190209161011846141590816136f1575b50612e7657565b6001600160a01b03915061106d6137189163ffffffff166000526005602052604060002090565b1615386136ea565b96959491926001600160a01b0361374c921688526020938489015260e0604089015260e0880190610ab9565b926060870152608086015284820360a086015260375480835281830191808260051b8501019360376000527f42a7b7dd785cd69714a189dffb3fd7d7174edc9ece837694ce50f7078f7c31ae936000915b8483106137c1575050505050509060c0610550929401906001600160a01b03169052565b9091929394958460016137de83601f19868496030187528a6109ff565b980193019301919493929061379d565b61112f61382b6020926040519283917fa196e766000000000000000000000000000000000000000000000000000000008684015260248301610ade565b61384361120b61120b6033546001600160a01b031690565b603954603454906035549561389d6036546138666038546001600160a01b031690565b90604051998a98899788967feb67241900000000000000000000000000000000000000000000000000000000885260048801613720565b03925af180156138c9575b6138af5750565b6138c69060203d81116119ac576119998183610500565b50565b6138d1612607565b6138a8565b602061391691604051809381927f62f84b240000000000000000000000000000000000000000000000000000000083528460048401526024830190610ab9565b038160006180085af190811561394a575b600091613932575090565b6106b2915060203d81116119ac576119998183610500565b613952612607565b613927565b907fffffffffffffffffffffffffffffffffffffffffffffffffffffffffffffffbb820191821161398457565b6105506121fc565b907fffffffffffffffffffffffffffffffffffffffffffffffffffffffffffffff09820191821161398457565b907fffffffffffffffffffffffffffffffffffffffffffffffffffffffffffffff40820191821161398457565b907fffffffffffffffffffffffffffffffffffffffffffffffffffffffffffffff49820191821161398457565b907fffffffffffffffffffffffffffffffffffffffffffffffffffffffffffffff80820191821161398457565b90600019820191821161398457565b9190820391821161398457565b90613ae3613a68612c05565b926001810151613ace6009830151613ac1600d85015163ffffffff60218701519167ffffffffffffffff60258901519560ff60458b015199168d521660208c01521660408a015260608901906001600160a01b03169052565b63ffffffff166080870152565b60a0850152613add8151613957565b90613bc5565b60c0830152565b90601f820180921161398457565b600101908160011161398457565b906001820180921161398457565b604501908160451161398457565b9190820180921161398457565b15613b3657565b606460405162461bcd60e51b815260206004820152600e60248201527f736c6963655f6f766572666c6f770000000000000000000000000000000000006044820152fd5b15613b8157565b606460405162461bcd60e51b815260206004820152601160248201527f736c6963655f6f75744f66426f756e64730000000000000000000000000000006044820152fd5b613bd982613bd281613aea565b1015613b2f565b613bee8151613be784613b14565b1115613b7a565b81613c06575050604051600081526020810160405290565b60405191601f8116916045831560051b80858701019484860193010101905b808410613c3d5750508252601f01601f191660405290565b9092835181526020809101930190613c25565b9190613c719160405160209485820152848152613c6c816104c8565b614be1565b805115613cf057613c8190613de4565b613c8f602182511115613e16565b613cb182613c9c8361452e565b60028196939592961015613ce3575b15613e16565b0151908101809111613cd6575b5191808210613ccc57505090565b036101000a900490565b613cde6121fc565b613cbe565b613ceb610dc2565b613cab565b6064826040519062461bcd60e51b82526004820152601c60248201527f53746f726167652076616c756520646f6573206e6f74206578697374000000006044820152fd5b60405190613d41826104c8565b60006020838281520152565b15613d5457565b60a460405162461bcd60e51b815260206004820152604a60248201527f524c505265616465723a206c656e677468206f6620616e20524c50206974656d60448201527f206d7573742062652067726561746572207468616e207a65726f20746f20626560648201527f206465636f6461626c65000000000000000000000000000000000000000000006084820152fd5b613dec613d34565b50613df981511515613d4d565b602081519160405192613e0b846104c8565b835201602082015290565b15613e1d57565b606460405162461bcd60e51b815260206004820152601a60248201527f496e76616c696420524c5020627974657333322076616c75652e0000000000006044820152fd5b613e6f602182511115613e16565b613e7d6020613c9c8361452e565b0151908101809111613ea4575b519060208110613e98575090565b6020036101000a900490565b613eac6121fc565b613e8a565b15613eb857565b60a460405162461bcd60e51b815260206004820152604d60248201527f524c505265616465723a206c656e677468206f6620636f6e74656e74206d757360448201527f74206265203e207468616e206c656e677468206f66206c697374206c656e677460648201527f6820286c6f6e67206c69737429000000000000000000000000000000000000006084820152fd5b15613f4f57565b60a460405162461bcd60e51b815260206004820152604860248201527f524c505265616465723a206c656e677468206f6620636f6e74656e74206d757360448201527f74206e6f74206861766520616e79206c656164696e67207a65726f7320286c6f60648201527f6e67206c697374290000000000000000000000000000000000000000000000006084820152fd5b15613fe657565b60a460405162461bcd60e51b815260206004820152604660248201527f524c505265616465723a206c656e677468206f6620636f6e74656e74206d757360448201527f742062652067726561746572207468616e20353520627974657320286c6f6e6760648201527f206c6973742900000000000000000000000000000000000000000000000000006084820152fd5b1561407d57565b60a460405162461bcd60e51b815260206004820152604a60248201527f524c505265616465723a206c656e677468206f6620636f6e74656e74206d757360448201527f742062652067726561746572207468616e20746f74616c206c656e677468202860648201527f6c6f6e67206c69737429000000000000000000000000000000000000000000006084820152fd5b1561411457565b60a460405162461bcd60e51b815260206004820152604a60248201527f524c505265616465723a206c656e677468206f6620636f6e74656e74206d757360448201527f742062652067726561746572207468616e206c697374206c656e67746820287360648201527f686f7274206c69737429000000000000000000000000000000000000000000006084820152fd5b156141ab57565b60a460405162461bcd60e51b815260206004820152605160248201527f524c505265616465723a206c656e677468206f6620636f6e74656e74206d757360448201527f74206265203e207468616e206c656e677468206f6620737472696e67206c656e60648201527f67746820286c6f6e6720737472696e67290000000000000000000000000000006084820152fd5b1561424257565b60a460405162461bcd60e51b815260206004820152604a60248201527f524c505265616465723a206c656e677468206f6620636f6e74656e74206d757360448201527f74206e6f74206861766520616e79206c656164696e67207a65726f7320286c6f60648201527f6e6720737472696e6729000000000000000000000000000000000000000000006084820152fd5b156142d957565b60a460405162461bcd60e51b815260206004820152604860248201527f524c505265616465723a206c656e677468206f6620636f6e74656e74206d757360448201527f742062652067726561746572207468616e20353520627974657320286c6f6e6760648201527f20737472696e67290000000000000000000000000000000000000000000000006084820152fd5b1561437057565b60a460405162461bcd60e51b815260206004820152604c60248201527f524c505265616465723a206c656e677468206f6620636f6e74656e74206d757360448201527f742062652067726561746572207468616e20746f74616c206c656e677468202860648201527f6c6f6e6720737472696e672900000000000000000000000000000000000000006084820152fd5b1561440757565b60a460405162461bcd60e51b815260206004820152604e60248201527f524c505265616465723a206c656e677468206f6620636f6e74656e74206d757360448201527f742062652067726561746572207468616e20737472696e67206c656e6774682060648201527f2873686f727420737472696e67290000000000000000000000000000000000006084820152fd5b1561449e57565b60a460405162461bcd60e51b815260206004820152604d60248201527f524c505265616465723a20696e76616c6964207072656669782c2073696e676c60448201527f652062797465203c203078383020617265206e6f74207072656669786564202860648201527f73686f727420737472696e6729000000000000000000000000000000000000006084820152fd5b9061453b82511515613d4d565b6020820151805160001a90607f821161455b575060009250600191839150565b60b782116145e95760017fff000000000000000000000000000000000000000000000000000000000000009161459f6145966145b595613a13565b80975111614400565b01511660018414908115916145be575b50614497565b60019190600090565b7f800000000000000000000000000000000000000000000000000000000000000091501015386145af565b60bf821161467257614666600161460261466b946139e6565b9261460f848851116141a4565b0161463e7fff00000000000000000000000000000000000000000000000000000000000000825116151561423b565b518260031b610100031c94614655603787116142d2565b516146608684613b22565b10614369565b613af8565b9190600090565b60f782116146985750614687614690916139b9565b8093511161410d565b600191908290565b61466660016146a961470d9461398c565b926146b684885111613eb1565b016146e57fff000000000000000000000000000000000000000000000000000000000000008251161515613f48565b518260031b610100031c946146fc60378711613fdf565b516147078684613b22565b10614076565b9190600190565b1561471b57565b606460405162461bcd60e51b815260206004820152601560248201527f4d65726b6c65547269653a20656d707479206b657900000000000000000000006044820152fd5b1561476657565b608460405162461bcd60e51b815260206004820152602e60248201527f4d65726b6c65547269653a206b657920696e646578206578636565647320746f60448201527f74616c206b6579206c656e6774680000000000000000000000000000000000006064820152fd5b156147d757565b608460405162461bcd60e51b815260206004820152602660248201527f4d65726b6c65547269653a20696e76616c696420696e7465726e616c206e6f6460448201527f65206861736800000000000000000000000000000000000000000000000000006064820152fd5b1561484857565b608460405162461bcd60e51b815260206004820152602760248201527f4d65726b6c65547269653a20696e76616c6964206c6172676520696e7465726e60448201527f616c2068617368000000000000000000000000000000000000000000000000006064820152fd5b156148b957565b606460405162461bcd60e51b815260206004820152601d60248201527f4d65726b6c65547269653a20696e76616c696420726f6f7420686173680000006044820152fd5b60209080511561226f570190565b90602091805182101561491d57010190565b61492561097c565b010190565b60ff166002039060ff821161398457565b1561494257565b608460405162461bcd60e51b815260206004820152603a60248201527f4d65726b6c65547269653a20706174682072656d61696e646572206d7573742060448201527f736861726520616c6c206e6962626c65732077697468206b65790000000000006064820152fd5b156149b357565b608460405162461bcd60e51b815260206004820152603d60248201527f4d65726b6c65547269653a206b65792072656d61696e646572206d757374206260448201527f65206964656e746963616c20746f20706174682072656d61696e6465720000006064820152fd5b15614a2457565b608460405162461bcd60e51b815260206004820152603960248201527f4d65726b6c65547269653a2076616c7565206c656e677468206d75737420626560448201527f2067726561746572207468616e207a65726f20286c65616629000000000000006064820152fd5b15614a9557565b608460405162461bcd60e51b815260206004820152603860248201527f4d65726b6c65547269653a2076616c7565206e6f6465206d757374206265206c60448201527f617374206e6f646520696e2070726f6f6620286c6561662900000000000000006064820152fd5b15614b0657565b608460405162461bcd60e51b815260206004820152603b60248201527f4d65726b6c65547269653a2076616c7565206c656e677468206d75737420626560448201527f2067726561746572207468616e207a65726f20286272616e63682900000000006064820152fd5b15614b7757565b608460405162461bcd60e51b815260206004820152603a60248201527f4d65726b6c65547269653a2076616c7565206e6f6465206d757374206265206c60448201527f617374206e6f646520696e2070726f6f6620286272616e6368290000000000006064820152fd5b9190614bfb614c0191614bf685511515614714565b615385565b926150fb565b90604080519081614c1a60209485830160209181520190565b0391614c2e601f1993848101835282610500565b9360009283945b8751861015614f9a57614c48868961229a565b5196614c57845187111561475f565b85614f4657614ca1614ca691614c82614c8e8b51868151910120895192839188830160209181520190565b03878101835282610500565b6020815191012090602081519101201490565b6148b2565b8087019687515160118114600014614d6f57505082518503614cf9575050505050614cf3614ce0614cda6106b29451612277565b516151af565b93614ced85511515614aff565b51613a40565b14614b70565b909192949395614d60614d5a614d54614d669360ff614d4a614d44614d1e8e8c61490b565b517fff000000000000000000000000000000000000000000000000000000000000001690565b60f81c90565b915191169061229a565b5161568c565b97613b06565b9461224e565b94929190614c35565b9492909998979593916002809614600014614edc57614d9160ff999a9b6156b1565b95614da1614d44614d1e896148fd565b96614dbc600191614db6612d66848c1661492a565b90615004565b9a8b98614ddf614dd6614dcf8b8a615004565b809c6156de565b809e511461493b565b169182148015614ed2575b15614e285750505050505050614cda614e2292614e0f6106b296614e159451146149ac565b5161225e565b93614ced85511515614a1d565b14614a8e565b90809295999893969a94975015918215614ec8575b505015614e5e57614d6691614e58614d54614d60935161225e565b98613b22565b865162461bcd60e51b815260206004820152603260248201527f4d65726b6c65547269653a2072656365697665642061206e6f6465207769746860448201527f20616e20756e6b6e6f776e2070726566697800000000000000000000000000006064820152608490fd5b1490503880614e3d565b5060038214614dea565b835162461bcd60e51b815260206004820152602860248201527f4d65726b6c65547269653a20726563656976656420616e20756e70617273656160448201527f626c65206e6f64650000000000000000000000000000000000000000000000006064820152608490fd5b875180518311614f815750614f77614f7c91614c82614c8e8b51868151910120895192839188830160209181520190565b614841565b614ca6565b805160209182012082519190920120614f7c91146147d0565b835162461bcd60e51b815260206004820152602560248201527f4d65726b6c65547269653a2072616e206f7574206f662070726f6f6620656c6560448201527f6d656e74730000000000000000000000000000000000000000000000000000006064820152608490fd5b9081518110156150b557815181808203918083116150a8575b61502c83601f81011015613b2f565b61504783830161503e84821015613b2f565b86511015613b7a565b0361506057505050604051600081526020810160405290565b60405192601f821692831560051b80858701019484860193010101905b8084106150955750508252601f01601f191660405290565b909283518152602080910193019061507d565b6150b06121fc565b61501d565b50506040516150c3816104e4565b6000815290565b906150d48261076b565b6150e16040519182610500565b828152601f196150f1829461076b565b0190602036910137565b80518060001904600211811515166151a2575b60019061511c81831b6150ca565b92600090815b83811061513157505050505090565b8061513d86928461490b565b5161519b61514a8361246c565b7f0f000000000000000000000000000000000000000000000000000000000000009061517e828560041c16891a918c61490b565b5361519061518b8561246c565b613b06565b9216861a918961490b565b5301615122565b6151aa6121fc565b61510e565b6151b88161452e565b60028193929310156152ca575b61526057825182820190818311615253575b036151e95760206106b2930151615327565b608460405162461bcd60e51b815260206004820152603460248201527f524c505265616465723a2062797465732076616c756520636f6e7461696e732060448201527f616e20696e76616c69642072656d61696e6465720000000000000000000000006064820152fd5b61525b6121fc565b6151d7565b608460405162461bcd60e51b815260206004820152603960248201527f524c505265616465723a206465636f646564206974656d207479706520666f7260448201527f206279746573206973206e6f7420612064617461206974656d000000000000006064820152fd5b6152d2610dc2565b6151c5565b906152e1816150ca565b9181156153225781906000905b82821061530b5750116152ff575090565b60206000918301015290565b9150806020918301518282870101520182916152ee565b505090565b919091615333826150ca565b92821561537f578101809111615372575b81906000905b82821061535b5750116152ff575090565b91508060209183015182828701015201829161534a565b61537a6121fc565b615344565b50505090565b805161539081610552565b91604061539f81519485610500565b828452601f196153ae84610552565b019060005b82811061541a5750505060005b8281106153cd5750505090565b806153da6001928461229a565b516153ee6153e8838661229a565b5161543d565b6153f6610543565b9182526020820152615408828761229a565b52615413818661229a565b50016153c0565b6020908251615428816104c8565b606080825283820152878201830152016153b3565b6154496106b291613de4565b61558a565b1561545557565b608460405162461bcd60e51b815260206004820152603860248201527f524c505265616465723a206465636f646564206974656d207479706520666f7260448201527f206c697374206973206e6f742061206c697374206974656d00000000000000006064820152fd5b156154c657565b608460405162461bcd60e51b815260206004820152603260248201527f524c505265616465723a206c697374206974656d2068617320616e20696e766160448201527f6c696420646174612072656d61696e64657200000000000000000000000000006064820152fd5b60405190610420820182811067ffffffffffffffff82111761557d575b60405260208083528260005b610400811061556757505050565b8290615571613d34565b82828501015201615559565b615585610477565b61554d565b6155ba6155c26155998361452e565b92919390600284101561567f575b6155b4600180951461544e565b84613b22565b8451146154bf565b6155ca615530565b92600092825b6155dd575b505050815290565b815190818110156156795761566d6155f88261567394613a4f565b61566760209761562489880193615610878651613b22565b615618610543565b9182528b82015261452e565b5093909961563d876156368d88613b22565b9351613b22565b90615646610543565b928352820152615656828c61229a565b52615661818b61229a565b50613b06565b96613b22565b90613b22565b826155d0565b506155d5565b615687610dc2565b6155a7565b60208151106000146156a857602081015190516106b2916152d7565b6106b2906151af565b6156cc6020806106b29301518051156156d1575b01516151af565b6150fb565b6156d961097c565b6156c5565b6000918282518251808210600014615754575093505b5b83811080615712575b1561570b576001016156f5565b9250505090565b507fff000000000000000000000000000000000000000000000000000000000000008061573f838661490b565b51169061574c838561490b565b5116146156fe565b905093506156f4565b1561043657565b6157be92916040517fffffffffffffffffffffffffffffffffffffffff000000000000000000000000602082019260601b168252601481526157a5816104c8565b51902060405190602082015260208152613c6c816104c8565b8051156157ef576157e96157d76154496106b293613de4565b6157e4600482511461575d565b612289565b51613e61565b606460405162461bcd60e51b815260206004820152601660248201527f4163636f756e7420646f6573206e6f74206578697374000000000000000000006044820152fd5b929091601f8251166158ae57815160051c916000915b83831061585857505050501490565b6158909060208460051b8401015160019687831615600014615896579061588791600052602052604060002090565b955b1c9261224e565b91615849565b6158a891600052602052604060002090565b95615889565b606460405162461bcd60e51b815260206004820152600d60248201527f496e76616c69642070726f6f66000000000000000000000000000000000000006044820152fdfea2646970667358221220ab2cc57ccc9a1af650f94ccc0c976c2889c89ffa0d176cc467353afbdaffb88364736f6c63430008100033",
			"opcodes": "PUSH1 0x80 CALLVALUE PUSH3 0x167 JUMPI PUSH1 0x1F PUSH3 0x5AAB CODESIZE DUP2 SWAP1 SUB SWAP2 DUP3 ADD PUSH1 0x1F NOT AND DUP4 ADD SWAP2 PUSH1 0x1 PUSH1 0x1 PUSH1 0x40 SHL SUB DUP4 GT DUP5 DUP5 LT OR PUSH3 0x16C JUMPI DUP1 DUP5 SWAP3 PUSH1 0x20 SWAP5 PUSH1 0x40 MSTORE DUP4 CODECOPY DUP2 ADD SUB SLT PUSH3 0x167 JUMPI MLOAD DUP1 ISZERO ISZERO DUP1 SWAP2 SUB PUSH3 0x167 JUMPI PUSH1 0x1 PUSH1 0x40 DUP2 DUP2 SSTORE PUSH1 0x41 DUP1 SLOAD CALLER PUSH1 0x1 PUSH1 0x1 PUSH1 0xA0 SHL SUB NOT DUP1 DUP4 AND DUP3 OR SWAP1 SWAP4 SSTORE SWAP3 MLOAD SWAP5 SWAP3 SWAP1 PUSH1 0x1 PUSH1 0x1 PUSH1 0xA0 SHL SUB AND PUSH32 0x8BE0079C531659141344CD1FD0A4F28419497F9722A3DAAFE3B4186F6B6457E0 PUSH1 0x0 DUP8 LOG3 PUSH1 0x0 PUSH1 0x34 SSTORE PUSH3 0x1E8480 DUP1 PUSH1 0x35 SSTORE PUSH2 0x320 PUSH1 0x36 SSTORE PUSH7 0x38D7EA4C68000 PUSH1 0x39 SSTORE PUSH20 0x50C7D3E7F7C656493D1D76AAA1A836CEDFCBB16A DUP3 PUSH1 0x3A SLOAD AND OR PUSH1 0x3A SSTORE PUSH20 0xBA50F5340FB9F3BD074BD638C9BE13ECB36E603D DUP3 PUSH1 0x3B SLOAD AND OR PUSH1 0x3B SSTORE PUSH1 0x3C SSTORE PUSH20 0x2D567ECE699EABE5AFCD141EDB7A4F2D0D6CE8A0 DUP2 PUSH1 0x3D SLOAD AND OR PUSH1 0x3D SSTORE PUSH20 0xF6BEEEBB578E214CA9E23B0E9683454FF88ED2A7 SWAP1 DUP2 DUP2 PUSH1 0x3E SLOAD AND OR PUSH1 0x3E SSTORE PUSH1 0x3F SLOAD AND OR PUSH1 0x3F SSTORE PUSH1 0xFF NOT SWAP1 PUSH1 0xFF DUP3 PUSH1 0x0 SLOAD AND SWAP2 AND OR PUSH1 0x0 SSTORE PUSH1 0x8 SLOAD AND OR PUSH1 0x8 SSTORE PUSH2 0x5928 SWAP1 DUP2 PUSH3 0x183 DUP3 CODECOPY RETURN JUMPDEST PUSH1 0x0 DUP1 REVERT JUMPDEST PUSH4 0x4E487B71 PUSH1 0xE0 SHL PUSH1 0x0 MSTORE PUSH1 0x41 PUSH1 0x4 MSTORE PUSH1 0x24 PUSH1 0x0 REVERT INVALID PUSH1 0x80 PUSH1 0x40 MSTORE PUSH1 0x4 CALLDATASIZE LT ISZERO PUSH2 0x23 JUMPI JUMPDEST CALLDATASIZE ISZERO PUSH2 0x19 JUMPI PUSH1 0x0 DUP1 REVERT JUMPDEST PUSH2 0x21 PUSH2 0x21CB JUMP JUMPDEST STOP JUMPDEST PUSH1 0x0 CALLDATALOAD PUSH1 0xE0 SHR DUP1 PUSH4 0x29D6713 EQ PUSH2 0x416 JUMPI DUP1 PUSH4 0x17DB9BAD EQ PUSH2 0x40D JUMPI DUP1 PUSH4 0x1D6E477A EQ PUSH2 0x404 JUMPI DUP1 PUSH4 0x1E08E7C7 EQ PUSH2 0x3FB JUMPI DUP1 PUSH4 0x1F3D25A9 EQ PUSH2 0x3F2 JUMPI DUP1 PUSH4 0x27240768 EQ PUSH2 0x3E9 JUMPI DUP1 PUSH4 0x274F28CE EQ PUSH2 0x3E0 JUMPI DUP1 PUSH4 0x295F4906 EQ PUSH2 0x3D7 JUMPI DUP1 PUSH4 0x2EF423AA EQ PUSH2 0x3CE JUMPI DUP1 PUSH4 0x2FEADA0F EQ PUSH2 0x3C5 JUMPI DUP1 PUSH4 0x30009341 EQ PUSH2 0x3BC JUMPI DUP1 PUSH4 0x3157A4AC EQ PUSH2 0x3B3 JUMPI DUP1 PUSH4 0x34AB66D3 EQ PUSH2 0x3AA JUMPI DUP1 PUSH4 0x36AE7C18 EQ PUSH2 0x3A1 JUMPI DUP1 PUSH4 0x3C6CF473 EQ PUSH2 0x398 JUMPI DUP1 PUSH4 0x3E99E9CE EQ PUSH2 0x38F JUMPI DUP1 PUSH4 0x3EB0B2AD EQ PUSH2 0x386 JUMPI DUP1 PUSH4 0x4552F563 EQ PUSH2 0x37D JUMPI DUP1 PUSH4 0x45C10B68 EQ PUSH2 0x374 JUMPI DUP1 PUSH4 0x54FD4D50 EQ PUSH2 0x36B JUMPI DUP1 PUSH4 0x59F89787 EQ PUSH2 0x362 JUMPI DUP1 PUSH4 0x5EC6A8DF EQ PUSH2 0x359 JUMPI DUP1 PUSH4 0x62E74093 EQ PUSH2 0x350 JUMPI DUP1 PUSH4 0x64A9C88A EQ PUSH2 0x347 JUMPI DUP1 PUSH4 0x66C5C4A0 EQ PUSH2 0x33E JUMPI DUP1 PUSH4 0x68346A92 EQ PUSH2 0x335 JUMPI DUP1 PUSH4 0x6A7EA822 EQ PUSH2 0x32C JUMPI DUP1 PUSH4 0x715018A6 EQ PUSH2 0x323 JUMPI DUP1 PUSH4 0x7599735C EQ PUSH2 0x31A JUMPI DUP1 PUSH4 0x80A0567C EQ PUSH2 0x311 JUMPI DUP1 PUSH4 0x858616AA EQ PUSH2 0x308 JUMPI DUP1 PUSH4 0x8D080D1D EQ PUSH2 0x2FF JUMPI DUP1 PUSH4 0x8DA5CB5B EQ PUSH2 0x2F6 JUMPI DUP1 PUSH4 0x8DB4E89D EQ PUSH2 0x2ED JUMPI DUP1 PUSH4 0x98825F98 EQ PUSH2 0x2E4 JUMPI DUP1 PUSH4 0x99464C89 EQ PUSH2 0x2DB JUMPI DUP1 PUSH4 0x9A2ED203 EQ PUSH2 0x2D2 JUMPI DUP1 PUSH4 0x9EFEFF1C EQ PUSH2 0x2C9 JUMPI DUP1 PUSH4 0x9FB4159B EQ PUSH2 0x2C0 JUMPI DUP1 PUSH4 0xA196E766 EQ PUSH2 0x2C0 JUMPI DUP1 PUSH4 0xA542648B EQ PUSH2 0x2B7 JUMPI DUP1 PUSH4 0xAFFED0E0 EQ PUSH2 0x2AE JUMPI DUP1 PUSH4 0xC7B51826 EQ PUSH2 0x2A5 JUMPI DUP1 PUSH4 0xDFE942D1 EQ PUSH2 0x29C JUMPI DUP1 PUSH4 0xE4407B15 EQ PUSH2 0x293 JUMPI DUP1 PUSH4 0xECD8DC3A EQ PUSH2 0x28A JUMPI DUP1 PUSH4 0xED762D44 EQ PUSH2 0x281 JUMPI DUP1 PUSH4 0xF2FDE38B EQ PUSH2 0x278 JUMPI DUP1 PUSH4 0xF3FEF3A3 EQ PUSH2 0x26F JUMPI DUP1 PUSH4 0xFDF928CF EQ PUSH2 0x266 JUMPI PUSH4 0xFFA1AD74 SUB PUSH2 0xE JUMPI PUSH2 0x261 PUSH2 0x2156 JUMP JUMPDEST PUSH2 0xE JUMP JUMPDEST POP PUSH2 0x261 PUSH2 0x2137 JUMP JUMPDEST POP PUSH2 0x261 PUSH2 0x20A6 JUMP JUMPDEST POP PUSH2 0x261 PUSH2 0x1FAA JUMP JUMPDEST POP PUSH2 0x261 PUSH2 0x1F47 JUMP JUMPDEST POP PUSH2 0x261 PUSH2 0x1EE7 JUMP JUMPDEST POP PUSH2 0x261 PUSH2 0x1ECA JUMP JUMPDEST POP PUSH2 0x261 PUSH2 0x1C7F JUMP JUMPDEST POP PUSH2 0x261 PUSH2 0x1C58 JUMP JUMPDEST POP PUSH2 0x261 PUSH2 0x1C2F JUMP JUMPDEST POP PUSH2 0x261 PUSH2 0x1C10 JUMP JUMPDEST POP PUSH2 0x261 PUSH2 0x1B9A JUMP JUMPDEST POP PUSH2 0x261 PUSH2 0x1B37 JUMP JUMPDEST POP PUSH2 0x261 PUSH2 0x1A7E JUMP JUMPDEST POP PUSH2 0x261 PUSH2 0x19F0 JUMP JUMPDEST POP PUSH2 0x261 PUSH2 0x1610 JUMP JUMPDEST POP PUSH2 0x261 PUSH2 0x15E8 JUMP JUMPDEST POP PUSH2 0x261 PUSH2 0x15C0 JUMP JUMPDEST POP PUSH2 0x261 PUSH2 0x1593 JUMP JUMPDEST POP PUSH2 0x261 PUSH2 0x154F JUMP JUMPDEST POP PUSH2 0x261 PUSH2 0x14EE JUMP JUMPDEST POP PUSH2 0x261 PUSH2 0x14A3 JUMP JUMPDEST POP PUSH2 0x261 PUSH2 0x142B JUMP JUMPDEST POP PUSH2 0x261 PUSH2 0x13B1 JUMP JUMPDEST POP PUSH2 0x261 PUSH2 0x12EF JUMP JUMPDEST POP PUSH2 0x261 PUSH2 0x1261 JUMP JUMPDEST POP PUSH2 0x261 PUSH2 0x1242 JUMP JUMPDEST POP PUSH2 0x261 PUSH2 0xF8C JUMP JUMPDEST POP PUSH2 0x261 PUSH2 0xF36 JUMP JUMPDEST POP PUSH2 0x261 PUSH2 0xEF5 JUMP JUMPDEST POP PUSH2 0x261 PUSH2 0xED3 JUMP JUMPDEST POP PUSH2 0x261 PUSH2 0xEAB JUMP JUMPDEST POP PUSH2 0x261 PUSH2 0xE8C JUMP JUMPDEST POP PUSH2 0x261 PUSH2 0xE6D JUMP JUMPDEST POP PUSH2 0x261 PUSH2 0xE49 JUMP JUMPDEST POP PUSH2 0x261 PUSH2 0xE04 JUMP JUMPDEST POP PUSH2 0x261 PUSH2 0xD85 JUMP JUMPDEST POP PUSH2 0x261 PUSH2 0xCEF JUMP JUMPDEST POP PUSH2 0x261 PUSH2 0xC5B JUMP JUMPDEST POP PUSH2 0x261 PUSH2 0xC33 JUMP JUMPDEST POP PUSH2 0x261 PUSH2 0xC0B JUMP JUMPDEST POP PUSH2 0x261 PUSH2 0xBE3 JUMP JUMPDEST POP PUSH2 0x261 PUSH2 0xB6A JUMP JUMPDEST POP PUSH2 0x261 PUSH2 0xAEF JUMP JUMPDEST POP PUSH2 0x261 PUSH2 0x95D JUMP JUMPDEST POP PUSH2 0x261 PUSH2 0x8F5 JUMP JUMPDEST POP PUSH2 0x261 PUSH2 0x8CD JUMP JUMPDEST POP PUSH2 0x261 PUSH2 0x84D JUMP JUMPDEST POP PUSH2 0x261 PUSH2 0x6CC JUMP JUMPDEST POP PUSH2 0x261 PUSH2 0x43B JUMP JUMPDEST PUSH1 0x4 CALLDATALOAD SWAP1 PUSH8 0xFFFFFFFFFFFFFFFF DUP3 AND DUP3 SUB PUSH2 0x436 JUMPI JUMP JUMPDEST PUSH1 0x0 DUP1 REVERT JUMPDEST POP CALLVALUE PUSH2 0x436 JUMPI PUSH1 0x20 PUSH1 0x3 NOT CALLDATASIZE ADD SLT PUSH2 0x436 JUMPI PUSH8 0xFFFFFFFFFFFFFFFF PUSH2 0x45E PUSH2 0x41F JUMP JUMPDEST AND PUSH1 0x0 MSTORE PUSH1 0x1 PUSH1 0x20 MSTORE PUSH1 0x20 PUSH1 0x40 PUSH1 0x0 KECCAK256 SLOAD PUSH1 0x40 MLOAD SWAP1 DUP2 MSTORE RETURN JUMPDEST POP PUSH32 0x4E487B7100000000000000000000000000000000000000000000000000000000 PUSH1 0x0 MSTORE PUSH1 0x41 PUSH1 0x4 MSTORE PUSH1 0x24 PUSH1 0x0 REVERT JUMPDEST PUSH8 0xFFFFFFFFFFFFFFFF DUP2 GT PUSH2 0x4BB JUMPI PUSH1 0x40 MSTORE JUMP JUMPDEST PUSH2 0x4C3 PUSH2 0x477 JUMP JUMPDEST PUSH1 0x40 MSTORE JUMP JUMPDEST PUSH1 0x40 DUP2 ADD SWAP1 DUP2 LT PUSH8 0xFFFFFFFFFFFFFFFF DUP3 GT OR PUSH2 0x4BB JUMPI PUSH1 0x40 MSTORE JUMP JUMPDEST PUSH1 0x20 DUP2 ADD SWAP1 DUP2 LT PUSH8 0xFFFFFFFFFFFFFFFF DUP3 GT OR PUSH2 0x4BB JUMPI PUSH1 0x40 MSTORE JUMP JUMPDEST SWAP1 PUSH1 0x1F PUSH1 0x1F NOT SWAP2 ADD AND DUP2 ADD SWAP1 DUP2 LT PUSH8 0xFFFFFFFFFFFFFFFF DUP3 GT OR PUSH2 0x4BB JUMPI PUSH1 0x40 MSTORE JUMP JUMPDEST PUSH1 0x40 MLOAD SWAP1 PUSH1 0x60 DUP3 ADD DUP3 DUP2 LT PUSH8 0xFFFFFFFFFFFFFFFF DUP3 GT OR PUSH2 0x4BB JUMPI PUSH1 0x40 MSTORE JUMP JUMPDEST PUSH1 0x40 MLOAD SWAP1 PUSH2 0x550 DUP3 PUSH2 0x4C8 JUMP JUMPDEST JUMP JUMPDEST PUSH1 0x20 SWAP1 PUSH8 0xFFFFFFFFFFFFFFFF DUP2 GT PUSH2 0x56C JUMPI JUMPDEST PUSH1 0x5 SHL ADD SWAP1 JUMP JUMPDEST PUSH2 0x574 PUSH2 0x477 JUMP JUMPDEST PUSH2 0x565 JUMP JUMPDEST PUSH1 0x4 CALLDATALOAD SWAP1 PUSH4 0xFFFFFFFF DUP3 AND DUP3 SUB PUSH2 0x436 JUMPI JUMP JUMPDEST PUSH2 0x404 CALLDATALOAD SWAP1 PUSH4 0xFFFFFFFF DUP3 AND DUP3 SUB PUSH2 0x436 JUMPI JUMP JUMPDEST CALLDATALOAD SWAP1 PUSH4 0xFFFFFFFF DUP3 AND DUP3 SUB PUSH2 0x436 JUMPI JUMP JUMPDEST PUSH1 0x1 PUSH1 0x1 PUSH1 0xA0 SHL SUB DUP2 AND SUB PUSH2 0x436 JUMPI JUMP JUMPDEST DUP2 PUSH1 0x1F DUP3 ADD SLT ISZERO PUSH2 0x436 JUMPI DUP1 CALLDATALOAD SWAP2 PUSH2 0x5D9 DUP4 PUSH2 0x552 JUMP JUMPDEST SWAP3 PUSH2 0x5E7 PUSH1 0x40 MLOAD SWAP5 DUP6 PUSH2 0x500 JUMP JUMPDEST DUP1 DUP5 MSTORE PUSH1 0x20 SWAP3 DUP4 DUP1 DUP7 ADD SWAP3 PUSH1 0x5 SHL DUP3 ADD ADD SWAP3 DUP4 GT PUSH2 0x436 JUMPI DUP4 ADD SWAP1 JUMPDEST DUP3 DUP3 LT PUSH2 0x611 JUMPI POP POP POP POP SWAP1 JUMP JUMPDEST DUP4 DUP1 SWAP2 DUP4 CALLDATALOAD PUSH2 0x61F DUP2 PUSH2 0x5B1 JUMP JUMPDEST DUP2 MSTORE ADD SWAP2 ADD SWAP1 PUSH2 0x603 JUMP JUMPDEST SWAP1 PUSH1 0x40 PUSH1 0x3 NOT DUP4 ADD SLT PUSH2 0x436 JUMPI PUSH8 0xFFFFFFFFFFFFFFFF PUSH1 0x4 CALLDATALOAD DUP2 DUP2 GT PUSH2 0x436 JUMPI DUP4 PUSH1 0x23 DUP3 ADD SLT ISZERO PUSH2 0x436 JUMPI DUP1 PUSH1 0x4 ADD CALLDATALOAD PUSH2 0x663 DUP2 PUSH2 0x552 JUMP JUMPDEST SWAP2 PUSH2 0x671 PUSH1 0x40 MLOAD SWAP4 DUP5 PUSH2 0x500 JUMP JUMPDEST DUP2 DUP4 MSTORE PUSH1 0x20 SWAP2 PUSH1 0x24 DUP4 DUP6 ADD SWAP2 PUSH1 0x5 SHL DUP4 ADD ADD SWAP2 DUP8 DUP4 GT PUSH2 0x436 JUMPI PUSH1 0x24 ADD SWAP1 JUMPDEST DUP3 DUP3 LT PUSH2 0x6B5 JUMPI POP POP POP POP SWAP3 PUSH1 0x24 CALLDATALOAD SWAP2 DUP3 GT PUSH2 0x436 JUMPI PUSH2 0x6B2 SWAP2 PUSH1 0x4 ADD PUSH2 0x5C2 JUMP JUMPDEST SWAP1 JUMP JUMPDEST DUP4 DUP1 SWAP2 PUSH2 0x6C1 DUP5 PUSH2 0x5A0 JUMP JUMPDEST DUP2 MSTORE ADD SWAP2 ADD SWAP1 PUSH2 0x690 JUMP JUMPDEST POP CALLVALUE PUSH2 0x436 JUMPI PUSH2 0x6DB CALLDATASIZE PUSH2 0x62A JUMP JUMPDEST PUSH2 0x6E3 PUSH2 0x2173 JUMP JUMPDEST PUSH1 0x0 SWAP2 DUP3 JUMPDEST DUP2 MLOAD DUP2 LT ISZERO PUSH2 0x765 JUMPI DUP1 PUSH2 0x75B PUSH1 0x1 PUSH1 0x1 PUSH1 0xA0 SHL SUB PUSH2 0x70A PUSH2 0x760 SWAP5 DUP8 PUSH2 0x229A JUMP JUMPDEST MLOAD AND PUSH4 0xFFFFFFFF PUSH2 0x71B DUP5 DUP8 PUSH2 0x229A JUMP JUMPDEST MLOAD AND DUP8 MSTORE PUSH1 0x5 PUSH1 0x20 MSTORE PUSH1 0x40 DUP8 KECCAK256 SWAP1 PUSH1 0x1 PUSH1 0x1 PUSH1 0xA0 SHL SUB AND PUSH32 0xFFFFFFFFFFFFFFFFFFFFFFFF0000000000000000000000000000000000000000 DUP3 SLOAD AND OR SWAP1 SSTORE JUMP JUMPDEST PUSH2 0x224E JUMP JUMPDEST PUSH2 0x6E8 JUMP JUMPDEST DUP4 PUSH1 0x40 MLOAD RETURN JUMPDEST PUSH1 0x1F NOT PUSH1 0x1F PUSH1 0x20 SWAP3 PUSH8 0xFFFFFFFFFFFFFFFF DUP2 GT PUSH2 0x789 JUMPI JUMPDEST ADD AND ADD SWAP1 JUMP JUMPDEST PUSH2 0x791 PUSH2 0x477 JUMP JUMPDEST PUSH2 0x783 JUMP JUMPDEST SWAP3 SWAP2 SWAP3 PUSH2 0x7A2 DUP3 PUSH2 0x76B JUMP JUMPDEST SWAP2 PUSH2 0x7B0 PUSH1 0x40 MLOAD SWAP4 DUP5 PUSH2 0x500 JUMP JUMPDEST DUP3 SWAP5 DUP2 DUP5 MSTORE DUP2 DUP4 ADD GT PUSH2 0x436 JUMPI DUP3 DUP2 PUSH1 0x20 SWAP4 DUP5 PUSH1 0x0 SWAP7 ADD CALLDATACOPY ADD ADD MSTORE JUMP JUMPDEST SWAP3 SWAP2 SWAP1 SWAP3 PUSH2 0x7DA DUP5 PUSH2 0x552 JUMP JUMPDEST SWAP2 PUSH2 0x7E8 PUSH1 0x40 MLOAD SWAP4 DUP5 PUSH2 0x500 JUMP JUMPDEST DUP3 SWAP5 DUP1 DUP5 MSTORE PUSH1 0x20 DUP1 SWAP5 ADD SWAP1 PUSH1 0x5 SHL DUP4 ADD SWAP3 DUP3 DUP5 GT PUSH2 0x436 JUMPI DUP1 SWAP2 JUMPDEST DUP5 DUP4 LT PUSH2 0x812 JUMPI POP POP POP POP POP POP JUMP JUMPDEST DUP3 CALLDATALOAD PUSH8 0xFFFFFFFFFFFFFFFF DUP2 GT PUSH2 0x436 JUMPI DUP3 ADD DUP5 PUSH1 0x1F DUP3 ADD SLT ISZERO PUSH2 0x436 JUMPI DUP7 SWAP2 PUSH2 0x842 DUP7 DUP4 DUP6 DUP1 SWAP6 CALLDATALOAD SWAP2 ADD PUSH2 0x796 JUMP JUMPDEST DUP2 MSTORE ADD SWAP3 ADD SWAP2 PUSH2 0x803 JUMP JUMPDEST POP CALLVALUE PUSH2 0x436 JUMPI PUSH1 0xE0 PUSH1 0x3 NOT CALLDATASIZE ADD SLT PUSH2 0x436 JUMPI PUSH1 0x4 CALLDATALOAD PUSH2 0x86B DUP2 PUSH2 0x5B1 JUMP JUMPDEST PUSH1 0x84 CALLDATALOAD SWAP1 PUSH8 0xFFFFFFFFFFFFFFFF DUP3 GT PUSH2 0x436 JUMPI CALLDATASIZE PUSH1 0x23 DUP4 ADD SLT ISZERO PUSH2 0x436 JUMPI PUSH2 0x8A0 PUSH2 0x21 SWAP3 CALLDATASIZE SWAP1 PUSH1 0x24 DUP2 PUSH1 0x4 ADD CALLDATALOAD SWAP2 ADD PUSH2 0x7CD JUMP JUMPDEST PUSH1 0xA4 CALLDATALOAD SWAP1 PUSH2 0x8AD DUP3 PUSH2 0x5B1 JUMP JUMPDEST PUSH1 0xC4 CALLDATALOAD SWAP3 PUSH1 0x64 CALLDATALOAD SWAP1 PUSH1 0x44 CALLDATALOAD SWAP1 PUSH1 0x24 CALLDATALOAD SWAP1 PUSH2 0x22BC JUMP JUMPDEST PUSH1 0x0 SWAP2 SUB SLT PUSH2 0x436 JUMPI JUMP JUMPDEST POP CALLVALUE PUSH2 0x436 JUMPI PUSH1 0x0 PUSH1 0x3 NOT CALLDATASIZE ADD SLT PUSH2 0x436 JUMPI PUSH1 0x20 PUSH1 0x1 PUSH1 0x1 PUSH1 0xA0 SHL SUB PUSH1 0x3E SLOAD AND PUSH1 0x40 MLOAD SWAP1 DUP2 MSTORE RETURN JUMPDEST POP CALLVALUE PUSH2 0x436 JUMPI PUSH1 0x20 PUSH1 0x3 NOT CALLDATASIZE ADD SLT PUSH2 0x436 JUMPI PUSH1 0x0 PUSH4 0xFFFFFFFF PUSH2 0x916 PUSH2 0x579 JUMP JUMPDEST PUSH2 0x91E PUSH2 0x2173 JUMP JUMPDEST AND DUP1 DUP3 MSTORE PUSH1 0x6 PUSH1 0x20 MSTORE PUSH1 0x40 DUP3 KECCAK256 PUSH1 0xFF NOT DUP2 SLOAD AND SWAP1 SSTORE PUSH1 0x40 MLOAD SWAP1 PUSH32 0x9FD67BD682613B07687B42F99D8B24402D09FEABB75DF93ABDB26B8FCF984583 DUP4 DUP4 LOG2 RETURN JUMPDEST POP CALLVALUE PUSH2 0x436 JUMPI PUSH1 0x0 PUSH1 0x3 NOT CALLDATASIZE ADD SLT PUSH2 0x436 JUMPI PUSH1 0x20 PUSH1 0x36 SLOAD PUSH1 0x40 MLOAD SWAP1 DUP2 MSTORE RETURN JUMPDEST POP PUSH32 0x4E487B7100000000000000000000000000000000000000000000000000000000 PUSH1 0x0 MSTORE PUSH1 0x32 PUSH1 0x4 MSTORE PUSH1 0x24 PUSH1 0x0 REVERT JUMPDEST SWAP1 PUSH1 0x1 DUP3 DUP2 SHR SWAP3 AND DUP1 ISZERO PUSH2 0x9F5 JUMPI JUMPDEST PUSH1 0x20 DUP4 LT EQ PUSH2 0x9C6 JUMPI JUMP JUMPDEST PUSH32 0x4E487B7100000000000000000000000000000000000000000000000000000000 PUSH1 0x0 MSTORE PUSH1 0x22 PUSH1 0x4 MSTORE PUSH1 0x24 PUSH1 0x0 REVERT JUMPDEST SWAP2 PUSH1 0x7F AND SWAP2 PUSH2 0x9BB JUMP JUMPDEST SWAP1 PUSH1 0x0 SWAP3 SWAP2 DUP1 SLOAD SWAP2 PUSH2 0xA10 DUP4 PUSH2 0x9AC JUMP JUMPDEST SWAP2 DUP3 DUP3 MSTORE PUSH1 0x1 SWAP4 DUP5 DUP2 AND SWAP1 DUP2 PUSH1 0x0 EQ PUSH2 0xA72 JUMPI POP PUSH1 0x1 EQ PUSH2 0xA32 JUMPI JUMPDEST POP POP POP POP JUMP JUMPDEST SWAP1 SWAP2 SWAP4 SWAP5 POP PUSH1 0x0 MSTORE PUSH1 0x20 SWAP3 DUP4 PUSH1 0x0 KECCAK256 SWAP3 DUP5 PUSH1 0x0 SWAP5 JUMPDEST DUP4 DUP7 LT PUSH2 0xA5E JUMPI POP POP POP POP ADD ADD SWAP1 CODESIZE DUP1 DUP1 DUP1 PUSH2 0xA2C JUMP JUMPDEST DUP1 SLOAD DUP6 DUP8 ADD DUP4 ADD MSTORE SWAP5 ADD SWAP4 DUP6 SWAP1 DUP3 ADD PUSH2 0xA47 JUMP JUMPDEST SWAP2 POP POP PUSH1 0x20 SWAP5 SWAP6 POP PUSH1 0xFF NOT SWAP2 SWAP4 POP AND DUP4 DUP4 ADD MSTORE ISZERO ISZERO PUSH1 0x5 SHL ADD ADD SWAP1 CODESIZE DUP1 DUP1 DUP1 PUSH2 0xA2C JUMP JUMPDEST PUSH1 0x0 JUMPDEST DUP4 DUP2 LT PUSH2 0xAA9 JUMPI POP POP PUSH1 0x0 SWAP2 ADD MSTORE JUMP JUMPDEST DUP2 DUP2 ADD MLOAD DUP4 DUP3 ADD MSTORE PUSH1 0x20 ADD PUSH2 0xA99 JUMP JUMPDEST SWAP1 PUSH1 0x1F NOT PUSH1 0x1F PUSH1 0x20 SWAP4 PUSH2 0xAD7 DUP2 MLOAD DUP1 SWAP3 DUP2 DUP8 MSTORE DUP8 DUP1 DUP9 ADD SWAP2 ADD PUSH2 0xA96 JUMP JUMPDEST ADD AND ADD ADD SWAP1 JUMP JUMPDEST SWAP1 PUSH1 0x20 PUSH2 0x6B2 SWAP3 DUP2 DUP2 MSTORE ADD SWAP1 PUSH2 0xAB9 JUMP JUMPDEST POP CALLVALUE PUSH2 0x436 JUMPI PUSH1 0x20 PUSH1 0x3 NOT CALLDATASIZE ADD SLT PUSH2 0x436 JUMPI PUSH1 0x4 CALLDATALOAD PUSH1 0x37 SLOAD DUP2 LT ISZERO PUSH2 0x436 JUMPI PUSH2 0xB4B PUSH2 0xB52 PUSH2 0xB66 SWAP3 PUSH1 0x37 PUSH1 0x0 MSTORE PUSH1 0x40 MLOAD SWAP3 DUP4 DUP1 SWAP3 PUSH32 0x42A7B7DD785CD69714A189DFFB3FD7D7174EDC9ECE837694CE50F7078F7C31AE ADD PUSH2 0x9FF JUMP JUMPDEST SUB DUP3 PUSH2 0x500 JUMP JUMPDEST PUSH1 0x40 MLOAD SWAP2 DUP3 SWAP2 PUSH1 0x20 DUP4 MSTORE PUSH1 0x20 DUP4 ADD SWAP1 PUSH2 0xAB9 JUMP JUMPDEST SUB SWAP1 RETURN JUMPDEST POP CALLVALUE PUSH2 0x436 JUMPI PUSH1 0x40 PUSH1 0x3 NOT CALLDATASIZE ADD SLT PUSH2 0x436 JUMPI PUSH1 0x4 CALLDATALOAD PUSH2 0xB88 DUP2 PUSH2 0x5B1 JUMP JUMPDEST PUSH1 0x24 CALLDATALOAD PUSH2 0xB94 DUP2 PUSH2 0x5B1 JUMP JUMPDEST PUSH2 0xB9C PUSH2 0x2173 JUMP JUMPDEST PUSH1 0x1 PUSH1 0x1 PUSH1 0xA0 SHL SUB SWAP1 DUP2 PUSH32 0xFFFFFFFFFFFFFFFFFFFFFFFF0000000000000000000000000000000000000000 SWAP4 AND DUP4 PUSH1 0x3E SLOAD AND OR PUSH1 0x3E SSTORE AND SWAP1 PUSH1 0x3F SLOAD AND OR PUSH1 0x3F SSTORE PUSH1 0x0 PUSH1 0x40 MLOAD RETURN JUMPDEST POP CALLVALUE PUSH2 0x436 JUMPI PUSH1 0x0 PUSH1 0x3 NOT CALLDATASIZE ADD SLT PUSH2 0x436 JUMPI PUSH1 0x20 PUSH1 0x1 PUSH1 0x1 PUSH1 0xA0 SHL SUB PUSH1 0x3B SLOAD AND PUSH1 0x40 MLOAD SWAP1 DUP2 MSTORE RETURN JUMPDEST POP CALLVALUE PUSH2 0x436 JUMPI PUSH1 0x0 PUSH1 0x3 NOT CALLDATASIZE ADD SLT PUSH2 0x436 JUMPI PUSH1 0x20 PUSH1 0x1 PUSH1 0x1 PUSH1 0xA0 SHL SUB PUSH1 0x3F SLOAD AND PUSH1 0x40 MLOAD SWAP1 DUP2 MSTORE RETURN JUMPDEST POP CALLVALUE PUSH2 0x436 JUMPI PUSH1 0x0 PUSH1 0x3 NOT CALLDATASIZE ADD SLT PUSH2 0x436 JUMPI PUSH1 0x20 PUSH1 0x1 PUSH1 0x1 PUSH1 0xA0 SHL SUB PUSH1 0x38 SLOAD AND PUSH1 0x40 MLOAD SWAP1 DUP2 MSTORE RETURN JUMPDEST POP CALLVALUE PUSH2 0x436 JUMPI PUSH2 0xC6A CALLDATASIZE PUSH2 0x62A JUMP JUMPDEST PUSH2 0xC72 PUSH2 0x2173 JUMP JUMPDEST PUSH1 0x0 SWAP2 DUP3 JUMPDEST DUP2 MLOAD DUP2 LT ISZERO PUSH2 0x765 JUMPI DUP1 PUSH2 0x75B PUSH1 0x1 PUSH1 0x1 PUSH1 0xA0 SHL SUB PUSH2 0xC99 PUSH2 0xCEA SWAP5 DUP8 PUSH2 0x229A JUMP JUMPDEST MLOAD AND PUSH4 0xFFFFFFFF PUSH2 0xCAA DUP5 DUP8 PUSH2 0x229A JUMP JUMPDEST MLOAD AND DUP8 MSTORE PUSH1 0x4 PUSH1 0x20 MSTORE PUSH1 0x40 DUP8 KECCAK256 SWAP1 PUSH1 0x1 PUSH1 0x1 PUSH1 0xA0 SHL SUB AND PUSH32 0xFFFFFFFFFFFFFFFFFFFFFFFF0000000000000000000000000000000000000000 DUP3 SLOAD AND OR SWAP1 SSTORE JUMP JUMPDEST PUSH2 0xC77 JUMP JUMPDEST POP CALLVALUE PUSH2 0x436 JUMPI PUSH1 0x80 PUSH1 0x3 NOT CALLDATASIZE ADD SLT PUSH2 0x436 JUMPI PUSH1 0x4 CALLDATALOAD PUSH2 0xD0D DUP2 PUSH2 0x5B1 JUMP JUMPDEST PUSH1 0x24 CALLDATALOAD PUSH2 0xD19 DUP2 PUSH2 0x5B1 JUMP JUMPDEST PUSH1 0x64 CALLDATALOAD PUSH2 0xD25 DUP2 PUSH2 0x5B1 JUMP JUMPDEST PUSH2 0xD2D PUSH2 0x2173 JUMP JUMPDEST PUSH1 0x1 PUSH1 0x1 PUSH1 0xA0 SHL SUB DUP1 SWAP3 DUP2 PUSH32 0xFFFFFFFFFFFFFFFFFFFFFFFF0000000000000000000000000000000000000000 SWAP6 AND DUP6 PUSH1 0x3A SLOAD AND OR PUSH1 0x3A SSTORE AND DUP4 PUSH1 0x3B SLOAD AND OR PUSH1 0x3B SSTORE PUSH1 0x44 CALLDATALOAD PUSH1 0x3C SSTORE AND SWAP1 PUSH1 0x3D SLOAD AND OR PUSH1 0x3D SSTORE PUSH1 0x0 PUSH1 0x40 MLOAD RETURN JUMPDEST POP CALLVALUE PUSH2 0x436 JUMPI PUSH1 0x20 PUSH1 0x3 NOT CALLDATASIZE ADD SLT PUSH2 0x436 JUMPI PUSH4 0xFFFFFFFF PUSH2 0xDA4 PUSH2 0x579 JUMP JUMPDEST AND PUSH1 0x0 MSTORE PUSH1 0x6 PUSH1 0x20 MSTORE PUSH1 0x20 PUSH1 0xFF PUSH1 0x40 PUSH1 0x0 KECCAK256 SLOAD AND PUSH1 0x40 MLOAD SWAP1 ISZERO ISZERO DUP2 MSTORE RETURN JUMPDEST POP PUSH32 0x4E487B7100000000000000000000000000000000000000000000000000000000 PUSH1 0x0 MSTORE PUSH1 0x21 PUSH1 0x4 MSTORE PUSH1 0x24 PUSH1 0x0 REVERT JUMPDEST PUSH1 0x3 GT ISZERO PUSH2 0xDFC JUMPI JUMP JUMPDEST PUSH2 0x550 PUSH2 0xDC2 JUMP JUMPDEST POP CALLVALUE PUSH2 0x436 JUMPI PUSH1 0x20 PUSH1 0x3 NOT CALLDATASIZE ADD SLT PUSH2 0x436 JUMPI PUSH1 0x4 CALLDATALOAD PUSH1 0x0 MSTORE PUSH1 0x7 PUSH1 0x20 MSTORE PUSH1 0x20 PUSH1 0xFF PUSH1 0x40 PUSH1 0x0 KECCAK256 SLOAD AND PUSH1 0x40 MLOAD SWAP1 PUSH1 0x3 DUP2 LT ISZERO PUSH2 0xE3D JUMPI DUP2 MSTORE RETURN JUMPDEST PUSH2 0xE45 PUSH2 0xDC2 JUMP JUMPDEST DUP2 MSTORE RETURN JUMPDEST POP CALLVALUE PUSH2 0x436 JUMPI PUSH1 0x0 PUSH1 0x3 NOT CALLDATASIZE ADD SLT PUSH2 0x436 JUMPI PUSH1 0x20 PUSH1 0xFF PUSH1 0x0 SLOAD AND PUSH1 0x40 MLOAD SWAP1 ISZERO ISZERO DUP2 MSTORE RETURN JUMPDEST POP CALLVALUE PUSH2 0x436 JUMPI PUSH1 0x0 PUSH1 0x3 NOT CALLDATASIZE ADD SLT PUSH2 0x436 JUMPI PUSH1 0x20 PUSH1 0x39 SLOAD PUSH1 0x40 MLOAD SWAP1 DUP2 MSTORE RETURN JUMPDEST POP CALLVALUE PUSH2 0x436 JUMPI PUSH1 0x0 PUSH1 0x3 NOT CALLDATASIZE ADD SLT PUSH2 0x436 JUMPI PUSH1 0x20 PUSH1 0x3 SLOAD PUSH1 0x40 MLOAD SWAP1 DUP2 MSTORE RETURN JUMPDEST POP CALLVALUE PUSH2 0x436 JUMPI PUSH1 0x0 PUSH1 0x3 NOT CALLDATASIZE ADD SLT PUSH2 0x436 JUMPI PUSH1 0x20 PUSH1 0x1 PUSH1 0x1 PUSH1 0xA0 SHL SUB PUSH1 0x3A SLOAD AND PUSH1 0x40 MLOAD SWAP1 DUP2 MSTORE RETURN JUMPDEST POP CALLVALUE PUSH2 0x436 JUMPI PUSH1 0x0 PUSH1 0x3 NOT CALLDATASIZE ADD SLT PUSH2 0x436 JUMPI PUSH1 0x20 PUSH1 0xFF PUSH1 0x8 SLOAD AND PUSH1 0x40 MLOAD SWAP1 DUP2 MSTORE RETURN JUMPDEST POP CALLVALUE PUSH2 0x436 JUMPI PUSH1 0x20 PUSH1 0x3 NOT CALLDATASIZE ADD SLT PUSH2 0x436 JUMPI PUSH4 0xFFFFFFFF PUSH2 0xF14 PUSH2 0x579 JUMP JUMPDEST AND PUSH1 0x0 MSTORE PUSH1 0x5 PUSH1 0x20 MSTORE PUSH1 0x20 PUSH1 0x1 PUSH1 0x1 PUSH1 0xA0 SHL SUB PUSH1 0x40 PUSH1 0x0 KECCAK256 SLOAD AND PUSH1 0x40 MLOAD SWAP1 DUP2 MSTORE RETURN JUMPDEST POP CALLVALUE PUSH2 0x436 JUMPI PUSH1 0x0 PUSH1 0x3 NOT CALLDATASIZE ADD SLT PUSH2 0x436 JUMPI PUSH1 0x20 PUSH1 0x1 PUSH1 0x1 PUSH1 0xA0 SHL SUB PUSH1 0x3D SLOAD AND PUSH1 0x40 MLOAD SWAP1 DUP2 MSTORE RETURN JUMPDEST SWAP2 DUP2 PUSH1 0x1F DUP5 ADD SLT ISZERO PUSH2 0x436 JUMPI DUP3 CALLDATALOAD SWAP2 PUSH8 0xFFFFFFFFFFFFFFFF DUP4 GT PUSH2 0x436 JUMPI PUSH1 0x20 DUP4 DUP2 DUP7 ADD SWAP6 ADD ADD GT PUSH2 0x436 JUMPI JUMP JUMPDEST POP CALLVALUE PUSH2 0x436 JUMPI PUSH2 0x460 PUSH1 0x3 NOT CALLDATASIZE ADD SLT PUSH2 0x436 JUMPI CALLDATASIZE PUSH2 0x404 GT PUSH2 0x436 JUMPI PUSH2 0xFB0 PUSH2 0x58C JUMP JUMPDEST PUSH2 0x444 CALLDATALOAD SWAP1 PUSH8 0xFFFFFFFFFFFFFFFF DUP3 GT PUSH2 0x436 JUMPI PUSH1 0x20 PUSH2 0x11A7 PUSH2 0xFDA PUSH2 0x11AD SWAP5 CALLDATASIZE SWAP1 PUSH1 0x4 ADD PUSH2 0xF5E JUMP JUMPDEST PUSH2 0xFE2 PUSH2 0x265F JUMP JUMPDEST PUSH2 0x1011 PUSH2 0x100C PUSH2 0x1005 CALLER PUSH1 0x1 PUSH1 0x1 PUSH1 0xA0 SHL SUB AND PUSH1 0x0 MSTORE PUSH1 0x32 PUSH1 0x20 MSTORE PUSH1 0x40 PUSH1 0x0 KECCAK256 SWAP1 JUMP JUMPDEST SLOAD PUSH1 0xFF AND SWAP1 JUMP JUMPDEST PUSH2 0x26B4 JUMP JUMPDEST PUSH2 0x11A0 PUSH2 0x1185 PUSH2 0x1021 DUP4 DUP6 PUSH2 0x2C5B JUMP JUMPDEST SWAP7 SWAP1 SWAP8 PUSH1 0x0 DUP1 DUP2 SWAP1 PUSH1 0x5 CHAINID EQ PUSH2 0x1221 JUMPI JUMPDEST DUP12 PUSH2 0x5A2 CHAINID EQ PUSH2 0x11F2 JUMPI JUMPDEST PUSH2 0x107A PUSH2 0x106D PUSH2 0x1057 PUSH1 0x40 PUSH2 0x113D SWAP5 ADD MLOAD PUSH4 0xFFFFFFFF AND SWAP1 JUMP JUMPDEST PUSH4 0xFFFFFFFF AND PUSH1 0x0 MSTORE PUSH1 0x5 PUSH1 0x20 MSTORE PUSH1 0x40 PUSH1 0x0 KECCAK256 SWAP1 JUMP JUMPDEST SLOAD PUSH1 0x1 PUSH1 0x1 PUSH1 0xA0 SHL SUB AND SWAP1 JUMP JUMPDEST SWAP3 PUSH2 0x112F DUP14 PUSH1 0x40 MLOAD SWAP5 DUP6 SWAP4 DUP11 DUP6 ADD SWAP8 ADDRESS SWAP3 DUP10 SWAP4 SWAP1 PUSH1 0x71 SWAP6 SWAP4 PUSH32 0x100000000000000000000000000000000000000000000000000000000000000 DUP7 MSTORE PUSH32 0xFFFFFFFF00000000000000000000000000000000000000000000000000000000 DUP1 SWAP3 PUSH1 0xE0 SHL AND PUSH1 0x1 DUP8 ADD MSTORE PUSH32 0xFFFFFFFFFFFFFFFFFFFFFFFFFFFFFFFFFFFFFFFF000000000000000000000000 DUP1 SWAP5 PUSH1 0x60 SHL AND PUSH1 0x5 DUP8 ADD MSTORE PUSH1 0xE0 SHL AND PUSH1 0x19 DUP6 ADD MSTORE PUSH1 0x60 SHL AND PUSH1 0x1D DUP4 ADD MSTORE PUSH1 0x0 PUSH1 0x31 DUP4 ADD MSTORE PUSH1 0x51 DUP3 ADD MSTORE ADD SWAP1 JUMP JUMPDEST SUB PUSH1 0x1F NOT DUP2 ADD DUP4 MSTORE DUP3 PUSH2 0x500 JUMP JUMPDEST MLOAD SWAP1 KECCAK256 SWAP2 PUSH1 0x0 PUSH1 0x1 PUSH1 0x1 PUSH1 0xA0 SHL SUB PUSH1 0x40 MLOAD DUP1 SWAP8 DUP2 SWAP7 DUP3 SWAP6 PUSH32 0xFB57083400000000000000000000000000000000000000000000000000000000 DUP5 MSTORE PUSH2 0x424 CALLDATALOAD SWAP2 PUSH1 0x4 DUP6 ADD PUSH2 0x29A3 JUMP JUMPDEST SUB SWAP4 AND GAS CALL SWAP1 DUP2 ISZERO PUSH2 0x11E5 JUMPI JUMPDEST PUSH1 0x0 SWAP2 PUSH2 0x11B7 JUMPI JUMPDEST POP PUSH2 0x289A JUMP JUMPDEST CALLDATASIZE SWAP2 PUSH2 0x796 JUMP JUMPDEST SWAP2 PUSH2 0x2A4F JUMP JUMPDEST PUSH2 0x21 PUSH1 0x1 PUSH1 0x40 SSTORE JUMP JUMPDEST PUSH2 0x11D8 SWAP2 POP PUSH1 0x20 RETURNDATASIZE DUP2 GT PUSH2 0x11DE JUMPI JUMPDEST PUSH2 0x11D0 DUP2 DUP4 PUSH2 0x500 JUMP JUMPDEST DUP2 ADD SWAP1 PUSH2 0x27FB JUMP JUMPDEST CODESIZE PUSH2 0x119A JUMP JUMPDEST POP RETURNDATASIZE PUSH2 0x11C6 JUMP JUMPDEST PUSH2 0x11ED PUSH2 0x2607 JUMP JUMPDEST PUSH2 0x1192 JUMP JUMPDEST POP POP POP POP PUSH2 0x1217 PUSH2 0x120B PUSH1 0x3F SLOAD PUSH1 0x1 PUSH1 0x1 PUSH1 0xA0 SHL SUB AND SWAP1 JUMP JUMPDEST PUSH1 0x1 PUSH1 0x1 PUSH1 0xA0 SHL SUB AND SWAP1 JUMP JUMPDEST PUSH1 0x1 PUSH1 0x0 DUP12 PUSH2 0x103D JUMP JUMPDEST POP POP POP PUSH2 0x1239 PUSH2 0x120B PUSH1 0x3E SLOAD PUSH1 0x1 PUSH1 0x1 PUSH1 0xA0 SHL SUB AND SWAP1 JUMP JUMPDEST PUSH1 0x0 PUSH1 0x1 PUSH2 0x1032 JUMP JUMPDEST POP CALLVALUE PUSH2 0x436 JUMPI PUSH1 0x0 PUSH1 0x3 NOT CALLDATASIZE ADD SLT PUSH2 0x436 JUMPI PUSH1 0x20 PUSH1 0x34 SLOAD PUSH1 0x40 MLOAD SWAP1 DUP2 MSTORE RETURN JUMPDEST POP CALLVALUE PUSH2 0x436 JUMPI PUSH1 0x0 DUP1 PUSH1 0x3 NOT CALLDATASIZE ADD SLT PUSH2 0x12EC JUMPI PUSH2 0x127C PUSH2 0x2173 JUMP JUMPDEST DUP1 JUMPDEST PUSH1 0x3 SWAP1 DUP2 SLOAD PUSH4 0xFFFFFFFF SWAP1 DUP2 DUP4 AND LT ISZERO PUSH2 0x12C2 JUMPI PUSH2 0x12BD SWAP3 PUSH2 0x129F DUP4 PUSH2 0x1AE9 JUMP JUMPDEST SWAP1 SLOAD SWAP2 SHL SHR AND DUP4 MSTORE PUSH1 0x6 PUSH1 0x20 MSTORE PUSH1 0x40 DUP4 KECCAK256 PUSH1 0xFF NOT DUP2 SLOAD AND SWAP1 SSTORE PUSH2 0x222C JUMP JUMPDEST PUSH2 0x127E JUMP JUMPDEST DUP4 PUSH1 0x40 MLOAD PUSH32 0xE6FDBF73945DD61794A752B9181EA29F77170A7B1FFD37E0A7FF9D2C6F7258B9 DUP3 DUP3 LOG1 RETURN JUMPDEST DUP1 REVERT JUMPDEST POP CALLVALUE PUSH2 0x436 JUMPI PUSH1 0x60 PUSH1 0x3 NOT CALLDATASIZE ADD SLT PUSH2 0x436 JUMPI PUSH2 0x1309 PUSH2 0x579 JUMP JUMPDEST PUSH1 0x24 CALLDATALOAD SWAP1 PUSH2 0x1316 DUP3 PUSH2 0x5B1 JUMP JUMPDEST PUSH1 0x44 CALLDATALOAD PUSH8 0xFFFFFFFFFFFFFFFF DUP2 GT PUSH2 0x436 JUMPI PUSH2 0x1336 SWAP1 CALLDATASIZE SWAP1 PUSH1 0x4 ADD PUSH2 0xF5E JUMP JUMPDEST SWAP1 PUSH1 0xFF PUSH1 0x0 SLOAD AND ISZERO PUSH2 0x1356 JUMPI PUSH1 0x20 SWAP4 PUSH2 0x134E SWAP4 PUSH2 0x2F69 JUMP JUMPDEST PUSH1 0x40 MLOAD SWAP1 DUP2 MSTORE RETURN JUMPDEST PUSH1 0x4 PUSH1 0x40 MLOAD PUSH32 0x29256C5E00000000000000000000000000000000000000000000000000000000 DUP2 MSTORE REVERT JUMPDEST SWAP2 DUP2 PUSH1 0x1F DUP5 ADD SLT ISZERO PUSH2 0x436 JUMPI DUP3 CALLDATALOAD SWAP2 PUSH8 0xFFFFFFFFFFFFFFFF DUP4 GT PUSH2 0x436 JUMPI PUSH1 0x20 DUP1 DUP6 ADD SWAP5 DUP5 PUSH1 0x5 SHL ADD ADD GT PUSH2 0x436 JUMPI JUMP JUMPDEST POP CALLVALUE PUSH2 0x436 JUMPI PUSH1 0xC0 PUSH1 0x3 NOT CALLDATASIZE ADD SLT PUSH2 0x436 JUMPI PUSH1 0x4 CALLDATALOAD PUSH2 0x13CF DUP2 PUSH2 0x5B1 JUMP JUMPDEST PUSH1 0x64 CALLDATALOAD PUSH2 0xFFFF DUP2 AND DUP2 SUB PUSH2 0x436 JUMPI PUSH8 0xFFFFFFFFFFFFFFFF SWAP2 PUSH1 0x84 CALLDATALOAD DUP4 DUP2 GT PUSH2 0x436 JUMPI PUSH2 0x13FF SWAP1 CALLDATASIZE SWAP1 PUSH1 0x4 ADD PUSH2 0xF5E JUMP JUMPDEST SWAP1 PUSH1 0xA4 CALLDATALOAD SWAP5 DUP6 GT PUSH2 0x436 JUMPI PUSH2 0x141B PUSH2 0x21 SWAP6 CALLDATASIZE SWAP1 PUSH1 0x4 ADD PUSH2 0x1380 JUMP JUMPDEST SWAP5 SWAP1 SWAP4 PUSH1 0x44 CALLDATALOAD SWAP1 PUSH1 0x24 CALLDATALOAD SWAP1 PUSH2 0x26FF JUMP JUMPDEST POP CALLVALUE PUSH2 0x436 JUMPI PUSH1 0x0 DUP1 PUSH1 0x3 NOT CALLDATASIZE ADD SLT PUSH2 0x12EC JUMPI PUSH2 0x1446 PUSH2 0x2173 JUMP JUMPDEST PUSH1 0x41 SLOAD PUSH32 0xFFFFFFFFFFFFFFFFFFFFFFFF0000000000000000000000000000000000000000 DUP2 AND PUSH1 0x41 SSTORE DUP2 PUSH1 0x1 PUSH1 0x1 PUSH1 0xA0 SHL SUB PUSH1 0x40 MLOAD SWAP3 AND PUSH32 0x8BE0079C531659141344CD1FD0A4F28419497F9722A3DAAFE3B4186F6B6457E0 DUP3 DUP5 LOG3 RETURN JUMPDEST POP CALLVALUE PUSH2 0x436 JUMPI PUSH1 0x20 PUSH1 0x3 NOT CALLDATASIZE ADD SLT PUSH2 0x436 JUMPI PUSH4 0xFFFFFFFF PUSH2 0x14C2 PUSH2 0x579 JUMP JUMPDEST AND PUSH1 0x0 MSTORE PUSH1 0x4 PUSH1 0x20 MSTORE PUSH1 0x20 PUSH1 0x1 PUSH1 0x1 PUSH1 0xA0 SHL SUB PUSH1 0x40 PUSH1 0x0 KECCAK256 SLOAD AND PUSH1 0x40 MLOAD SWAP1 DUP2 MSTORE RETURN JUMPDEST DUP1 ISZERO ISZERO SUB PUSH2 0x436 JUMPI JUMP JUMPDEST POP CALLVALUE PUSH2 0x436 JUMPI PUSH1 0x20 PUSH1 0x3 NOT CALLDATASIZE ADD SLT PUSH2 0x436 JUMPI PUSH1 0x4 CALLDATALOAD PUSH2 0x150C DUP2 PUSH2 0x14E4 JUMP JUMPDEST PUSH2 0x1514 PUSH2 0x2173 JUMP JUMPDEST PUSH32 0xFFFFFFFFFFFFFFFFFFFFFFFFFFFFFFFFFFFFFFFFFFFFFFFFFFFFFFFFFFFF00FF PUSH2 0xFF00 PUSH1 0x0 SLOAD SWAP3 ISZERO ISZERO PUSH1 0x8 SHL AND SWAP2 AND OR PUSH1 0x0 SSTORE PUSH1 0x0 PUSH1 0x40 MLOAD RETURN JUMPDEST POP CALLVALUE PUSH2 0x436 JUMPI PUSH1 0x20 PUSH1 0x3 NOT CALLDATASIZE ADD SLT PUSH2 0x436 JUMPI PUSH1 0x1 PUSH1 0x1 PUSH1 0xA0 SHL SUB PUSH1 0x4 CALLDATALOAD PUSH2 0x1575 DUP2 PUSH2 0x5B1 JUMP JUMPDEST AND PUSH1 0x0 MSTORE PUSH1 0x32 PUSH1 0x20 MSTORE PUSH1 0x20 PUSH1 0xFF PUSH1 0x40 PUSH1 0x0 KECCAK256 SLOAD AND PUSH1 0x40 MLOAD SWAP1 ISZERO ISZERO DUP2 MSTORE RETURN JUMPDEST POP CALLVALUE PUSH2 0x436 JUMPI PUSH1 0x20 PUSH1 0x3 NOT CALLDATASIZE ADD SLT PUSH2 0x436 JUMPI PUSH1 0x4 CALLDATALOAD PUSH1 0x0 MSTORE PUSH1 0x9 PUSH1 0x20 MSTORE PUSH1 0x20 PUSH1 0x40 PUSH1 0x0 KECCAK256 SLOAD PUSH1 0x40 MLOAD SWAP1 DUP2 MSTORE RETURN JUMPDEST POP CALLVALUE PUSH2 0x436 JUMPI PUSH1 0x0 PUSH1 0x3 NOT CALLDATASIZE ADD SLT PUSH2 0x436 JUMPI PUSH1 0x20 PUSH1 0x1 PUSH1 0x1 PUSH1 0xA0 SHL SUB PUSH1 0x41 SLOAD AND PUSH1 0x40 MLOAD SWAP1 DUP2 MSTORE RETURN JUMPDEST POP CALLVALUE PUSH2 0x436 JUMPI PUSH1 0x0 PUSH1 0x3 NOT CALLDATASIZE ADD SLT PUSH2 0x436 JUMPI PUSH1 0x20 PUSH1 0x1 PUSH1 0x1 PUSH1 0xA0 SHL SUB PUSH1 0x33 SLOAD AND PUSH1 0x40 MLOAD SWAP1 DUP2 MSTORE RETURN JUMPDEST POP CALLVALUE PUSH2 0x436 JUMPI PUSH1 0x80 PUSH1 0x3 NOT CALLDATASIZE ADD SLT PUSH2 0x436 JUMPI PUSH2 0x162A PUSH2 0x41F JUMP JUMPDEST PUSH8 0xFFFFFFFFFFFFFFFF SWAP1 PUSH1 0x24 CALLDATALOAD DUP3 DUP2 GT PUSH2 0x436 JUMPI PUSH2 0x164C SWAP1 CALLDATASIZE SWAP1 PUSH1 0x4 ADD PUSH2 0xF5E JUMP JUMPDEST SWAP3 SWAP1 PUSH1 0x44 CALLDATALOAD DUP3 DUP2 GT PUSH2 0x436 JUMPI PUSH2 0x1666 SWAP1 CALLDATASIZE SWAP1 PUSH1 0x4 ADD PUSH2 0x1380 JUMP JUMPDEST SWAP5 SWAP1 PUSH1 0x64 CALLDATALOAD SWAP4 DUP5 GT PUSH2 0x436 JUMPI PUSH2 0x1683 PUSH2 0x1908 SWAP5 CALLDATASIZE SWAP1 PUSH1 0x4 ADD PUSH2 0x1380 JUMP JUMPDEST PUSH2 0x168E SWAP6 SWAP2 SWAP6 PUSH2 0x265F JUMP JUMPDEST PUSH2 0x1698 DUP5 DUP7 PUSH2 0x2C5B JUMP JUMPDEST SWAP7 DUP2 SWAP9 DUP9 SWAP6 PUSH1 0x40 SWAP12 DUP13 SWAP3 DUP4 DUP7 ADD SWAP2 PUSH2 0x16BC PUSH2 0x16B7 DUP5 MLOAD PUSH4 0xFFFFFFFF AND SWAP1 JUMP JUMPDEST PUSH2 0x2EEE JUMP JUMPDEST DUP3 MLOAD PUSH4 0xFFFFFFFF AND SWAP4 PUSH2 0x16E2 PUSH2 0x106D DUP7 PUSH4 0xFFFFFFFF AND PUSH1 0x0 MSTORE PUSH1 0x5 PUSH1 0x20 MSTORE PUSH1 0x40 PUSH1 0x0 KECCAK256 SWAP1 JUMP JUMPDEST SWAP4 DUP7 MLOAD SWAP6 DUP7 PUSH2 0x1778 PUSH1 0x20 SWAP8 DUP8 DUP10 DUP5 ADD SWAP5 DUP6 SWAP2 SWAP3 PUSH32 0xFFFFFFFFFFFFFFFF000000000000000000000000000000000000000000000000 PUSH1 0x20 SWAP5 PUSH32 0xFFFFFFFF00000000000000000000000000000000000000000000000000000000 PUSH32 0xFFFFFFFFFFFFFFFFFFFFFFFFFFFFFFFFFFFFFFFF000000000000000000000000 SWAP5 PUSH1 0xE0 SHL AND DUP6 MSTORE PUSH1 0xC0 SHL AND PUSH1 0x4 DUP5 ADD MSTORE PUSH1 0x60 SHL AND PUSH1 0xC DUP3 ADD MSTORE ADD SWAP1 JUMP JUMPDEST SUB SWAP7 PUSH2 0x178C PUSH1 0x1F NOT SWAP9 DUP10 DUP2 ADD DUP4 MSTORE DUP3 PUSH2 0x500 JUMP JUMPDEST MLOAD SWAP1 KECCAK256 SWAP4 PUSH2 0x17A4 DUP6 PUSH1 0x0 MSTORE PUSH1 0x9 PUSH1 0x20 MSTORE PUSH1 0x40 PUSH1 0x0 KECCAK256 SWAP1 JUMP JUMPDEST SLOAD PUSH2 0x19C0 JUMPI SWAP5 PUSH2 0x1895 SWAP10 PUSH2 0x18F7 SWAP6 PUSH2 0x1882 PUSH2 0x183D DUP12 SWAP11 SWAP8 DUP6 SWAP8 DUP8 PUSH2 0x1902 SWAP16 SWAP15 PUSH2 0x18EB SWAP14 DUP10 SWAP2 PUSH2 0x17F9 PUSH2 0x120B PUSH2 0x106D PUSH2 0x17E3 PUSH2 0x18A6 SWAP16 MLOAD PUSH4 0xFFFFFFFF AND SWAP1 JUMP JUMPDEST PUSH4 0xFFFFFFFF AND PUSH1 0x0 MSTORE PUSH1 0x4 PUSH1 0x20 MSTORE PUSH1 0x40 PUSH1 0x0 KECCAK256 SWAP1 JUMP JUMPDEST SWAP1 MLOAD DUP1 DUP1 SWAP9 DUP2 SWAP5 PUSH32 0x5FA21F9100000000000000000000000000000000000000000000000000000000 DUP4 MSTORE PUSH1 0x4 DUP4 ADD SWAP2 SWAP1 SWAP2 PUSH8 0xFFFFFFFFFFFFFFFF PUSH1 0x20 DUP3 ADD SWAP4 AND SWAP1 MSTORE JUMP JUMPDEST SUB SWAP2 GAS STATICCALL SWAP4 DUP5 ISZERO PUSH2 0x19B3 JUMPI JUMPDEST PUSH1 0x0 SWAP5 PUSH2 0x1972 JUMPI JUMPDEST POP SWAP1 PUSH2 0x1875 PUSH2 0x106D PUSH2 0x1057 PUSH2 0x187D SWAP5 PUSH2 0x186B DUP9 ISZERO ISZERO PUSH2 0x2614 JUMP JUMPDEST MLOAD PUSH4 0xFFFFFFFF AND SWAP1 JUMP JUMPDEST SWAP3 CALLDATASIZE SWAP2 PUSH2 0x7CD JUMP JUMPDEST PUSH2 0x5764 JUMP JUMPDEST SWAP12 DUP13 SWAP2 PUSH1 0x0 MSTORE PUSH1 0x9 PUSH1 0x20 MSTORE PUSH1 0x40 PUSH1 0x0 KECCAK256 SWAP1 JUMP JUMPDEST SSTORE JUMPDEST ADD MLOAD PUSH8 0xFFFFFFFFFFFFFFFF AND SWAP1 JUMP JUMPDEST DUP6 MLOAD PUSH8 0xFFFFFFFFFFFFFFFF SWAP1 SWAP2 AND DUP3 DUP3 ADD SWAP1 DUP2 MSTORE PUSH1 0x1 PUSH1 0x20 DUP3 ADD MSTORE SWAP1 PUSH2 0x18D6 DUP2 PUSH1 0x40 DUP5 ADD SUB DUP6 DUP2 ADD DUP4 MSTORE DUP3 PUSH2 0x500 JUMP JUMPDEST MLOAD SWAP1 KECCAK256 SWAP5 MLOAD SWAP1 DUP2 ADD SWAP5 DUP6 MSTORE SWAP3 DUP4 SWAP1 PUSH1 0x20 DUP7 ADD SWAP1 JUMP JUMPDEST SUB SWAP1 DUP2 ADD DUP4 MSTORE DUP3 PUSH2 0x500 JUMP JUMPDEST MLOAD SWAP1 KECCAK256 SWAP4 CALLDATASIZE SWAP2 PUSH2 0x7CD JUMP JUMPDEST SWAP2 PUSH2 0x3C50 JUMP JUMPDEST SUB PUSH2 0x192E JUMPI SWAP2 PUSH2 0x11A7 PUSH1 0x0 SWAP6 SWAP5 SWAP3 PUSH2 0x1921 SWAP5 CALLDATASIZE SWAP2 PUSH2 0x796 JUMP JUMPDEST PUSH2 0x192B PUSH1 0x1 PUSH1 0x40 SSTORE JUMP JUMPDEST MLOAD RETURN JUMPDEST DUP5 MLOAD PUSH3 0x461BCD PUSH1 0xE5 SHL DUP2 MSTORE PUSH1 0x20 PUSH1 0x4 DUP3 ADD MSTORE PUSH1 0x15 PUSH1 0x24 DUP3 ADD MSTORE PUSH32 0x496E76616C6964206D65737361676520686173682E0000000000000000000000 PUSH1 0x44 DUP3 ADD MSTORE PUSH1 0x64 SWAP1 REVERT JUMPDEST PUSH2 0x187D SWAP3 SWAP2 SWAP5 POP PUSH2 0x106D PUSH2 0x1057 PUSH2 0x19A1 PUSH2 0x1875 SWAP4 DUP13 DUP14 RETURNDATASIZE LT PUSH2 0x19AC JUMPI JUMPDEST PUSH2 0x1999 DUP2 DUP4 PUSH2 0x500 JUMP JUMPDEST DUP2 ADD SWAP1 PUSH2 0x25F8 JUMP JUMPDEST SWAP7 SWAP4 SWAP5 POP POP POP PUSH2 0x1851 JUMP JUMPDEST POP RETURNDATASIZE PUSH2 0x198F JUMP JUMPDEST PUSH2 0x19BB PUSH2 0x2607 JUMP JUMPDEST PUSH2 0x1849 JUMP JUMPDEST POP POP POP POP PUSH2 0x1902 SWAP5 SWAP4 SWAP3 DUP3 PUSH2 0x18A6 PUSH2 0x18EB SWAP5 PUSH2 0x19E9 PUSH2 0x18F7 SWAP6 PUSH1 0x0 MSTORE PUSH1 0x9 PUSH1 0x20 MSTORE PUSH1 0x40 PUSH1 0x0 KECCAK256 SWAP1 JUMP JUMPDEST SLOAD SWAP10 PUSH2 0x1897 JUMP JUMPDEST POP CALLVALUE PUSH2 0x436 JUMPI PUSH1 0x0 DUP1 PUSH1 0x3 NOT CALLDATASIZE ADD SLT PUSH2 0x12EC JUMPI PUSH2 0x1A0B PUSH2 0x2173 JUMP JUMPDEST DUP1 JUMPDEST PUSH1 0x3 SWAP1 DUP2 SLOAD PUSH4 0xFFFFFFFF SWAP1 DUP2 DUP4 AND LT ISZERO PUSH2 0x1A54 JUMPI PUSH2 0x1A4F SWAP3 PUSH2 0x1A2E DUP4 PUSH2 0x1AE9 JUMP JUMPDEST SWAP1 SLOAD SWAP2 SHL SHR AND DUP4 MSTORE PUSH1 0x6 PUSH1 0x20 MSTORE PUSH1 0x40 DUP4 KECCAK256 PUSH1 0x1 PUSH1 0xFF NOT DUP3 SLOAD AND OR SWAP1 SSTORE PUSH2 0x222C JUMP JUMPDEST PUSH2 0x1A0D JUMP JUMPDEST DUP4 PUSH1 0x40 MLOAD PUSH32 0x61340A1B154D5D21D259A74BF95379201799B9D12CC6509BB46CB56DC281DF55 DUP3 DUP3 LOG1 RETURN JUMPDEST POP CALLVALUE PUSH2 0x436 JUMPI PUSH1 0x20 PUSH1 0x3 NOT CALLDATASIZE ADD SLT PUSH2 0x436 JUMPI PUSH1 0x0 PUSH4 0xFFFFFFFF PUSH2 0x1A9F PUSH2 0x579 JUMP JUMPDEST PUSH2 0x1AA7 PUSH2 0x2173 JUMP JUMPDEST AND DUP1 DUP3 MSTORE PUSH1 0x6 PUSH1 0x20 MSTORE PUSH1 0x40 DUP3 KECCAK256 PUSH1 0x1 PUSH1 0xFF NOT DUP3 SLOAD AND OR SWAP1 SSTORE PUSH1 0x40 MLOAD SWAP1 PUSH32 0xF6CF9095F1DCEA2429C26C832CBCC084FA0A1692B2C301601EDD75B9D83520B2 DUP4 DUP4 LOG2 RETURN JUMPDEST SWAP1 PUSH1 0x3 SLOAD DUP3 LT ISZERO PUSH2 0x1B2A JUMPI JUMPDEST PUSH1 0x3 PUSH1 0x0 MSTORE PUSH1 0x1C DUP3 PUSH1 0x3 SHR PUSH32 0xC2575A0E9E593C00F959F8C92F12DB2869C3395A3B0502D05E2516446F71F85B ADD SWAP3 PUSH1 0x2 SHL AND SWAP1 JUMP JUMPDEST PUSH2 0x1B32 PUSH2 0x97C JUMP JUMPDEST PUSH2 0x1AF5 JUMP JUMPDEST POP CALLVALUE PUSH2 0x436 JUMPI PUSH1 0x20 PUSH1 0x3 NOT CALLDATASIZE ADD SLT PUSH2 0x436 JUMPI PUSH1 0x4 CALLDATALOAD PUSH1 0x3 SLOAD DUP2 LT ISZERO PUSH2 0x436 JUMPI PUSH1 0x20 SWAP1 PUSH1 0x3 PUSH1 0x0 MSTORE PUSH4 0xFFFFFFFF DUP2 PUSH1 0x3 SHR PUSH32 0xC2575A0E9E593C00F959F8C92F12DB2869C3395A3B0502D05E2516446F71F85B ADD SLOAD PUSH1 0xE0 PUSH1 0x40 MLOAD SWAP4 PUSH1 0x5 SHL AND SHR AND DUP2 MSTORE RETURN JUMPDEST POP CALLVALUE PUSH2 0x436 JUMPI PUSH1 0x20 PUSH1 0x3 NOT CALLDATASIZE ADD SLT PUSH2 0x436 JUMPI PUSH1 0x4 CALLDATALOAD PUSH8 0xFFFFFFFFFFFFFFFF DUP2 GT PUSH2 0x436 JUMPI PUSH2 0x1BCF PUSH2 0x1C09 SWAP2 CALLDATASIZE SWAP1 PUSH1 0x4 ADD PUSH2 0xF5E JUMP JUMPDEST SWAP1 PUSH2 0x1BD8 PUSH2 0x265F JUMP JUMPDEST CALLER PUSH1 0x0 MSTORE PUSH1 0x32 PUSH1 0x20 MSTORE PUSH2 0x1BF2 PUSH1 0xFF PUSH1 0x40 PUSH1 0x0 KECCAK256 SLOAD AND PUSH2 0x26B4 JUMP JUMPDEST PUSH2 0x11A7 PUSH2 0x1BFF DUP4 DUP4 PUSH2 0x2C5B JUMP JUMPDEST SWAP3 SWAP1 SWAP4 CALLDATASIZE SWAP2 PUSH2 0x796 JUMP JUMPDEST PUSH1 0x1 PUSH1 0x40 SSTORE STOP JUMPDEST POP CALLVALUE PUSH2 0x436 JUMPI PUSH1 0x0 PUSH1 0x3 NOT CALLDATASIZE ADD SLT PUSH2 0x436 JUMPI PUSH1 0x20 PUSH1 0x3C SLOAD PUSH1 0x40 MLOAD SWAP1 DUP2 MSTORE RETURN JUMPDEST POP CALLVALUE PUSH2 0x436 JUMPI PUSH1 0x0 PUSH1 0x3 NOT CALLDATASIZE ADD SLT PUSH2 0x436 JUMPI PUSH1 0x20 PUSH8 0xFFFFFFFFFFFFFFFF PUSH1 0x2 SLOAD AND PUSH1 0x40 MLOAD SWAP1 DUP2 MSTORE RETURN JUMPDEST POP CALLVALUE PUSH2 0x436 JUMPI PUSH1 0x0 PUSH1 0x3 NOT CALLDATASIZE ADD SLT PUSH2 0x436 JUMPI PUSH1 0x20 PUSH1 0xFF PUSH1 0x0 SLOAD PUSH1 0x8 SHR AND PUSH1 0x40 MLOAD SWAP1 ISZERO ISZERO DUP2 MSTORE RETURN JUMPDEST POP CALLVALUE PUSH2 0x436 JUMPI PUSH1 0x80 PUSH1 0x3 NOT CALLDATASIZE ADD SLT PUSH2 0x436 JUMPI PUSH1 0x4 CALLDATALOAD PUSH1 0x24 CALLDATALOAD PUSH8 0xFFFFFFFFFFFFFFFF PUSH1 0x44 CALLDATALOAD DUP2 DUP2 GT PUSH2 0x436 JUMPI PUSH2 0x1CB8 SWAP1 CALLDATASIZE SWAP1 PUSH1 0x4 ADD PUSH2 0xF5E JUMP JUMPDEST SWAP3 SWAP1 SWAP2 PUSH1 0x64 CALLDATALOAD SWAP1 DUP2 GT PUSH2 0x436 JUMPI PUSH2 0x1CD3 SWAP1 CALLDATASIZE SWAP1 PUSH1 0x4 ADD PUSH2 0xF5E JUMP JUMPDEST PUSH2 0x1CDB PUSH2 0x265F JUMP JUMPDEST CALLER PUSH1 0x0 SWAP1 DUP2 MSTORE PUSH1 0x32 PUSH1 0x20 MSTORE PUSH1 0x40 SWAP1 KECCAK256 SLOAD PUSH1 0xFF AND PUSH2 0x1CF7 SWAP1 PUSH2 0x26B4 JUMP JUMPDEST PUSH2 0x1D01 DUP2 DUP4 PUSH2 0x2C5B JUMP JUMPDEST SWAP5 SWAP1 SWAP6 PUSH1 0x40 DUP8 ADD MLOAD PUSH2 0x1D16 SWAP1 PUSH4 0xFFFFFFFF AND SWAP1 JUMP JUMPDEST PUSH2 0x1D30 SWAP1 PUSH4 0xFFFFFFFF AND PUSH1 0x0 MSTORE PUSH1 0x5 PUSH1 0x20 MSTORE PUSH1 0x40 PUSH1 0x0 KECCAK256 SWAP1 JUMP JUMPDEST SLOAD PUSH1 0x1 PUSH1 0x1 PUSH1 0xA0 SHL SUB AND SWAP8 PUSH1 0x40 MLOAD SWAP1 PUSH1 0x20 SWAP10 DUP3 DUP1 DUP13 DUP1 SWAP6 ADD SWAP3 PUSH32 0x8EF1332E00000000000000000000000000000000000000000000000000000000 DUP5 MSTORE DUP9 DUP11 DUP7 ADDRESS PUSH1 0x24 DUP7 ADD SWAP5 PUSH2 0x1D7E SWAP6 PUSH2 0x290B JUMP JUMPDEST SUB PUSH1 0x1F NOT DUP2 ADD DUP3 MSTORE PUSH2 0x1D90 SWAP1 DUP3 PUSH2 0x500 JUMP JUMPDEST MLOAD SWAP1 KECCAK256 PUSH1 0x3D SLOAD PUSH1 0x40 MLOAD PUSH32 0x116A1F4200000000000000000000000000000000000000000000000000000000 DUP2 MSTORE PUSH1 0x4 DUP2 ADD DUP11 SWAP1 MSTORE PUSH1 0x1 PUSH1 0x1 PUSH1 0xA0 SHL SUB SWAP1 SWAP2 AND SWAP6 SWAP1 SWAP5 DUP5 DUP7 PUSH1 0x24 DUP2 DUP11 GAS STATICCALL PUSH2 0x11AD SWAP14 PUSH2 0x11A7 SWAP12 PUSH2 0x11A0 SWAP10 PUSH2 0x1E67 SWAP10 PUSH2 0x1E3F SWAP5 PUSH2 0x1E06 SWAP2 DUP2 ISZERO PUSH2 0x1EBD JUMPI JUMPDEST PUSH1 0x0 SWAP2 PUSH2 0x1EA0 JUMPI JUMPDEST POP PUSH2 0x2958 JUMP JUMPDEST PUSH1 0x40 MLOAD DUP1 DUP1 SWAP6 DUP2 SWAP5 PUSH32 0xEA5F084F00000000000000000000000000000000000000000000000000000000 DUP4 MSTORE PUSH1 0x4 DUP4 ADD SWAP2 SWAP1 PUSH1 0x20 DUP4 ADD SWAP3 MSTORE JUMP JUMPDEST SUB SWAP2 GAS STATICCALL SWAP6 DUP7 ISZERO PUSH2 0x1E93 JUMPI JUMPDEST PUSH1 0x0 SWAP7 PUSH2 0x1E6C JUMPI JUMPDEST POP POP SWAP1 PUSH2 0x1E61 SWAP2 CALLDATASIZE SWAP2 PUSH2 0x796 JUMP JUMPDEST SWAP3 PUSH2 0x5833 JUMP JUMPDEST PUSH2 0x289A JUMP JUMPDEST PUSH2 0x1E61 SWAP4 SWAP3 SWAP7 POP SWAP1 DUP2 PUSH2 0x1E8A SWAP3 SWAP1 RETURNDATASIZE LT PUSH2 0x19AC JUMPI PUSH2 0x1999 DUP2 DUP4 PUSH2 0x500 JUMP JUMPDEST SWAP5 SWAP1 SWAP2 CODESIZE PUSH2 0x1E53 JUMP JUMPDEST PUSH2 0x1E9B PUSH2 0x2607 JUMP JUMPDEST PUSH2 0x1E4B JUMP JUMPDEST PUSH2 0x1EB7 SWAP2 POP DUP6 RETURNDATASIZE DUP8 GT PUSH2 0x11DE JUMPI PUSH2 0x11D0 DUP2 DUP4 PUSH2 0x500 JUMP JUMPDEST CODESIZE PUSH2 0x1E00 JUMP JUMPDEST PUSH2 0x1EC5 PUSH2 0x2607 JUMP JUMPDEST PUSH2 0x1DF8 JUMP JUMPDEST POP CALLVALUE PUSH2 0x436 JUMPI PUSH1 0x0 PUSH1 0x3 NOT CALLDATASIZE ADD SLT PUSH2 0x436 JUMPI PUSH1 0x20 PUSH1 0x40 MLOAD PUSH1 0x78 DUP2 MSTORE RETURN JUMPDEST POP CALLVALUE PUSH2 0x436 JUMPI PUSH1 0x40 PUSH1 0x3 NOT CALLDATASIZE ADD SLT PUSH2 0x436 JUMPI PUSH1 0x4 CALLDATALOAD PUSH2 0x1F05 DUP2 PUSH2 0x5B1 JUMP JUMPDEST PUSH1 0x1 PUSH1 0x1 PUSH1 0xA0 SHL SUB PUSH1 0x24 CALLDATALOAD SWAP2 PUSH2 0x1F1A DUP4 PUSH2 0x14E4 JUMP JUMPDEST PUSH2 0x1F22 PUSH2 0x2173 JUMP JUMPDEST AND PUSH1 0x0 MSTORE PUSH1 0x32 PUSH1 0x20 MSTORE PUSH1 0x40 PUSH1 0x0 KECCAK256 SWAP1 PUSH1 0xFF PUSH1 0xFF NOT DUP4 SLOAD AND SWAP2 ISZERO ISZERO AND OR SWAP1 SSTORE PUSH1 0x0 PUSH1 0x40 MLOAD RETURN JUMPDEST POP CALLVALUE PUSH2 0x436 JUMPI PUSH1 0x20 PUSH1 0x3 NOT CALLDATASIZE ADD SLT PUSH2 0x436 JUMPI PUSH32 0x3EEA1DC6CE990571E1081137B38C853529A3893B52E9719A48A2F4AC5E3A956C PUSH1 0x20 PUSH1 0x4 CALLDATALOAD PUSH2 0x1F88 DUP2 PUSH2 0x14E4 JUMP JUMPDEST PUSH2 0x1F90 PUSH2 0x2173 JUMP JUMPDEST ISZERO ISZERO PUSH1 0xFF NOT PUSH1 0x0 SLOAD AND PUSH1 0xFF DUP3 AND OR PUSH1 0x0 SSTORE PUSH1 0x40 MLOAD SWAP1 DUP2 MSTORE LOG1 STOP JUMPDEST POP CALLVALUE PUSH2 0x436 JUMPI PUSH1 0x20 PUSH1 0x3 NOT CALLDATASIZE ADD SLT PUSH2 0x436 JUMPI PUSH1 0x4 CALLDATALOAD PUSH2 0x1FC8 DUP2 PUSH2 0x5B1 JUMP JUMPDEST PUSH2 0x1FD0 PUSH2 0x2173 JUMP JUMPDEST PUSH1 0x1 PUSH1 0x1 PUSH1 0xA0 SHL SUB DUP1 SWAP2 AND SWAP1 DUP2 ISZERO PUSH2 0x203C JUMPI PUSH1 0x0 SWAP2 PUSH1 0x41 SLOAD SWAP2 DUP2 PUSH32 0xFFFFFFFFFFFFFFFFFFFFFFFF0000000000000000000000000000000000000000 DUP5 AND OR PUSH1 0x41 SSTORE PUSH1 0x40 MLOAD SWAP3 AND PUSH32 0x8BE0079C531659141344CD1FD0A4F28419497F9722A3DAAFE3B4186F6B6457E0 DUP5 DUP5 LOG3 RETURN JUMPDEST PUSH1 0x84 PUSH1 0x40 MLOAD PUSH3 0x461BCD PUSH1 0xE5 SHL DUP2 MSTORE PUSH1 0x20 PUSH1 0x4 DUP3 ADD MSTORE PUSH1 0x26 PUSH1 0x24 DUP3 ADD MSTORE PUSH32 0x4F776E61626C653A206E6577206F776E657220697320746865207A65726F2061 PUSH1 0x44 DUP3 ADD MSTORE PUSH32 0x6464726573730000000000000000000000000000000000000000000000000000 PUSH1 0x64 DUP3 ADD MSTORE REVERT JUMPDEST POP CALLVALUE PUSH2 0x436 JUMPI PUSH1 0x40 PUSH1 0x3 NOT CALLDATASIZE ADD SLT PUSH2 0x436 JUMPI PUSH1 0x0 DUP1 DUP1 PUSH1 0x4 CALLDATALOAD PUSH2 0x20C8 DUP2 PUSH2 0x5B1 JUMP JUMPDEST PUSH2 0x20D0 PUSH2 0x2173 JUMP JUMPDEST PUSH1 0x40 MLOAD SWAP1 PUSH1 0x1 PUSH1 0x1 PUSH1 0xA0 SHL SUB PUSH1 0x24 CALLDATALOAD SWAP2 AND GAS CALL PUSH2 0x20EB PUSH2 0x25C8 JUMP JUMPDEST POP ISZERO PUSH2 0x20F3 JUMPI STOP JUMPDEST PUSH1 0x64 PUSH1 0x40 MLOAD PUSH3 0x461BCD PUSH1 0xE5 SHL DUP2 MSTORE PUSH1 0x20 PUSH1 0x4 DUP3 ADD MSTORE PUSH1 0xE PUSH1 0x24 DUP3 ADD MSTORE PUSH32 0x5769746864726177204661696C21000000000000000000000000000000000000 PUSH1 0x44 DUP3 ADD MSTORE REVERT JUMPDEST POP CALLVALUE PUSH2 0x436 JUMPI PUSH1 0x0 PUSH1 0x3 NOT CALLDATASIZE ADD SLT PUSH2 0x436 JUMPI PUSH1 0x20 PUSH1 0x35 SLOAD PUSH1 0x40 MLOAD SWAP1 DUP2 MSTORE RETURN JUMPDEST POP CALLVALUE PUSH2 0x436 JUMPI PUSH1 0x0 PUSH1 0x3 NOT CALLDATASIZE ADD SLT PUSH2 0x436 JUMPI PUSH1 0x20 PUSH1 0x40 MLOAD PUSH1 0x1 DUP2 MSTORE RETURN JUMPDEST PUSH1 0x1 PUSH1 0x1 PUSH1 0xA0 SHL SUB PUSH1 0x41 SLOAD AND CALLER SUB PUSH2 0x2187 JUMPI JUMP JUMPDEST PUSH1 0x64 PUSH1 0x40 MLOAD PUSH3 0x461BCD PUSH1 0xE5 SHL DUP2 MSTORE PUSH1 0x20 PUSH1 0x4 DUP3 ADD MSTORE PUSH1 0x20 PUSH1 0x24 DUP3 ADD MSTORE PUSH32 0x4F776E61626C653A2063616C6C6572206973206E6F7420746865206F776E6572 PUSH1 0x44 DUP3 ADD MSTORE REVERT JUMPDEST PUSH32 0x88A5966D370B9919B20F3E2C13FF65706F196A4E32CC2C12BF57088F88525874 PUSH1 0x40 DUP1 MLOAD CALLER DUP2 MSTORE CALLVALUE PUSH1 0x20 DUP3 ADD MSTORE LOG1 JUMP JUMPDEST POP PUSH32 0x4E487B7100000000000000000000000000000000000000000000000000000000 PUSH1 0x0 MSTORE PUSH1 0x11 PUSH1 0x4 MSTORE PUSH1 0x24 PUSH1 0x0 REVERT JUMPDEST PUSH1 0x1 SWAP1 PUSH4 0xFFFFFFFF DUP1 SWAP2 AND SWAP1 DUP2 EQ PUSH2 0x2242 JUMPI ADD SWAP1 JUMP JUMPDEST PUSH2 0x224A PUSH2 0x21FC JUMP JUMPDEST ADD SWAP1 JUMP JUMPDEST PUSH1 0x1 SWAP1 PUSH1 0x0 NOT DUP2 EQ PUSH2 0x2242 JUMPI ADD SWAP1 JUMP JUMPDEST PUSH1 0x40 SWAP1 DUP1 MLOAD PUSH1 0x1 LT ISZERO PUSH2 0x226F JUMPI ADD SWAP1 JUMP JUMPDEST PUSH2 0x224A PUSH2 0x97C JUMP JUMPDEST PUSH2 0x220 SWAP1 DUP1 MLOAD PUSH1 0x10 LT ISZERO PUSH2 0x226F JUMPI ADD SWAP1 JUMP JUMPDEST PUSH1 0x60 SWAP1 DUP1 MLOAD PUSH1 0x2 LT ISZERO PUSH2 0x226F JUMPI ADD SWAP1 JUMP JUMPDEST PUSH1 0x20 SWAP2 DUP2 MLOAD DUP2 LT ISZERO PUSH2 0x22AF JUMPI JUMPDEST PUSH1 0x5 SHL ADD ADD SWAP1 JUMP JUMPDEST PUSH2 0x22B7 PUSH2 0x97C JUMP JUMPDEST PUSH2 0x22A7 JUMP JUMPDEST PUSH1 0x1 PUSH1 0x1 PUSH1 0xA0 SHL SUB SWAP1 PUSH2 0x22CD PUSH2 0x2173 JUMP JUMPDEST AND PUSH32 0xFFFFFFFFFFFFFFFFFFFFFFFF0000000000000000000000000000000000000000 PUSH1 0x33 SLOAD AND OR PUSH1 0x33 SSTORE PUSH1 0x34 SSTORE PUSH1 0x35 SSTORE PUSH1 0x36 SSTORE DUP1 MLOAD SWAP1 PUSH9 0x10000000000000000 DUP3 GT PUSH2 0x245F JUMPI JUMPDEST PUSH1 0x37 SLOAD DUP3 PUSH1 0x37 SSTORE DUP1 DUP4 LT PUSH2 0x23BD JUMPI JUMPDEST POP PUSH1 0x37 PUSH1 0x0 MSTORE PUSH1 0x20 SWAP1 DUP2 ADD SWAP1 PUSH32 0x42A7B7DD785CD69714A189DFFB3FD7D7174EDC9ECE837694CE50F7078F7C31AE PUSH1 0x0 SWAP3 JUMPDEST DUP5 DUP5 LT PUSH2 0x23A1 JUMPI POP POP POP POP POP SWAP1 PUSH2 0x239C PUSH2 0x550 SWAP3 PUSH1 0x1 PUSH1 0x1 PUSH1 0xA0 SHL SUB AND PUSH32 0xFFFFFFFFFFFFFFFFFFFFFFFF0000000000000000000000000000000000000000 PUSH1 0x38 SLOAD AND OR PUSH1 0x38 SSTORE JUMP JUMPDEST PUSH1 0x39 SSTORE JUMP JUMPDEST PUSH1 0x1 DUP4 DUP3 PUSH2 0x23B1 DUP4 SWAP5 MLOAD DUP7 PUSH2 0x24EC JUMP JUMPDEST ADD SWAP3 ADD SWAP4 ADD SWAP3 SWAP1 PUSH2 0x2354 JUMP JUMPDEST PUSH1 0x0 PUSH1 0x37 DUP2 MSTORE DUP4 PUSH32 0x42A7B7DD785CD69714A189DFFB3FD7D7174EDC9ECE837694CE50F7078F7C31AE SWAP3 DUP4 ADD SWAP3 ADD JUMPDEST DUP3 DUP2 LT PUSH2 0x23F9 JUMPI POP POP PUSH2 0x2323 JUMP JUMPDEST DUP1 PUSH2 0x2406 PUSH1 0x1 SWAP3 SLOAD PUSH2 0x9AC JUMP JUMPDEST DUP1 PUSH2 0x2413 JUMPI JUMPDEST POP ADD PUSH2 0x23EB JUMP JUMPDEST PUSH1 0x1F SWAP1 DUP2 DUP2 GT DUP5 EQ PUSH2 0x242B JUMPI POP POP DUP3 DUP2 SSTORE JUMPDEST CODESIZE PUSH2 0x240C JUMP JUMPDEST DUP4 PUSH2 0x244D SWAP3 PUSH2 0x243F DUP6 PUSH1 0x0 MSTORE PUSH1 0x20 PUSH1 0x0 KECCAK256 SWAP1 JUMP JUMPDEST SWAP3 ADD PUSH1 0x5 SHR DUP3 ADD SWAP2 ADD PUSH2 0x2490 JUMP JUMPDEST PUSH1 0x0 DUP2 DUP2 MSTORE PUSH1 0x20 DUP2 KECCAK256 DUP2 DUP4 SSTORE SSTORE PUSH2 0x2425 JUMP JUMPDEST PUSH2 0x2467 PUSH2 0x477 JUMP JUMPDEST PUSH2 0x2314 JUMP JUMPDEST DUP1 PUSH1 0x0 NOT DIV PUSH1 0x2 GT DUP2 ISZERO ISZERO AND PUSH2 0x2483 JUMPI JUMPDEST PUSH1 0x1 SHL SWAP1 JUMP JUMPDEST PUSH2 0x248B PUSH2 0x21FC JUMP JUMPDEST PUSH2 0x247D JUMP JUMPDEST DUP2 DUP2 LT PUSH2 0x249B JUMPI POP POP JUMP JUMPDEST PUSH1 0x0 DUP2 SSTORE PUSH1 0x1 ADD PUSH2 0x2490 JUMP JUMPDEST SWAP2 SWAP1 PUSH1 0x1F DUP2 GT PUSH2 0x24B6 JUMPI POP POP POP JUMP JUMPDEST PUSH2 0x550 SWAP3 PUSH1 0x0 MSTORE PUSH1 0x20 PUSH1 0x0 KECCAK256 SWAP1 PUSH1 0x20 PUSH1 0x1F DUP5 ADD PUSH1 0x5 SHR DUP4 ADD SWAP4 LT PUSH2 0x24E2 JUMPI JUMPDEST PUSH1 0x1F ADD PUSH1 0x5 SHR ADD SWAP1 PUSH2 0x2490 JUMP JUMPDEST SWAP1 SWAP2 POP DUP2 SWAP1 PUSH2 0x24D5 JUMP JUMPDEST SWAP2 SWAP1 SWAP2 DUP3 MLOAD PUSH8 0xFFFFFFFFFFFFFFFF DUP2 GT PUSH2 0x25BB JUMPI JUMPDEST PUSH2 0x2515 DUP2 PUSH2 0x250F DUP5 SLOAD PUSH2 0x9AC JUMP JUMPDEST DUP5 PUSH2 0x24A7 JUMP JUMPDEST PUSH1 0x20 DUP1 PUSH1 0x1F DUP4 GT PUSH1 0x1 EQ PUSH2 0x2550 JUMPI POP DUP2 SWAP3 SWAP4 SWAP5 PUSH1 0x0 SWAP3 PUSH2 0x2545 JUMPI JUMPDEST POP POP PUSH1 0x0 NOT DUP3 PUSH1 0x1 SHL SWAP3 PUSH1 0x3 SHL SHR NOT AND OR SWAP1 SSTORE JUMP JUMPDEST ADD MLOAD SWAP1 POP CODESIZE DUP1 PUSH2 0x2530 JUMP JUMPDEST SWAP1 PUSH1 0x1F NOT DUP4 AND SWAP6 PUSH2 0x2566 DUP6 PUSH1 0x0 MSTORE PUSH1 0x20 PUSH1 0x0 KECCAK256 SWAP1 JUMP JUMPDEST SWAP3 PUSH1 0x0 SWAP1 JUMPDEST DUP9 DUP3 LT PUSH2 0x25A3 JUMPI POP POP DUP4 PUSH1 0x1 SWAP6 SWAP7 SWAP8 LT PUSH2 0x258A JUMPI JUMPDEST POP POP POP DUP2 SHL ADD SWAP1 SSTORE JUMP JUMPDEST ADD MLOAD PUSH1 0x0 NOT PUSH1 0xF8 DUP5 PUSH1 0x3 SHL AND SHR NOT AND SWAP1 SSTORE CODESIZE DUP1 DUP1 PUSH2 0x2580 JUMP JUMPDEST DUP1 PUSH1 0x1 DUP6 SWAP7 DUP3 SWAP5 SWAP7 DUP7 ADD MLOAD DUP2 SSTORE ADD SWAP6 ADD SWAP4 ADD SWAP1 PUSH2 0x256B JUMP JUMPDEST PUSH2 0x25C3 PUSH2 0x477 JUMP JUMPDEST PUSH2 0x2501 JUMP JUMPDEST RETURNDATASIZE ISZERO PUSH2 0x25F3 JUMPI RETURNDATASIZE SWAP1 PUSH2 0x25D9 DUP3 PUSH2 0x76B JUMP JUMPDEST SWAP2 PUSH2 0x25E7 PUSH1 0x40 MLOAD SWAP4 DUP5 PUSH2 0x500 JUMP JUMPDEST DUP3 MSTORE RETURNDATASIZE PUSH1 0x0 PUSH1 0x20 DUP5 ADD RETURNDATACOPY JUMP JUMPDEST PUSH1 0x60 SWAP1 JUMP JUMPDEST SWAP1 DUP2 PUSH1 0x20 SWAP2 SUB SLT PUSH2 0x436 JUMPI MLOAD SWAP1 JUMP JUMPDEST POP PUSH1 0x40 MLOAD RETURNDATASIZE PUSH1 0x0 DUP3 RETURNDATACOPY RETURNDATASIZE SWAP1 REVERT JUMPDEST ISZERO PUSH2 0x261B JUMPI JUMP JUMPDEST PUSH1 0x64 PUSH1 0x40 MLOAD PUSH3 0x461BCD PUSH1 0xE5 SHL DUP2 MSTORE PUSH1 0x20 PUSH1 0x4 DUP3 ADD MSTORE PUSH1 0x1F PUSH1 0x24 DUP3 ADD MSTORE PUSH32 0x457865637574696F6E20537461746520526F6F74206973206E6F742073657400 PUSH1 0x44 DUP3 ADD MSTORE REVERT JUMPDEST PUSH1 0x2 PUSH1 0x40 SLOAD EQ PUSH2 0x2670 JUMPI PUSH1 0x2 PUSH1 0x40 SSTORE JUMP JUMPDEST PUSH1 0x64 PUSH1 0x40 MLOAD PUSH3 0x461BCD PUSH1 0xE5 SHL DUP2 MSTORE PUSH1 0x20 PUSH1 0x4 DUP3 ADD MSTORE PUSH1 0x1F PUSH1 0x24 DUP3 ADD MSTORE PUSH32 0x5265656E7472616E637947756172643A207265656E7472616E742063616C6C00 PUSH1 0x44 DUP3 ADD MSTORE REVERT JUMPDEST ISZERO PUSH2 0x26BB JUMPI JUMP JUMPDEST PUSH1 0x64 PUSH1 0x40 MLOAD PUSH3 0x461BCD PUSH1 0xE5 SHL DUP2 MSTORE PUSH1 0x20 PUSH1 0x4 DUP3 ADD MSTORE PUSH1 0xD PUSH1 0x24 DUP3 ADD MSTORE PUSH32 0x57726F6E672053656E6465722100000000000000000000000000000000000000 PUSH1 0x44 DUP3 ADD MSTORE REVERT JUMPDEST SWAP6 PUSH1 0x20 PUSH2 0x11A7 SWAP6 SWAP5 PUSH2 0x27F1 SWAP10 SWAP9 PUSH2 0x27D8 SWAP9 SWAP6 PUSH1 0x1 PUSH1 0x1 PUSH1 0xA0 SHL SUB PUSH2 0x11A0 SWAP7 PUSH2 0x2725 PUSH2 0x265F JUMP JUMPDEST PUSH2 0x2748 PUSH2 0x100C PUSH2 0x1005 CALLER PUSH1 0x1 PUSH1 0x1 PUSH1 0xA0 SHL SUB AND PUSH1 0x0 MSTORE PUSH1 0x32 PUSH1 0x20 MSTORE PUSH1 0x40 PUSH1 0x0 KECCAK256 SWAP1 JUMP JUMPDEST PUSH2 0x2752 DUP10 DUP12 PUSH2 0x2C5B JUMP JUMPDEST SWAP13 SWAP1 SWAP14 PUSH2 0x2792 PUSH2 0x276D PUSH2 0x120B PUSH1 0x33 SLOAD PUSH1 0x1 PUSH1 0x1 PUSH1 0xA0 SHL SUB AND SWAP1 JUMP JUMPDEST SWAP7 PUSH2 0x2783 PUSH2 0x2779 PUSH2 0x523 JUMP JUMPDEST PUSH2 0xFFFF SWAP1 SWAP11 AND DUP11 MSTORE JUMP JUMPDEST PUSH1 0x1 PUSH1 0x1 PUSH1 0xA0 SHL SUB AND DUP9 DUP11 ADD MSTORE JUMP JUMPDEST PUSH2 0x279D CALLDATASIZE DUP13 DUP15 PUSH2 0x796 JUMP JUMPDEST PUSH1 0x40 DUP9 ADD MSTORE PUSH1 0x40 MLOAD SWAP9 DUP10 SWAP8 DUP9 SWAP7 DUP8 SWAP6 PUSH32 0xE4948F4300000000000000000000000000000000000000000000000000000000 DUP8 MSTORE PUSH1 0x4 DUP8 ADD PUSH2 0x2810 JUMP JUMPDEST SUB SWAP3 AND GAS STATICCALL SWAP1 DUP2 ISZERO PUSH2 0x11E5 JUMPI PUSH1 0x0 SWAP2 PUSH2 0x11B7 JUMPI POP PUSH2 0x289A JUMP JUMPDEST PUSH2 0x550 PUSH1 0x1 PUSH1 0x40 SSTORE JUMP JUMPDEST SWAP1 DUP2 PUSH1 0x20 SWAP2 SUB SLT PUSH2 0x436 JUMPI MLOAD PUSH2 0x6B2 DUP2 PUSH2 0x14E4 JUMP JUMPDEST SWAP3 PUSH2 0x2856 SWAP3 PUSH1 0x40 SWAP3 DUP6 MSTORE PUSH1 0x20 DUP6 ADD MSTORE PUSH1 0x80 DUP3 DUP6 ADD MSTORE PUSH2 0xFFFF DUP2 MLOAD AND PUSH1 0x80 DUP6 ADD MSTORE PUSH1 0x1 PUSH1 0x1 PUSH1 0xA0 SHL SUB PUSH1 0x20 DUP3 ADD MLOAD AND PUSH1 0xA0 DUP6 ADD MSTORE ADD MLOAD PUSH1 0x60 PUSH1 0xC0 DUP5 ADD MSTORE PUSH1 0xE0 DUP4 ADD SWAP1 PUSH2 0xAB9 JUMP JUMPDEST SWAP1 PUSH1 0x60 DUP2 DUP4 SUB SWAP2 ADD MSTORE DUP3 DUP2 MSTORE PUSH32 0x7FFFFFFFFFFFFFFFFFFFFFFFFFFFFFFFFFFFFFFFFFFFFFFFFFFFFFFFFFFFFFF DUP4 GT PUSH2 0x436 JUMPI PUSH1 0x20 SWAP3 PUSH1 0x5 SHL DUP1 SWAP3 DUP5 DUP4 ADD CALLDATACOPY ADD ADD SWAP1 JUMP JUMPDEST ISZERO PUSH2 0x28A1 JUMPI JUMP JUMPDEST PUSH1 0x84 PUSH1 0x40 MLOAD PUSH3 0x461BCD PUSH1 0xE5 SHL DUP2 MSTORE PUSH1 0x20 PUSH1 0x4 DUP3 ADD MSTORE PUSH1 0x21 PUSH1 0x24 DUP3 ADD MSTORE PUSH32 0x4661696C656420746F2070726F7665206D65737361676520696E636C7573696F PUSH1 0x44 DUP3 ADD MSTORE PUSH32 0x6E00000000000000000000000000000000000000000000000000000000000000 PUSH1 0x64 DUP3 ADD MSTORE REVERT JUMPDEST SWAP4 SWAP5 PUSH1 0xC0 SWAP6 PUSH1 0x1F NOT SWAP5 DUP3 SWAP4 PUSH1 0x1F SWAP6 PUSH1 0x1 PUSH1 0x1 PUSH1 0xA0 SHL SUB DUP1 SWAP3 AND DUP10 MSTORE AND PUSH1 0x20 DUP9 ADD MSTORE PUSH1 0x0 PUSH1 0x40 DUP9 ADD MSTORE PUSH1 0x60 DUP8 ADD MSTORE PUSH1 0xA0 PUSH1 0x80 DUP8 ADD MSTORE DUP2 PUSH1 0xA0 DUP8 ADD MSTORE DUP7 DUP7 ADD CALLDATACOPY PUSH1 0x0 DUP6 DUP3 DUP7 ADD ADD MSTORE ADD AND ADD ADD SWAP1 JUMP JUMPDEST ISZERO PUSH2 0x295F JUMPI JUMP JUMPDEST PUSH1 0x64 PUSH1 0x40 MLOAD PUSH3 0x461BCD PUSH1 0xE5 SHL DUP2 MSTORE PUSH1 0x20 PUSH1 0x4 DUP3 ADD MSTORE PUSH1 0x16 PUSH1 0x24 DUP3 ADD MSTORE PUSH32 0x4261746368206973206E6F742066696E616C697A656400000000000000000000 PUSH1 0x44 DUP3 ADD MSTORE REVERT JUMPDEST PUSH4 0xFFFFFFFF PUSH2 0x440 SWAP3 SWAP6 SWAP5 SWAP4 PUSH2 0x460 DUP4 ADD SWAP7 DUP4 MSTORE PUSH2 0x400 PUSH1 0x4 PUSH1 0x20 DUP6 ADD CALLDATACOPY AND PUSH2 0x420 DUP3 ADD MSTORE ADD MSTORE JUMP JUMPDEST PUSH1 0x1 PUSH1 0x1 PUSH1 0xA0 SHL SUB PUSH2 0x6B2 SWAP5 SWAP4 PUSH4 0xFFFFFFFF PUSH1 0x60 SWAP5 AND DUP4 MSTORE AND PUSH1 0x20 DUP3 ADD MSTORE DUP2 PUSH1 0x40 DUP3 ADD MSTORE ADD SWAP1 PUSH2 0xAB9 JUMP JUMPDEST SWAP1 DUP2 PUSH1 0x20 SWAP2 SUB SLT PUSH2 0x436 JUMPI MLOAD PUSH32 0xFFFFFFFF00000000000000000000000000000000000000000000000000000000 DUP2 AND DUP2 SUB PUSH2 0x436 JUMPI SWAP1 JUMP JUMPDEST SWAP1 PUSH2 0x2A47 PUSH1 0x20 SWAP2 SWAP5 SWAP4 SWAP5 PUSH1 0x40 DUP5 MSTORE PUSH1 0x40 DUP5 ADD SWAP1 PUSH2 0xAB9 JUMP JUMPDEST SWAP4 ISZERO ISZERO SWAP2 ADD MSTORE JUMP JUMPDEST SWAP1 SWAP2 PUSH1 0x40 DUP3 ADD DUP1 MLOAD PUSH2 0x2A64 SWAP1 PUSH4 0xFFFFFFFF AND SWAP1 JUMP JUMPDEST PUSH1 0x60 DUP5 ADD MLOAD PUSH1 0x1 PUSH1 0x1 PUSH1 0xA0 SHL SUB AND SWAP1 PUSH1 0xC0 DUP6 ADD MLOAD SWAP1 PUSH1 0x40 MLOAD DUP1 SWAP2 PUSH1 0x20 DUP3 ADD SWAP4 PUSH32 0xB958FBBF00000000000000000000000000000000000000000000000000000000 SWAP6 DUP7 DUP7 MSTORE PUSH1 0x24 DUP5 ADD SWAP3 PUSH2 0x2AB6 SWAP4 PUSH2 0x29CC JUMP JUMPDEST SUB PUSH1 0x1F NOT DUP2 ADD DUP3 MSTORE PUSH2 0x2AC8 SWAP1 DUP3 PUSH2 0x500 JUMP JUMPDEST PUSH1 0xA0 DUP7 ADD MLOAD PUSH1 0x1 PUSH1 0x1 PUSH1 0xA0 SHL SUB AND SWAP1 MLOAD GAS SWAP3 PUSH1 0x0 DUP1 SWAP5 SWAP4 DUP2 SWAP5 CALL DUP1 SWAP2 PUSH2 0x2AEC PUSH2 0x25C8 JUMP JUMPDEST SWAP1 PUSH1 0x0 SWAP2 DUP1 MLOAD PUSH1 0x20 DUP2 EQ SWAP7 PUSH8 0xFFFFFFFFFFFFFFFF SWAP7 PUSH2 0x2B90 SWAP6 PUSH2 0x2B7A SWAP6 PUSH1 0x20 SWAP6 PUSH2 0x2B6A SWAP6 PUSH32 0x11C6A43A0A4BFFC4A181A856A4C71D63B723A7AD77E3F135784091FD7C9BF45 SWAP13 PUSH2 0x2BC6 JUMPI JUMPDEST POP POP POP DUP2 PUSH2 0x2BBE JUMPI JUMPDEST POP ISZERO PUSH2 0x2B95 JUMPI PUSH2 0x186B PUSH2 0x2B5D DUP13 PUSH1 0x0 MSTORE PUSH1 0x7 PUSH1 0x20 MSTORE PUSH1 0x40 PUSH1 0x0 KECCAK256 SWAP1 JUMP JUMPDEST PUSH1 0x2 PUSH1 0xFF NOT DUP3 SLOAD AND OR SWAP1 SSTORE JUMP JUMPDEST SWAP8 ADD MLOAD PUSH8 0xFFFFFFFFFFFFFFFF AND SWAP1 JUMP JUMPDEST SWAP2 PUSH4 0xFFFFFFFF PUSH1 0x40 MLOAD SWAP5 DUP6 SWAP5 AND SWAP8 AND SWAP6 DUP4 PUSH2 0x2A2F JUMP JUMPDEST SUB SWAP1 LOG4 JUMP JUMPDEST PUSH2 0x2BB9 PUSH2 0x2BAC DUP13 PUSH1 0x0 MSTORE PUSH1 0x7 PUSH1 0x20 MSTORE PUSH1 0x40 PUSH1 0x0 KECCAK256 SWAP1 JUMP JUMPDEST PUSH1 0x1 PUSH1 0xFF NOT DUP3 SLOAD AND OR SWAP1 SSTORE JUMP JUMPDEST PUSH2 0x186B JUMP JUMPDEST SWAP1 POP CODESIZE PUSH2 0x2B40 JUMP JUMPDEST PUSH32 0xFFFFFFFF00000000000000000000000000000000000000000000000000000000 SWAP3 SWAP4 POP SWAP1 DUP8 DUP1 PUSH2 0x2BFB SWAP4 DUP4 ADD ADD SWAP2 ADD PUSH2 0x29F7 JUMP JUMPDEST AND EQ CODESIZE DUP1 DUP1 PUSH2 0x2B37 JUMP JUMPDEST PUSH1 0x40 MLOAD SWAP1 PUSH1 0xE0 DUP3 ADD DUP3 DUP2 LT PUSH8 0xFFFFFFFFFFFFFFFF DUP3 GT OR PUSH2 0x2C4E JUMPI JUMPDEST PUSH1 0x40 MSTORE PUSH1 0x60 PUSH1 0xC0 DUP4 PUSH1 0x0 DUP1 DUP3 MSTORE DUP1 PUSH1 0x20 DUP4 ADD MSTORE DUP1 PUSH1 0x40 DUP4 ADD MSTORE DUP1 DUP5 DUP4 ADD MSTORE DUP1 PUSH1 0x80 DUP4 ADD MSTORE PUSH1 0xA0 DUP3 ADD MSTORE ADD MSTORE JUMP JUMPDEST PUSH2 0x2C56 PUSH2 0x477 JUMP JUMPDEST PUSH2 0x2C21 JUMP JUMPDEST PUSH2 0x2C86 SWAP1 SWAP3 SWAP2 SWAP3 PUSH2 0x2C6A PUSH2 0x2C05 JUMP JUMPDEST POP PUSH2 0x2C7E PUSH2 0x2C79 CALLDATASIZE DUP7 DUP5 PUSH2 0x796 JUMP JUMPDEST PUSH2 0x3A5C JUMP JUMPDEST SWAP4 CALLDATASIZE SWAP2 PUSH2 0x796 JUMP JUMPDEST PUSH1 0x20 DUP2 MLOAD SWAP2 ADD KECCAK256 SWAP2 PUSH2 0x2CA5 PUSH2 0x1005 DUP5 PUSH1 0x0 MSTORE PUSH1 0x7 PUSH1 0x20 MSTORE PUSH1 0x40 PUSH1 0x0 KECCAK256 SWAP1 JUMP JUMPDEST PUSH2 0x2CAE DUP2 PUSH2 0xDF2 JUMP JUMPDEST ISZERO PUSH2 0x2CF8 JUMPI PUSH1 0x40 MLOAD PUSH3 0x461BCD PUSH1 0xE5 SHL DUP2 MSTORE PUSH1 0x20 PUSH1 0x4 DUP3 ADD MSTORE PUSH1 0x19 PUSH1 0x24 DUP3 ADD MSTORE PUSH32 0x4D65737361676520616C72656164792065786563757465642E00000000000000 PUSH1 0x44 DUP3 ADD MSTORE PUSH1 0x64 SWAP1 REVERT JUMPDEST PUSH1 0x80 DUP2 ADD MLOAD PUSH4 0xFFFFFFFF SWAP1 DUP2 AND CHAINID EQ PUSH2 0x2D50 JUMPI PUSH1 0x40 MLOAD PUSH3 0x461BCD PUSH1 0xE5 SHL DUP2 MSTORE PUSH1 0x20 PUSH1 0x4 DUP3 ADD MSTORE PUSH1 0xC PUSH1 0x24 DUP3 ADD MSTORE PUSH32 0x57726F6E6720636861696E2E0000000000000000000000000000000000000000 PUSH1 0x44 DUP3 ADD MSTORE PUSH1 0x64 SWAP1 REVERT JUMPDEST DUP2 MLOAD PUSH1 0xFF AND PUSH1 0xFF PUSH2 0x2D6C PUSH2 0x2D66 PUSH1 0x8 SLOAD PUSH1 0xFF AND SWAP1 JUMP JUMPDEST PUSH1 0xFF AND SWAP1 JUMP JUMPDEST SWAP2 AND EQ PUSH2 0x2DB8 JUMPI PUSH1 0x40 MLOAD PUSH3 0x461BCD PUSH1 0xE5 SHL DUP2 MSTORE PUSH1 0x20 PUSH1 0x4 DUP3 ADD MSTORE PUSH1 0xE PUSH1 0x24 DUP3 ADD MSTORE PUSH32 0x57726F6E672076657273696F6E2E000000000000000000000000000000000000 PUSH1 0x44 DUP3 ADD MSTORE PUSH1 0x64 SWAP1 REVERT JUMPDEST PUSH1 0x40 DUP3 ADD SWAP1 PUSH1 0x1 PUSH1 0x1 PUSH1 0xA0 SHL SUB PUSH2 0x2DDC PUSH2 0x120B PUSH2 0x106D PUSH2 0x17E3 DUP7 MLOAD PUSH4 0xFFFFFFFF AND SWAP1 JUMP JUMPDEST AND ISZERO SWAP1 DUP2 PUSH2 0x2EE1 JUMPI JUMPDEST POP ISZERO PUSH2 0x2E56 JUMPI PUSH1 0x40 MLOAD PUSH3 0x461BCD PUSH1 0xE5 SHL DUP2 MSTORE PUSH1 0x20 PUSH1 0x4 DUP3 ADD MSTORE PUSH1 0x28 PUSH1 0x24 DUP3 ADD MSTORE PUSH32 0x4C6967687420636C69656E7420666F7220736F7572636520636861696E206973 PUSH1 0x44 DUP3 ADD MSTORE PUSH32 0x206E6F7420736574000000000000000000000000000000000000000000000000 PUSH1 0x64 DUP3 ADD MSTORE PUSH1 0x84 SWAP1 REVERT JUMPDEST PUSH2 0x120B PUSH2 0x106D PUSH2 0x1057 PUSH2 0x2E6D SWAP4 MLOAD PUSH4 0xFFFFFFFF AND SWAP1 JUMP JUMPDEST ISZERO PUSH2 0x2E76 JUMPI SWAP2 SWAP1 JUMP JUMPDEST PUSH1 0x40 MLOAD PUSH3 0x461BCD PUSH1 0xE5 SHL DUP2 MSTORE PUSH1 0x20 PUSH1 0x4 DUP3 ADD MSTORE PUSH1 0x26 PUSH1 0x24 DUP3 ADD MSTORE PUSH32 0x62726F6164636173746572666F7220736F7572636520636861696E206973206E PUSH1 0x44 DUP3 ADD MSTORE PUSH32 0x6F74207365740000000000000000000000000000000000000000000000000000 PUSH1 0x64 DUP3 ADD MSTORE PUSH1 0x84 SWAP1 REVERT JUMPDEST PUSH1 0x61 SWAP2 POP CHAINID AND EQ CODESIZE PUSH2 0x2DE5 JUMP JUMPDEST PUSH4 0xFFFFFFFF AND PUSH1 0x0 MSTORE PUSH1 0x6 PUSH1 0x20 MSTORE PUSH1 0xFF PUSH1 0x40 PUSH1 0x0 KECCAK256 SLOAD AND PUSH2 0x2F0B JUMPI JUMP JUMPDEST PUSH1 0x64 PUSH1 0x40 MLOAD PUSH3 0x461BCD PUSH1 0xE5 SHL DUP2 MSTORE PUSH1 0x20 PUSH1 0x4 DUP3 ADD MSTORE PUSH1 0x13 PUSH1 0x24 DUP3 ADD MSTORE PUSH32 0x436F6E74726163742069732066726F7A656E2E00000000000000000000000000 PUSH1 0x44 DUP3 ADD MSTORE REVERT JUMPDEST PUSH1 0x1 SWAP1 PUSH8 0xFFFFFFFFFFFFFFFF DUP1 SWAP2 AND SWAP1 DUP2 EQ PUSH2 0x2242 JUMPI ADD SWAP1 JUMP JUMPDEST SWAP3 PUSH4 0xFFFFFFFF DUP5 AND SWAP3 CHAINID DUP5 EQ PUSH2 0x321A JUMPI PUSH1 0x1 PUSH1 0x1 PUSH1 0xA0 SHL SUB PUSH2 0x2F8C SWAP4 AND DUP6 PUSH2 0x35F8 JUMP JUMPDEST SWAP3 DUP4 SWAP3 DUP4 PUSH2 0x2FC0 PUSH2 0x2FA6 PUSH1 0x2 SLOAD PUSH8 0xFFFFFFFFFFFFFFFF AND SWAP1 JUMP JUMPDEST PUSH8 0xFFFFFFFFFFFFFFFF AND PUSH1 0x0 MSTORE PUSH1 0x1 PUSH1 0x20 MSTORE PUSH1 0x40 PUSH1 0x0 KECCAK256 SWAP1 JUMP JUMPDEST SSTORE CHAINID PUSH1 0x5 EQ DUP1 DUP1 PUSH2 0x320F JUMPI JUMPDEST PUSH2 0x31AA JUMPI PUSH2 0x118 CHAINID EQ DUP1 PUSH2 0x31A0 JUMPI JUMPDEST PUSH2 0x3191 JUMPI JUMPDEST PUSH3 0xAA36A7 DUP1 CHAINID EQ DUP1 PUSH2 0x3185 JUMPI JUMPDEST PUSH2 0x315A JUMPI JUMPDEST PUSH3 0x8274F CHAINID EQ SWAP1 DUP2 PUSH2 0x3150 JUMPI JUMPDEST POP PUSH2 0x3125 JUMPI JUMPDEST DUP1 PUSH2 0x311A JUMPI JUMPDEST PUSH2 0x30EF JUMPI JUMPDEST PUSH2 0x5A2 CHAINID EQ SWAP1 DUP2 PUSH2 0x30E4 JUMPI JUMPDEST POP PUSH2 0x30B8 JUMPI JUMPDEST POP PUSH32 0x89838497D0371E85258ABF1462B498F919F05D446929F3AEB404427E29842D3 PUSH8 0xFFFFFFFFFFFFFFFF PUSH2 0x3060 PUSH1 0x2 SLOAD PUSH8 0xFFFFFFFFFFFFFFFF AND SWAP1 JUMP JUMPDEST PUSH2 0x30A1 PUSH2 0x306C DUP3 PUSH2 0x2F4F JUMP JUMPDEST PUSH8 0xFFFFFFFFFFFFFFFF AND PUSH32 0xFFFFFFFFFFFFFFFFFFFFFFFFFFFFFFFFFFFFFFFFFFFFFFFF0000000000000000 PUSH1 0x2 SLOAD AND OR PUSH1 0x2 SSTORE JUMP JUMPDEST PUSH2 0x30B2 PUSH1 0x40 MLOAD SWAP3 DUP4 SWAP3 AND SWAP5 DUP3 PUSH2 0xADE JUMP JUMPDEST SUB SWAP1 LOG3 SWAP1 JUMP JUMPDEST PUSH2 0x30D8 PUSH2 0x106D PUSH2 0x30DE SWAP3 PUSH4 0xFFFFFFFF AND PUSH1 0x0 MSTORE PUSH1 0x5 PUSH1 0x20 MSTORE PUSH1 0x40 PUSH1 0x0 KECCAK256 SWAP1 JUMP JUMPDEST DUP3 PUSH2 0x32DC JUMP JUMPDEST CODESIZE PUSH2 0x3022 JUMP JUMPDEST PUSH1 0x5 SWAP2 POP EQ CODESIZE PUSH2 0x301C JUMP JUMPDEST PUSH2 0x3115 PUSH2 0x310F PUSH2 0x106D DUP5 PUSH4 0xFFFFFFFF AND PUSH1 0x0 MSTORE PUSH1 0x5 PUSH1 0x20 MSTORE PUSH1 0x40 PUSH1 0x0 KECCAK256 SWAP1 JUMP JUMPDEST DUP5 PUSH2 0x3244 JUMP JUMPDEST PUSH2 0x3010 JUMP JUMPDEST POP PUSH2 0x5A2 DUP2 EQ PUSH2 0x300B JUMP JUMPDEST PUSH2 0x314B PUSH2 0x3145 PUSH2 0x106D DUP6 PUSH4 0xFFFFFFFF AND PUSH1 0x0 MSTORE PUSH1 0x5 PUSH1 0x20 MSTORE PUSH1 0x40 PUSH1 0x0 KECCAK256 SWAP1 JUMP JUMPDEST DUP6 PUSH2 0x3579 JUMP JUMPDEST PUSH2 0x3005 JUMP JUMPDEST SWAP1 POP DUP3 EQ CODESIZE PUSH2 0x2FFF JUMP JUMPDEST PUSH2 0x3180 PUSH2 0x317A PUSH2 0x106D DUP7 PUSH4 0xFFFFFFFF AND PUSH1 0x0 MSTORE PUSH1 0x5 PUSH1 0x20 MSTORE PUSH1 0x40 PUSH1 0x0 KECCAK256 SWAP1 JUMP JUMPDEST DUP7 PUSH2 0x339A JUMP JUMPDEST PUSH2 0x2FF2 JUMP JUMPDEST POP PUSH3 0x8274F DUP4 EQ PUSH2 0x2FED JUMP JUMPDEST PUSH2 0x319A DUP5 PUSH2 0x38D6 JUMP JUMPDEST POP PUSH2 0x2FE0 JUMP JUMPDEST POP PUSH1 0x5 DUP3 EQ PUSH2 0x2FDB JUMP JUMPDEST POP POP PUSH2 0x31CC PUSH2 0x106D PUSH2 0x31D2 SWAP3 PUSH4 0xFFFFFFFF AND PUSH1 0x0 MSTORE PUSH1 0x5 PUSH1 0x20 MSTORE PUSH1 0x40 PUSH1 0x0 KECCAK256 SWAP1 JUMP JUMPDEST DUP3 PUSH2 0x37EE JUMP JUMPDEST PUSH32 0xC9CA8A7BA72EBBE0AC6B18F4FABFDDB2A18D3CD093B75A95421C38FA72E1563B PUSH8 0xFFFFFFFFFFFFFFFF PUSH2 0x3060 PUSH1 0x2 SLOAD PUSH8 0xFFFFFFFFFFFFFFFF AND SWAP1 JUMP JUMPDEST POP PUSH2 0x118 DUP3 EQ PUSH2 0x2FCC JUMP JUMPDEST PUSH1 0x4 PUSH1 0x40 MLOAD PUSH32 0xB0747D8100000000000000000000000000000000000000000000000000000000 DUP2 MSTORE REVERT JUMPDEST SWAP1 PUSH1 0x1 PUSH1 0x1 PUSH1 0xA0 SHL SUB SWAP2 DUP3 PUSH1 0x3E SLOAD AND DUP1 EXTCODESIZE ISZERO PUSH2 0x436 JUMPI PUSH2 0x32B4 SWAP4 PUSH1 0x0 DUP1 SWAP5 PUSH1 0x40 MLOAD SWAP7 DUP8 SWAP6 DUP7 SWAP5 DUP6 SWAP4 PUSH32 0x240FF37800000000000000000000000000000000000000000000000000000000 DUP6 MSTORE PUSH1 0x1 PUSH1 0x4 DUP7 ADD MSTORE AND PUSH1 0x24 DUP5 ADD MSTORE PUSH1 0x1 PUSH1 0x44 DUP5 ADD MSTORE PUSH1 0x80 PUSH1 0x64 DUP5 ADD MSTORE PUSH1 0x84 DUP4 ADD SWAP1 PUSH2 0xAB9 JUMP JUMPDEST SUB SWAP3 GAS CALL DUP1 ISZERO PUSH2 0x32CF JUMPI JUMPDEST PUSH2 0x32C6 JUMPI POP JUMP JUMPDEST PUSH2 0x550 SWAP1 PUSH2 0x4A7 JUMP JUMPDEST PUSH2 0x32D7 PUSH2 0x2607 JUMP JUMPDEST PUSH2 0x32BF JUMP JUMPDEST SWAP1 PUSH1 0x1 PUSH1 0x1 PUSH1 0xA0 SHL SUB SWAP2 DUP3 PUSH1 0x3F SLOAD AND DUP1 EXTCODESIZE ISZERO PUSH2 0x436 JUMPI PUSH2 0x32B4 SWAP4 PUSH1 0x0 DUP1 SWAP5 PUSH1 0x40 MLOAD SWAP7 DUP8 SWAP6 DUP7 SWAP5 DUP6 SWAP4 PUSH32 0x240FF37800000000000000000000000000000000000000000000000000000000 DUP6 MSTORE DUP6 PUSH1 0x4 DUP7 ADD MSTORE AND PUSH1 0x24 DUP5 ADD MSTORE PUSH1 0x1 PUSH1 0x44 DUP5 ADD MSTORE PUSH1 0x80 PUSH1 0x64 DUP5 ADD MSTORE PUSH1 0x84 DUP4 ADD SWAP1 PUSH2 0xAB9 JUMP JUMPDEST SWAP1 DUP2 PUSH1 0x20 SWAP2 SUB SLT PUSH2 0x436 JUMPI MLOAD PUSH2 0x6B2 DUP2 PUSH2 0x5B1 JUMP JUMPDEST SWAP3 SWAP5 SWAP4 PUSH2 0x338E PUSH1 0x80 SWAP4 PUSH1 0x1 PUSH1 0x1 PUSH1 0xA0 SHL SUB DUP1 SWAP5 AND DUP7 MSTORE PUSH1 0x0 PUSH1 0x20 DUP8 ADD MSTORE PUSH1 0xA0 PUSH1 0x40 DUP8 ADD MSTORE PUSH1 0xA0 DUP7 ADD SWAP1 PUSH2 0xAB9 JUMP JUMPDEST SWAP6 PUSH1 0x60 DUP6 ADD MSTORE AND SWAP2 ADD MSTORE JUMP JUMPDEST SWAP1 PUSH1 0x40 MLOAD SWAP1 PUSH2 0x33E5 DUP3 PUSH2 0x33D7 PUSH1 0x20 SWAP6 PUSH32 0x9FB4159B00000000000000000000000000000000000000000000000000000000 DUP8 DUP5 ADD MSTORE PUSH1 0x24 DUP4 ADD PUSH2 0xADE JUMP JUMPDEST SUB PUSH1 0x1F NOT DUP2 ADD DUP5 MSTORE DUP4 PUSH2 0x500 JUMP JUMPDEST PUSH2 0x33FD PUSH2 0x120B PUSH2 0x120B PUSH1 0x3A SLOAD PUSH1 0x1 PUSH1 0x1 PUSH1 0xA0 SHL SUB AND SWAP1 JUMP JUMPDEST PUSH1 0x40 MLOAD PUSH32 0x3B70C18A00000000000000000000000000000000000000000000000000000000 DUP2 MSTORE DUP5 DUP2 PUSH1 0x4 DUP2 DUP6 GAS STATICCALL SWAP1 DUP2 ISZERO PUSH2 0x356C JUMPI JUMPDEST PUSH1 0x0 SWAP2 PUSH2 0x353F JUMPI JUMPDEST POP PUSH1 0x3C SLOAD SWAP1 DUP6 PUSH1 0x40 MLOAD DUP1 SWAP3 PUSH32 0xD7704BAE00000000000000000000000000000000000000000000000000000000 DUP3 MSTORE DUP2 PUSH1 0x1 PUSH1 0x1 PUSH1 0xA0 SHL SUB DUP2 PUSH2 0x3485 DUP9 PUSH1 0x4 DUP4 ADD SWAP2 SWAP1 PUSH1 0x20 DUP4 ADD SWAP3 MSTORE JUMP JUMPDEST SUB SWAP3 AND GAS STATICCALL SWAP6 DUP7 ISZERO PUSH2 0x3532 JUMPI JUMPDEST PUSH1 0x0 SWAP7 PUSH2 0x3513 JUMPI JUMPDEST POP POP DUP2 EXTCODESIZE ISZERO PUSH2 0x436 JUMPI PUSH2 0x34E1 SWAP5 PUSH1 0x0 SWAP5 PUSH1 0x40 MLOAD SWAP7 DUP8 SWAP6 DUP7 SWAP5 DUP6 SWAP4 PUSH32 0x5F7B157700000000000000000000000000000000000000000000000000000000 DUP6 MSTORE DUP3 PUSH1 0x4 DUP7 ADD PUSH2 0x3360 JUMP JUMPDEST SUB SWAP3 GAS CALL DUP1 ISZERO PUSH2 0x3506 JUMPI JUMPDEST PUSH2 0x34F3 JUMPI POP JUMP JUMPDEST DUP1 PUSH2 0x3500 PUSH2 0x550 SWAP3 PUSH2 0x4A7 JUMP JUMPDEST DUP1 PUSH2 0x8C2 JUMP JUMPDEST PUSH2 0x350E PUSH2 0x2607 JUMP JUMPDEST PUSH2 0x34EC JUMP JUMPDEST PUSH2 0x352A SWAP3 SWAP7 POP DUP1 RETURNDATASIZE LT PUSH2 0x19AC JUMPI PUSH2 0x1999 DUP2 DUP4 PUSH2 0x500 JUMP JUMPDEST SWAP4 CODESIZE DUP1 PUSH2 0x349A JUMP JUMPDEST PUSH2 0x353A PUSH2 0x2607 JUMP JUMPDEST PUSH2 0x3492 JUMP JUMPDEST PUSH2 0x355F SWAP2 POP DUP6 RETURNDATASIZE DUP8 GT PUSH2 0x3565 JUMPI JUMPDEST PUSH2 0x3557 DUP2 DUP4 PUSH2 0x500 JUMP JUMPDEST DUP2 ADD SWAP1 PUSH2 0x334B JUMP JUMPDEST CODESIZE PUSH2 0x343B JUMP JUMPDEST POP RETURNDATASIZE PUSH2 0x354D JUMP JUMPDEST PUSH2 0x3574 PUSH2 0x2607 JUMP JUMPDEST PUSH2 0x3433 JUMP JUMPDEST SWAP1 PUSH1 0x1 PUSH1 0x1 PUSH1 0xA0 SHL SUB SWAP2 DUP3 PUSH1 0x3B SLOAD AND DUP1 EXTCODESIZE ISZERO PUSH2 0x436 JUMPI PUSH2 0x35E1 SWAP4 PUSH1 0x0 DUP1 SWAP5 PUSH1 0x40 MLOAD SWAP7 DUP8 SWAP6 DUP7 SWAP5 DUP6 SWAP4 PUSH32 0xB2267A7B00000000000000000000000000000000000000000000000000000000 DUP6 MSTORE AND PUSH1 0x4 DUP5 ADD MSTORE DUP4 PUSH1 0x24 DUP5 ADD MSTORE PUSH1 0x80 PUSH1 0x44 DUP5 ADD MSTORE PUSH1 0x84 DUP4 ADD SWAP1 PUSH2 0xAB9 JUMP JUMPDEST DUP3 PUSH1 0x64 DUP4 ADD MSTORE SUB SWAP3 GAS CALL DUP1 ISZERO PUSH2 0x32CF JUMPI PUSH2 0x32C6 JUMPI POP JUMP JUMPDEST SWAP3 PUSH1 0x65 PUSH2 0x36D8 SWAP2 PUSH32 0xFFFFFFFFFFFFFFFF000000000000000000000000000000000000000000000000 SWAP7 SWAP5 SWAP4 PUSH2 0x3635 PUSH1 0x8 SLOAD SWAP6 PUSH1 0x2 SLOAD SWAP4 CALLDATASIZE SWAP2 PUSH2 0x796 JUMP JUMPDEST SWAP1 PUSH1 0x40 MLOAD SWAP9 DUP10 SWAP4 PUSH32 0xFF00000000000000000000000000000000000000000000000000000000000000 PUSH1 0x20 DUP7 ADD SWAP9 PUSH1 0xF8 SHL AND DUP9 MSTORE PUSH1 0xC0 SHL AND PUSH1 0x21 DUP5 ADD MSTORE PUSH32 0xFFFFFFFF00000000000000000000000000000000000000000000000000000000 DUP1 CHAINID PUSH1 0xE0 SHL AND PUSH1 0x29 DUP6 ADD MSTORE CALLER PUSH1 0x60 SHL PUSH1 0x2D DUP6 ADD MSTORE DUP9 PUSH1 0xE0 SHL AND PUSH1 0x41 DUP5 ADD MSTORE PUSH1 0x45 DUP4 ADD MSTORE PUSH2 0x36C8 DUP2 MLOAD DUP1 SWAP3 PUSH1 0x20 DUP7 DUP7 ADD SWAP2 ADD PUSH2 0xA96 JUMP JUMPDEST DUP2 ADD SUB PUSH1 0x45 DUP2 ADD DUP8 MSTORE ADD DUP6 PUSH2 0x500 JUMP JUMPDEST DUP4 MLOAD SWAP1 KECCAK256 SWAP2 PUSH2 0x118 CHAINID EQ ISZERO SWAP1 DUP2 PUSH2 0x36F1 JUMPI JUMPDEST POP PUSH2 0x2E76 JUMPI JUMP JUMPDEST PUSH1 0x1 PUSH1 0x1 PUSH1 0xA0 SHL SUB SWAP2 POP PUSH2 0x106D PUSH2 0x3718 SWAP2 PUSH4 0xFFFFFFFF AND PUSH1 0x0 MSTORE PUSH1 0x5 PUSH1 0x20 MSTORE PUSH1 0x40 PUSH1 0x0 KECCAK256 SWAP1 JUMP JUMPDEST AND ISZERO CODESIZE PUSH2 0x36EA JUMP JUMPDEST SWAP7 SWAP6 SWAP5 SWAP2 SWAP3 PUSH1 0x1 PUSH1 0x1 PUSH1 0xA0 SHL SUB PUSH2 0x374C SWAP3 AND DUP9 MSTORE PUSH1 0x20 SWAP4 DUP5 DUP10 ADD MSTORE PUSH1 0xE0 PUSH1 0x40 DUP10 ADD MSTORE PUSH1 0xE0 DUP9 ADD SWAP1 PUSH2 0xAB9 JUMP JUMPDEST SWAP3 PUSH1 0x60 DUP8 ADD MSTORE PUSH1 0x80 DUP7 ADD MSTORE DUP5 DUP3 SUB PUSH1 0xA0 DUP7 ADD MSTORE PUSH1 0x37 SLOAD DUP1 DUP4 MSTORE DUP2 DUP4 ADD SWAP2 DUP1 DUP3 PUSH1 0x5 SHL DUP6 ADD ADD SWAP4 PUSH1 0x37 PUSH1 0x0 MSTORE PUSH32 0x42A7B7DD785CD69714A189DFFB3FD7D7174EDC9ECE837694CE50F7078F7C31AE SWAP4 PUSH1 0x0 SWAP2 JUMPDEST DUP5 DUP4 LT PUSH2 0x37C1 JUMPI POP POP POP POP POP POP SWAP1 PUSH1 0xC0 PUSH2 0x550 SWAP3 SWAP5 ADD SWAP1 PUSH1 0x1 PUSH1 0x1 PUSH1 0xA0 SHL SUB AND SWAP1 MSTORE JUMP JUMPDEST SWAP1 SWAP2 SWAP3 SWAP4 SWAP5 SWAP6 DUP5 PUSH1 0x1 PUSH2 0x37DE DUP4 PUSH1 0x1F NOT DUP7 DUP5 SWAP7 SUB ADD DUP8 MSTORE DUP11 PUSH2 0x9FF JUMP JUMPDEST SWAP9 ADD SWAP4 ADD SWAP4 ADD SWAP2 SWAP5 SWAP4 SWAP3 SWAP1 PUSH2 0x379D JUMP JUMPDEST PUSH2 0x112F PUSH2 0x382B PUSH1 0x20 SWAP3 PUSH1 0x40 MLOAD SWAP3 DUP4 SWAP2 PUSH32 0xA196E76600000000000000000000000000000000000000000000000000000000 DUP7 DUP5 ADD MSTORE PUSH1 0x24 DUP4 ADD PUSH2 0xADE JUMP JUMPDEST PUSH2 0x3843 PUSH2 0x120B PUSH2 0x120B PUSH1 0x33 SLOAD PUSH1 0x1 PUSH1 0x1 PUSH1 0xA0 SHL SUB AND SWAP1 JUMP JUMPDEST PUSH1 0x39 SLOAD PUSH1 0x34 SLOAD SWAP1 PUSH1 0x35 SLOAD SWAP6 PUSH2 0x389D PUSH1 0x36 SLOAD PUSH2 0x3866 PUSH1 0x38 SLOAD PUSH1 0x1 PUSH1 0x1 PUSH1 0xA0 SHL SUB AND SWAP1 JUMP JUMPDEST SWAP1 PUSH1 0x40 MLOAD SWAP10 DUP11 SWAP9 DUP10 SWAP8 DUP9 SWAP7 PUSH32 0xEB67241900000000000000000000000000000000000000000000000000000000 DUP9 MSTORE PUSH1 0x4 DUP9 ADD PUSH2 0x3720 JUMP JUMPDEST SUB SWAP3 GAS CALL DUP1 ISZERO PUSH2 0x38C9 JUMPI JUMPDEST PUSH2 0x38AF JUMPI POP JUMP JUMPDEST PUSH2 0x38C6 SWAP1 PUSH1 0x20 RETURNDATASIZE DUP2 GT PUSH2 0x19AC JUMPI PUSH2 0x1999 DUP2 DUP4 PUSH2 0x500 JUMP JUMPDEST POP JUMP JUMPDEST PUSH2 0x38D1 PUSH2 0x2607 JUMP JUMPDEST PUSH2 0x38A8 JUMP JUMPDEST PUSH1 0x20 PUSH2 0x3916 SWAP2 PUSH1 0x40 MLOAD DUP1 SWAP4 DUP2 SWAP3 PUSH32 0x62F84B2400000000000000000000000000000000000000000000000000000000 DUP4 MSTORE DUP5 PUSH1 0x4 DUP5 ADD MSTORE PUSH1 0x24 DUP4 ADD SWAP1 PUSH2 0xAB9 JUMP JUMPDEST SUB DUP2 PUSH1 0x0 PUSH2 0x8008 GAS CALL SWAP1 DUP2 ISZERO PUSH2 0x394A JUMPI JUMPDEST PUSH1 0x0 SWAP2 PUSH2 0x3932 JUMPI POP SWAP1 JUMP JUMPDEST PUSH2 0x6B2 SWAP2 POP PUSH1 0x20 RETURNDATASIZE DUP2 GT PUSH2 0x19AC JUMPI PUSH2 0x1999 DUP2 DUP4 PUSH2 0x500 JUMP JUMPDEST PUSH2 0x3952 PUSH2 0x2607 JUMP JUMPDEST PUSH2 0x3927 JUMP JUMPDEST SWAP1 PUSH32 0xFFFFFFFFFFFFFFFFFFFFFFFFFFFFFFFFFFFFFFFFFFFFFFFFFFFFFFFFFFFFFFBB DUP3 ADD SWAP2 DUP3 GT PUSH2 0x3984 JUMPI JUMP JUMPDEST PUSH2 0x550 PUSH2 0x21FC JUMP JUMPDEST SWAP1 PUSH32 0xFFFFFFFFFFFFFFFFFFFFFFFFFFFFFFFFFFFFFFFFFFFFFFFFFFFFFFFFFFFFFF09 DUP3 ADD SWAP2 DUP3 GT PUSH2 0x3984 JUMPI JUMP JUMPDEST SWAP1 PUSH32 0xFFFFFFFFFFFFFFFFFFFFFFFFFFFFFFFFFFFFFFFFFFFFFFFFFFFFFFFFFFFFFF40 DUP3 ADD SWAP2 DUP3 GT PUSH2 0x3984 JUMPI JUMP JUMPDEST SWAP1 PUSH32 0xFFFFFFFFFFFFFFFFFFFFFFFFFFFFFFFFFFFFFFFFFFFFFFFFFFFFFFFFFFFFFF49 DUP3 ADD SWAP2 DUP3 GT PUSH2 0x3984 JUMPI JUMP JUMPDEST SWAP1 PUSH32 0xFFFFFFFFFFFFFFFFFFFFFFFFFFFFFFFFFFFFFFFFFFFFFFFFFFFFFFFFFFFFFF80 DUP3 ADD SWAP2 DUP3 GT PUSH2 0x3984 JUMPI JUMP JUMPDEST SWAP1 PUSH1 0x0 NOT DUP3 ADD SWAP2 DUP3 GT PUSH2 0x3984 JUMPI JUMP JUMPDEST SWAP2 SWAP1 DUP3 SUB SWAP2 DUP3 GT PUSH2 0x3984 JUMPI JUMP JUMPDEST SWAP1 PUSH2 0x3AE3 PUSH2 0x3A68 PUSH2 0x2C05 JUMP JUMPDEST SWAP3 PUSH1 0x1 DUP2 ADD MLOAD PUSH2 0x3ACE PUSH1 0x9 DUP4 ADD MLOAD PUSH2 0x3AC1 PUSH1 0xD DUP6 ADD MLOAD PUSH4 0xFFFFFFFF PUSH1 0x21 DUP8 ADD MLOAD SWAP2 PUSH8 0xFFFFFFFFFFFFFFFF PUSH1 0x25 DUP10 ADD MLOAD SWAP6 PUSH1 0xFF PUSH1 0x45 DUP12 ADD MLOAD SWAP10 AND DUP14 MSTORE AND PUSH1 0x20 DUP13 ADD MSTORE AND PUSH1 0x40 DUP11 ADD MSTORE PUSH1 0x60 DUP10 ADD SWAP1 PUSH1 0x1 PUSH1 0x1 PUSH1 0xA0 SHL SUB AND SWAP1 MSTORE JUMP JUMPDEST PUSH4 0xFFFFFFFF AND PUSH1 0x80 DUP8 ADD MSTORE JUMP JUMPDEST PUSH1 0xA0 DUP6 ADD MSTORE PUSH2 0x3ADD DUP2 MLOAD PUSH2 0x3957 JUMP JUMPDEST SWAP1 PUSH2 0x3BC5 JUMP JUMPDEST PUSH1 0xC0 DUP4 ADD MSTORE JUMP JUMPDEST SWAP1 PUSH1 0x1F DUP3 ADD DUP1 SWAP3 GT PUSH2 0x3984 JUMPI JUMP JUMPDEST PUSH1 0x1 ADD SWAP1 DUP2 PUSH1 0x1 GT PUSH2 0x3984 JUMPI JUMP JUMPDEST SWAP1 PUSH1 0x1 DUP3 ADD DUP1 SWAP3 GT PUSH2 0x3984 JUMPI JUMP JUMPDEST PUSH1 0x45 ADD SWAP1 DUP2 PUSH1 0x45 GT PUSH2 0x3984 JUMPI JUMP JUMPDEST SWAP2 SWAP1 DUP3 ADD DUP1 SWAP3 GT PUSH2 0x3984 JUMPI JUMP JUMPDEST ISZERO PUSH2 0x3B36 JUMPI JUMP JUMPDEST PUSH1 0x64 PUSH1 0x40 MLOAD PUSH3 0x461BCD PUSH1 0xE5 SHL DUP2 MSTORE PUSH1 0x20 PUSH1 0x4 DUP3 ADD MSTORE PUSH1 0xE PUSH1 0x24 DUP3 ADD MSTORE PUSH32 0x736C6963655F6F766572666C6F77000000000000000000000000000000000000 PUSH1 0x44 DUP3 ADD MSTORE REVERT JUMPDEST ISZERO PUSH2 0x3B81 JUMPI JUMP JUMPDEST PUSH1 0x64 PUSH1 0x40 MLOAD PUSH3 0x461BCD PUSH1 0xE5 SHL DUP2 MSTORE PUSH1 0x20 PUSH1 0x4 DUP3 ADD MSTORE PUSH1 0x11 PUSH1 0x24 DUP3 ADD MSTORE PUSH32 0x736C6963655F6F75744F66426F756E6473000000000000000000000000000000 PUSH1 0x44 DUP3 ADD MSTORE REVERT JUMPDEST PUSH2 0x3BD9 DUP3 PUSH2 0x3BD2 DUP2 PUSH2 0x3AEA JUMP JUMPDEST LT ISZERO PUSH2 0x3B2F JUMP JUMPDEST PUSH2 0x3BEE DUP2 MLOAD PUSH2 0x3BE7 DUP5 PUSH2 0x3B14 JUMP JUMPDEST GT ISZERO PUSH2 0x3B7A JUMP JUMPDEST DUP2 PUSH2 0x3C06 JUMPI POP POP PUSH1 0x40 MLOAD PUSH1 0x0 DUP2 MSTORE PUSH1 0x20 DUP2 ADD PUSH1 0x40 MSTORE SWAP1 JUMP JUMPDEST PUSH1 0x40 MLOAD SWAP2 PUSH1 0x1F DUP2 AND SWAP2 PUSH1 0x45 DUP4 ISZERO PUSH1 0x5 SHL DUP1 DUP6 DUP8 ADD ADD SWAP5 DUP5 DUP7 ADD SWAP4 ADD ADD ADD SWAP1 JUMPDEST DUP1 DUP5 LT PUSH2 0x3C3D JUMPI POP POP DUP3 MSTORE PUSH1 0x1F ADD PUSH1 0x1F NOT AND PUSH1 0x40 MSTORE SWAP1 JUMP JUMPDEST SWAP1 SWAP3 DUP4 MLOAD DUP2 MSTORE PUSH1 0x20 DUP1 SWAP2 ADD SWAP4 ADD SWAP1 PUSH2 0x3C25 JUMP JUMPDEST SWAP2 SWAP1 PUSH2 0x3C71 SWAP2 PUSH1 0x40 MLOAD PUSH1 0x20 SWAP5 DUP6 DUP3 ADD MSTORE DUP5 DUP2 MSTORE PUSH2 0x3C6C DUP2 PUSH2 0x4C8 JUMP JUMPDEST PUSH2 0x4BE1 JUMP JUMPDEST DUP1 MLOAD ISZERO PUSH2 0x3CF0 JUMPI PUSH2 0x3C81 SWAP1 PUSH2 0x3DE4 JUMP JUMPDEST PUSH2 0x3C8F PUSH1 0x21 DUP3 MLOAD GT ISZERO PUSH2 0x3E16 JUMP JUMPDEST PUSH2 0x3CB1 DUP3 PUSH2 0x3C9C DUP4 PUSH2 0x452E JUMP JUMPDEST PUSH1 0x2 DUP2 SWAP7 SWAP4 SWAP6 SWAP3 SWAP7 LT ISZERO PUSH2 0x3CE3 JUMPI JUMPDEST ISZERO PUSH2 0x3E16 JUMP JUMPDEST ADD MLOAD SWAP1 DUP2 ADD DUP1 SWAP2 GT PUSH2 0x3CD6 JUMPI JUMPDEST MLOAD SWAP2 DUP1 DUP3 LT PUSH2 0x3CCC JUMPI POP POP SWAP1 JUMP JUMPDEST SUB PUSH2 0x100 EXP SWAP1 DIV SWAP1 JUMP JUMPDEST PUSH2 0x3CDE PUSH2 0x21FC JUMP JUMPDEST PUSH2 0x3CBE JUMP JUMPDEST PUSH2 0x3CEB PUSH2 0xDC2 JUMP JUMPDEST PUSH2 0x3CAB JUMP JUMPDEST PUSH1 0x64 DUP3 PUSH1 0x40 MLOAD SWAP1 PUSH3 0x461BCD PUSH1 0xE5 SHL DUP3 MSTORE PUSH1 0x4 DUP3 ADD MSTORE PUSH1 0x1C PUSH1 0x24 DUP3 ADD MSTORE PUSH32 0x53746F726167652076616C756520646F6573206E6F7420657869737400000000 PUSH1 0x44 DUP3 ADD MSTORE REVERT JUMPDEST PUSH1 0x40 MLOAD SWAP1 PUSH2 0x3D41 DUP3 PUSH2 0x4C8 JUMP JUMPDEST PUSH1 0x0 PUSH1 0x20 DUP4 DUP3 DUP2 MSTORE ADD MSTORE JUMP JUMPDEST ISZERO PUSH2 0x3D54 JUMPI JUMP JUMPDEST PUSH1 0xA4 PUSH1 0x40 MLOAD PUSH3 0x461BCD PUSH1 0xE5 SHL DUP2 MSTORE PUSH1 0x20 PUSH1 0x4 DUP3 ADD MSTORE PUSH1 0x4A PUSH1 0x24 DUP3 ADD MSTORE PUSH32 0x524C505265616465723A206C656E677468206F6620616E20524C50206974656D PUSH1 0x44 DUP3 ADD MSTORE PUSH32 0x206D7573742062652067726561746572207468616E207A65726F20746F206265 PUSH1 0x64 DUP3 ADD MSTORE PUSH32 0x206465636F6461626C6500000000000000000000000000000000000000000000 PUSH1 0x84 DUP3 ADD MSTORE REVERT JUMPDEST PUSH2 0x3DEC PUSH2 0x3D34 JUMP JUMPDEST POP PUSH2 0x3DF9 DUP2 MLOAD ISZERO ISZERO PUSH2 0x3D4D JUMP JUMPDEST PUSH1 0x20 DUP2 MLOAD SWAP2 PUSH1 0x40 MLOAD SWAP3 PUSH2 0x3E0B DUP5 PUSH2 0x4C8 JUMP JUMPDEST DUP4 MSTORE ADD PUSH1 0x20 DUP3 ADD MSTORE SWAP1 JUMP JUMPDEST ISZERO PUSH2 0x3E1D JUMPI JUMP JUMPDEST PUSH1 0x64 PUSH1 0x40 MLOAD PUSH3 0x461BCD PUSH1 0xE5 SHL DUP2 MSTORE PUSH1 0x20 PUSH1 0x4 DUP3 ADD MSTORE PUSH1 0x1A PUSH1 0x24 DUP3 ADD MSTORE PUSH32 0x496E76616C696420524C5020627974657333322076616C75652E000000000000 PUSH1 0x44 DUP3 ADD MSTORE REVERT JUMPDEST PUSH2 0x3E6F PUSH1 0x21 DUP3 MLOAD GT ISZERO PUSH2 0x3E16 JUMP JUMPDEST PUSH2 0x3E7D PUSH1 0x20 PUSH2 0x3C9C DUP4 PUSH2 0x452E JUMP JUMPDEST ADD MLOAD SWAP1 DUP2 ADD DUP1 SWAP2 GT PUSH2 0x3EA4 JUMPI JUMPDEST MLOAD SWAP1 PUSH1 0x20 DUP2 LT PUSH2 0x3E98 JUMPI POP SWAP1 JUMP JUMPDEST PUSH1 0x20 SUB PUSH2 0x100 EXP SWAP1 DIV SWAP1 JUMP JUMPDEST PUSH2 0x3EAC PUSH2 0x21FC JUMP JUMPDEST PUSH2 0x3E8A JUMP JUMPDEST ISZERO PUSH2 0x3EB8 JUMPI JUMP JUMPDEST PUSH1 0xA4 PUSH1 0x40 MLOAD PUSH3 0x461BCD PUSH1 0xE5 SHL DUP2 MSTORE PUSH1 0x20 PUSH1 0x4 DUP3 ADD MSTORE PUSH1 0x4D PUSH1 0x24 DUP3 ADD MSTORE PUSH32 0x524C505265616465723A206C656E677468206F6620636F6E74656E74206D7573 PUSH1 0x44 DUP3 ADD MSTORE PUSH32 0x74206265203E207468616E206C656E677468206F66206C697374206C656E6774 PUSH1 0x64 DUP3 ADD MSTORE PUSH32 0x6820286C6F6E67206C6973742900000000000000000000000000000000000000 PUSH1 0x84 DUP3 ADD MSTORE REVERT JUMPDEST ISZERO PUSH2 0x3F4F JUMPI JUMP JUMPDEST PUSH1 0xA4 PUSH1 0x40 MLOAD PUSH3 0x461BCD PUSH1 0xE5 SHL DUP2 MSTORE PUSH1 0x20 PUSH1 0x4 DUP3 ADD MSTORE PUSH1 0x48 PUSH1 0x24 DUP3 ADD MSTORE PUSH32 0x524C505265616465723A206C656E677468206F6620636F6E74656E74206D7573 PUSH1 0x44 DUP3 ADD MSTORE PUSH32 0x74206E6F74206861766520616E79206C656164696E67207A65726F7320286C6F PUSH1 0x64 DUP3 ADD MSTORE PUSH32 0x6E67206C69737429000000000000000000000000000000000000000000000000 PUSH1 0x84 DUP3 ADD MSTORE REVERT JUMPDEST ISZERO PUSH2 0x3FE6 JUMPI JUMP JUMPDEST PUSH1 0xA4 PUSH1 0x40 MLOAD PUSH3 0x461BCD PUSH1 0xE5 SHL DUP2 MSTORE PUSH1 0x20 PUSH1 0x4 DUP3 ADD MSTORE PUSH1 0x46 PUSH1 0x24 DUP3 ADD MSTORE PUSH32 0x524C505265616465723A206C656E677468206F6620636F6E74656E74206D7573 PUSH1 0x44 DUP3 ADD MSTORE PUSH32 0x742062652067726561746572207468616E20353520627974657320286C6F6E67 PUSH1 0x64 DUP3 ADD MSTORE PUSH32 0x206C697374290000000000000000000000000000000000000000000000000000 PUSH1 0x84 DUP3 ADD MSTORE REVERT JUMPDEST ISZERO PUSH2 0x407D JUMPI JUMP JUMPDEST PUSH1 0xA4 PUSH1 0x40 MLOAD PUSH3 0x461BCD PUSH1 0xE5 SHL DUP2 MSTORE PUSH1 0x20 PUSH1 0x4 DUP3 ADD MSTORE PUSH1 0x4A PUSH1 0x24 DUP3 ADD MSTORE PUSH32 0x524C505265616465723A206C656E677468206F6620636F6E74656E74206D7573 PUSH1 0x44 DUP3 ADD MSTORE PUSH32 0x742062652067726561746572207468616E20746F74616C206C656E6774682028 PUSH1 0x64 DUP3 ADD MSTORE PUSH32 0x6C6F6E67206C6973742900000000000000000000000000000000000000000000 PUSH1 0x84 DUP3 ADD MSTORE REVERT JUMPDEST ISZERO PUSH2 0x4114 JUMPI JUMP JUMPDEST PUSH1 0xA4 PUSH1 0x40 MLOAD PUSH3 0x461BCD PUSH1 0xE5 SHL DUP2 MSTORE PUSH1 0x20 PUSH1 0x4 DUP3 ADD MSTORE PUSH1 0x4A PUSH1 0x24 DUP3 ADD MSTORE PUSH32 0x524C505265616465723A206C656E677468206F6620636F6E74656E74206D7573 PUSH1 0x44 DUP3 ADD MSTORE PUSH32 0x742062652067726561746572207468616E206C697374206C656E677468202873 PUSH1 0x64 DUP3 ADD MSTORE PUSH32 0x686F7274206C6973742900000000000000000000000000000000000000000000 PUSH1 0x84 DUP3 ADD MSTORE REVERT JUMPDEST ISZERO PUSH2 0x41AB JUMPI JUMP JUMPDEST PUSH1 0xA4 PUSH1 0x40 MLOAD PUSH3 0x461BCD PUSH1 0xE5 SHL DUP2 MSTORE PUSH1 0x20 PUSH1 0x4 DUP3 ADD MSTORE PUSH1 0x51 PUSH1 0x24 DUP3 ADD MSTORE PUSH32 0x524C505265616465723A206C656E677468206F6620636F6E74656E74206D7573 PUSH1 0x44 DUP3 ADD MSTORE PUSH32 0x74206265203E207468616E206C656E677468206F6620737472696E67206C656E PUSH1 0x64 DUP3 ADD MSTORE PUSH32 0x67746820286C6F6E6720737472696E6729000000000000000000000000000000 PUSH1 0x84 DUP3 ADD MSTORE REVERT JUMPDEST ISZERO PUSH2 0x4242 JUMPI JUMP JUMPDEST PUSH1 0xA4 PUSH1 0x40 MLOAD PUSH3 0x461BCD PUSH1 0xE5 SHL DUP2 MSTORE PUSH1 0x20 PUSH1 0x4 DUP3 ADD MSTORE PUSH1 0x4A PUSH1 0x24 DUP3 ADD MSTORE PUSH32 0x524C505265616465723A206C656E677468206F6620636F6E74656E74206D7573 PUSH1 0x44 DUP3 ADD MSTORE PUSH32 0x74206E6F74206861766520616E79206C656164696E67207A65726F7320286C6F PUSH1 0x64 DUP3 ADD MSTORE PUSH32 0x6E6720737472696E672900000000000000000000000000000000000000000000 PUSH1 0x84 DUP3 ADD MSTORE REVERT JUMPDEST ISZERO PUSH2 0x42D9 JUMPI JUMP JUMPDEST PUSH1 0xA4 PUSH1 0x40 MLOAD PUSH3 0x461BCD PUSH1 0xE5 SHL DUP2 MSTORE PUSH1 0x20 PUSH1 0x4 DUP3 ADD MSTORE PUSH1 0x48 PUSH1 0x24 DUP3 ADD MSTORE PUSH32 0x524C505265616465723A206C656E677468206F6620636F6E74656E74206D7573 PUSH1 0x44 DUP3 ADD MSTORE PUSH32 0x742062652067726561746572207468616E20353520627974657320286C6F6E67 PUSH1 0x64 DUP3 ADD MSTORE PUSH32 0x20737472696E6729000000000000000000000000000000000000000000000000 PUSH1 0x84 DUP3 ADD MSTORE REVERT JUMPDEST ISZERO PUSH2 0x4370 JUMPI JUMP JUMPDEST PUSH1 0xA4 PUSH1 0x40 MLOAD PUSH3 0x461BCD PUSH1 0xE5 SHL DUP2 MSTORE PUSH1 0x20 PUSH1 0x4 DUP3 ADD MSTORE PUSH1 0x4C PUSH1 0x24 DUP3 ADD MSTORE PUSH32 0x524C505265616465723A206C656E677468206F6620636F6E74656E74206D7573 PUSH1 0x44 DUP3 ADD MSTORE PUSH32 0x742062652067726561746572207468616E20746F74616C206C656E6774682028 PUSH1 0x64 DUP3 ADD MSTORE PUSH32 0x6C6F6E6720737472696E67290000000000000000000000000000000000000000 PUSH1 0x84 DUP3 ADD MSTORE REVERT JUMPDEST ISZERO PUSH2 0x4407 JUMPI JUMP JUMPDEST PUSH1 0xA4 PUSH1 0x40 MLOAD PUSH3 0x461BCD PUSH1 0xE5 SHL DUP2 MSTORE PUSH1 0x20 PUSH1 0x4 DUP3 ADD MSTORE PUSH1 0x4E PUSH1 0x24 DUP3 ADD MSTORE PUSH32 0x524C505265616465723A206C656E677468206F6620636F6E74656E74206D7573 PUSH1 0x44 DUP3 ADD MSTORE PUSH32 0x742062652067726561746572207468616E20737472696E67206C656E67746820 PUSH1 0x64 DUP3 ADD MSTORE PUSH32 0x2873686F727420737472696E6729000000000000000000000000000000000000 PUSH1 0x84 DUP3 ADD MSTORE REVERT JUMPDEST ISZERO PUSH2 0x449E JUMPI JUMP JUMPDEST PUSH1 0xA4 PUSH1 0x40 MLOAD PUSH3 0x461BCD PUSH1 0xE5 SHL DUP2 MSTORE PUSH1 0x20 PUSH1 0x4 DUP3 ADD MSTORE PUSH1 0x4D PUSH1 0x24 DUP3 ADD MSTORE PUSH32 0x524C505265616465723A20696E76616C6964207072656669782C2073696E676C PUSH1 0x44 DUP3 ADD MSTORE PUSH32 0x652062797465203C203078383020617265206E6F742070726566697865642028 PUSH1 0x64 DUP3 ADD MSTORE PUSH32 0x73686F727420737472696E672900000000000000000000000000000000000000 PUSH1 0x84 DUP3 ADD MSTORE REVERT JUMPDEST SWAP1 PUSH2 0x453B DUP3 MLOAD ISZERO ISZERO PUSH2 0x3D4D JUMP JUMPDEST PUSH1 0x20 DUP3 ADD MLOAD DUP1 MLOAD PUSH1 0x0 BYTE SWAP1 PUSH1 0x7F DUP3 GT PUSH2 0x455B JUMPI POP PUSH1 0x0 SWAP3 POP PUSH1 0x1 SWAP2 DUP4 SWAP2 POP JUMP JUMPDEST PUSH1 0xB7 DUP3 GT PUSH2 0x45E9 JUMPI PUSH1 0x1 PUSH32 0xFF00000000000000000000000000000000000000000000000000000000000000 SWAP2 PUSH2 0x459F PUSH2 0x4596 PUSH2 0x45B5 SWAP6 PUSH2 0x3A13 JUMP JUMPDEST DUP1 SWAP8 MLOAD GT PUSH2 0x4400 JUMP JUMPDEST ADD MLOAD AND PUSH1 0x1 DUP5 EQ SWAP1 DUP2 ISZERO SWAP2 PUSH2 0x45BE JUMPI JUMPDEST POP PUSH2 0x4497 JUMP JUMPDEST PUSH1 0x1 SWAP2 SWAP1 PUSH1 0x0 SWAP1 JUMP JUMPDEST PUSH32 0x8000000000000000000000000000000000000000000000000000000000000000 SWAP2 POP LT ISZERO CODESIZE PUSH2 0x45AF JUMP JUMPDEST PUSH1 0xBF DUP3 GT PUSH2 0x4672 JUMPI PUSH2 0x4666 PUSH1 0x1 PUSH2 0x4602 PUSH2 0x466B SWAP5 PUSH2 0x39E6 JUMP JUMPDEST SWAP3 PUSH2 0x460F DUP5 DUP9 MLOAD GT PUSH2 0x41A4 JUMP JUMPDEST ADD PUSH2 0x463E PUSH32 0xFF00000000000000000000000000000000000000000000000000000000000000 DUP3 MLOAD AND ISZERO ISZERO PUSH2 0x423B JUMP JUMPDEST MLOAD DUP3 PUSH1 0x3 SHL PUSH2 0x100 SUB SHR SWAP5 PUSH2 0x4655 PUSH1 0x37 DUP8 GT PUSH2 0x42D2 JUMP JUMPDEST MLOAD PUSH2 0x4660 DUP7 DUP5 PUSH2 0x3B22 JUMP JUMPDEST LT PUSH2 0x4369 JUMP JUMPDEST PUSH2 0x3AF8 JUMP JUMPDEST SWAP2 SWAP1 PUSH1 0x0 SWAP1 JUMP JUMPDEST PUSH1 0xF7 DUP3 GT PUSH2 0x4698 JUMPI POP PUSH2 0x4687 PUSH2 0x4690 SWAP2 PUSH2 0x39B9 JUMP JUMPDEST DUP1 SWAP4 MLOAD GT PUSH2 0x410D JUMP JUMPDEST PUSH1 0x1 SWAP2 SWAP1 DUP3 SWAP1 JUMP JUMPDEST PUSH2 0x4666 PUSH1 0x1 PUSH2 0x46A9 PUSH2 0x470D SWAP5 PUSH2 0x398C JUMP JUMPDEST SWAP3 PUSH2 0x46B6 DUP5 DUP9 MLOAD GT PUSH2 0x3EB1 JUMP JUMPDEST ADD PUSH2 0x46E5 PUSH32 0xFF00000000000000000000000000000000000000000000000000000000000000 DUP3 MLOAD AND ISZERO ISZERO PUSH2 0x3F48 JUMP JUMPDEST MLOAD DUP3 PUSH1 0x3 SHL PUSH2 0x100 SUB SHR SWAP5 PUSH2 0x46FC PUSH1 0x37 DUP8 GT PUSH2 0x3FDF JUMP JUMPDEST MLOAD PUSH2 0x4707 DUP7 DUP5 PUSH2 0x3B22 JUMP JUMPDEST LT PUSH2 0x4076 JUMP JUMPDEST SWAP2 SWAP1 PUSH1 0x1 SWAP1 JUMP JUMPDEST ISZERO PUSH2 0x471B JUMPI JUMP JUMPDEST PUSH1 0x64 PUSH1 0x40 MLOAD PUSH3 0x461BCD PUSH1 0xE5 SHL DUP2 MSTORE PUSH1 0x20 PUSH1 0x4 DUP3 ADD MSTORE PUSH1 0x15 PUSH1 0x24 DUP3 ADD MSTORE PUSH32 0x4D65726B6C65547269653A20656D707479206B65790000000000000000000000 PUSH1 0x44 DUP3 ADD MSTORE REVERT JUMPDEST ISZERO PUSH2 0x4766 JUMPI JUMP JUMPDEST PUSH1 0x84 PUSH1 0x40 MLOAD PUSH3 0x461BCD PUSH1 0xE5 SHL DUP2 MSTORE PUSH1 0x20 PUSH1 0x4 DUP3 ADD MSTORE PUSH1 0x2E PUSH1 0x24 DUP3 ADD MSTORE PUSH32 0x4D65726B6C65547269653A206B657920696E646578206578636565647320746F PUSH1 0x44 DUP3 ADD MSTORE PUSH32 0x74616C206B6579206C656E677468000000000000000000000000000000000000 PUSH1 0x64 DUP3 ADD MSTORE REVERT JUMPDEST ISZERO PUSH2 0x47D7 JUMPI JUMP JUMPDEST PUSH1 0x84 PUSH1 0x40 MLOAD PUSH3 0x461BCD PUSH1 0xE5 SHL DUP2 MSTORE PUSH1 0x20 PUSH1 0x4 DUP3 ADD MSTORE PUSH1 0x26 PUSH1 0x24 DUP3 ADD MSTORE PUSH32 0x4D65726B6C65547269653A20696E76616C696420696E7465726E616C206E6F64 PUSH1 0x44 DUP3 ADD MSTORE PUSH32 0x6520686173680000000000000000000000000000000000000000000000000000 PUSH1 0x64 DUP3 ADD MSTORE REVERT JUMPDEST ISZERO PUSH2 0x4848 JUMPI JUMP JUMPDEST PUSH1 0x84 PUSH1 0x40 MLOAD PUSH3 0x461BCD PUSH1 0xE5 SHL DUP2 MSTORE PUSH1 0x20 PUSH1 0x4 DUP3 ADD MSTORE PUSH1 0x27 PUSH1 0x24 DUP3 ADD MSTORE PUSH32 0x4D65726B6C65547269653A20696E76616C6964206C6172676520696E7465726E PUSH1 0x44 DUP3 ADD MSTORE PUSH32 0x616C206861736800000000000000000000000000000000000000000000000000 PUSH1 0x64 DUP3 ADD MSTORE REVERT JUMPDEST ISZERO PUSH2 0x48B9 JUMPI JUMP JUMPDEST PUSH1 0x64 PUSH1 0x40 MLOAD PUSH3 0x461BCD PUSH1 0xE5 SHL DUP2 MSTORE PUSH1 0x20 PUSH1 0x4 DUP3 ADD MSTORE PUSH1 0x1D PUSH1 0x24 DUP3 ADD MSTORE PUSH32 0x4D65726B6C65547269653A20696E76616C696420726F6F742068617368000000 PUSH1 0x44 DUP3 ADD MSTORE REVERT JUMPDEST PUSH1 0x20 SWAP1 DUP1 MLOAD ISZERO PUSH2 0x226F JUMPI ADD SWAP1 JUMP JUMPDEST SWAP1 PUSH1 0x20 SWAP2 DUP1 MLOAD DUP3 LT ISZERO PUSH2 0x491D JUMPI ADD ADD SWAP1 JUMP JUMPDEST PUSH2 0x4925 PUSH2 0x97C JUMP JUMPDEST ADD ADD SWAP1 JUMP JUMPDEST PUSH1 0xFF AND PUSH1 0x2 SUB SWAP1 PUSH1 0xFF DUP3 GT PUSH2 0x3984 JUMPI JUMP JUMPDEST ISZERO PUSH2 0x4942 JUMPI JUMP JUMPDEST PUSH1 0x84 PUSH1 0x40 MLOAD PUSH3 0x461BCD PUSH1 0xE5 SHL DUP2 MSTORE PUSH1 0x20 PUSH1 0x4 DUP3 ADD MSTORE PUSH1 0x3A PUSH1 0x24 DUP3 ADD MSTORE PUSH32 0x4D65726B6C65547269653A20706174682072656D61696E646572206D75737420 PUSH1 0x44 DUP3 ADD MSTORE PUSH32 0x736861726520616C6C206E6962626C65732077697468206B6579000000000000 PUSH1 0x64 DUP3 ADD MSTORE REVERT JUMPDEST ISZERO PUSH2 0x49B3 JUMPI JUMP JUMPDEST PUSH1 0x84 PUSH1 0x40 MLOAD PUSH3 0x461BCD PUSH1 0xE5 SHL DUP2 MSTORE PUSH1 0x20 PUSH1 0x4 DUP3 ADD MSTORE PUSH1 0x3D PUSH1 0x24 DUP3 ADD MSTORE PUSH32 0x4D65726B6C65547269653A206B65792072656D61696E646572206D7573742062 PUSH1 0x44 DUP3 ADD MSTORE PUSH32 0x65206964656E746963616C20746F20706174682072656D61696E646572000000 PUSH1 0x64 DUP3 ADD MSTORE REVERT JUMPDEST ISZERO PUSH2 0x4A24 JUMPI JUMP JUMPDEST PUSH1 0x84 PUSH1 0x40 MLOAD PUSH3 0x461BCD PUSH1 0xE5 SHL DUP2 MSTORE PUSH1 0x20 PUSH1 0x4 DUP3 ADD MSTORE PUSH1 0x39 PUSH1 0x24 DUP3 ADD MSTORE PUSH32 0x4D65726B6C65547269653A2076616C7565206C656E677468206D757374206265 PUSH1 0x44 DUP3 ADD MSTORE PUSH32 0x2067726561746572207468616E207A65726F20286C6561662900000000000000 PUSH1 0x64 DUP3 ADD MSTORE REVERT JUMPDEST ISZERO PUSH2 0x4A95 JUMPI JUMP JUMPDEST PUSH1 0x84 PUSH1 0x40 MLOAD PUSH3 0x461BCD PUSH1 0xE5 SHL DUP2 MSTORE PUSH1 0x20 PUSH1 0x4 DUP3 ADD MSTORE PUSH1 0x38 PUSH1 0x24 DUP3 ADD MSTORE PUSH32 0x4D65726B6C65547269653A2076616C7565206E6F6465206D757374206265206C PUSH1 0x44 DUP3 ADD MSTORE PUSH32 0x617374206E6F646520696E2070726F6F6620286C656166290000000000000000 PUSH1 0x64 DUP3 ADD MSTORE REVERT JUMPDEST ISZERO PUSH2 0x4B06 JUMPI JUMP JUMPDEST PUSH1 0x84 PUSH1 0x40 MLOAD PUSH3 0x461BCD PUSH1 0xE5 SHL DUP2 MSTORE PUSH1 0x20 PUSH1 0x4 DUP3 ADD MSTORE PUSH1 0x3B PUSH1 0x24 DUP3 ADD MSTORE PUSH32 0x4D65726B6C65547269653A2076616C7565206C656E677468206D757374206265 PUSH1 0x44 DUP3 ADD MSTORE PUSH32 0x2067726561746572207468616E207A65726F20286272616E6368290000000000 PUSH1 0x64 DUP3 ADD MSTORE REVERT JUMPDEST ISZERO PUSH2 0x4B77 JUMPI JUMP JUMPDEST PUSH1 0x84 PUSH1 0x40 MLOAD PUSH3 0x461BCD PUSH1 0xE5 SHL DUP2 MSTORE PUSH1 0x20 PUSH1 0x4 DUP3 ADD MSTORE PUSH1 0x3A PUSH1 0x24 DUP3 ADD MSTORE PUSH32 0x4D65726B6C65547269653A2076616C7565206E6F6465206D757374206265206C PUSH1 0x44 DUP3 ADD MSTORE PUSH32 0x617374206E6F646520696E2070726F6F6620286272616E636829000000000000 PUSH1 0x64 DUP3 ADD MSTORE REVERT JUMPDEST SWAP2 SWAP1 PUSH2 0x4BFB PUSH2 0x4C01 SWAP2 PUSH2 0x4BF6 DUP6 MLOAD ISZERO ISZERO PUSH2 0x4714 JUMP JUMPDEST PUSH2 0x5385 JUMP JUMPDEST SWAP3 PUSH2 0x50FB JUMP JUMPDEST SWAP1 PUSH1 0x40 DUP1 MLOAD SWAP1 DUP2 PUSH2 0x4C1A PUSH1 0x20 SWAP5 DUP6 DUP4 ADD PUSH1 0x20 SWAP2 DUP2 MSTORE ADD SWAP1 JUMP JUMPDEST SUB SWAP2 PUSH2 0x4C2E PUSH1 0x1F NOT SWAP4 DUP5 DUP2 ADD DUP4 MSTORE DUP3 PUSH2 0x500 JUMP JUMPDEST SWAP4 PUSH1 0x0 SWAP3 DUP4 SWAP5 JUMPDEST DUP8 MLOAD DUP7 LT ISZERO PUSH2 0x4F9A JUMPI PUSH2 0x4C48 DUP7 DUP10 PUSH2 0x229A JUMP JUMPDEST MLOAD SWAP7 PUSH2 0x4C57 DUP5 MLOAD DUP8 GT ISZERO PUSH2 0x475F JUMP JUMPDEST DUP6 PUSH2 0x4F46 JUMPI PUSH2 0x4CA1 PUSH2 0x4CA6 SWAP2 PUSH2 0x4C82 PUSH2 0x4C8E DUP12 MLOAD DUP7 DUP2 MLOAD SWAP2 ADD KECCAK256 DUP10 MLOAD SWAP3 DUP4 SWAP2 DUP9 DUP4 ADD PUSH1 0x20 SWAP2 DUP2 MSTORE ADD SWAP1 JUMP JUMPDEST SUB DUP8 DUP2 ADD DUP4 MSTORE DUP3 PUSH2 0x500 JUMP JUMPDEST PUSH1 0x20 DUP2 MLOAD SWAP2 ADD KECCAK256 SWAP1 PUSH1 0x20 DUP2 MLOAD SWAP2 ADD KECCAK256 EQ SWAP1 JUMP JUMPDEST PUSH2 0x48B2 JUMP JUMPDEST DUP1 DUP8 ADD SWAP7 DUP8 MLOAD MLOAD PUSH1 0x11 DUP2 EQ PUSH1 0x0 EQ PUSH2 0x4D6F JUMPI POP POP DUP3 MLOAD DUP6 SUB PUSH2 0x4CF9 JUMPI POP POP POP POP POP PUSH2 0x4CF3 PUSH2 0x4CE0 PUSH2 0x4CDA PUSH2 0x6B2 SWAP5 MLOAD PUSH2 0x2277 JUMP JUMPDEST MLOAD PUSH2 0x51AF JUMP JUMPDEST SWAP4 PUSH2 0x4CED DUP6 MLOAD ISZERO ISZERO PUSH2 0x4AFF JUMP JUMPDEST MLOAD PUSH2 0x3A40 JUMP JUMPDEST EQ PUSH2 0x4B70 JUMP JUMPDEST SWAP1 SWAP2 SWAP3 SWAP5 SWAP4 SWAP6 PUSH2 0x4D60 PUSH2 0x4D5A PUSH2 0x4D54 PUSH2 0x4D66 SWAP4 PUSH1 0xFF PUSH2 0x4D4A PUSH2 0x4D44 PUSH2 0x4D1E DUP15 DUP13 PUSH2 0x490B JUMP JUMPDEST MLOAD PUSH32 0xFF00000000000000000000000000000000000000000000000000000000000000 AND SWAP1 JUMP JUMPDEST PUSH1 0xF8 SHR SWAP1 JUMP JUMPDEST SWAP2 MLOAD SWAP2 AND SWAP1 PUSH2 0x229A JUMP JUMPDEST MLOAD PUSH2 0x568C JUMP JUMPDEST SWAP8 PUSH2 0x3B06 JUMP JUMPDEST SWAP5 PUSH2 0x224E JUMP JUMPDEST SWAP5 SWAP3 SWAP2 SWAP1 PUSH2 0x4C35 JUMP JUMPDEST SWAP5 SWAP3 SWAP1 SWAP10 SWAP9 SWAP8 SWAP6 SWAP4 SWAP2 PUSH1 0x2 DUP1 SWAP7 EQ PUSH1 0x0 EQ PUSH2 0x4EDC JUMPI PUSH2 0x4D91 PUSH1 0xFF SWAP10 SWAP11 SWAP12 PUSH2 0x56B1 JUMP JUMPDEST SWAP6 PUSH2 0x4DA1 PUSH2 0x4D44 PUSH2 0x4D1E DUP10 PUSH2 0x48FD JUMP JUMPDEST SWAP7 PUSH2 0x4DBC PUSH1 0x1 SWAP2 PUSH2 0x4DB6 PUSH2 0x2D66 DUP5 DUP13 AND PUSH2 0x492A JUMP JUMPDEST SWAP1 PUSH2 0x5004 JUMP JUMPDEST SWAP11 DUP12 SWAP9 PUSH2 0x4DDF PUSH2 0x4DD6 PUSH2 0x4DCF DUP12 DUP11 PUSH2 0x5004 JUMP JUMPDEST DUP1 SWAP13 PUSH2 0x56DE JUMP JUMPDEST DUP1 SWAP15 MLOAD EQ PUSH2 0x493B JUMP JUMPDEST AND SWAP2 DUP3 EQ DUP1 ISZERO PUSH2 0x4ED2 JUMPI JUMPDEST ISZERO PUSH2 0x4E28 JUMPI POP POP POP POP POP POP POP PUSH2 0x4CDA PUSH2 0x4E22 SWAP3 PUSH2 0x4E0F PUSH2 0x6B2 SWAP7 PUSH2 0x4E15 SWAP5 MLOAD EQ PUSH2 0x49AC JUMP JUMPDEST MLOAD PUSH2 0x225E JUMP JUMPDEST SWAP4 PUSH2 0x4CED DUP6 MLOAD ISZERO ISZERO PUSH2 0x4A1D JUMP JUMPDEST EQ PUSH2 0x4A8E JUMP JUMPDEST SWAP1 DUP1 SWAP3 SWAP6 SWAP10 SWAP9 SWAP4 SWAP7 SWAP11 SWAP5 SWAP8 POP ISZERO SWAP2 DUP3 ISZERO PUSH2 0x4EC8 JUMPI JUMPDEST POP POP ISZERO PUSH2 0x4E5E JUMPI PUSH2 0x4D66 SWAP2 PUSH2 0x4E58 PUSH2 0x4D54 PUSH2 0x4D60 SWAP4 MLOAD PUSH2 0x225E JUMP JUMPDEST SWAP9 PUSH2 0x3B22 JUMP JUMPDEST DUP7 MLOAD PUSH3 0x461BCD PUSH1 0xE5 SHL DUP2 MSTORE PUSH1 0x20 PUSH1 0x4 DUP3 ADD MSTORE PUSH1 0x32 PUSH1 0x24 DUP3 ADD MSTORE PUSH32 0x4D65726B6C65547269653A2072656365697665642061206E6F64652077697468 PUSH1 0x44 DUP3 ADD MSTORE PUSH32 0x20616E20756E6B6E6F776E207072656669780000000000000000000000000000 PUSH1 0x64 DUP3 ADD MSTORE PUSH1 0x84 SWAP1 REVERT JUMPDEST EQ SWAP1 POP CODESIZE DUP1 PUSH2 0x4E3D JUMP JUMPDEST POP PUSH1 0x3 DUP3 EQ PUSH2 0x4DEA JUMP JUMPDEST DUP4 MLOAD PUSH3 0x461BCD PUSH1 0xE5 SHL DUP2 MSTORE PUSH1 0x20 PUSH1 0x4 DUP3 ADD MSTORE PUSH1 0x28 PUSH1 0x24 DUP3 ADD MSTORE PUSH32 0x4D65726B6C65547269653A20726563656976656420616E20756E706172736561 PUSH1 0x44 DUP3 ADD MSTORE PUSH32 0x626C65206E6F6465000000000000000000000000000000000000000000000000 PUSH1 0x64 DUP3 ADD MSTORE PUSH1 0x84 SWAP1 REVERT JUMPDEST DUP8 MLOAD DUP1 MLOAD DUP4 GT PUSH2 0x4F81 JUMPI POP PUSH2 0x4F77 PUSH2 0x4F7C SWAP2 PUSH2 0x4C82 PUSH2 0x4C8E DUP12 MLOAD DUP7 DUP2 MLOAD SWAP2 ADD KECCAK256 DUP10 MLOAD SWAP3 DUP4 SWAP2 DUP9 DUP4 ADD PUSH1 0x20 SWAP2 DUP2 MSTORE ADD SWAP1 JUMP JUMPDEST PUSH2 0x4841 JUMP JUMPDEST PUSH2 0x4CA6 JUMP JUMPDEST DUP1 MLOAD PUSH1 0x20 SWAP2 DUP3 ADD KECCAK256 DUP3 MLOAD SWAP2 SWAP1 SWAP3 ADD KECCAK256 PUSH2 0x4F7C SWAP2 EQ PUSH2 0x47D0 JUMP JUMPDEST DUP4 MLOAD PUSH3 0x461BCD PUSH1 0xE5 SHL DUP2 MSTORE PUSH1 0x20 PUSH1 0x4 DUP3 ADD MSTORE PUSH1 0x25 PUSH1 0x24 DUP3 ADD MSTORE PUSH32 0x4D65726B6C65547269653A2072616E206F7574206F662070726F6F6620656C65 PUSH1 0x44 DUP3 ADD MSTORE PUSH32 0x6D656E7473000000000000000000000000000000000000000000000000000000 PUSH1 0x64 DUP3 ADD MSTORE PUSH1 0x84 SWAP1 REVERT JUMPDEST SWAP1 DUP2 MLOAD DUP2 LT ISZERO PUSH2 0x50B5 JUMPI DUP2 MLOAD DUP2 DUP1 DUP3 SUB SWAP2 DUP1 DUP4 GT PUSH2 0x50A8 JUMPI JUMPDEST PUSH2 0x502C DUP4 PUSH1 0x1F DUP2 ADD LT ISZERO PUSH2 0x3B2F JUMP JUMPDEST PUSH2 0x5047 DUP4 DUP4 ADD PUSH2 0x503E DUP5 DUP3 LT ISZERO PUSH2 0x3B2F JUMP JUMPDEST DUP7 MLOAD LT ISZERO PUSH2 0x3B7A JUMP JUMPDEST SUB PUSH2 0x5060 JUMPI POP POP POP PUSH1 0x40 MLOAD PUSH1 0x0 DUP2 MSTORE PUSH1 0x20 DUP2 ADD PUSH1 0x40 MSTORE SWAP1 JUMP JUMPDEST PUSH1 0x40 MLOAD SWAP3 PUSH1 0x1F DUP3 AND SWAP3 DUP4 ISZERO PUSH1 0x5 SHL DUP1 DUP6 DUP8 ADD ADD SWAP5 DUP5 DUP7 ADD SWAP4 ADD ADD ADD SWAP1 JUMPDEST DUP1 DUP5 LT PUSH2 0x5095 JUMPI POP POP DUP3 MSTORE PUSH1 0x1F ADD PUSH1 0x1F NOT AND PUSH1 0x40 MSTORE SWAP1 JUMP JUMPDEST SWAP1 SWAP3 DUP4 MLOAD DUP2 MSTORE PUSH1 0x20 DUP1 SWAP2 ADD SWAP4 ADD SWAP1 PUSH2 0x507D JUMP JUMPDEST PUSH2 0x50B0 PUSH2 0x21FC JUMP JUMPDEST PUSH2 0x501D JUMP JUMPDEST POP POP PUSH1 0x40 MLOAD PUSH2 0x50C3 DUP2 PUSH2 0x4E4 JUMP JUMPDEST PUSH1 0x0 DUP2 MSTORE SWAP1 JUMP JUMPDEST SWAP1 PUSH2 0x50D4 DUP3 PUSH2 0x76B JUMP JUMPDEST PUSH2 0x50E1 PUSH1 0x40 MLOAD SWAP2 DUP3 PUSH2 0x500 JUMP JUMPDEST DUP3 DUP2 MSTORE PUSH1 0x1F NOT PUSH2 0x50F1 DUP3 SWAP5 PUSH2 0x76B JUMP JUMPDEST ADD SWAP1 PUSH1 0x20 CALLDATASIZE SWAP2 ADD CALLDATACOPY JUMP JUMPDEST DUP1 MLOAD DUP1 PUSH1 0x0 NOT DIV PUSH1 0x2 GT DUP2 ISZERO ISZERO AND PUSH2 0x51A2 JUMPI JUMPDEST PUSH1 0x1 SWAP1 PUSH2 0x511C DUP2 DUP4 SHL PUSH2 0x50CA JUMP JUMPDEST SWAP3 PUSH1 0x0 SWAP1 DUP2 JUMPDEST DUP4 DUP2 LT PUSH2 0x5131 JUMPI POP POP POP POP POP SWAP1 JUMP JUMPDEST DUP1 PUSH2 0x513D DUP7 SWAP3 DUP5 PUSH2 0x490B JUMP JUMPDEST MLOAD PUSH2 0x519B PUSH2 0x514A DUP4 PUSH2 0x246C JUMP JUMPDEST PUSH32 0xF00000000000000000000000000000000000000000000000000000000000000 SWAP1 PUSH2 0x517E DUP3 DUP6 PUSH1 0x4 SHR AND DUP10 BYTE SWAP2 DUP13 PUSH2 0x490B JUMP JUMPDEST MSTORE8 PUSH2 0x5190 PUSH2 0x518B DUP6 PUSH2 0x246C JUMP JUMPDEST PUSH2 0x3B06 JUMP JUMPDEST SWAP3 AND DUP7 BYTE SWAP2 DUP10 PUSH2 0x490B JUMP JUMPDEST MSTORE8 ADD PUSH2 0x5122 JUMP JUMPDEST PUSH2 0x51AA PUSH2 0x21FC JUMP JUMPDEST PUSH2 0x510E JUMP JUMPDEST PUSH2 0x51B8 DUP2 PUSH2 0x452E JUMP JUMPDEST PUSH1 0x2 DUP2 SWAP4 SWAP3 SWAP4 LT ISZERO PUSH2 0x52CA JUMPI JUMPDEST PUSH2 0x5260 JUMPI DUP3 MLOAD DUP3 DUP3 ADD SWAP1 DUP2 DUP4 GT PUSH2 0x5253 JUMPI JUMPDEST SUB PUSH2 0x51E9 JUMPI PUSH1 0x20 PUSH2 0x6B2 SWAP4 ADD MLOAD PUSH2 0x5327 JUMP JUMPDEST PUSH1 0x84 PUSH1 0x40 MLOAD PUSH3 0x461BCD PUSH1 0xE5 SHL DUP2 MSTORE PUSH1 0x20 PUSH1 0x4 DUP3 ADD MSTORE PUSH1 0x34 PUSH1 0x24 DUP3 ADD MSTORE PUSH32 0x524C505265616465723A2062797465732076616C756520636F6E7461696E7320 PUSH1 0x44 DUP3 ADD MSTORE PUSH32 0x616E20696E76616C69642072656D61696E646572000000000000000000000000 PUSH1 0x64 DUP3 ADD MSTORE REVERT JUMPDEST PUSH2 0x525B PUSH2 0x21FC JUMP JUMPDEST PUSH2 0x51D7 JUMP JUMPDEST PUSH1 0x84 PUSH1 0x40 MLOAD PUSH3 0x461BCD PUSH1 0xE5 SHL DUP2 MSTORE PUSH1 0x20 PUSH1 0x4 DUP3 ADD MSTORE PUSH1 0x39 PUSH1 0x24 DUP3 ADD MSTORE PUSH32 0x524C505265616465723A206465636F646564206974656D207479706520666F72 PUSH1 0x44 DUP3 ADD MSTORE PUSH32 0x206279746573206973206E6F7420612064617461206974656D00000000000000 PUSH1 0x64 DUP3 ADD MSTORE REVERT JUMPDEST PUSH2 0x52D2 PUSH2 0xDC2 JUMP JUMPDEST PUSH2 0x51C5 JUMP JUMPDEST SWAP1 PUSH2 0x52E1 DUP2 PUSH2 0x50CA JUMP JUMPDEST SWAP2 DUP2 ISZERO PUSH2 0x5322 JUMPI DUP2 SWAP1 PUSH1 0x0 SWAP1 JUMPDEST DUP3 DUP3 LT PUSH2 0x530B JUMPI POP GT PUSH2 0x52FF JUMPI POP SWAP1 JUMP JUMPDEST PUSH1 0x20 PUSH1 0x0 SWAP2 DUP4 ADD ADD MSTORE SWAP1 JUMP JUMPDEST SWAP2 POP DUP1 PUSH1 0x20 SWAP2 DUP4 ADD MLOAD DUP3 DUP3 DUP8 ADD ADD MSTORE ADD DUP3 SWAP2 PUSH2 0x52EE JUMP JUMPDEST POP POP SWAP1 JUMP JUMPDEST SWAP2 SWAP1 SWAP2 PUSH2 0x5333 DUP3 PUSH2 0x50CA JUMP JUMPDEST SWAP3 DUP3 ISZERO PUSH2 0x537F JUMPI DUP2 ADD DUP1 SWAP2 GT PUSH2 0x5372 JUMPI JUMPDEST DUP2 SWAP1 PUSH1 0x0 SWAP1 JUMPDEST DUP3 DUP3 LT PUSH2 0x535B JUMPI POP GT PUSH2 0x52FF JUMPI POP SWAP1 JUMP JUMPDEST SWAP2 POP DUP1 PUSH1 0x20 SWAP2 DUP4 ADD MLOAD DUP3 DUP3 DUP8 ADD ADD MSTORE ADD DUP3 SWAP2 PUSH2 0x534A JUMP JUMPDEST PUSH2 0x537A PUSH2 0x21FC JUMP JUMPDEST PUSH2 0x5344 JUMP JUMPDEST POP POP POP SWAP1 JUMP JUMPDEST DUP1 MLOAD PUSH2 0x5390 DUP2 PUSH2 0x552 JUMP JUMPDEST SWAP2 PUSH1 0x40 PUSH2 0x539F DUP2 MLOAD SWAP5 DUP6 PUSH2 0x500 JUMP JUMPDEST DUP3 DUP5 MSTORE PUSH1 0x1F NOT PUSH2 0x53AE DUP5 PUSH2 0x552 JUMP JUMPDEST ADD SWAP1 PUSH1 0x0 JUMPDEST DUP3 DUP2 LT PUSH2 0x541A JUMPI POP POP POP PUSH1 0x0 JUMPDEST DUP3 DUP2 LT PUSH2 0x53CD JUMPI POP POP POP SWAP1 JUMP JUMPDEST DUP1 PUSH2 0x53DA PUSH1 0x1 SWAP3 DUP5 PUSH2 0x229A JUMP JUMPDEST MLOAD PUSH2 0x53EE PUSH2 0x53E8 DUP4 DUP7 PUSH2 0x229A JUMP JUMPDEST MLOAD PUSH2 0x543D JUMP JUMPDEST PUSH2 0x53F6 PUSH2 0x543 JUMP JUMPDEST SWAP2 DUP3 MSTORE PUSH1 0x20 DUP3 ADD MSTORE PUSH2 0x5408 DUP3 DUP8 PUSH2 0x229A JUMP JUMPDEST MSTORE PUSH2 0x5413 DUP2 DUP7 PUSH2 0x229A JUMP JUMPDEST POP ADD PUSH2 0x53C0 JUMP JUMPDEST PUSH1 0x20 SWAP1 DUP3 MLOAD PUSH2 0x5428 DUP2 PUSH2 0x4C8 JUMP JUMPDEST PUSH1 0x60 DUP1 DUP3 MSTORE DUP4 DUP3 ADD MSTORE DUP8 DUP3 ADD DUP4 ADD MSTORE ADD PUSH2 0x53B3 JUMP JUMPDEST PUSH2 0x5449 PUSH2 0x6B2 SWAP2 PUSH2 0x3DE4 JUMP JUMPDEST PUSH2 0x558A JUMP JUMPDEST ISZERO PUSH2 0x5455 JUMPI JUMP JUMPDEST PUSH1 0x84 PUSH1 0x40 MLOAD PUSH3 0x461BCD PUSH1 0xE5 SHL DUP2 MSTORE PUSH1 0x20 PUSH1 0x4 DUP3 ADD MSTORE PUSH1 0x38 PUSH1 0x24 DUP3 ADD MSTORE PUSH32 0x524C505265616465723A206465636F646564206974656D207479706520666F72 PUSH1 0x44 DUP3 ADD MSTORE PUSH32 0x206C697374206973206E6F742061206C697374206974656D0000000000000000 PUSH1 0x64 DUP3 ADD MSTORE REVERT JUMPDEST ISZERO PUSH2 0x54C6 JUMPI JUMP JUMPDEST PUSH1 0x84 PUSH1 0x40 MLOAD PUSH3 0x461BCD PUSH1 0xE5 SHL DUP2 MSTORE PUSH1 0x20 PUSH1 0x4 DUP3 ADD MSTORE PUSH1 0x32 PUSH1 0x24 DUP3 ADD MSTORE PUSH32 0x524C505265616465723A206C697374206974656D2068617320616E20696E7661 PUSH1 0x44 DUP3 ADD MSTORE PUSH32 0x6C696420646174612072656D61696E6465720000000000000000000000000000 PUSH1 0x64 DUP3 ADD MSTORE REVERT JUMPDEST PUSH1 0x40 MLOAD SWAP1 PUSH2 0x420 DUP3 ADD DUP3 DUP2 LT PUSH8 0xFFFFFFFFFFFFFFFF DUP3 GT OR PUSH2 0x557D JUMPI JUMPDEST PUSH1 0x40 MSTORE PUSH1 0x20 DUP1 DUP4 MSTORE DUP3 PUSH1 0x0 JUMPDEST PUSH2 0x400 DUP2 LT PUSH2 0x5567 JUMPI POP POP POP JUMP JUMPDEST DUP3 SWAP1 PUSH2 0x5571 PUSH2 0x3D34 JUMP JUMPDEST DUP3 DUP3 DUP6 ADD ADD MSTORE ADD PUSH2 0x5559 JUMP JUMPDEST PUSH2 0x5585 PUSH2 0x477 JUMP JUMPDEST PUSH2 0x554D JUMP JUMPDEST PUSH2 0x55BA PUSH2 0x55C2 PUSH2 0x5599 DUP4 PUSH2 0x452E JUMP JUMPDEST SWAP3 SWAP2 SWAP4 SWAP1 PUSH1 0x2 DUP5 LT ISZERO PUSH2 0x567F JUMPI JUMPDEST PUSH2 0x55B4 PUSH1 0x1 DUP1 SWAP6 EQ PUSH2 0x544E JUMP JUMPDEST DUP5 PUSH2 0x3B22 JUMP JUMPDEST DUP5 MLOAD EQ PUSH2 0x54BF JUMP JUMPDEST PUSH2 0x55CA PUSH2 0x5530 JUMP JUMPDEST SWAP3 PUSH1 0x0 SWAP3 DUP3 JUMPDEST PUSH2 0x55DD JUMPI JUMPDEST POP POP POP DUP2 MSTORE SWAP1 JUMP JUMPDEST DUP2 MLOAD SWAP1 DUP2 DUP2 LT ISZERO PUSH2 0x5679 JUMPI PUSH2 0x566D PUSH2 0x55F8 DUP3 PUSH2 0x5673 SWAP5 PUSH2 0x3A4F JUMP JUMPDEST PUSH2 0x5667 PUSH1 0x20 SWAP8 PUSH2 0x5624 DUP10 DUP9 ADD SWAP4 PUSH2 0x5610 DUP8 DUP7 MLOAD PUSH2 0x3B22 JUMP JUMPDEST PUSH2 0x5618 PUSH2 0x543 JUMP JUMPDEST SWAP2 DUP3 MSTORE DUP12 DUP3 ADD MSTORE PUSH2 0x452E JUMP JUMPDEST POP SWAP4 SWAP1 SWAP10 PUSH2 0x563D DUP8 PUSH2 0x5636 DUP14 DUP9 PUSH2 0x3B22 JUMP JUMPDEST SWAP4 MLOAD PUSH2 0x3B22 JUMP JUMPDEST SWAP1 PUSH2 0x5646 PUSH2 0x543 JUMP JUMPDEST SWAP3 DUP4 MSTORE DUP3 ADD MSTORE PUSH2 0x5656 DUP3 DUP13 PUSH2 0x229A JUMP JUMPDEST MSTORE PUSH2 0x5661 DUP2 DUP12 PUSH2 0x229A JUMP JUMPDEST POP PUSH2 0x3B06 JUMP JUMPDEST SWAP7 PUSH2 0x3B22 JUMP JUMPDEST SWAP1 PUSH2 0x3B22 JUMP JUMPDEST DUP3 PUSH2 0x55D0 JUMP JUMPDEST POP PUSH2 0x55D5 JUMP JUMPDEST PUSH2 0x5687 PUSH2 0xDC2 JUMP JUMPDEST PUSH2 0x55A7 JUMP JUMPDEST PUSH1 0x20 DUP2 MLOAD LT PUSH1 0x0 EQ PUSH2 0x56A8 JUMPI PUSH1 0x20 DUP2 ADD MLOAD SWAP1 MLOAD PUSH2 0x6B2 SWAP2 PUSH2 0x52D7 JUMP JUMPDEST PUSH2 0x6B2 SWAP1 PUSH2 0x51AF JUMP JUMPDEST PUSH2 0x56CC PUSH1 0x20 DUP1 PUSH2 0x6B2 SWAP4 ADD MLOAD DUP1 MLOAD ISZERO PUSH2 0x56D1 JUMPI JUMPDEST ADD MLOAD PUSH2 0x51AF JUMP JUMPDEST PUSH2 0x50FB JUMP JUMPDEST PUSH2 0x56D9 PUSH2 0x97C JUMP JUMPDEST PUSH2 0x56C5 JUMP JUMPDEST PUSH1 0x0 SWAP2 DUP3 DUP3 MLOAD DUP3 MLOAD DUP1 DUP3 LT PUSH1 0x0 EQ PUSH2 0x5754 JUMPI POP SWAP4 POP JUMPDEST JUMPDEST DUP4 DUP2 LT DUP1 PUSH2 0x5712 JUMPI JUMPDEST ISZERO PUSH2 0x570B JUMPI PUSH1 0x1 ADD PUSH2 0x56F5 JUMP JUMPDEST SWAP3 POP POP POP SWAP1 JUMP JUMPDEST POP PUSH32 0xFF00000000000000000000000000000000000000000000000000000000000000 DUP1 PUSH2 0x573F DUP4 DUP7 PUSH2 0x490B JUMP JUMPDEST MLOAD AND SWAP1 PUSH2 0x574C DUP4 DUP6 PUSH2 0x490B JUMP JUMPDEST MLOAD AND EQ PUSH2 0x56FE JUMP JUMPDEST SWAP1 POP SWAP4 POP PUSH2 0x56F4 JUMP JUMPDEST ISZERO PUSH2 0x436 JUMPI JUMP JUMPDEST PUSH2 0x57BE SWAP3 SWAP2 PUSH1 0x40 MLOAD PUSH32 0xFFFFFFFFFFFFFFFFFFFFFFFFFFFFFFFFFFFFFFFF000000000000000000000000 PUSH1 0x20 DUP3 ADD SWAP3 PUSH1 0x60 SHL AND DUP3 MSTORE PUSH1 0x14 DUP2 MSTORE PUSH2 0x57A5 DUP2 PUSH2 0x4C8 JUMP JUMPDEST MLOAD SWAP1 KECCAK256 PUSH1 0x40 MLOAD SWAP1 PUSH1 0x20 DUP3 ADD MSTORE PUSH1 0x20 DUP2 MSTORE PUSH2 0x3C6C DUP2 PUSH2 0x4C8 JUMP JUMPDEST DUP1 MLOAD ISZERO PUSH2 0x57EF JUMPI PUSH2 0x57E9 PUSH2 0x57D7 PUSH2 0x5449 PUSH2 0x6B2 SWAP4 PUSH2 0x3DE4 JUMP JUMPDEST PUSH2 0x57E4 PUSH1 0x4 DUP3 MLOAD EQ PUSH2 0x575D JUMP JUMPDEST PUSH2 0x2289 JUMP JUMPDEST MLOAD PUSH2 0x3E61 JUMP JUMPDEST PUSH1 0x64 PUSH1 0x40 MLOAD PUSH3 0x461BCD PUSH1 0xE5 SHL DUP2 MSTORE PUSH1 0x20 PUSH1 0x4 DUP3 ADD MSTORE PUSH1 0x16 PUSH1 0x24 DUP3 ADD MSTORE PUSH32 0x4163636F756E7420646F6573206E6F7420657869737400000000000000000000 PUSH1 0x44 DUP3 ADD MSTORE REVERT JUMPDEST SWAP3 SWAP1 SWAP2 PUSH1 0x1F DUP3 MLOAD AND PUSH2 0x58AE JUMPI DUP2 MLOAD PUSH1 0x5 SHR SWAP2 PUSH1 0x0 SWAP2 JUMPDEST DUP4 DUP4 LT PUSH2 0x5858 JUMPI POP POP POP POP EQ SWAP1 JUMP JUMPDEST PUSH2 0x5890 SWAP1 PUSH1 0x20 DUP5 PUSH1 0x5 SHL DUP5 ADD ADD MLOAD PUSH1 0x1 SWAP7 DUP8 DUP4 AND ISZERO PUSH1 0x0 EQ PUSH2 0x5896 JUMPI SWAP1 PUSH2 0x5887 SWAP2 PUSH1 0x0 MSTORE PUSH1 0x20 MSTORE PUSH1 0x40 PUSH1 0x0 KECCAK256 SWAP1 JUMP JUMPDEST SWAP6 JUMPDEST SHR SWAP3 PUSH2 0x224E JUMP JUMPDEST SWAP2 PUSH2 0x5849 JUMP JUMPDEST PUSH2 0x58A8 SWAP2 PUSH1 0x0 MSTORE PUSH1 0x20 MSTORE PUSH1 0x40 PUSH1 0x0 KECCAK256 SWAP1 JUMP JUMPDEST SWAP6 PUSH2 0x5889 JUMP JUMPDEST PUSH1 0x64 PUSH1 0x40 MLOAD PUSH3 0x461BCD PUSH1 0xE5 SHL DUP2 MSTORE PUSH1 0x20 PUSH1 0x4 DUP3 ADD MSTORE PUSH1 0xD PUSH1 0x24 DUP3 ADD MSTORE PUSH32 0x496E76616C69642070726F6F6600000000000000000000000000000000000000 PUSH1 0x44 DUP3 ADD MSTORE REVERT INVALID LOG2 PUSH5 0x6970667358 0x22 SLT KECCAK256 0xAB 0x2C 0xC5 PUSH29 0xCC9A1AF650F94CCC0C976C2889C89FFA0D176CC467353AFBDAFFB88364 PUSH20 0x6F6C634300081000330000000000000000000000 "
		},
		"gasEstimates": {
			"creation": {
				"codeDepositCost": "4564800",
				"executionCost": "infinite",
				"totalCost": "infinite"
			},
			"external": {
				"MIN_LIGHT_CLIENT_DELAY()": "1134",
				"VERSION()": "1260",
				"broadcasters(uint32)": "2854",
				"changeDebugMode(bool)": "27249",
				"freeze(uint32)": "28597",
				"freezeAll()": "infinite",
				"frozen(uint32)": "2694",
				"isDebugMode()": "3211",
				"lightClients(uint32)": "3030",
				"messageStatus(bytes32)": "2704",
				"messages(uint64)": "2396",
				"msgRelayer(address)": "3089",
				"nonce()": "3177",
				"owner()": "2991",
				"polygonL1Messager()": "2353",
				"polygonL2Messager()": "2485",
				"renounceOwnership()": "28656",
				"rollupAddress()": "2749",
				"scrollL1Messager()": "2683",
				"scrollL2GasLimit()": "3149",
				"scrollL2Messager()": "2463",
				"send(uint32,address,bytes)": "infinite",
				"sendingEnabled()": "2611",
				"setBroadcaster(uint32[],address[])": "infinite",
				"setLightClient(uint32[],address[])": "infinite",
				"setPolygon(address,address)": "infinite",
				"setRelayer(address,bool)": "27752",
				"setScroll(address,address,uint256,address)": "infinite",
				"setSendingEnabled(bool)": "28641",
				"setZKSync(address,uint256,uint256,uint256,bytes[],address,uint256)": "infinite",
				"sourceChainIds(uint256)": "5259",
				"sourceChainIdsLength()": "2643",
				"storageRootCache(bytes32)": "3017",
				"transferOwnership(address)": "29206",
				"unfreeze(uint32)": "27887",
				"unfreezeAll()": "infinite",
				"vMsg(uint64,bytes,bytes[],bytes[])": "infinite",
				"vMsgPolygon(bytes32[32],uint32,bytes32,bytes)": "infinite",
				"vMsgScrollL1ToL2(bytes)": "infinite",
				"vMsgScrollL2ToL1(uint256,uint256,bytes,bytes)": "infinite",
				"vMsgZkSyncL1ToL2(bytes)": "infinite",
				"vMsgZkSyncL2ToL1(address,uint256,uint256,uint16,bytes,bytes32[])": "infinite",
				"version()": "2693",
				"withdraw(address,uint256)": "infinite",
				"zkSyncAddress()": "3013",
				"zkSyncFactoryDeps(uint256)": "infinite",
				"zkSyncL2GasLimit()": "3347",
				"zkSyncL2GasPerPubdataByteLimit()": "2379",
				"zkSyncL2Value()": "2775",
				"zkSyncRefundRecipient()": "2507",
				"zkSyncToL2Value()": "2621"
			}
		},
		"methodIdentifiers": {
			"MIN_LIGHT_CLIENT_DELAY()": "e4407b15",
			"VERSION()": "ffa1ad74",
			"broadcasters(uint32)": "59f89787",
			"changeDebugMode(bool)": "80a0567c",
			"freeze(uint32)": "9a2ed203",
			"freezeAll()": "99464c89",
			"frozen(uint32)": "36ae7c18",
			"isDebugMode()": "c7b51826",
			"lightClients(uint32)": "7599735c",
			"messageStatus(bytes32)": "3c6cf473",
			"messages(uint64)": "029d6713",
			"msgRelayer(address)": "858616aa",
			"nonce()": "affed0e0",
			"owner()": "8da5cb5b",
			"polygonL1Messager()": "1e08e7c7",
			"polygonL2Messager()": "2feada0f",
			"renounceOwnership()": "715018a6",
			"rollupAddress()": "5ec6a8df",
			"scrollL1Messager()": "45c10b68",
			"scrollL2GasLimit()": "a542648b",
			"scrollL2Messager()": "2ef423aa",
			"send(uint32,address,bytes)": "68346a92",
			"sendingEnabled()": "3e99e9ce",
			"setBroadcaster(uint32[],address[])": "17db9bad",
			"setLightClient(uint32[],address[])": "3157a4ac",
			"setPolygon(address,address)": "295f4906",
			"setRelayer(address,bool)": "ecd8dc3a",
			"setScroll(address,address,uint256,address)": "34ab66d3",
			"setSendingEnabled(bool)": "ed762d44",
			"setZKSync(address,uint256,uint256,uint256,bytes[],address,uint256)": "1d6e477a",
			"sourceChainIds(uint256)": "9efeff1c",
			"sourceChainIdsLength()": "4552f563",
			"storageRootCache(bytes32)": "8d080d1d",
			"transferOwnership(address)": "f2fde38b",
			"unfreeze(uint32)": "1f3d25a9",
			"unfreezeAll()": "66c5c4a0",
			"vMsg(uint64,bytes,bytes[],bytes[])": "98825f98",
			"vMsgPolygon(bytes32[32],uint32,bytes32,bytes)": "62e74093",
			"vMsgScrollL1ToL2(bytes)": "9fb4159b",
			"vMsgScrollL2ToL1(uint256,uint256,bytes,bytes)": "dfe942d1",
			"vMsgZkSyncL1ToL2(bytes)": "a196e766",
			"vMsgZkSyncL2ToL1(address,uint256,uint256,uint16,bytes,bytes32[])": "6a7ea822",
			"version()": "54fd4d50",
			"withdraw(address,uint256)": "f3fef3a3",
			"zkSyncAddress()": "8db4e89d",
			"zkSyncFactoryDeps(uint256)": "274f28ce",
			"zkSyncL2GasLimit()": "fdf928cf",
			"zkSyncL2GasPerPubdataByteLimit()": "27240768",
			"zkSyncL2Value()": "64a9c88a",
			"zkSyncRefundRecipient()": "30009341",
			"zkSyncToL2Value()": "3eb0b2ad"
		}
	},
	"abi": [
		{
			"inputs": [
				{
					"internalType": "bool",
					"name": "_sendingEnabled",
					"type": "bool"
				}
			],
			"stateMutability": "nonpayable",
			"type": "constructor"
		},
		{
			"inputs": [],
			"name": "CannotSendToSameChain",
			"type": "error"
		},
		{
			"inputs": [],
			"name": "SendingDisabled",
			"type": "error"
		},
		{
			"anonymous": false,
			"inputs": [
				{
					"indexed": true,
					"internalType": "uint32",
					"name": "chainId",
					"type": "uint32"
				}
			],
			"name": "Freeze",
			"type": "event"
		},
		{
			"anonymous": false,
			"inputs": [],
			"name": "FreezeAll",
			"type": "event"
		},
		{
			"anonymous": false,
			"inputs": [
				{
					"indexed": true,
					"internalType": "address",
					"name": "previousOwner",
					"type": "address"
				},
				{
					"indexed": true,
					"internalType": "address",
					"name": "newOwner",
					"type": "address"
				}
			],
			"name": "OwnershipTransferred",
			"type": "event"
		},
		{
			"anonymous": false,
			"inputs": [
				{
					"indexed": true,
					"internalType": "uint32",
					"name": "sourceChainId",
					"type": "uint32"
				},
				{
					"indexed": true,
					"internalType": "uint64",
					"name": "nonce",
					"type": "uint64"
				},
				{
					"indexed": true,
					"internalType": "bytes32",
					"name": "msgHash",
					"type": "bytes32"
				},
				{
					"indexed": false,
					"internalType": "bytes",
					"name": "message",
					"type": "bytes"
				},
				{
					"indexed": false,
					"internalType": "bool",
					"name": "status",
					"type": "bool"
				}
			],
			"name": "PassMsg",
			"type": "event"
		},
		{
			"anonymous": false,
			"inputs": [
				{
					"indexed": false,
					"internalType": "address",
					"name": "sender",
					"type": "address"
				},
				{
					"indexed": false,
					"internalType": "uint256",
					"name": "amount",
					"type": "uint256"
				}
			],
			"name": "Received",
			"type": "event"
		},
		{
			"anonymous": false,
			"inputs": [
				{
					"indexed": true,
					"internalType": "uint64",
					"name": "nonce",
					"type": "uint64"
				},
				{
					"indexed": true,
					"internalType": "bytes32",
					"name": "msgHash",
					"type": "bytes32"
				},
				{
					"indexed": false,
					"internalType": "bytes",
					"name": "message",
					"type": "bytes"
				}
			],
			"name": "SendMsg",
			"type": "event"
		},
		{
			"anonymous": false,
			"inputs": [
				{
					"indexed": true,
					"internalType": "uint64",
					"name": "nonce",
					"type": "uint64"
				},
				{
					"indexed": true,
					"internalType": "bytes32",
					"name": "msgHash",
					"type": "bytes32"
				},
				{
					"indexed": false,
					"internalType": "bytes",
					"name": "message",
					"type": "bytes"
				}
			],
			"name": "SendZkSyncMsgL1ToL2",
			"type": "event"
		},
		{
			"anonymous": false,
			"inputs": [
				{
					"indexed": false,
					"internalType": "bool",
					"name": "enabled",
					"type": "bool"
				}
			],
			"name": "SendingEnabled",
			"type": "event"
		},
		{
			"anonymous": false,
			"inputs": [
				{
					"indexed": true,
					"internalType": "uint32",
					"name": "chainId",
					"type": "uint32"
				}
			],
			"name": "SourceChainAdded",
			"type": "event"
		},
		{
			"anonymous": false,
			"inputs": [
				{
					"indexed": true,
					"internalType": "uint32",
					"name": "chainId",
					"type": "uint32"
				}
			],
			"name": "Unfreeze",
			"type": "event"
		},
		{
			"anonymous": false,
			"inputs": [],
			"name": "UnfreezeAll",
			"type": "event"
		},
		{
			"inputs": [],
			"name": "MIN_LIGHT_CLIENT_DELAY",
			"outputs": [
				{
					"internalType": "uint256",
					"name": "",
					"type": "uint256"
				}
			],
			"stateMutability": "view",
			"type": "function"
		},
		{
			"inputs": [],
			"name": "VERSION",
			"outputs": [
				{
					"internalType": "uint8",
					"name": "",
					"type": "uint8"
				}
			],
			"stateMutability": "view",
			"type": "function"
		},
		{
			"inputs": [
				{
					"internalType": "uint32",
					"name": "",
					"type": "uint32"
				}
			],
			"name": "broadcasters",
			"outputs": [
				{
					"internalType": "address",
					"name": "",
					"type": "address"
				}
			],
			"stateMutability": "view",
			"type": "function"
		},
		{
			"inputs": [
				{
					"internalType": "bool",
					"name": "isDebug",
					"type": "bool"
				}
			],
			"name": "changeDebugMode",
			"outputs": [],
			"stateMutability": "nonpayable",
			"type": "function"
		},
		{
			"inputs": [
				{
					"internalType": "uint32",
					"name": "chainId",
					"type": "uint32"
				}
			],
			"name": "freeze",
			"outputs": [],
			"stateMutability": "nonpayable",
			"type": "function"
		},
		{
			"inputs": [],
			"name": "freezeAll",
			"outputs": [],
			"stateMutability": "nonpayable",
			"type": "function"
		},
		{
			"inputs": [
				{
					"internalType": "uint32",
					"name": "",
					"type": "uint32"
				}
			],
			"name": "frozen",
			"outputs": [
				{
					"internalType": "bool",
					"name": "",
					"type": "bool"
				}
			],
			"stateMutability": "view",
			"type": "function"
		},
		{
			"inputs": [],
			"name": "isDebugMode",
			"outputs": [
				{
					"internalType": "bool",
					"name": "",
					"type": "bool"
				}
			],
			"stateMutability": "view",
			"type": "function"
		},
		{
			"inputs": [
				{
					"internalType": "uint32",
					"name": "",
					"type": "uint32"
				}
			],
			"name": "lightClients",
			"outputs": [
				{
					"internalType": "contract ILightClientGetter",
					"name": "",
					"type": "address"
				}
			],
			"stateMutability": "view",
			"type": "function"
		},
		{
			"inputs": [
				{
					"internalType": "bytes32",
					"name": "",
					"type": "bytes32"
				}
			],
			"name": "messageStatus",
			"outputs": [
				{
					"internalType": "enum MessageStatus",
					"name": "",
					"type": "uint8"
				}
			],
			"stateMutability": "view",
			"type": "function"
		},
		{
			"inputs": [
				{
					"internalType": "uint64",
					"name": "",
					"type": "uint64"
				}
			],
			"name": "messages",
			"outputs": [
				{
					"internalType": "bytes32",
					"name": "",
					"type": "bytes32"
				}
			],
			"stateMutability": "view",
			"type": "function"
		},
		{
			"inputs": [
				{
					"internalType": "address",
					"name": "",
					"type": "address"
				}
			],
			"name": "msgRelayer",
			"outputs": [
				{
					"internalType": "bool",
					"name": "",
					"type": "bool"
				}
			],
			"stateMutability": "view",
			"type": "function"
		},
		{
			"inputs": [],
			"name": "nonce",
			"outputs": [
				{
					"internalType": "uint64",
					"name": "",
					"type": "uint64"
				}
			],
			"stateMutability": "view",
			"type": "function"
		},
		{
			"inputs": [],
			"name": "owner",
			"outputs": [
				{
					"internalType": "address",
					"name": "",
					"type": "address"
				}
			],
			"stateMutability": "view",
			"type": "function"
		},
		{
			"inputs": [],
			"name": "polygonL1Messager",
			"outputs": [
				{
					"internalType": "address",
					"name": "",
					"type": "address"
				}
			],
			"stateMutability": "view",
			"type": "function"
		},
		{
			"inputs": [],
			"name": "polygonL2Messager",
			"outputs": [
				{
					"internalType": "address",
					"name": "",
					"type": "address"
				}
			],
			"stateMutability": "view",
			"type": "function"
		},
		{
			"inputs": [],
			"name": "renounceOwnership",
			"outputs": [],
			"stateMutability": "nonpayable",
			"type": "function"
		},
		{
			"inputs": [],
			"name": "rollupAddress",
			"outputs": [
				{
					"internalType": "address",
					"name": "",
					"type": "address"
				}
			],
			"stateMutability": "view",
			"type": "function"
		},
		{
			"inputs": [],
			"name": "scrollL1Messager",
			"outputs": [
				{
					"internalType": "address",
					"name": "",
					"type": "address"
				}
			],
			"stateMutability": "view",
			"type": "function"
		},
		{
			"inputs": [],
			"name": "scrollL2GasLimit",
			"outputs": [
				{
					"internalType": "uint256",
					"name": "",
					"type": "uint256"
				}
			],
			"stateMutability": "view",
			"type": "function"
		},
		{
			"inputs": [],
			"name": "scrollL2Messager",
			"outputs": [
				{
					"internalType": "address",
					"name": "",
					"type": "address"
				}
			],
			"stateMutability": "view",
			"type": "function"
		},
		{
			"inputs": [
				{
					"internalType": "uint32",
					"name": "targetChainId",
					"type": "uint32"
				},
				{
					"internalType": "address",
					"name": "targetAddr",
					"type": "address"
				},
				{
					"internalType": "bytes",
					"name": "message",
					"type": "bytes"
				}
			],
			"name": "send",
			"outputs": [
				{
					"internalType": "bytes32",
					"name": "",
					"type": "bytes32"
				}
			],
			"stateMutability": "nonpayable",
			"type": "function"
		},
		{
			"inputs": [],
			"name": "sendingEnabled",
			"outputs": [
				{
					"internalType": "bool",
					"name": "",
					"type": "bool"
				}
			],
			"stateMutability": "view",
			"type": "function"
		},
		{
			"inputs": [
				{
					"internalType": "uint32[]",
					"name": "chainIds",
					"type": "uint32[]"
				},
				{
					"internalType": "address[]",
					"name": "broadcaster",
					"type": "address[]"
				}
			],
			"name": "setBroadcaster",
			"outputs": [],
			"stateMutability": "nonpayable",
			"type": "function"
		},
		{
			"inputs": [
				{
					"internalType": "uint32[]",
					"name": "chainIds",
					"type": "uint32[]"
				},
				{
					"internalType": "address[]",
					"name": "lightclient",
					"type": "address[]"
				}
			],
			"name": "setLightClient",
			"outputs": [],
			"stateMutability": "nonpayable",
			"type": "function"
		},
		{
			"inputs": [
				{
					"internalType": "address",
					"name": "_polygonL1Messager",
					"type": "address"
				},
				{
					"internalType": "address",
					"name": "_polugonL2Messager",
					"type": "address"
				}
			],
			"name": "setPolygon",
			"outputs": [],
			"stateMutability": "nonpayable",
			"type": "function"
		},
		{
			"inputs": [
				{
					"internalType": "address",
					"name": "_relayer",
					"type": "address"
				},
				{
					"internalType": "bool",
					"name": "_isTrue",
					"type": "bool"
				}
			],
			"name": "setRelayer",
			"outputs": [],
			"stateMutability": "nonpayable",
			"type": "function"
		},
		{
			"inputs": [
				{
					"internalType": "address",
					"name": "_scrollL1Messager",
					"type": "address"
				},
				{
					"internalType": "address",
					"name": "_scrollL2Messager",
					"type": "address"
				},
				{
					"internalType": "uint256",
					"name": "_scrollL2GasLimit",
					"type": "uint256"
				},
				{
					"internalType": "address",
					"name": "_rollupAddress",
					"type": "address"
				}
			],
			"name": "setScroll",
			"outputs": [],
			"stateMutability": "nonpayable",
			"type": "function"
		},
		{
			"inputs": [
				{
					"internalType": "bool",
					"name": "enabled",
					"type": "bool"
				}
			],
			"name": "setSendingEnabled",
			"outputs": [],
			"stateMutability": "nonpayable",
			"type": "function"
		},
		{
			"inputs": [
				{
					"internalType": "address",
					"name": "_zkSyncAddress",
					"type": "address"
				},
				{
					"internalType": "uint256",
					"name": "_l2Value",
					"type": "uint256"
				},
				{
					"internalType": "uint256",
					"name": "_gasLimit",
					"type": "uint256"
				},
				{
					"internalType": "uint256",
					"name": "_byteLimit",
					"type": "uint256"
				},
				{
					"internalType": "bytes[]",
					"name": "_factoryDeps",
					"type": "bytes[]"
				},
				{
					"internalType": "address",
					"name": "_recipient",
					"type": "address"
				},
				{
					"internalType": "uint256",
					"name": "_value",
					"type": "uint256"
				}
			],
			"name": "setZKSync",
			"outputs": [],
			"stateMutability": "nonpayable",
			"type": "function"
		},
		{
			"inputs": [
				{
					"internalType": "uint256",
					"name": "",
					"type": "uint256"
				}
			],
			"name": "sourceChainIds",
			"outputs": [
				{
					"internalType": "uint32",
					"name": "",
					"type": "uint32"
				}
			],
			"stateMutability": "view",
			"type": "function"
		},
		{
			"inputs": [],
			"name": "sourceChainIdsLength",
			"outputs": [
				{
					"internalType": "uint256",
					"name": "",
					"type": "uint256"
				}
			],
			"stateMutability": "view",
			"type": "function"
		},
		{
			"inputs": [
				{
					"internalType": "bytes32",
					"name": "",
					"type": "bytes32"
				}
			],
			"name": "storageRootCache",
			"outputs": [
				{
					"internalType": "bytes32",
					"name": "",
					"type": "bytes32"
				}
			],
			"stateMutability": "view",
			"type": "function"
		},
		{
			"inputs": [
				{
					"internalType": "address",
					"name": "newOwner",
					"type": "address"
				}
			],
			"name": "transferOwnership",
			"outputs": [],
			"stateMutability": "nonpayable",
			"type": "function"
		},
		{
			"inputs": [
				{
					"internalType": "uint32",
					"name": "chainId",
					"type": "uint32"
				}
			],
			"name": "unfreeze",
			"outputs": [],
			"stateMutability": "nonpayable",
			"type": "function"
		},
		{
			"inputs": [],
			"name": "unfreezeAll",
			"outputs": [],
			"stateMutability": "nonpayable",
			"type": "function"
		},
		{
			"inputs": [
				{
					"internalType": "uint64",
					"name": "slot",
					"type": "uint64"
				},
				{
					"internalType": "bytes",
					"name": "messageBytes",
					"type": "bytes"
				},
				{
					"internalType": "bytes[]",
					"name": "accountProof",
					"type": "bytes[]"
				},
				{
					"internalType": "bytes[]",
					"name": "storageProof",
					"type": "bytes[]"
				}
			],
			"name": "vMsg",
			"outputs": [],
			"stateMutability": "nonpayable",
			"type": "function"
		},
		{
			"inputs": [
				{
					"internalType": "bytes32[32]",
					"name": "smtProof",
					"type": "bytes32[32]"
				},
				{
					"internalType": "uint32",
					"name": "index",
					"type": "uint32"
				},
				{
					"internalType": "bytes32",
					"name": "exitRoot",
					"type": "bytes32"
				},
				{
					"internalType": "bytes",
					"name": "messageBytes",
					"type": "bytes"
				}
			],
			"name": "vMsgPolygon",
			"outputs": [],
			"stateMutability": "nonpayable",
			"type": "function"
		},
		{
			"inputs": [
				{
					"internalType": "bytes",
					"name": "messageBytes",
					"type": "bytes"
				}
			],
			"name": "vMsgScrollL1ToL2",
			"outputs": [],
			"stateMutability": "nonpayable",
			"type": "function"
		},
		{
			"inputs": [
				{
					"internalType": "uint256",
					"name": "nonce",
					"type": "uint256"
				},
				{
					"internalType": "uint256",
					"name": "batchIndex",
					"type": "uint256"
				},
				{
					"internalType": "bytes",
					"name": "proof",
					"type": "bytes"
				},
				{
					"internalType": "bytes",
					"name": "messageBytes",
					"type": "bytes"
				}
			],
			"name": "vMsgScrollL2ToL1",
			"outputs": [],
			"stateMutability": "nonpayable",
			"type": "function"
		},
		{
			"inputs": [
				{
					"internalType": "bytes",
					"name": "messageBytes",
					"type": "bytes"
				}
			],
			"name": "vMsgZkSyncL1ToL2",
			"outputs": [],
			"stateMutability": "nonpayable",
			"type": "function"
		},
		{
			"inputs": [
				{
					"internalType": "address",
					"name": "someSender",
					"type": "address"
				},
				{
					"internalType": "uint256",
					"name": "l1BatchNumber",
					"type": "uint256"
				},
				{
					"internalType": "uint256",
					"name": "proofId",
					"type": "uint256"
				},
				{
					"internalType": "uint16",
					"name": "trxIndex",
					"type": "uint16"
				},
				{
					"internalType": "bytes",
					"name": "messageBytes",
					"type": "bytes"
				},
				{
					"internalType": "bytes32[]",
					"name": "proof",
					"type": "bytes32[]"
				}
			],
			"name": "vMsgZkSyncL2ToL1",
			"outputs": [],
			"stateMutability": "nonpayable",
			"type": "function"
		},
		{
			"inputs": [],
			"name": "version",
			"outputs": [
				{
					"internalType": "uint8",
					"name": "",
					"type": "uint8"
				}
			],
			"stateMutability": "view",
			"type": "function"
		},
		{
			"inputs": [
				{
					"internalType": "address",
					"name": "receiver",
					"type": "address"
				},
				{
					"internalType": "uint256",
					"name": "amount",
					"type": "uint256"
				}
			],
			"name": "withdraw",
			"outputs": [],
			"stateMutability": "nonpayable",
			"type": "function"
		},
		{
			"inputs": [],
			"name": "zkSyncAddress",
			"outputs": [
				{
					"internalType": "address",
					"name": "",
					"type": "address"
				}
			],
			"stateMutability": "view",
			"type": "function"
		},
		{
			"inputs": [
				{
					"internalType": "uint256",
					"name": "",
					"type": "uint256"
				}
			],
			"name": "zkSyncFactoryDeps",
			"outputs": [
				{
					"internalType": "bytes",
					"name": "",
					"type": "bytes"
				}
			],
			"stateMutability": "view",
			"type": "function"
		},
		{
			"inputs": [],
			"name": "zkSyncL2GasLimit",
			"outputs": [
				{
					"internalType": "uint256",
					"name": "",
					"type": "uint256"
				}
			],
			"stateMutability": "view",
			"type": "function"
		},
		{
			"inputs": [],
			"name": "zkSyncL2GasPerPubdataByteLimit",
			"outputs": [
				{
					"internalType": "uint256",
					"name": "",
					"type": "uint256"
				}
			],
			"stateMutability": "view",
			"type": "function"
		},
		{
			"inputs": [],
			"name": "zkSyncL2Value",
			"outputs": [
				{
					"internalType": "uint256",
					"name": "",
					"type": "uint256"
				}
			],
			"stateMutability": "view",
			"type": "function"
		},
		{
			"inputs": [],
			"name": "zkSyncRefundRecipient",
			"outputs": [
				{
					"internalType": "address",
					"name": "",
					"type": "address"
				}
			],
			"stateMutability": "view",
			"type": "function"
		},
		{
			"inputs": [],
			"name": "zkSyncToL2Value",
			"outputs": [
				{
					"internalType": "uint256",
					"name": "",
					"type": "uint256"
				}
			],
			"stateMutability": "view",
			"type": "function"
		},
		{
			"stateMutability": "payable",
			"type": "receive"
		}
	]
}