{
	"data": {
		"bytecode": {
			"linkReferences": {},
			"object": "60a08060405234620000ec5730608052603f549060ff8260a81c166200009a575060ff808260a01c161062000056575b604051615eea9081620000f28239608051818181610c6a01528181610eab0152610f260152f35b60ff60a01b191660ff60a01b17603f5560405160ff81527f7f26b83ff96e1f2b6a682f133852f6798a09c465da95921460cefb384740249890602090a1386200002f565b62461bcd60e51b815260206004820152602760248201527f496e697469616c697a61626c653a20636f6e747261637420697320696e697469604482015266616c697a696e6760c81b6064820152608490fd5b600080fdfe60806040526004361015610023575b361561001957600080fd5b610021613440565b005b60003560e01c806301ffc9a7146104b6578063029d6713146104ad5780631d6e477a146104a45780631f3d25a91461049b578063248a9ca31461049257806324ea54f4146104895780632724076814610480578063274f28ce146104775780632ef423aa1461046e5780632f2ff15d14610465578063300093411461045c57806336568abe146104535780633659cfe61461044a57806336ae7c18146104415780633c6cf473146104385780633e99e9ce1461042f5780633eb0b2ad146104265780634552f5631461041d57806345c10b68146104145780634be7f4631461040b5780634f1ef2861461040257806352d1902d146103f957806354fd4d50146103f057806359f89787146103e75780635cb77819146103de57806364a9c88a146103d557806366c5c4a0146103cc57806368346a92146103c35780636a7ea822146103ba5780637599735c146103b157806380a0567c146103a85780638380a4791461039f5780638446ec8114610396578063858616aa1461038d5780638d080d1d146103845780638db4e89d1461037b57806391cd8bfd1461037257806391d148541461036957806398825f981461036057806399464c89146103575780639a2ed2031461034e5780639efeff1c146103455780639fb4159b1461033c578063a196e7661461033c578063a217fddf14610333578063a542648b1461032a578063affed0e014610321578063bebbdf6414610318578063c7b518261461030f578063d547741f14610306578063dfe942d1146102fd578063e4407b15146102f4578063ecd8dc3a146102eb578063ed762d44146102e2578063f288a2e2146102d9578063f3764826146102d0578063f3fef3a3146102c7578063fdf928cf146102be5763ffa1ad740361000e576102b96123de565b61000e565b506102b96123bf565b506102b9612325565b506102b96122e5565b506102b96122bb565b506102b9612237565b506102b96121be565b506102b96121a1565b506102b961204b565b506102b9612008565b506102b9611fe1565b506102b9611f2d565b506102b9611f05565b506102b9611ee6565b506102b9611ec9565b506102b9611e54565b506102b9611e0e565b506102b9611d51565b506102b9611ca2565b506102b961191e565b506102b96118d9565b506102b961172b565b506102b9611701565b506102b96116d4565b506102b9611691565b506102b9611650565b506102b96115c9565b506102b9611563565b506102b9611523565b506102b96114aa565b506102b961128c565b506102b96111b0565b506102b9611191565b506102b96110b4565b506102b9610ff5565b506102b9610fd3565b506102b9610f12565b506102b9610e61565b506102b9610e37565b506102b9610e0d565b506102b9610dee565b506102b9610dcf565b506102b9610dab565b506102b9610d66565b506102b9610d00565b506102b9610c3c565b506102b9610ba5565b506102b9610b7b565b506102b9610ad8565b506102b9610aae565b506102b96109d7565b506102b961090e565b506102b96108e4565b506102b96108a9565b506102b961081a565b506102b9610782565b506102b9610543565b506102b96104d6565b6001600160e01b03198116036104d157565b600080fd5b50346104d15760203660031901126104d15760206004356104f6816104bf565b63ffffffff60e01b16637965db0b60e01b811490811561051c575b506040519015158152f35b6301ffc9a760e01b14905038610511565b600435906001600160401b03821682036104d157565b50346104d15760203660031901126104d1576001600160401b0361056561052d565b1660005260016020526020604060002054604051908152f35b6001600160a01b038116036104d157565b6064359061059c8261057e565b565b6084359061059c8261057e565b50634e487b7160e01b600052604160045260246000fd5b6001600160401b0381116105d557604052565b6105dd6105ab565b604052565b604081019081106001600160401b038211176105d557604052565b606081019081106001600160401b038211176105d557604052565b602081019081106001600160401b038211176105d557604052565b90601f801991011681019081106001600160401b038211176105d557604052565b6040519061059c826105e2565b6040519061059c826105fd565b6020906001600160401b038111610687575b60051b0190565b61068f6105ab565b610680565b6020906001600160401b0381116106b1575b601f01601f19160190565b6106b96105ab565b6106a6565b9291926106ca82610694565b916106d86040519384610633565b8294818452818301116104d1578281602093846000960137010152565b9080601f830112156104d157816020610710933591016106be565b90565b929190926107208461066e565b9161072e6040519384610633565b829480845260208094019060051b8301928284116104d15780915b84831061075857505050505050565b82356001600160401b0381116104d157869161077786849386016106f5565b815201920191610749565b50346104d15760e03660031901126104d1576004356107a08161057e565b608435906001600160401b0382116104d157366023830112156104d1576107d4610021923690602481600401359101610713565b60a435906107e18261057e565b60c435926064359060443590602435906135ca565b6004359063ffffffff821682036104d157565b359063ffffffff821682036104d157565b50346104d15760203660031901126104d1576108346107f6565b63ffffffff600091600080516020615e95833981519152835260d660205261086b60ff610864336040872061167a565b5416613471565b1680825260066020526040808320805460ff1916905551907f9fd67bd682613b07687b42f99d8b24402d09feabb75df93abdb26b8fcf9845838383a2f35b50346104d15760203660031901126104d15760043560005260d66020526020600160406000200154604051908152f35b60009103126104d157565b50346104d15760003660031901126104d1576020604051600080516020615e958339815191528152f35b50346104d15760003660031901126104d1576020603754604051908152f35b50634e487b7160e01b600052603260045260246000fd5b90600182811c92168015610974575b602083101461095e57565b634e487b7160e01b600052602260045260246000fd5b91607f1691610953565b60005b8381106109915750506000910152565b8181015183820152602001610981565b906020916109ba8151809281855285808601910161097e565b601f01601f1916010190565b9060206107109281815201906109a1565b50346104d1576020806003193601126104d157600435906038548210156104d1576000916038835281832001906040519183815490610a1582610944565b80865292600192808416908115610a8a5750600114610a4f575b610a4b86610a3f818a0382610633565b604051918291826109c6565b0390f35b9080949650528483205b828410610a775750505081610a4b93610a3f92820101933880610a2f565b8054858501870152928501928101610a59565b60ff19168787015250505050151560051b8201019150610a3f81610a4b3880610a2f565b50346104d15760003660031901126104d157603c546040516001600160a01b039091168152602090f35b50346104d1576040806003193601126104d15760043590602435610afb8161057e565b60009280845260d6602052610b15600184862001546123fb565b80845260d660205260ff610b2b8385872061167a565b541615610b3757505051f35b80845260d6602052610b4b8284862061167a565b805460ff19166001179055825133926001600160a01b03169190600080516020615dd5833981519152908690a451f35b50346104d15760003660031901126104d1576039546040516001600160a01b039091168152602090f35b50346104d15760403660031901126104d157602435610bc38161057e565b336001600160a01b03821603610bdf576100219060043561268e565b60405162461bcd60e51b815260206004820152602f60248201527f416363657373436f6e74726f6c3a2063616e206f6e6c792072656e6f756e636560448201526e103937b632b9903337b91039b2b63360891b6064820152608490fd5b50346104d15760203660031901126104d157610021600435610c5d8161057e565b610caf6001600160a01b037f0000000000000000000000000000000000000000000000000000000000000000811690610c9830831415612708565b600080516020615e75833981519152541614612769565b600080516020615df583398151915260005260d6602052610cea60ff610ce333600080516020615e3583398151915261167a565b54166133d6565b60405190610cf782610618565b600082526128e0565b50346104d15760203660031901126104d15763ffffffff610d1f6107f6565b166000526006602052602060ff604060002054166040519015158152f35b50634e487b7160e01b600052602160045260246000fd5b60031115610d5e57565b61059c610d3d565b50346104d15760203660031901126104d1576004356000526007602052602060ff60406000205416604051906003811015610d9f578152f35b610da7610d3d565b8152f35b50346104d15760003660031901126104d157602060ff600054166040519015158152f35b50346104d15760003660031901126104d1576020603a54604051908152f35b50346104d15760003660031901126104d1576020600354604051908152f35b50346104d15760003660031901126104d157603b546040516001600160a01b039091168152602090f35b50346104d15760003660031901126104d157603e546040516001600160a01b039091168152602090f35b5060403660031901126104d157600435610e7a8161057e565b602435906001600160401b0382116104d157610e9d6100219236906004016106f5565b90610ed96001600160a01b037f0000000000000000000000000000000000000000000000000000000000000000811690610c9830831415612708565b600080516020615df583398151915260005260d6602052610f0d60ff610ce333600080516020615e3583398151915261167a565b6129a3565b50346104d15760003660031901126104d1577f00000000000000000000000000000000000000000000000000000000000000006001600160a01b03163003610f6d57604051600080516020615e758339815191528152602090f35b60405162461bcd60e51b815260206004820152603860248201527f555550535570677261646561626c653a206d757374206e6f742062652063616c6044820152771b1959081d1a1c9bdd59da0819195b1959d85d1958d85b1b60421b6064820152608490fd5b50346104d15760003660031901126104d157602060ff60085416604051908152f35b50346104d15760203660031901126104d15763ffffffff6110146107f6565b166000526005602052602060018060a01b0360406000205416604051908152f35b81601f820112156104d15780359161104c8361066e565b9261105a6040519485610633565b808452602092838086019260051b8201019283116104d1578301905b828210611084575050505090565b83809183356110928161057e565b815201910190611076565b801515036104d157565b60a4359061059c8261109d565b50346104d15760c03660031901126104d1576001600160401b036004358181116104d157366023820112156104d15780600401356110f18161066e565b916110ff6040519384610633565b81835260209160248385019160051b830101913683116104d157602401905b82821061117a5785856024358281116104d15761113f903690600401611035565b6044359283116104d15761115a610021933690600401611035565b61116261058f565b9061116b61059e565b926111746110a7565b94612eb3565b83809161118684610809565b81520191019061111e565b50346104d15760003660031901126104d1576020603554604051908152f35b50346104d15760008060031936011261125c57600080516020615e958339815191528152602060d6815260406111ed60ff6108643384872061167a565b825b600380549063ffffffff9182841610156112335790829161121261122e94611ddc565b9054911b1c16855260068452828520805460ff191690556131a7565b6111ef565b8584517fe6fdbf73945dd61794a752b9181ea29f77170a7b1ffd37e0a7ff9d2c6f7258b98282a1f35b80fd5b9181601f840112156104d1578235916001600160401b0383116104d157602083818601950101116104d157565b50346104d15760603660031901126104d1576112a66107f6565b602435906112b38261057e565b6001600160401b036044358181116104d1576112d390369060040161125f565b939060ff60005416156114685763ffffffff84169146831461145657610a4b957f089838497d0371e85258abf1462b498f919f05d446929f3aeb404427e29842d392611328926001600160a01b031687614297565b94859491938561135c6113436002546001600160401b031690565b6001600160401b03166000526001602052604060002090565b5562aa36a78046148061144a575b61141f575b6208274f46149182611415575b50506113dc575b506002546001600160401b03166113b861139c8261404e565b6001600160401b03166001600160401b03196002541617600255565b6113c96040519283921694826109c6565b0390a36040519081529081906020820190565b6114096113fc61140f9263ffffffff166000526033602052604060002090565b546001600160a01b031690565b84614220565b38611383565b149050388061137c565b61144561143f6113fc8563ffffffff166000526033602052604060002090565b876140b5565b61136f565b506208274f821461136a565b60405163b0747d8160e01b8152600490fd5b604051631492b62f60e11b8152600490fd5b9181601f840112156104d1578235916001600160401b0383116104d1576020808501948460051b0101116104d157565b50346104d15760c03660031901126104d1576004356114c88161057e565b60643561ffff811681036104d1576001600160401b03916084358381116104d1576114f790369060040161125f565b9060a4359485116104d15761151361002195369060040161147a565b949093604435906024359061394c565b50346104d15760203660031901126104d15763ffffffff6115426107f6565b166000526004602052602060018060a01b0360406000205416604051908152f35b50346104d15760203660031901126104d1576004356115818161109d565b600080805260d6602052906115b060ff6115a933600080516020615e1583398151915261167a565b5416613563565b815461ff00191690151560081b61ff0016178155604051f35b50346104d15760403660031901126104d1576115e36107f6565b61164b6024356115f28161057e565b600080805260d66020529263ffffffff9061162060ff6115a933600080516020615e1583398151915261167a565b16835260336020526040832080546001600160a01b0319166001600160a01b03909216919091179055565b604051f35b50346104d15760003660031901126104d157603f546040516001600160a01b039091168152602090f35b9060018060a01b0316600052602052604060002090565b50346104d15760203660031901126104d1576004356116af8161057e565b60018060a01b03166000526032602052602060ff604060002054166040519015158152f35b50346104d15760203660031901126104d15760043560005260096020526020604060002054604051908152f35b50346104d15760003660031901126104d1576034546040516001600160a01b039091168152602090f35b50346104d15760603660031901126104d1576117456107f6565b6024356117518161057e565b6044359161175e8361057e565b600080516020615df5833981519152600090815260d66020529261179560ff610ce333600080516020615e3583398151915261167a565b8392849260035463ffffffff808316955b828110611892575b5050508261180761183c927f0205eaadbbed4fbe918b2a594d41bceb212a89010cc678c6762b18d65679b2ef96971561185d575b63ffffffff81166000908152600460205260409020611826906001600160a01b038716905b80546001600160a01b0319166001600160a01b03909216919091179055565b63ffffffff166000526005602052604060002090565b604080516001600160a01b03928316815292909116602083015290a2604051f35b611866816134eb565b877f65a791dc0a39717013964ace2b78f8307f275c293b7fdb425346ce8e18cb31888a604051a26117e2565b86826118b06118a084611ddc565b905463ffffffff9160031b1c1690565b16146118c4576118bf906134db565b6117a6565b5060019650849150611807905061183c6117ae565b50346104d15760403660031901126104d157602060ff6119126024356118fe8161057e565b60043560005260d68452604060002061167a565b54166040519015158152f35b50346104d15760803660031901126104d15761193861052d565b6001600160401b03906024358281116104d15761195990369060040161125f565b92906044358281116104d15761197390369060040161147a565b94906064359384116104d157611990611bb894369060040161147a565b61199b9591956138ba565b6119a58486613dfb565b968198889560409b8c92838601916119c96119c4845163ffffffff1690565b613ff6565b825163ffffffff16936119ef6113fc8663ffffffff166000526005602052604060002090565b865160e09690961b6001600160e01b031916602080880191825260c086901b6001600160c01b031916602489015260609290921b6bffffffffffffffffffffffff1916602c880152818752601f1996919591611a4c604082610633565b51902093611a64856000526009602052604060002090565b54611c725794611b4799611ba795611b34611aef8b9a97859787611bb29f9e611b9b9d8991611ac5611ab96113fc611aa3611b579f5163ffffffff1690565b63ffffffff166000526004602052604060002090565b6001600160a01b031690565b90518080988194635fa21f9160e01b8352600483019190916001600160401b036020820193169052565b03915afa938415611c65575b600094611c24575b5090611b276113fc611826611b2f94611b1d88151561386e565b5163ffffffff1690565b923691610713565b615d1d565b9b8c916000526009602052604060002090565b555b01516001600160401b031690565b85516001600160401b039091168282019081526001602082015290611b86816040840103858101835282610633565b51902094519081019485529283906020860190565b03908101835282610633565b519020933691610713565b9161452f565b03611be45791611bd16000959492611bd79436916106be565b91613c21565b611be16001604055565b51f35b845162461bcd60e51b815260206004820152601560248201527424b73b30b634b21036b2b9b9b0b3b2903430b9b41760591b6044820152606490fd5b0390fd5b611b2f929194506113fc611826611c53611b27938c8d3d10611c5e575b611c4b8183610633565b810190612817565b969394505050611b03565b503d611c41565b611c6d612826565b611afb565b50505050611bb294939282611b57611b9b94611c9b611ba7956000526009602052604060002090565b5499611b49565b50346104d15760008060031936011261125c57600080516020615e958339815191528152602060d681526040611cdf60ff6108643384872061167a565b825b600380549063ffffffff918284161015611d2857908291611d04611d2394611ddc565b9054911b1c16855260068452828520805460ff191660011790556131a7565b611ce1565b8584517f61340a1b154d5d21d259a74bf95379201799b9d12cc6509bb46cb56dc281df558282a1f35b50346104d15760203660031901126104d157611d6b6107f6565b63ffffffff600091600080516020615e95833981519152835260d6602052611d9b60ff610864336040872061167a565b1680825260066020526040808320805460ff1916600117905551907ff6cf9095f1dcea2429c26c832cbcc084fa0a1692b2c301601edd75b9d83520b28383a2f35b90600354821015611e01575b6003600052601c60206000208360031c019260021b1690565b611e0961092d565b611de8565b50346104d15760203660031901126104d1576004356003548110156104d157602090600360005263ffffffff826000208260031c015460e06040519360051b161c168152f35b50346104d15760203660031901126104d1576004356001600160401b0381116104d157611e88611ec291369060040161125f565b90611e916138ba565b336000526032602052611eab60ff60406000205416613910565b611bd1611eb88383613dfb565b92909336916106be565b6001604055005b50346104d15760003660031901126104d157602060405160008152f35b50346104d15760003660031901126104d1576020603d54604051908152f35b50346104d15760003660031901126104d15760206001600160401b0360025416604051908152f35b50346104d15760a03660031901126104d157600435611f4b8161057e565b602435611f578161057e565b60643590611f648261057e565b60843590611f718261057e565b6000805260d6602052611f9760ff6115a933600080516020615e1583398151915261167a565b60018060a01b03928380928160018060a01b0319971687603b541617603b551685603c541617603c55604435603d551683603e541617603e551690603f541617603f556000604051f35b50346104d15760003660031901126104d157602060ff60005460081c166040519015158152f35b50346104d15760403660031901126104d15761002160243560043561202c8261057e565b8060005260d66020526120466001604060002001546123fb565b61268e565b50346104d15760803660031901126104d1576001600160401b036044358181116104d15761207d90369060040161125f565b916064359081116104d15761209690369060040161125f565b9161209f6138ba565b3360009081526032602052604090206120c3906120be905b5460ff1690565b613910565b6120cd8383613dfb565b603b5491949093916120e990611ab9906001600160a01b031681565b9561211a6121046113fc61182660408a015163ffffffff1690565b9461210d610654565b92602435845236916106be565b6020820152863b156104d157600082612171988583611bd198612159604051978896879586946330c46dbf60e21b865260043590309060048801613b4d565b03925af18015612194575b61217b575b5036916106be565b6100216001604055565b8061218861218e926105c2565b806108d9565b38612169565b61219c612826565b612164565b50346104d15760003660031901126104d157602060405160788152f35b50346104d15760403660031901126104d1576004356121dc8161057e565b6024356121e88161109d565b600080805260d66020529161221060ff6115a933600080516020615e1583398151915261167a565b60018060a01b031682526032602052604082209060ff801983541691151516179055604051f35b50346104d15760203660031901126104d1577f3eea1dc6ce990571e1081137b38c853529a3893b52e9719a48a2f4ac5e3a956c60206004356122788161109d565b600080516020615e9583398151915260005260d682526122a160ff61086433604060002061167a565b151560ff196000541660ff821617600055604051908152a1005b50346104d15760003660031901126104d1576020604051600080516020615df58339815191528152f35b50346104d15760203660031901126104d15763ffffffff6123046107f6565b166000526033602052602060018060a01b0360406000205416604051908152f35b50346104d15760403660031901126104d1576004356123438161057e565b60008080809381805260d660205261236360ff6115a9336040862061167a565b60405190602435906001600160a01b03165af161237e612c64565b501561238957604051f35b60405162461bcd60e51b815260206004820152600e60248201526d5769746864726177204661696c2160901b6044820152606490fd5b50346104d15760003660031901126104d1576020603654604051908152f35b50346104d15760003660031901126104d157602060405160018152f35b8060005260d660205260ff61241433604060002061167a565b54161561241e5750565b33906124286127ca565b91603061243484612d5c565b53607861244084612d72565b5360295b600181116124e957611c206124a66124d1866124c361246c886124678915612dbd565b612e08565b6124a06040519586946124a06020870160179076020b1b1b2b9b9a1b7b73a3937b61d1030b1b1b7bab73a1604d1b81520190565b90612538565b7001034b99036b4b9b9b4b733903937b6329607d1b815260110190565b03601f198101835282610633565b60405162461bcd60e51b8152918291600483016109c6565b9080600f6125269216601081101561252b575b6f181899199a1a9b1b9c1cb0b131b232b360811b901a61251c8487612d83565b5360041c91612da2565b612444565b61253361092d565b6124fc565b9061254b6020928281519485920161097e565b0190565b600080516020615e95833981519152600081905260d660205260ff612594837fb682813e7ad91e8ae1709dc8d684694150f6a78d92aa45ea7ca507270487400161167a565b54161561259f575050565b8060005260d66020526125b682604060002061167a565b805460ff1916600117905560405133926001600160a01b03169190600080516020615dd583398151915290600090a4565b600080516020615df5833981519152600081905260d660205260ff61259483600080516020615e3583398151915261167a565b600080805260d660205260ff61263e83600080516020615e1583398151915261167a565b541615612649575050565b80805260d660205261265e826040832061167a565b805460ff1916600117905560405133926001600160a01b03169190600080516020615dd5833981519152908290a4565b8060005260d660205260ff6126a783604060002061167a565b54166126b1575050565b8060005260d66020526126c882604060002061167a565b805460ff1916905560405133926001600160a01b031691907ff6391f5c32d9c69d2a47ea670b442974b53935d1edc7fd64eb21e047a839171b90600090a4565b1561270f57565b60405162461bcd60e51b815260206004820152602c60248201527f46756e6374696f6e206d7573742062652063616c6c6564207468726f7567682060448201526b19195b1959d85d1958d85b1b60a21b6064820152608490fd5b1561277057565b60405162461bcd60e51b815260206004820152602c60248201527f46756e6374696f6e206d7573742062652063616c6c6564207468726f7567682060448201526b6163746976652070726f787960a01b6064820152608490fd5b604051906127d7826105fd565b602a82526040366020840137565b906127ef82610694565b6127fc6040519182610633565b828152809261280d601f1991610694565b0190602036910137565b908160209103126104d1575190565b506040513d6000823e3d90fd5b1561283a57565b60405162461bcd60e51b815260206004820152602960248201527f45524331393637557067726164653a20756e737570706f727465642070726f786044820152681a58589b195555525160ba1b6064820152608490fd5b60809060208152602e60208201527f45524331393637557067726164653a206e657720696d706c656d656e7461746960408201526d6f6e206973206e6f74205555505360901b60608201520190565b9061290c7f4910fdfa16fed3260ed0e7147f7cc6da11a60208b5b9406d12a635614ffd91435460ff1690565b1561291b575061059c90612a66565b6040516352d1902d60e01b8152916020836004816001600160a01b0385165afa60009381612983575b506129625760405162461bcd60e51b815280611c2060048201612891565b61297e600080516020615e7583398151915261059c9414612833565b612af6565b61299c91945060203d8111611c5e57611c4b8183610633565b9238612944565b906129cf7f4910fdfa16fed3260ed0e7147f7cc6da11a60208b5b9406d12a635614ffd91435460ff1690565b156129de575061059c90612a66565b6040516352d1902d60e01b8152916020836004816001600160a01b0385165afa60009381612a46575b50612a255760405162461bcd60e51b815280611c2060048201612891565b612a41600080516020615e7583398151915261059c9414612833565b612c0e565b612a5f91945060203d8111611c5e57611c4b8183610633565b9238612a07565b803b15612a9b57600080516020615e7583398151915280546001600160a01b0319166001600160a01b03909216919091179055565b60405162461bcd60e51b815260206004820152602d60248201527f455243313936373a206e657720696d706c656d656e746174696f6e206973206e60448201526c1bdd08184818dbdb9d1c9858dd609a1b6064820152608490fd5b612aff81612a66565b6040516001600160a01b0382167fbc7cd75a20ee27fd9adebab32041f755214dbc6bffa90cc0225b39da2e5c2d3b600083a2825115801590612c06575b612b4557505050565b813b15612bb5575060008281926020612bb295519201905af4612b66612c64565b60405191612b73836105fd565b602783527f416464726573733a206c6f772d6c6576656c2064656c65676174652063616c6c6020840152660819985a5b195960ca1b6040840152612c94565b50565b62461bcd60e51b815260206004820152602660248201527f416464726573733a2064656c65676174652063616c6c20746f206e6f6e2d636f6044820152651b9d1c9858dd60d21b6064820152608490fd5b506000612b3c565b612c1781612a66565b6040516001600160a01b0382167fbc7cd75a20ee27fd9adebab32041f755214dbc6bffa90cc0225b39da2e5c2d3b600083a2825115801590612c5c57612b4557505050565b506001612b3c565b3d15612c8f573d90612c7582610694565b91612c836040519384610633565b82523d6000602084013e565b606090565b90919015612ca0575090565b815115612cb05750805190602001fd5b60405162461bcd60e51b815260206004820152908190611c209060248301906109a1565b50634e487b7160e01b600052601160045260246000fd5b806000190460021181151516612d02575b60011b90565b612d0a612cd4565b612cfc565b9060018201809211612d1d57565b61059c612cd4565b90601f8201809211612d1d57565b6001019081600111612d1d57565b6045019081604511612d1d57565b91908201809211612d1d57565b602090805115612d6a570190565b61254b61092d565b602190805160011015612d6a570190565b906020918051821015612d9557010190565b612d9d61092d565b010190565b8015612db0575b6000190190565b612db8612cd4565b612da9565b15612dc457565b606460405162461bcd60e51b815260206004820152602060248201527f537472696e67733a20686578206c656e67746820696e73756666696369656e746044820152fd5b60405190608082018281106001600160401b03821117612ea6575b6040526042825260603660208401376030612e3d83612d5c565b536078612e4983612d72565b536041905b60018211612e6157610710915015612dbd565b80600f612e9392166010811015612e99575b6f181899199a1a9b1b9c1cb0b131b232b360811b901a61251c8486612d83565b90612e4e565b612ea161092d565b612e73565b612eae6105ab565b612e23565b939194929094603f549560ff8760a81c161580978198612fd5575b8115612fb2575b5015612f5657603f805460ff60a01b1916600160a01b179055612efc9587612f3e5761321b565b612f0257565b603f805460ff60a81b19169055604051600181527f7f26b83ff96e1f2b6a682f133852f6798a09c465da95921460cefb384740249890602090a1565b603f805460ff60a81b1916600160a81b17905561321b565b60405162461bcd60e51b815260206004820152602e60248201527f496e697469616c697a61626c653a20636f6e747261637420697320616c72656160448201526d191e481a5b9a5d1a585b1a5e995960921b6064820152608490fd5b303b15915081612fc4575b5038612ed5565b60a01c60ff16600114905038612fbd565b9050600160ff8260a01c161090612ece565b156104d157565b818110612ff9575050565b60008155600101612fee565b600160401b811161306e575b600390815481835580821061302557505050565b8261059c936000526007602060002092601c828601841c85019560021b1680613054575b5001901c0190612fee565b6000199081870191825491602003861b1c16905538613049565b6130766105ab565b613011565b8051906001600160401b03821161319a575b61309682613005565b60036000526020908101917fc2575a0e9e593c00f959f8c92f12db2869c3395a3b0502d05e2516446f71f85b908060031c9260005b8481106131465750600719821690910390816130e9575b5050505050565b9390600094855b8281106131075750505050015538808080806130e2565b909192958261313b6001926131208a5163ffffffff1690565b908560021b60031b63ffffffff811b9283911b169119161790565b9701939291016130f0565b6000805b6008811061315f5750848201556001016130cb565b969083613191600192613176855163ffffffff1690565b908b60021b60031b63ffffffff811b9283911b169119161790565b9201970161314a565b6131a26105ab565b61308d565b60019063ffffffff8091169081146131bd570190565b61254b612cd4565b604090805160011015612d6a570190565b61022090805160101015612d6a570190565b606090805160021015612d6a570190565b602091815181101561320e575b60051b010190565b61321661092d565b613206565b909261324f906132416132a694969897986132346133b5565b61323c6133a4565b61254f565b61324a816125e7565b61261a565b6132576133a4565b6132616000603555565b61326d621e8480603655565b613278610320603755565b61328866038d7ea4c68000603a55565b6132a1815161329985518214612fe7565b855114612fe7565b61307b565b60005b60035463ffffffff821690811015613317579061330d6132fe6132dc846132f86132e9611ab96132dc613312998b6131f9565b516001600160a01b031690565b611807611aa36118a089611ddc565b876131f9565b6118076118266118a085611ddc565b6131a7565b6132a9565b50505050906133329060ff8019600054169115151617600055565b61059c600160ff196008541617600855565b1561334b57565b60405162461bcd60e51b815260206004820152602b60248201527f496e697469616c697a61626c653a20636f6e7472616374206973206e6f74206960448201526a6e697469616c697a696e6760a81b6064820152608490fd5b61059c60ff603f5460a81c16613344565b6133cf60ff603f5460a81c166133ca81613344565b613344565b6001604055565b156133dd57565b60405162461bcd60e51b815260206004820152603560248201527f4d6573736167696e674163636573733a206f6e6c792074696d656c6f636b206360448201527430b71031b0b636103a3434b990333ab731ba34b7b760591b6064820152608490fd5b7f88a5966d370b9919b20f3e2c13ff65706f196a4e32cc2c12bf57088f8852587460408051338152346020820152a1565b1561347857565b60405162461bcd60e51b815260206004820152603560248201527f4d6573736167696e674163636573733a206f6e6c7920677561726469616e206360448201527430b71031b0b636103a3434b990333ab731ba34b7b760591b6064820152608490fd5b60019060001981146131bd570190565b60035461354590600160401b811015613556575b6001810180600355811015613549575b6003600052601c63ffffffff60206000208360031c0194169160021b1683549060031b63ffffffff811b9283911b169119161790565b9055565b61355161092d565b61350f565b61355e6105ab565b6134ff565b1561356a57565b60405162461bcd60e51b815260206004820152603260248201527f4d6573736167696e674163636573733a206f6e6c792061646d696e2063616e2060448201527131b0b636103a3434b990333ab731ba34b7b760711b6064820152608490fd5b9192909260009384805260209360d685526135ed60ff6115a93360408a2061167a565b603480546001600160a01b0319166001600160a01b03929092169190911790556035556036556037558251928190600160401b8511613740575b603854856038558086106136b8575b5060386000527f38395c5dceade9603479b177b68959049485df8aa97b39f3533039af5f45619991015b84841061369c575050603980546001600160a01b0319166001600160a01b03909516949094179093555061059c9291506136979050565b603a55565b600183826136ac83945186613792565b01920193019290613660565b603885528583862091820191015b8181106136d35750613636565b6001919293506136e38154610944565b806136f4575b5001908392916136c6565b601f90818111841461370c5750508581555b386136e9565b8361372e9261372085600052602060002090565b920160051c82019101612fee565b60008181526020812081835555613706565b6137486105ab565b613627565b9190601f811161375c57505050565b61059c926000526020600020906020601f840160051c83019310613788575b601f0160051c0190612fee565b909150819061377b565b91909182516001600160401b038111613861575b6137ba816137b48454610944565b8461374d565b602080601f83116001146137f65750819293946000926137eb575b50508160011b916000199060031b1c1916179055565b0151905038806137d5565b90601f1983169561380c85600052602060002090565b926000905b88821061384957505083600195969710613830575b505050811b019055565b015160001960f88460031b161c19169055388080613826565b80600185968294968601518155019501930190613811565b6138696105ab565b6137a6565b1561387557565b60405162461bcd60e51b815260206004820152601f60248201527f457865637574696f6e20537461746520526f6f74206973206e6f7420736574006044820152606490fd5b6002604054146138cb576002604055565b60405162461bcd60e51b815260206004820152601f60248201527f5265656e7472616e637947756172643a207265656e7472616e742063616c6c006044820152606490fd5b1561391757565b60405162461bcd60e51b815260206004820152600d60248201526c57726f6e672053656e6465722160981b6044820152606490fd5b956020611bd19594613a2a9998613a009895613a239561396a6138ba565b336000908152603260205260409020613986906120be906120b7565b613990888a613dfb565b603454919d909c916139d3906139ae906001600160a01b0316611ab9565b956139c46139ba610661565b61ffff9099168952565b6001600160a01b031687890152565b6139de368b8d6106be565b60408701526040519788968795869563e4948f4360e01b875260048701613a84565b03916001600160a01b03165afa908115613a62575b600091613a34575b50613af7565b36916106be565b61059c6001604055565b613a55915060203d8111613a5b575b613a4d8183610633565b810190613a6f565b38613a1d565b503d613a43565b613a6a612826565b613a15565b908160209103126104d157516107108161109d565b92613ac9926040928552602085015260808285015261ffff815116608085015260018060a01b0360208201511660a08501520151606060c084015260e08301906109a1565b8181036060909201919091528281526001600160fb1b0383116104d15760209260051b809284830137010190565b15613afe57565b60405162461bcd60e51b815260206004820152602160248201527f4661696c656420746f2070726f7665206d65737361676520696e636c7573696f6044820152603760f91b6064820152608490fd5b94610120946020948293610710999560018060a01b038092168a52168689015260006040890152606088015260c060808801528160c088015260e0870137600060e08287010152601f801991011684019360a060e082870301910152805160e0850152015191604061010082015201906109a1565b610710939263ffffffff60609316825260018060a01b0316602082015281604082015201906109a1565b908160209103126104d15751610710816104bf565b90613c196020919493946040845260408401906109a1565b931515910152565b9091604082018051613c369063ffffffff1690565b60608401516001600160a01b031660c085015160405163b958fbbf60e01b602082018181529094909391928392613c709260248501613bc2565b03601f1981018252613c829082610633565b60a08601516001600160a01b031690515a9260008094938194f18091613ca6612c64565b9060009180519060208214966001600160401b0396613d4995613d3395602095613d24957f011c6a43a0a4bffc4a181a856a4c71d63b723a7ad77e3f135784091fd7c9bf459c613d7f575b50505081613d77575b5015613d4e57611b1d613d178c6000526007602052604060002090565b805460ff19166002179055565b9701516001600160401b031690565b9163ffffffff6040519485941697169583613c01565b0390a4565b613d72613d658c6000526007602052604060002090565b805460ff19166001179055565b611b1d565b905038613cfa565b9192506001600160e01b031991613d9c9181018801908801613bec565b1614388080613cf1565b6040519060e082018281106001600160401b03821117613dee575b604052606060c0836000808252806020830152806040830152808483015280608083015260a08201520152565b613df66105ab565b613dc1565b613e2690929192613e0a613da6565b50613e1e613e193686846106be565b61439b565b9336916106be565b6020815191012091613e456120b7846000526007602052604060002090565b613e4e81610d54565b15613e945760405162461bcd60e51b815260206004820152601960248201527826b2b9b9b0b3b29030b63932b0b23c9032bc32b1baba32b21760391b6044820152606490fd5b608081015163ffffffff1663ffffffff164614613edf5760405162461bcd60e51b815260206004820152600c60248201526b2bb937b7339031b430b4b71760a11b6044820152606490fd5b805160ff1660ff613efb613ef560085460ff1690565b60ff1690565b911614613f385760405162461bcd60e51b815260206004820152600e60248201526d2bb937b733903b32b939b4b7b71760911b6044820152606490fd5b6040810180516001600160a01b0390613f5e90611ab9906113fc9063ffffffff16611aa3565b1615908115613fd6575b50613f71579190565b60405162461bcd60e51b815260206004820152603760248201527f4c6967687420636c69656e74206f722062726f616463617374657220666f72206044820152761cdbdd5c98d94818da185a5b881a5cc81b9bdd081cd95d604a1b6064820152608490fd5b613fef91506113fc611826611ab9925163ffffffff1690565b1538613f68565b63ffffffff16600052600660205260ff6040600020541661401357565b60405162461bcd60e51b815260206004820152601360248201527221b7b73a3930b1ba1034b990333937bd32b71760691b6044820152606490fd5b6001906001600160401b038091169081146131bd570190565b908160209103126104d157516107108161057e565b9294936140a960809360018060a01b0380941686526000602087015260a0604087015260a08601906109a1565b95606085015216910152565b906040516140d8816124c3602095639fb4159b60e01b87840152602483016109c6565b603b546140ef90611ab9906001600160a01b031681565b604051631db860c560e11b8152918483600481855afa928315614213575b6000936141e4575b50603d54604051636bb825d760e11b81526004810182905290938690829060249082906001600160a01b03165afa9586156141d7575b6000966141b8575b5050603f546001600160a01b031694823b156104d15760009461418c60405197889687958694635f7b157760e01b86526004860161407c565b03925af180156141ab575b61419e5750565b8061218861059c926105c2565b6141b3612826565b614197565b6141cf929650803d10611c5e57611c4b8183610633565b933880614153565b6141df612826565b61414b565b614205919350853d871161420c575b6141fd8183610633565b810190614067565b9138614115565b503d6141f3565b61421b612826565b61410d565b603c54603d54603e549092916001600160a01b03908116918116823b156104d15761427b95600095869260405198899788968795635f7b157760e01b875216600486015285602486015260a0604486015260a48501906109a1565b916064840152608483015203925af180156141ab5761419e5750565b939260659061432d926142b2600854956002549336916106be565b90604051978893602085019760ff60f81b9060f81b1688526001600160401b0360c01b9060c01b16602185015263ffffffff60e01b90814660e01b1660298601523360601b602d86015260e01b166041840152604583015261431d815180926020868601910161097e565b8101036045810186520184610633565b8251902090565b604419810191908211612d1d57565b60f619810191908211612d1d57565b60bf19810191908211612d1d57565b60b619810191908211612d1d57565b607f19810191908211612d1d57565b600019810191908211612d1d57565b91908203918211612d1d57565b906144206143a7613da6565b92600181015161440b60098301516143fe600d85015163ffffffff6021870151916001600160401b0360258901519560ff60458b015199168d521660208c01521660408a0152606089019060018060a01b03169052565b63ffffffff166080870152565b60a085015261441a8151614334565b906144a4565b60c0830152565b1561442e57565b60405162461bcd60e51b815260206004820152600e60248201526d736c6963655f6f766572666c6f7760901b6044820152606490fd5b1561446b57565b60405162461bcd60e51b8152602060048201526011602482015270736c6963655f6f75744f66426f756e647360781b6044820152606490fd5b6144b8826144b181612d25565b1015614427565b6144cd81516144c684612d41565b1115614464565b816144e5575050604051600081526020810160405290565b60405191601f8116916045831560051b80858701019484860193010101905b80841061451c5750508252601f01601f191660405290565b9092835181526020809101930190614504565b9190614550916040516020948582015284815261454b816105e2565b615270565b8051156145cf57614560906146b2565b61456e6021825111156146e4565b6145908261457b83614c8e565b600281969395929610156145c2575b156146e4565b01519081018091116145b5575b51918082106145ab57505090565b036101000a900490565b6145bd612cd4565b61459d565b6145ca610d3d565b61458a565b60405162461bcd60e51b815260048101839052601c60248201527f53746f726167652076616c756520646f6573206e6f74206578697374000000006044820152606490fd5b60405190614621826105e2565b60006020838281520152565b1561463457565b60405162461bcd60e51b815260206004820152604a60248201527f524c505265616465723a206c656e677468206f6620616e20524c50206974656d60448201527f206d7573742062652067726561746572207468616e207a65726f20746f206265606482015269206465636f6461626c6560b01b608482015260a490fd5b6146ba614614565b506146c78151151561462d565b6020815191604051926146d9846105e2565b835201602082015290565b156146eb57565b60405162461bcd60e51b815260206004820152601a60248201527f496e76616c696420524c5020627974657333322076616c75652e0000000000006044820152606490fd5b61473e6021825111156146e4565b61474c602061457b83614c8e565b0151908101809111614773575b519060208110614767575090565b6020036101000a900490565b61477b612cd4565b614759565b1561478757565b60405162461bcd60e51b815260206004820152604d6024820152600080516020615e5583398151915260448201527f74206265203e207468616e206c656e677468206f66206c697374206c656e677460648201526c6820286c6f6e67206c6973742960981b608482015260a490fd5b156147fd57565b60405162461bcd60e51b81526020600482015260486024820152600080516020615e5583398151915260448201527f74206e6f74206861766520616e79206c656164696e67207a65726f7320286c6f6064820152676e67206c6973742960c01b608482015260a490fd5b1561486e57565b60405162461bcd60e51b81526020600482015260466024820152600080516020615e5583398151915260448201527f742062652067726561746572207468616e20353520627974657320286c6f6e67606482015265206c6973742960d01b608482015260a490fd5b156148dd57565b60405162461bcd60e51b815260206004820152604a6024820152600080516020615e5583398151915260448201527f742062652067726561746572207468616e20746f74616c206c656e67746820286064820152696c6f6e67206c6973742960b01b608482015260a490fd5b1561495057565b60405162461bcd60e51b815260206004820152604a6024820152600080516020615e5583398151915260448201527f742062652067726561746572207468616e206c697374206c656e677468202873606482015269686f7274206c6973742960b01b608482015260a490fd5b156149c357565b60405162461bcd60e51b81526020600482015260516024820152600080516020615e5583398151915260448201527f74206265203e207468616e206c656e677468206f6620737472696e67206c656e60648201527067746820286c6f6e6720737472696e672960781b608482015260a490fd5b15614a3d57565b60405162461bcd60e51b815260206004820152604a6024820152600080516020615e5583398151915260448201527f74206e6f74206861766520616e79206c656164696e67207a65726f7320286c6f6064820152696e6720737472696e672960b01b608482015260a490fd5b15614ab057565b60405162461bcd60e51b81526020600482015260486024820152600080516020615e5583398151915260448201527f742062652067726561746572207468616e20353520627974657320286c6f6e6760648201526720737472696e672960c01b608482015260a490fd5b15614b2157565b60405162461bcd60e51b815260206004820152604c6024820152600080516020615e5583398151915260448201527f742062652067726561746572207468616e20746f74616c206c656e677468202860648201526b6c6f6e6720737472696e672960a01b608482015260a490fd5b15614b9657565b60405162461bcd60e51b815260206004820152604e6024820152600080516020615e5583398151915260448201527f742062652067726561746572207468616e20737472696e67206c656e6774682060648201526d2873686f727420737472696e672960901b608482015260a490fd5b15614c0d57565b60405162461bcd60e51b815260206004820152604d60248201527f524c505265616465723a20696e76616c6964207072656669782c2073696e676c60448201527f652062797465203c203078383020617265206e6f74207072656669786564202860648201526c73686f727420737472696e672960981b608482015260a490fd5b90614c9b8251151561462d565b6020820151805160001a90607f8211614cbb575060009250600191839150565b60b78211614d1557614cdb614cd2614cfd93614370565b80955111614b8f565b6001908101519084148015916001600160f81b03191690614d06575b50614c06565b60019190600090565b600160ff1b1115905038614cf7565b60bf8211614d8757614d7b6001614d2e614d8094614361565b92614d3b848851116149bc565b018051614d53906001600160f81b0319161515614a36565b518260031b610100031c94614d6a60378711614aa9565b51614d758684612d4f565b10614b1a565b612d33565b9190600090565b60f78211614dad5750614d9c614da591614352565b80935111614949565b600191908290565b614d7b6001614dbe614e0b94614343565b92614dcb84885111614780565b018051614de3906001600160f81b03191615156147f6565b518260031b610100031c94614dfa60378711614867565b51614e058684612d4f565b106148d6565b9190600190565b15614e1957565b60405162461bcd60e51b81526020600482015260156024820152744d65726b6c65547269653a20656d707479206b657960581b6044820152606490fd5b15614e5d57565b60405162461bcd60e51b815260206004820152602e60248201527f4d65726b6c65547269653a206b657920696e646578206578636565647320746f60448201526d0e8c2d840d6caf240d8cadccee8d60931b6064820152608490fd5b15614ec057565b60405162461bcd60e51b815260206004820152602660248201527f4d65726b6c65547269653a20696e76616c696420696e7465726e616c206e6f646044820152650ca40d0c2e6d60d31b6064820152608490fd5b15614f1b57565b60405162461bcd60e51b815260206004820152602760248201527f4d65726b6c65547269653a20696e76616c6964206c6172676520696e7465726e6044820152660c2d840d0c2e6d60cb1b6064820152608490fd5b15614f7757565b60405162461bcd60e51b815260206004820152601d60248201527f4d65726b6c65547269653a20696e76616c696420726f6f7420686173680000006044820152606490fd5b60ff166002039060ff8211612d1d57565b15614fd457565b60405162461bcd60e51b815260206004820152603a60248201527f4d65726b6c65547269653a20706174682072656d61696e646572206d7573742060448201527f736861726520616c6c206e6962626c65732077697468206b65790000000000006064820152608490fd5b1561504657565b60405162461bcd60e51b815260206004820152603d60248201527f4d65726b6c65547269653a206b65792072656d61696e646572206d757374206260448201527f65206964656e746963616c20746f20706174682072656d61696e6465720000006064820152608490fd5b156150b857565b60405162461bcd60e51b815260206004820152603960248201527f4d65726b6c65547269653a2076616c7565206c656e677468206d7573742062656044820152782067726561746572207468616e207a65726f20286c6561662960381b6064820152608490fd5b1561512657565b60405162461bcd60e51b815260206004820152603860248201527f4d65726b6c65547269653a2076616c7565206e6f6465206d757374206265206c604482015277617374206e6f646520696e2070726f6f6620286c6561662960401b6064820152608490fd5b1561519357565b60405162461bcd60e51b815260206004820152603b60248201527f4d65726b6c65547269653a2076616c7565206c656e677468206d75737420626560448201527f2067726561746572207468616e207a65726f20286272616e63682900000000006064820152608490fd5b1561520557565b60405162461bcd60e51b815260206004820152603a60248201527f4d65726b6c65547269653a2076616c7565206e6f6465206d757374206265206c60448201527f617374206e6f646520696e2070726f6f6620286272616e6368290000000000006064820152608490fd5b919061528a6152909161528585511515614e12565b61596c565b92615709565b906040805190816152a960209485830160209181520190565b03916152bd601f1993848101835282610633565b9360009283945b87518610156155f1576152d786896131f9565b51966152e68451871115614e56565b8561559d576153306153359161531161531d8b51868151910120895192839188830160209181520190565b03878101835282610633565b6020815191012090602081519101201490565b614f70565b80870196875151601181146000146153e65750508251850361538857505050505061538261536f61536961071094516131d6565b516157a1565b9361537c8551151561518c565b5161437f565b146151fe565b9091929493956153d76153d16153cb6153dd9360ff6153c16153bb6153ad8e8c612d83565b516001600160f81b03191690565b60f81c90565b91519116906131f9565b51615c64565b97612d0f565b946134db565b949291906152c4565b94929099989795939160028096146000146155485761540860ff999a9b615c89565b956154186153bb6153ad89612d5c565b9661543360019161542d613ef5848c16614fbc565b90615643565b9a8b9861545661544d6154468b8a615643565b809c615cb6565b809e5114614fcd565b16918214801561553e575b1561549f5750505050505050615369615499926154866107109661548c94511461503f565b516131c5565b9361537c855115156150b1565b1461511f565b90809295999893969a94975015918215615534575b5050156154d5576153dd916154cf6153cb6153d793516131c5565b98612d4f565b865162461bcd60e51b815260206004820152603260248201527f4d65726b6c65547269653a2072656365697665642061206e6f64652077697468604482015271040c2dc40eadcd6dcdeeedc40e0e4caccd2f60731b6064820152608490fd5b14905038806154b4565b5060038214615461565b835162461bcd60e51b815260206004820152602860248201527f4d65726b6c65547269653a20726563656976656420616e20756e706172736561604482015267626c65206e6f646560c01b6064820152608490fd5b8751805183116155d857506155ce6155d39161531161531d8b51868151910120895192839188830160209181520190565b614f14565b615335565b8051602091820120825191909201206155d39114614eb9565b835162461bcd60e51b815260206004820152602560248201527f4d65726b6c65547269653a2072616e206f7574206f662070726f6f6620656c656044820152646d656e747360d81b6064820152608490fd5b9081518110156156f457815181808203918083116156e7575b61566b83601f81011015614427565b61568683830161567d84821015614427565b86511015614464565b0361569f57505050604051600081526020810160405290565b60405192601f821692831560051b80858701019484860193010101905b8084106156d45750508252601f01601f191660405290565b90928351815260208091019301906156bc565b6156ef612cd4565b61565c565b505060405161570281610618565b6000815290565b8051806000190460021181151516615794575b60019061572a81831b6127e5565b92600090815b83811061573f57505050505090565b8061574b869284612d83565b5161578d61575883612ceb565b600f60f81b90615770828560041c16891a918c612d83565b5361578261577d85612ceb565b612d0f565b9216861a9189612d83565b5301615730565b61579c612cd4565b61571c565b6157aa81614c8e565b60028193929310156158b1575b61584a5782518282019081831161583d575b036157db57602061071093015161590e565b60405162461bcd60e51b815260206004820152603460248201527f524c505265616465723a2062797465732076616c756520636f6e7461696e732060448201527330b71034b73b30b634b2103932b6b0b4b73232b960611b6064820152608490fd5b615845612cd4565b6157c9565b60405162461bcd60e51b815260206004820152603960248201527f524c505265616465723a206465636f646564206974656d207479706520666f72604482015278206279746573206973206e6f7420612064617461206974656d60381b6064820152608490fd5b6158b9610d3d565b6157b7565b906158c8816127e5565b9181156159095781906000905b8282106158f25750116158e6575090565b60206000918301015290565b9150806020918301518282870101520182916158d5565b505090565b91909161591a826127e5565b928215615966578101809111615959575b81906000905b8282106159425750116158e6575090565b915080602091830151828287010152018291615931565b615961612cd4565b61592b565b50505090565b80516159778161066e565b91604061598681519485610633565b828452601f196159958461066e565b019060005b828110615a015750505060005b8281106159b45750505090565b806159c1600192846131f9565b516159d56159cf83866131f9565b51615a24565b6159dd610654565b91825260208201526159ef82876131f9565b526159fa81866131f9565b50016159a7565b6020908251615a0f816105e2565b6060808252838201528782018301520161599a565b615a30610710916146b2565b615b62565b15615a3c57565b60405162461bcd60e51b815260206004820152603860248201527f524c505265616465723a206465636f646564206974656d207479706520666f72604482015277206c697374206973206e6f742061206c697374206974656d60401b6064820152608490fd5b15615aa957565b60405162461bcd60e51b815260206004820152603260248201527f524c505265616465723a206c697374206974656d2068617320616e20696e76616044820152713634b2103230ba30903932b6b0b4b73232b960711b6064820152608490fd5b6040519061042082018281106001600160401b03821117615b55575b60405260208083528260005b6104008110615b3f57505050565b8290615b49614614565b82828501015201615b31565b615b5d6105ab565b615b25565b615b92615b9a615b7183614c8e565b929193906002841015615c57575b615b8c6001809514615a35565b84612d4f565b845114615aa2565b615ba2615b09565b92600092825b615bb5575b505050815290565b81519081811015615c5157615c45615bd082615c4b9461438e565b615c3f602097615bfc89880193615be8878651612d4f565b615bf0610654565b9182528b820152614c8e565b50939099615c1587615c0e8d88612d4f565b9351612d4f565b90615c1e610654565b928352820152615c2e828c6131f9565b52615c39818b6131f9565b50612d0f565b96612d4f565b90612d4f565b82615ba8565b50615bad565b615c5f610d3d565b615b7f565b6020815110600014615c805760208101519051610710916158be565b610710906157a1565b615ca4602080610710930151805115615ca9575b01516157a1565b615709565b615cb161092d565b615c9d565b6000918282518251808210600014615d14575093505b5b83811080615cea575b15615ce357600101615ccd565b9250505090565b506001600160f81b031980615cff8386612d83565b511690615d0c8385612d83565b511614615cd6565b90509350615ccc565b615d65929160405160208101916bffffffffffffffffffffffff199060601b16825260148152615d4c816105e2565b5190206040519060208201526020815261454b816105e2565b805115615d9657615d90615d7e615a30610710936146b2565b615d8b6004825114612fe7565b6131e8565b51614730565b60405162461bcd60e51b81526020600482015260166024820152751058d8dbdd5b9d08191bd95cc81b9bdd08195e1a5cdd60521b6044820152606490fdfe2f8788117e7eff1d82e926ec794901d17c78024a50270940304540a733656f0df66846415d2bf9eabda9e84793ff9c0ea96d87f50fc41e66aa16469c6a442f059951d615d335cf85b838ca7b834e1c7df53135f0ff2dff3f1ace9eba31cf1efc90a8eadbae9ddcd14fc969b0548795bcde0c54009ad241979fc7a2f57d7a0904524c505265616465723a206c656e677468206f6620636f6e74656e74206d7573360894a13ba1a3210667c828492db98dca3e2076cc3735a920a3ca505d382bbc55435dd261a4b9b3364963f7738a7a662ad9c84396d64be3365284bb7f0a5041a2646970667358221220a516879db3dc17212b91f617db5a49c36deae9fef1c79adafdb383f071021c7b64736f6c63430008100033",
			"opcodes": "PUSH1 0xA0 DUP1 PUSH1 0x40 MSTORE CALLVALUE PUSH3 0xEC JUMPI ADDRESS PUSH1 0x80 MSTORE PUSH1 0x3F SLOAD SWAP1 PUSH1 0xFF DUP3 PUSH1 0xA8 SHR AND PUSH3 0x9A JUMPI POP PUSH1 0xFF DUP1 DUP3 PUSH1 0xA0 SHR AND LT PUSH3 0x56 JUMPI JUMPDEST PUSH1 0x40 MLOAD PUSH2 0x5EEA SWAP1 DUP2 PUSH3 0xF2 DUP3 CODECOPY PUSH1 0x80 MLOAD DUP2 DUP2 DUP2 PUSH2 0xC6A ADD MSTORE DUP2 DUP2 PUSH2 0xEAB ADD MSTORE PUSH2 0xF26 ADD MSTORE RETURN JUMPDEST PUSH1 0xFF PUSH1 0xA0 SHL NOT AND PUSH1 0xFF PUSH1 0xA0 SHL OR PUSH1 0x3F SSTORE PUSH1 0x40 MLOAD PUSH1 0xFF DUP2 MSTORE PUSH32 0x7F26B83FF96E1F2B6A682F133852F6798A09C465DA95921460CEFB3847402498 SWAP1 PUSH1 0x20 SWAP1 LOG1 CODESIZE PUSH3 0x2F JUMP JUMPDEST PUSH3 0x461BCD PUSH1 0xE5 SHL DUP2 MSTORE PUSH1 0x20 PUSH1 0x4 DUP3 ADD MSTORE PUSH1 0x27 PUSH1 0x24 DUP3 ADD MSTORE PUSH32 0x496E697469616C697A61626C653A20636F6E747261637420697320696E697469 PUSH1 0x44 DUP3 ADD MSTORE PUSH7 0x616C697A696E67 PUSH1 0xC8 SHL PUSH1 0x64 DUP3 ADD MSTORE PUSH1 0x84 SWAP1 REVERT JUMPDEST PUSH1 0x0 DUP1 REVERT INVALID PUSH1 0x80 PUSH1 0x40 MSTORE PUSH1 0x4 CALLDATASIZE LT ISZERO PUSH2 0x23 JUMPI JUMPDEST CALLDATASIZE ISZERO PUSH2 0x19 JUMPI PUSH1 0x0 DUP1 REVERT JUMPDEST PUSH2 0x21 PUSH2 0x3440 JUMP JUMPDEST STOP JUMPDEST PUSH1 0x0 CALLDATALOAD PUSH1 0xE0 SHR DUP1 PUSH4 0x1FFC9A7 EQ PUSH2 0x4B6 JUMPI DUP1 PUSH4 0x29D6713 EQ PUSH2 0x4AD JUMPI DUP1 PUSH4 0x1D6E477A EQ PUSH2 0x4A4 JUMPI DUP1 PUSH4 0x1F3D25A9 EQ PUSH2 0x49B JUMPI DUP1 PUSH4 0x248A9CA3 EQ PUSH2 0x492 JUMPI DUP1 PUSH4 0x24EA54F4 EQ PUSH2 0x489 JUMPI DUP1 PUSH4 0x27240768 EQ PUSH2 0x480 JUMPI DUP1 PUSH4 0x274F28CE EQ PUSH2 0x477 JUMPI DUP1 PUSH4 0x2EF423AA EQ PUSH2 0x46E JUMPI DUP1 PUSH4 0x2F2FF15D EQ PUSH2 0x465 JUMPI DUP1 PUSH4 0x30009341 EQ PUSH2 0x45C JUMPI DUP1 PUSH4 0x36568ABE EQ PUSH2 0x453 JUMPI DUP1 PUSH4 0x3659CFE6 EQ PUSH2 0x44A JUMPI DUP1 PUSH4 0x36AE7C18 EQ PUSH2 0x441 JUMPI DUP1 PUSH4 0x3C6CF473 EQ PUSH2 0x438 JUMPI DUP1 PUSH4 0x3E99E9CE EQ PUSH2 0x42F JUMPI DUP1 PUSH4 0x3EB0B2AD EQ PUSH2 0x426 JUMPI DUP1 PUSH4 0x4552F563 EQ PUSH2 0x41D JUMPI DUP1 PUSH4 0x45C10B68 EQ PUSH2 0x414 JUMPI DUP1 PUSH4 0x4BE7F463 EQ PUSH2 0x40B JUMPI DUP1 PUSH4 0x4F1EF286 EQ PUSH2 0x402 JUMPI DUP1 PUSH4 0x52D1902D EQ PUSH2 0x3F9 JUMPI DUP1 PUSH4 0x54FD4D50 EQ PUSH2 0x3F0 JUMPI DUP1 PUSH4 0x59F89787 EQ PUSH2 0x3E7 JUMPI DUP1 PUSH4 0x5CB77819 EQ PUSH2 0x3DE JUMPI DUP1 PUSH4 0x64A9C88A EQ PUSH2 0x3D5 JUMPI DUP1 PUSH4 0x66C5C4A0 EQ PUSH2 0x3CC JUMPI DUP1 PUSH4 0x68346A92 EQ PUSH2 0x3C3 JUMPI DUP1 PUSH4 0x6A7EA822 EQ PUSH2 0x3BA JUMPI DUP1 PUSH4 0x7599735C EQ PUSH2 0x3B1 JUMPI DUP1 PUSH4 0x80A0567C EQ PUSH2 0x3A8 JUMPI DUP1 PUSH4 0x8380A479 EQ PUSH2 0x39F JUMPI DUP1 PUSH4 0x8446EC81 EQ PUSH2 0x396 JUMPI DUP1 PUSH4 0x858616AA EQ PUSH2 0x38D JUMPI DUP1 PUSH4 0x8D080D1D EQ PUSH2 0x384 JUMPI DUP1 PUSH4 0x8DB4E89D EQ PUSH2 0x37B JUMPI DUP1 PUSH4 0x91CD8BFD EQ PUSH2 0x372 JUMPI DUP1 PUSH4 0x91D14854 EQ PUSH2 0x369 JUMPI DUP1 PUSH4 0x98825F98 EQ PUSH2 0x360 JUMPI DUP1 PUSH4 0x99464C89 EQ PUSH2 0x357 JUMPI DUP1 PUSH4 0x9A2ED203 EQ PUSH2 0x34E JUMPI DUP1 PUSH4 0x9EFEFF1C EQ PUSH2 0x345 JUMPI DUP1 PUSH4 0x9FB4159B EQ PUSH2 0x33C JUMPI DUP1 PUSH4 0xA196E766 EQ PUSH2 0x33C JUMPI DUP1 PUSH4 0xA217FDDF EQ PUSH2 0x333 JUMPI DUP1 PUSH4 0xA542648B EQ PUSH2 0x32A JUMPI DUP1 PUSH4 0xAFFED0E0 EQ PUSH2 0x321 JUMPI DUP1 PUSH4 0xBEBBDF64 EQ PUSH2 0x318 JUMPI DUP1 PUSH4 0xC7B51826 EQ PUSH2 0x30F JUMPI DUP1 PUSH4 0xD547741F EQ PUSH2 0x306 JUMPI DUP1 PUSH4 0xDFE942D1 EQ PUSH2 0x2FD JUMPI DUP1 PUSH4 0xE4407B15 EQ PUSH2 0x2F4 JUMPI DUP1 PUSH4 0xECD8DC3A EQ PUSH2 0x2EB JUMPI DUP1 PUSH4 0xED762D44 EQ PUSH2 0x2E2 JUMPI DUP1 PUSH4 0xF288A2E2 EQ PUSH2 0x2D9 JUMPI DUP1 PUSH4 0xF3764826 EQ PUSH2 0x2D0 JUMPI DUP1 PUSH4 0xF3FEF3A3 EQ PUSH2 0x2C7 JUMPI DUP1 PUSH4 0xFDF928CF EQ PUSH2 0x2BE JUMPI PUSH4 0xFFA1AD74 SUB PUSH2 0xE JUMPI PUSH2 0x2B9 PUSH2 0x23DE JUMP JUMPDEST PUSH2 0xE JUMP JUMPDEST POP PUSH2 0x2B9 PUSH2 0x23BF JUMP JUMPDEST POP PUSH2 0x2B9 PUSH2 0x2325 JUMP JUMPDEST POP PUSH2 0x2B9 PUSH2 0x22E5 JUMP JUMPDEST POP PUSH2 0x2B9 PUSH2 0x22BB JUMP JUMPDEST POP PUSH2 0x2B9 PUSH2 0x2237 JUMP JUMPDEST POP PUSH2 0x2B9 PUSH2 0x21BE JUMP JUMPDEST POP PUSH2 0x2B9 PUSH2 0x21A1 JUMP JUMPDEST POP PUSH2 0x2B9 PUSH2 0x204B JUMP JUMPDEST POP PUSH2 0x2B9 PUSH2 0x2008 JUMP JUMPDEST POP PUSH2 0x2B9 PUSH2 0x1FE1 JUMP JUMPDEST POP PUSH2 0x2B9 PUSH2 0x1F2D JUMP JUMPDEST POP PUSH2 0x2B9 PUSH2 0x1F05 JUMP JUMPDEST POP PUSH2 0x2B9 PUSH2 0x1EE6 JUMP JUMPDEST POP PUSH2 0x2B9 PUSH2 0x1EC9 JUMP JUMPDEST POP PUSH2 0x2B9 PUSH2 0x1E54 JUMP JUMPDEST POP PUSH2 0x2B9 PUSH2 0x1E0E JUMP JUMPDEST POP PUSH2 0x2B9 PUSH2 0x1D51 JUMP JUMPDEST POP PUSH2 0x2B9 PUSH2 0x1CA2 JUMP JUMPDEST POP PUSH2 0x2B9 PUSH2 0x191E JUMP JUMPDEST POP PUSH2 0x2B9 PUSH2 0x18D9 JUMP JUMPDEST POP PUSH2 0x2B9 PUSH2 0x172B JUMP JUMPDEST POP PUSH2 0x2B9 PUSH2 0x1701 JUMP JUMPDEST POP PUSH2 0x2B9 PUSH2 0x16D4 JUMP JUMPDEST POP PUSH2 0x2B9 PUSH2 0x1691 JUMP JUMPDEST POP PUSH2 0x2B9 PUSH2 0x1650 JUMP JUMPDEST POP PUSH2 0x2B9 PUSH2 0x15C9 JUMP JUMPDEST POP PUSH2 0x2B9 PUSH2 0x1563 JUMP JUMPDEST POP PUSH2 0x2B9 PUSH2 0x1523 JUMP JUMPDEST POP PUSH2 0x2B9 PUSH2 0x14AA JUMP JUMPDEST POP PUSH2 0x2B9 PUSH2 0x128C JUMP JUMPDEST POP PUSH2 0x2B9 PUSH2 0x11B0 JUMP JUMPDEST POP PUSH2 0x2B9 PUSH2 0x1191 JUMP JUMPDEST POP PUSH2 0x2B9 PUSH2 0x10B4 JUMP JUMPDEST POP PUSH2 0x2B9 PUSH2 0xFF5 JUMP JUMPDEST POP PUSH2 0x2B9 PUSH2 0xFD3 JUMP JUMPDEST POP PUSH2 0x2B9 PUSH2 0xF12 JUMP JUMPDEST POP PUSH2 0x2B9 PUSH2 0xE61 JUMP JUMPDEST POP PUSH2 0x2B9 PUSH2 0xE37 JUMP JUMPDEST POP PUSH2 0x2B9 PUSH2 0xE0D JUMP JUMPDEST POP PUSH2 0x2B9 PUSH2 0xDEE JUMP JUMPDEST POP PUSH2 0x2B9 PUSH2 0xDCF JUMP JUMPDEST POP PUSH2 0x2B9 PUSH2 0xDAB JUMP JUMPDEST POP PUSH2 0x2B9 PUSH2 0xD66 JUMP JUMPDEST POP PUSH2 0x2B9 PUSH2 0xD00 JUMP JUMPDEST POP PUSH2 0x2B9 PUSH2 0xC3C JUMP JUMPDEST POP PUSH2 0x2B9 PUSH2 0xBA5 JUMP JUMPDEST POP PUSH2 0x2B9 PUSH2 0xB7B JUMP JUMPDEST POP PUSH2 0x2B9 PUSH2 0xAD8 JUMP JUMPDEST POP PUSH2 0x2B9 PUSH2 0xAAE JUMP JUMPDEST POP PUSH2 0x2B9 PUSH2 0x9D7 JUMP JUMPDEST POP PUSH2 0x2B9 PUSH2 0x90E JUMP JUMPDEST POP PUSH2 0x2B9 PUSH2 0x8E4 JUMP JUMPDEST POP PUSH2 0x2B9 PUSH2 0x8A9 JUMP JUMPDEST POP PUSH2 0x2B9 PUSH2 0x81A JUMP JUMPDEST POP PUSH2 0x2B9 PUSH2 0x782 JUMP JUMPDEST POP PUSH2 0x2B9 PUSH2 0x543 JUMP JUMPDEST POP PUSH2 0x2B9 PUSH2 0x4D6 JUMP JUMPDEST PUSH1 0x1 PUSH1 0x1 PUSH1 0xE0 SHL SUB NOT DUP2 AND SUB PUSH2 0x4D1 JUMPI JUMP JUMPDEST PUSH1 0x0 DUP1 REVERT JUMPDEST POP CALLVALUE PUSH2 0x4D1 JUMPI PUSH1 0x20 CALLDATASIZE PUSH1 0x3 NOT ADD SLT PUSH2 0x4D1 JUMPI PUSH1 0x20 PUSH1 0x4 CALLDATALOAD PUSH2 0x4F6 DUP2 PUSH2 0x4BF JUMP JUMPDEST PUSH4 0xFFFFFFFF PUSH1 0xE0 SHL AND PUSH4 0x7965DB0B PUSH1 0xE0 SHL DUP2 EQ SWAP1 DUP2 ISZERO PUSH2 0x51C JUMPI JUMPDEST POP PUSH1 0x40 MLOAD SWAP1 ISZERO ISZERO DUP2 MSTORE RETURN JUMPDEST PUSH4 0x1FFC9A7 PUSH1 0xE0 SHL EQ SWAP1 POP CODESIZE PUSH2 0x511 JUMP JUMPDEST PUSH1 0x4 CALLDATALOAD SWAP1 PUSH1 0x1 PUSH1 0x1 PUSH1 0x40 SHL SUB DUP3 AND DUP3 SUB PUSH2 0x4D1 JUMPI JUMP JUMPDEST POP CALLVALUE PUSH2 0x4D1 JUMPI PUSH1 0x20 CALLDATASIZE PUSH1 0x3 NOT ADD SLT PUSH2 0x4D1 JUMPI PUSH1 0x1 PUSH1 0x1 PUSH1 0x40 SHL SUB PUSH2 0x565 PUSH2 0x52D JUMP JUMPDEST AND PUSH1 0x0 MSTORE PUSH1 0x1 PUSH1 0x20 MSTORE PUSH1 0x20 PUSH1 0x40 PUSH1 0x0 KECCAK256 SLOAD PUSH1 0x40 MLOAD SWAP1 DUP2 MSTORE RETURN JUMPDEST PUSH1 0x1 PUSH1 0x1 PUSH1 0xA0 SHL SUB DUP2 AND SUB PUSH2 0x4D1 JUMPI JUMP JUMPDEST PUSH1 0x64 CALLDATALOAD SWAP1 PUSH2 0x59C DUP3 PUSH2 0x57E JUMP JUMPDEST JUMP JUMPDEST PUSH1 0x84 CALLDATALOAD SWAP1 PUSH2 0x59C DUP3 PUSH2 0x57E JUMP JUMPDEST POP PUSH4 0x4E487B71 PUSH1 0xE0 SHL PUSH1 0x0 MSTORE PUSH1 0x41 PUSH1 0x4 MSTORE PUSH1 0x24 PUSH1 0x0 REVERT JUMPDEST PUSH1 0x1 PUSH1 0x1 PUSH1 0x40 SHL SUB DUP2 GT PUSH2 0x5D5 JUMPI PUSH1 0x40 MSTORE JUMP JUMPDEST PUSH2 0x5DD PUSH2 0x5AB JUMP JUMPDEST PUSH1 0x40 MSTORE JUMP JUMPDEST PUSH1 0x40 DUP2 ADD SWAP1 DUP2 LT PUSH1 0x1 PUSH1 0x1 PUSH1 0x40 SHL SUB DUP3 GT OR PUSH2 0x5D5 JUMPI PUSH1 0x40 MSTORE JUMP JUMPDEST PUSH1 0x60 DUP2 ADD SWAP1 DUP2 LT PUSH1 0x1 PUSH1 0x1 PUSH1 0x40 SHL SUB DUP3 GT OR PUSH2 0x5D5 JUMPI PUSH1 0x40 MSTORE JUMP JUMPDEST PUSH1 0x20 DUP2 ADD SWAP1 DUP2 LT PUSH1 0x1 PUSH1 0x1 PUSH1 0x40 SHL SUB DUP3 GT OR PUSH2 0x5D5 JUMPI PUSH1 0x40 MSTORE JUMP JUMPDEST SWAP1 PUSH1 0x1F DUP1 NOT SWAP2 ADD AND DUP2 ADD SWAP1 DUP2 LT PUSH1 0x1 PUSH1 0x1 PUSH1 0x40 SHL SUB DUP3 GT OR PUSH2 0x5D5 JUMPI PUSH1 0x40 MSTORE JUMP JUMPDEST PUSH1 0x40 MLOAD SWAP1 PUSH2 0x59C DUP3 PUSH2 0x5E2 JUMP JUMPDEST PUSH1 0x40 MLOAD SWAP1 PUSH2 0x59C DUP3 PUSH2 0x5FD JUMP JUMPDEST PUSH1 0x20 SWAP1 PUSH1 0x1 PUSH1 0x1 PUSH1 0x40 SHL SUB DUP2 GT PUSH2 0x687 JUMPI JUMPDEST PUSH1 0x5 SHL ADD SWAP1 JUMP JUMPDEST PUSH2 0x68F PUSH2 0x5AB JUMP JUMPDEST PUSH2 0x680 JUMP JUMPDEST PUSH1 0x20 SWAP1 PUSH1 0x1 PUSH1 0x1 PUSH1 0x40 SHL SUB DUP2 GT PUSH2 0x6B1 JUMPI JUMPDEST PUSH1 0x1F ADD PUSH1 0x1F NOT AND ADD SWAP1 JUMP JUMPDEST PUSH2 0x6B9 PUSH2 0x5AB JUMP JUMPDEST PUSH2 0x6A6 JUMP JUMPDEST SWAP3 SWAP2 SWAP3 PUSH2 0x6CA DUP3 PUSH2 0x694 JUMP JUMPDEST SWAP2 PUSH2 0x6D8 PUSH1 0x40 MLOAD SWAP4 DUP5 PUSH2 0x633 JUMP JUMPDEST DUP3 SWAP5 DUP2 DUP5 MSTORE DUP2 DUP4 ADD GT PUSH2 0x4D1 JUMPI DUP3 DUP2 PUSH1 0x20 SWAP4 DUP5 PUSH1 0x0 SWAP7 ADD CALLDATACOPY ADD ADD MSTORE JUMP JUMPDEST SWAP1 DUP1 PUSH1 0x1F DUP4 ADD SLT ISZERO PUSH2 0x4D1 JUMPI DUP2 PUSH1 0x20 PUSH2 0x710 SWAP4 CALLDATALOAD SWAP2 ADD PUSH2 0x6BE JUMP JUMPDEST SWAP1 JUMP JUMPDEST SWAP3 SWAP2 SWAP1 SWAP3 PUSH2 0x720 DUP5 PUSH2 0x66E JUMP JUMPDEST SWAP2 PUSH2 0x72E PUSH1 0x40 MLOAD SWAP4 DUP5 PUSH2 0x633 JUMP JUMPDEST DUP3 SWAP5 DUP1 DUP5 MSTORE PUSH1 0x20 DUP1 SWAP5 ADD SWAP1 PUSH1 0x5 SHL DUP4 ADD SWAP3 DUP3 DUP5 GT PUSH2 0x4D1 JUMPI DUP1 SWAP2 JUMPDEST DUP5 DUP4 LT PUSH2 0x758 JUMPI POP POP POP POP POP POP JUMP JUMPDEST DUP3 CALLDATALOAD PUSH1 0x1 PUSH1 0x1 PUSH1 0x40 SHL SUB DUP2 GT PUSH2 0x4D1 JUMPI DUP7 SWAP2 PUSH2 0x777 DUP7 DUP5 SWAP4 DUP7 ADD PUSH2 0x6F5 JUMP JUMPDEST DUP2 MSTORE ADD SWAP3 ADD SWAP2 PUSH2 0x749 JUMP JUMPDEST POP CALLVALUE PUSH2 0x4D1 JUMPI PUSH1 0xE0 CALLDATASIZE PUSH1 0x3 NOT ADD SLT PUSH2 0x4D1 JUMPI PUSH1 0x4 CALLDATALOAD PUSH2 0x7A0 DUP2 PUSH2 0x57E JUMP JUMPDEST PUSH1 0x84 CALLDATALOAD SWAP1 PUSH1 0x1 PUSH1 0x1 PUSH1 0x40 SHL SUB DUP3 GT PUSH2 0x4D1 JUMPI CALLDATASIZE PUSH1 0x23 DUP4 ADD SLT ISZERO PUSH2 0x4D1 JUMPI PUSH2 0x7D4 PUSH2 0x21 SWAP3 CALLDATASIZE SWAP1 PUSH1 0x24 DUP2 PUSH1 0x4 ADD CALLDATALOAD SWAP2 ADD PUSH2 0x713 JUMP JUMPDEST PUSH1 0xA4 CALLDATALOAD SWAP1 PUSH2 0x7E1 DUP3 PUSH2 0x57E JUMP JUMPDEST PUSH1 0xC4 CALLDATALOAD SWAP3 PUSH1 0x64 CALLDATALOAD SWAP1 PUSH1 0x44 CALLDATALOAD SWAP1 PUSH1 0x24 CALLDATALOAD SWAP1 PUSH2 0x35CA JUMP JUMPDEST PUSH1 0x4 CALLDATALOAD SWAP1 PUSH4 0xFFFFFFFF DUP3 AND DUP3 SUB PUSH2 0x4D1 JUMPI JUMP JUMPDEST CALLDATALOAD SWAP1 PUSH4 0xFFFFFFFF DUP3 AND DUP3 SUB PUSH2 0x4D1 JUMPI JUMP JUMPDEST POP CALLVALUE PUSH2 0x4D1 JUMPI PUSH1 0x20 CALLDATASIZE PUSH1 0x3 NOT ADD SLT PUSH2 0x4D1 JUMPI PUSH2 0x834 PUSH2 0x7F6 JUMP JUMPDEST PUSH4 0xFFFFFFFF PUSH1 0x0 SWAP2 PUSH1 0x0 DUP1 MLOAD PUSH1 0x20 PUSH2 0x5E95 DUP4 CODECOPY DUP2 MLOAD SWAP2 MSTORE DUP4 MSTORE PUSH1 0xD6 PUSH1 0x20 MSTORE PUSH2 0x86B PUSH1 0xFF PUSH2 0x864 CALLER PUSH1 0x40 DUP8 KECCAK256 PUSH2 0x167A JUMP JUMPDEST SLOAD AND PUSH2 0x3471 JUMP JUMPDEST AND DUP1 DUP3 MSTORE PUSH1 0x6 PUSH1 0x20 MSTORE PUSH1 0x40 DUP1 DUP4 KECCAK256 DUP1 SLOAD PUSH1 0xFF NOT AND SWAP1 SSTORE MLOAD SWAP1 PUSH32 0x9FD67BD682613B07687B42F99D8B24402D09FEABB75DF93ABDB26B8FCF984583 DUP4 DUP4 LOG2 RETURN JUMPDEST POP CALLVALUE PUSH2 0x4D1 JUMPI PUSH1 0x20 CALLDATASIZE PUSH1 0x3 NOT ADD SLT PUSH2 0x4D1 JUMPI PUSH1 0x4 CALLDATALOAD PUSH1 0x0 MSTORE PUSH1 0xD6 PUSH1 0x20 MSTORE PUSH1 0x20 PUSH1 0x1 PUSH1 0x40 PUSH1 0x0 KECCAK256 ADD SLOAD PUSH1 0x40 MLOAD SWAP1 DUP2 MSTORE RETURN JUMPDEST PUSH1 0x0 SWAP2 SUB SLT PUSH2 0x4D1 JUMPI JUMP JUMPDEST POP CALLVALUE PUSH2 0x4D1 JUMPI PUSH1 0x0 CALLDATASIZE PUSH1 0x3 NOT ADD SLT PUSH2 0x4D1 JUMPI PUSH1 0x20 PUSH1 0x40 MLOAD PUSH1 0x0 DUP1 MLOAD PUSH1 0x20 PUSH2 0x5E95 DUP4 CODECOPY DUP2 MLOAD SWAP2 MSTORE DUP2 MSTORE RETURN JUMPDEST POP CALLVALUE PUSH2 0x4D1 JUMPI PUSH1 0x0 CALLDATASIZE PUSH1 0x3 NOT ADD SLT PUSH2 0x4D1 JUMPI PUSH1 0x20 PUSH1 0x37 SLOAD PUSH1 0x40 MLOAD SWAP1 DUP2 MSTORE RETURN JUMPDEST POP PUSH4 0x4E487B71 PUSH1 0xE0 SHL PUSH1 0x0 MSTORE PUSH1 0x32 PUSH1 0x4 MSTORE PUSH1 0x24 PUSH1 0x0 REVERT JUMPDEST SWAP1 PUSH1 0x1 DUP3 DUP2 SHR SWAP3 AND DUP1 ISZERO PUSH2 0x974 JUMPI JUMPDEST PUSH1 0x20 DUP4 LT EQ PUSH2 0x95E JUMPI JUMP JUMPDEST PUSH4 0x4E487B71 PUSH1 0xE0 SHL PUSH1 0x0 MSTORE PUSH1 0x22 PUSH1 0x4 MSTORE PUSH1 0x24 PUSH1 0x0 REVERT JUMPDEST SWAP2 PUSH1 0x7F AND SWAP2 PUSH2 0x953 JUMP JUMPDEST PUSH1 0x0 JUMPDEST DUP4 DUP2 LT PUSH2 0x991 JUMPI POP POP PUSH1 0x0 SWAP2 ADD MSTORE JUMP JUMPDEST DUP2 DUP2 ADD MLOAD DUP4 DUP3 ADD MSTORE PUSH1 0x20 ADD PUSH2 0x981 JUMP JUMPDEST SWAP1 PUSH1 0x20 SWAP2 PUSH2 0x9BA DUP2 MLOAD DUP1 SWAP3 DUP2 DUP6 MSTORE DUP6 DUP1 DUP7 ADD SWAP2 ADD PUSH2 0x97E JUMP JUMPDEST PUSH1 0x1F ADD PUSH1 0x1F NOT AND ADD ADD SWAP1 JUMP JUMPDEST SWAP1 PUSH1 0x20 PUSH2 0x710 SWAP3 DUP2 DUP2 MSTORE ADD SWAP1 PUSH2 0x9A1 JUMP JUMPDEST POP CALLVALUE PUSH2 0x4D1 JUMPI PUSH1 0x20 DUP1 PUSH1 0x3 NOT CALLDATASIZE ADD SLT PUSH2 0x4D1 JUMPI PUSH1 0x4 CALLDATALOAD SWAP1 PUSH1 0x38 SLOAD DUP3 LT ISZERO PUSH2 0x4D1 JUMPI PUSH1 0x0 SWAP2 PUSH1 0x38 DUP4 MSTORE DUP2 DUP4 KECCAK256 ADD SWAP1 PUSH1 0x40 MLOAD SWAP2 DUP4 DUP2 SLOAD SWAP1 PUSH2 0xA15 DUP3 PUSH2 0x944 JUMP JUMPDEST DUP1 DUP7 MSTORE SWAP3 PUSH1 0x1 SWAP3 DUP1 DUP5 AND SWAP1 DUP2 ISZERO PUSH2 0xA8A JUMPI POP PUSH1 0x1 EQ PUSH2 0xA4F JUMPI JUMPDEST PUSH2 0xA4B DUP7 PUSH2 0xA3F DUP2 DUP11 SUB DUP3 PUSH2 0x633 JUMP JUMPDEST PUSH1 0x40 MLOAD SWAP2 DUP3 SWAP2 DUP3 PUSH2 0x9C6 JUMP JUMPDEST SUB SWAP1 RETURN JUMPDEST SWAP1 DUP1 SWAP5 SWAP7 POP MSTORE DUP5 DUP4 KECCAK256 JUMPDEST DUP3 DUP5 LT PUSH2 0xA77 JUMPI POP POP POP DUP2 PUSH2 0xA4B SWAP4 PUSH2 0xA3F SWAP3 DUP3 ADD ADD SWAP4 CODESIZE DUP1 PUSH2 0xA2F JUMP JUMPDEST DUP1 SLOAD DUP6 DUP6 ADD DUP8 ADD MSTORE SWAP3 DUP6 ADD SWAP3 DUP2 ADD PUSH2 0xA59 JUMP JUMPDEST PUSH1 0xFF NOT AND DUP8 DUP8 ADD MSTORE POP POP POP POP ISZERO ISZERO PUSH1 0x5 SHL DUP3 ADD ADD SWAP2 POP PUSH2 0xA3F DUP2 PUSH2 0xA4B CODESIZE DUP1 PUSH2 0xA2F JUMP JUMPDEST POP CALLVALUE PUSH2 0x4D1 JUMPI PUSH1 0x0 CALLDATASIZE PUSH1 0x3 NOT ADD SLT PUSH2 0x4D1 JUMPI PUSH1 0x3C SLOAD PUSH1 0x40 MLOAD PUSH1 0x1 PUSH1 0x1 PUSH1 0xA0 SHL SUB SWAP1 SWAP2 AND DUP2 MSTORE PUSH1 0x20 SWAP1 RETURN JUMPDEST POP CALLVALUE PUSH2 0x4D1 JUMPI PUSH1 0x40 DUP1 PUSH1 0x3 NOT CALLDATASIZE ADD SLT PUSH2 0x4D1 JUMPI PUSH1 0x4 CALLDATALOAD SWAP1 PUSH1 0x24 CALLDATALOAD PUSH2 0xAFB DUP2 PUSH2 0x57E JUMP JUMPDEST PUSH1 0x0 SWAP3 DUP1 DUP5 MSTORE PUSH1 0xD6 PUSH1 0x20 MSTORE PUSH2 0xB15 PUSH1 0x1 DUP5 DUP7 KECCAK256 ADD SLOAD PUSH2 0x23FB JUMP JUMPDEST DUP1 DUP5 MSTORE PUSH1 0xD6 PUSH1 0x20 MSTORE PUSH1 0xFF PUSH2 0xB2B DUP4 DUP6 DUP8 KECCAK256 PUSH2 0x167A JUMP JUMPDEST SLOAD AND ISZERO PUSH2 0xB37 JUMPI POP POP MLOAD RETURN JUMPDEST DUP1 DUP5 MSTORE PUSH1 0xD6 PUSH1 0x20 MSTORE PUSH2 0xB4B DUP3 DUP5 DUP7 KECCAK256 PUSH2 0x167A JUMP JUMPDEST DUP1 SLOAD PUSH1 0xFF NOT AND PUSH1 0x1 OR SWAP1 SSTORE DUP3 MLOAD CALLER SWAP3 PUSH1 0x1 PUSH1 0x1 PUSH1 0xA0 SHL SUB AND SWAP2 SWAP1 PUSH1 0x0 DUP1 MLOAD PUSH1 0x20 PUSH2 0x5DD5 DUP4 CODECOPY DUP2 MLOAD SWAP2 MSTORE SWAP1 DUP7 SWAP1 LOG4 MLOAD RETURN JUMPDEST POP CALLVALUE PUSH2 0x4D1 JUMPI PUSH1 0x0 CALLDATASIZE PUSH1 0x3 NOT ADD SLT PUSH2 0x4D1 JUMPI PUSH1 0x39 SLOAD PUSH1 0x40 MLOAD PUSH1 0x1 PUSH1 0x1 PUSH1 0xA0 SHL SUB SWAP1 SWAP2 AND DUP2 MSTORE PUSH1 0x20 SWAP1 RETURN JUMPDEST POP CALLVALUE PUSH2 0x4D1 JUMPI PUSH1 0x40 CALLDATASIZE PUSH1 0x3 NOT ADD SLT PUSH2 0x4D1 JUMPI PUSH1 0x24 CALLDATALOAD PUSH2 0xBC3 DUP2 PUSH2 0x57E JUMP JUMPDEST CALLER PUSH1 0x1 PUSH1 0x1 PUSH1 0xA0 SHL SUB DUP3 AND SUB PUSH2 0xBDF JUMPI PUSH2 0x21 SWAP1 PUSH1 0x4 CALLDATALOAD PUSH2 0x268E JUMP JUMPDEST PUSH1 0x40 MLOAD PUSH3 0x461BCD PUSH1 0xE5 SHL DUP2 MSTORE PUSH1 0x20 PUSH1 0x4 DUP3 ADD MSTORE PUSH1 0x2F PUSH1 0x24 DUP3 ADD MSTORE PUSH32 0x416363657373436F6E74726F6C3A2063616E206F6E6C792072656E6F756E6365 PUSH1 0x44 DUP3 ADD MSTORE PUSH15 0x103937B632B9903337B91039B2B633 PUSH1 0x89 SHL PUSH1 0x64 DUP3 ADD MSTORE PUSH1 0x84 SWAP1 REVERT JUMPDEST POP CALLVALUE PUSH2 0x4D1 JUMPI PUSH1 0x20 CALLDATASIZE PUSH1 0x3 NOT ADD SLT PUSH2 0x4D1 JUMPI PUSH2 0x21 PUSH1 0x4 CALLDATALOAD PUSH2 0xC5D DUP2 PUSH2 0x57E JUMP JUMPDEST PUSH2 0xCAF PUSH1 0x1 PUSH1 0x1 PUSH1 0xA0 SHL SUB PUSH32 0x0 DUP2 AND SWAP1 PUSH2 0xC98 ADDRESS DUP4 EQ ISZERO PUSH2 0x2708 JUMP JUMPDEST PUSH1 0x0 DUP1 MLOAD PUSH1 0x20 PUSH2 0x5E75 DUP4 CODECOPY DUP2 MLOAD SWAP2 MSTORE SLOAD AND EQ PUSH2 0x2769 JUMP JUMPDEST PUSH1 0x0 DUP1 MLOAD PUSH1 0x20 PUSH2 0x5DF5 DUP4 CODECOPY DUP2 MLOAD SWAP2 MSTORE PUSH1 0x0 MSTORE PUSH1 0xD6 PUSH1 0x20 MSTORE PUSH2 0xCEA PUSH1 0xFF PUSH2 0xCE3 CALLER PUSH1 0x0 DUP1 MLOAD PUSH1 0x20 PUSH2 0x5E35 DUP4 CODECOPY DUP2 MLOAD SWAP2 MSTORE PUSH2 0x167A JUMP JUMPDEST SLOAD AND PUSH2 0x33D6 JUMP JUMPDEST PUSH1 0x40 MLOAD SWAP1 PUSH2 0xCF7 DUP3 PUSH2 0x618 JUMP JUMPDEST PUSH1 0x0 DUP3 MSTORE PUSH2 0x28E0 JUMP JUMPDEST POP CALLVALUE PUSH2 0x4D1 JUMPI PUSH1 0x20 CALLDATASIZE PUSH1 0x3 NOT ADD SLT PUSH2 0x4D1 JUMPI PUSH4 0xFFFFFFFF PUSH2 0xD1F PUSH2 0x7F6 JUMP JUMPDEST AND PUSH1 0x0 MSTORE PUSH1 0x6 PUSH1 0x20 MSTORE PUSH1 0x20 PUSH1 0xFF PUSH1 0x40 PUSH1 0x0 KECCAK256 SLOAD AND PUSH1 0x40 MLOAD SWAP1 ISZERO ISZERO DUP2 MSTORE RETURN JUMPDEST POP PUSH4 0x4E487B71 PUSH1 0xE0 SHL PUSH1 0x0 MSTORE PUSH1 0x21 PUSH1 0x4 MSTORE PUSH1 0x24 PUSH1 0x0 REVERT JUMPDEST PUSH1 0x3 GT ISZERO PUSH2 0xD5E JUMPI JUMP JUMPDEST PUSH2 0x59C PUSH2 0xD3D JUMP JUMPDEST POP CALLVALUE PUSH2 0x4D1 JUMPI PUSH1 0x20 CALLDATASIZE PUSH1 0x3 NOT ADD SLT PUSH2 0x4D1 JUMPI PUSH1 0x4 CALLDATALOAD PUSH1 0x0 MSTORE PUSH1 0x7 PUSH1 0x20 MSTORE PUSH1 0x20 PUSH1 0xFF PUSH1 0x40 PUSH1 0x0 KECCAK256 SLOAD AND PUSH1 0x40 MLOAD SWAP1 PUSH1 0x3 DUP2 LT ISZERO PUSH2 0xD9F JUMPI DUP2 MSTORE RETURN JUMPDEST PUSH2 0xDA7 PUSH2 0xD3D JUMP JUMPDEST DUP2 MSTORE RETURN JUMPDEST POP CALLVALUE PUSH2 0x4D1 JUMPI PUSH1 0x0 CALLDATASIZE PUSH1 0x3 NOT ADD SLT PUSH2 0x4D1 JUMPI PUSH1 0x20 PUSH1 0xFF PUSH1 0x0 SLOAD AND PUSH1 0x40 MLOAD SWAP1 ISZERO ISZERO DUP2 MSTORE RETURN JUMPDEST POP CALLVALUE PUSH2 0x4D1 JUMPI PUSH1 0x0 CALLDATASIZE PUSH1 0x3 NOT ADD SLT PUSH2 0x4D1 JUMPI PUSH1 0x20 PUSH1 0x3A SLOAD PUSH1 0x40 MLOAD SWAP1 DUP2 MSTORE RETURN JUMPDEST POP CALLVALUE PUSH2 0x4D1 JUMPI PUSH1 0x0 CALLDATASIZE PUSH1 0x3 NOT ADD SLT PUSH2 0x4D1 JUMPI PUSH1 0x20 PUSH1 0x3 SLOAD PUSH1 0x40 MLOAD SWAP1 DUP2 MSTORE RETURN JUMPDEST POP CALLVALUE PUSH2 0x4D1 JUMPI PUSH1 0x0 CALLDATASIZE PUSH1 0x3 NOT ADD SLT PUSH2 0x4D1 JUMPI PUSH1 0x3B SLOAD PUSH1 0x40 MLOAD PUSH1 0x1 PUSH1 0x1 PUSH1 0xA0 SHL SUB SWAP1 SWAP2 AND DUP2 MSTORE PUSH1 0x20 SWAP1 RETURN JUMPDEST POP CALLVALUE PUSH2 0x4D1 JUMPI PUSH1 0x0 CALLDATASIZE PUSH1 0x3 NOT ADD SLT PUSH2 0x4D1 JUMPI PUSH1 0x3E SLOAD PUSH1 0x40 MLOAD PUSH1 0x1 PUSH1 0x1 PUSH1 0xA0 SHL SUB SWAP1 SWAP2 AND DUP2 MSTORE PUSH1 0x20 SWAP1 RETURN JUMPDEST POP PUSH1 0x40 CALLDATASIZE PUSH1 0x3 NOT ADD SLT PUSH2 0x4D1 JUMPI PUSH1 0x4 CALLDATALOAD PUSH2 0xE7A DUP2 PUSH2 0x57E JUMP JUMPDEST PUSH1 0x24 CALLDATALOAD SWAP1 PUSH1 0x1 PUSH1 0x1 PUSH1 0x40 SHL SUB DUP3 GT PUSH2 0x4D1 JUMPI PUSH2 0xE9D PUSH2 0x21 SWAP3 CALLDATASIZE SWAP1 PUSH1 0x4 ADD PUSH2 0x6F5 JUMP JUMPDEST SWAP1 PUSH2 0xED9 PUSH1 0x1 PUSH1 0x1 PUSH1 0xA0 SHL SUB PUSH32 0x0 DUP2 AND SWAP1 PUSH2 0xC98 ADDRESS DUP4 EQ ISZERO PUSH2 0x2708 JUMP JUMPDEST PUSH1 0x0 DUP1 MLOAD PUSH1 0x20 PUSH2 0x5DF5 DUP4 CODECOPY DUP2 MLOAD SWAP2 MSTORE PUSH1 0x0 MSTORE PUSH1 0xD6 PUSH1 0x20 MSTORE PUSH2 0xF0D PUSH1 0xFF PUSH2 0xCE3 CALLER PUSH1 0x0 DUP1 MLOAD PUSH1 0x20 PUSH2 0x5E35 DUP4 CODECOPY DUP2 MLOAD SWAP2 MSTORE PUSH2 0x167A JUMP JUMPDEST PUSH2 0x29A3 JUMP JUMPDEST POP CALLVALUE PUSH2 0x4D1 JUMPI PUSH1 0x0 CALLDATASIZE PUSH1 0x3 NOT ADD SLT PUSH2 0x4D1 JUMPI PUSH32 0x0 PUSH1 0x1 PUSH1 0x1 PUSH1 0xA0 SHL SUB AND ADDRESS SUB PUSH2 0xF6D JUMPI PUSH1 0x40 MLOAD PUSH1 0x0 DUP1 MLOAD PUSH1 0x20 PUSH2 0x5E75 DUP4 CODECOPY DUP2 MLOAD SWAP2 MSTORE DUP2 MSTORE PUSH1 0x20 SWAP1 RETURN JUMPDEST PUSH1 0x40 MLOAD PUSH3 0x461BCD PUSH1 0xE5 SHL DUP2 MSTORE PUSH1 0x20 PUSH1 0x4 DUP3 ADD MSTORE PUSH1 0x38 PUSH1 0x24 DUP3 ADD MSTORE PUSH32 0x555550535570677261646561626C653A206D757374206E6F742062652063616C PUSH1 0x44 DUP3 ADD MSTORE PUSH24 0x1B1959081D1A1C9BDD59DA0819195B1959D85D1958D85B1B PUSH1 0x42 SHL PUSH1 0x64 DUP3 ADD MSTORE PUSH1 0x84 SWAP1 REVERT JUMPDEST POP CALLVALUE PUSH2 0x4D1 JUMPI PUSH1 0x0 CALLDATASIZE PUSH1 0x3 NOT ADD SLT PUSH2 0x4D1 JUMPI PUSH1 0x20 PUSH1 0xFF PUSH1 0x8 SLOAD AND PUSH1 0x40 MLOAD SWAP1 DUP2 MSTORE RETURN JUMPDEST POP CALLVALUE PUSH2 0x4D1 JUMPI PUSH1 0x20 CALLDATASIZE PUSH1 0x3 NOT ADD SLT PUSH2 0x4D1 JUMPI PUSH4 0xFFFFFFFF PUSH2 0x1014 PUSH2 0x7F6 JUMP JUMPDEST AND PUSH1 0x0 MSTORE PUSH1 0x5 PUSH1 0x20 MSTORE PUSH1 0x20 PUSH1 0x1 DUP1 PUSH1 0xA0 SHL SUB PUSH1 0x40 PUSH1 0x0 KECCAK256 SLOAD AND PUSH1 0x40 MLOAD SWAP1 DUP2 MSTORE RETURN JUMPDEST DUP2 PUSH1 0x1F DUP3 ADD SLT ISZERO PUSH2 0x4D1 JUMPI DUP1 CALLDATALOAD SWAP2 PUSH2 0x104C DUP4 PUSH2 0x66E JUMP JUMPDEST SWAP3 PUSH2 0x105A PUSH1 0x40 MLOAD SWAP5 DUP6 PUSH2 0x633 JUMP JUMPDEST DUP1 DUP5 MSTORE PUSH1 0x20 SWAP3 DUP4 DUP1 DUP7 ADD SWAP3 PUSH1 0x5 SHL DUP3 ADD ADD SWAP3 DUP4 GT PUSH2 0x4D1 JUMPI DUP4 ADD SWAP1 JUMPDEST DUP3 DUP3 LT PUSH2 0x1084 JUMPI POP POP POP POP SWAP1 JUMP JUMPDEST DUP4 DUP1 SWAP2 DUP4 CALLDATALOAD PUSH2 0x1092 DUP2 PUSH2 0x57E JUMP JUMPDEST DUP2 MSTORE ADD SWAP2 ADD SWAP1 PUSH2 0x1076 JUMP JUMPDEST DUP1 ISZERO ISZERO SUB PUSH2 0x4D1 JUMPI JUMP JUMPDEST PUSH1 0xA4 CALLDATALOAD SWAP1 PUSH2 0x59C DUP3 PUSH2 0x109D JUMP JUMPDEST POP CALLVALUE PUSH2 0x4D1 JUMPI PUSH1 0xC0 CALLDATASIZE PUSH1 0x3 NOT ADD SLT PUSH2 0x4D1 JUMPI PUSH1 0x1 PUSH1 0x1 PUSH1 0x40 SHL SUB PUSH1 0x4 CALLDATALOAD DUP2 DUP2 GT PUSH2 0x4D1 JUMPI CALLDATASIZE PUSH1 0x23 DUP3 ADD SLT ISZERO PUSH2 0x4D1 JUMPI DUP1 PUSH1 0x4 ADD CALLDATALOAD PUSH2 0x10F1 DUP2 PUSH2 0x66E JUMP JUMPDEST SWAP2 PUSH2 0x10FF PUSH1 0x40 MLOAD SWAP4 DUP5 PUSH2 0x633 JUMP JUMPDEST DUP2 DUP4 MSTORE PUSH1 0x20 SWAP2 PUSH1 0x24 DUP4 DUP6 ADD SWAP2 PUSH1 0x5 SHL DUP4 ADD ADD SWAP2 CALLDATASIZE DUP4 GT PUSH2 0x4D1 JUMPI PUSH1 0x24 ADD SWAP1 JUMPDEST DUP3 DUP3 LT PUSH2 0x117A JUMPI DUP6 DUP6 PUSH1 0x24 CALLDATALOAD DUP3 DUP2 GT PUSH2 0x4D1 JUMPI PUSH2 0x113F SWAP1 CALLDATASIZE SWAP1 PUSH1 0x4 ADD PUSH2 0x1035 JUMP JUMPDEST PUSH1 0x44 CALLDATALOAD SWAP3 DUP4 GT PUSH2 0x4D1 JUMPI PUSH2 0x115A PUSH2 0x21 SWAP4 CALLDATASIZE SWAP1 PUSH1 0x4 ADD PUSH2 0x1035 JUMP JUMPDEST PUSH2 0x1162 PUSH2 0x58F JUMP JUMPDEST SWAP1 PUSH2 0x116B PUSH2 0x59E JUMP JUMPDEST SWAP3 PUSH2 0x1174 PUSH2 0x10A7 JUMP JUMPDEST SWAP5 PUSH2 0x2EB3 JUMP JUMPDEST DUP4 DUP1 SWAP2 PUSH2 0x1186 DUP5 PUSH2 0x809 JUMP JUMPDEST DUP2 MSTORE ADD SWAP2 ADD SWAP1 PUSH2 0x111E JUMP JUMPDEST POP CALLVALUE PUSH2 0x4D1 JUMPI PUSH1 0x0 CALLDATASIZE PUSH1 0x3 NOT ADD SLT PUSH2 0x4D1 JUMPI PUSH1 0x20 PUSH1 0x35 SLOAD PUSH1 0x40 MLOAD SWAP1 DUP2 MSTORE RETURN JUMPDEST POP CALLVALUE PUSH2 0x4D1 JUMPI PUSH1 0x0 DUP1 PUSH1 0x3 NOT CALLDATASIZE ADD SLT PUSH2 0x125C JUMPI PUSH1 0x0 DUP1 MLOAD PUSH1 0x20 PUSH2 0x5E95 DUP4 CODECOPY DUP2 MLOAD SWAP2 MSTORE DUP2 MSTORE PUSH1 0x20 PUSH1 0xD6 DUP2 MSTORE PUSH1 0x40 PUSH2 0x11ED PUSH1 0xFF PUSH2 0x864 CALLER DUP5 DUP8 KECCAK256 PUSH2 0x167A JUMP JUMPDEST DUP3 JUMPDEST PUSH1 0x3 DUP1 SLOAD SWAP1 PUSH4 0xFFFFFFFF SWAP2 DUP3 DUP5 AND LT ISZERO PUSH2 0x1233 JUMPI SWAP1 DUP3 SWAP2 PUSH2 0x1212 PUSH2 0x122E SWAP5 PUSH2 0x1DDC JUMP JUMPDEST SWAP1 SLOAD SWAP2 SHL SHR AND DUP6 MSTORE PUSH1 0x6 DUP5 MSTORE DUP3 DUP6 KECCAK256 DUP1 SLOAD PUSH1 0xFF NOT AND SWAP1 SSTORE PUSH2 0x31A7 JUMP JUMPDEST PUSH2 0x11EF JUMP JUMPDEST DUP6 DUP5 MLOAD PUSH32 0xE6FDBF73945DD61794A752B9181EA29F77170A7B1FFD37E0A7FF9D2C6F7258B9 DUP3 DUP3 LOG1 RETURN JUMPDEST DUP1 REVERT JUMPDEST SWAP2 DUP2 PUSH1 0x1F DUP5 ADD SLT ISZERO PUSH2 0x4D1 JUMPI DUP3 CALLDATALOAD SWAP2 PUSH1 0x1 PUSH1 0x1 PUSH1 0x40 SHL SUB DUP4 GT PUSH2 0x4D1 JUMPI PUSH1 0x20 DUP4 DUP2 DUP7 ADD SWAP6 ADD ADD GT PUSH2 0x4D1 JUMPI JUMP JUMPDEST POP CALLVALUE PUSH2 0x4D1 JUMPI PUSH1 0x60 CALLDATASIZE PUSH1 0x3 NOT ADD SLT PUSH2 0x4D1 JUMPI PUSH2 0x12A6 PUSH2 0x7F6 JUMP JUMPDEST PUSH1 0x24 CALLDATALOAD SWAP1 PUSH2 0x12B3 DUP3 PUSH2 0x57E JUMP JUMPDEST PUSH1 0x1 PUSH1 0x1 PUSH1 0x40 SHL SUB PUSH1 0x44 CALLDATALOAD DUP2 DUP2 GT PUSH2 0x4D1 JUMPI PUSH2 0x12D3 SWAP1 CALLDATASIZE SWAP1 PUSH1 0x4 ADD PUSH2 0x125F JUMP JUMPDEST SWAP4 SWAP1 PUSH1 0xFF PUSH1 0x0 SLOAD AND ISZERO PUSH2 0x1468 JUMPI PUSH4 0xFFFFFFFF DUP5 AND SWAP2 CHAINID DUP4 EQ PUSH2 0x1456 JUMPI PUSH2 0xA4B SWAP6 PUSH32 0x89838497D0371E85258ABF1462B498F919F05D446929F3AEB404427E29842D3 SWAP3 PUSH2 0x1328 SWAP3 PUSH1 0x1 PUSH1 0x1 PUSH1 0xA0 SHL SUB AND DUP8 PUSH2 0x4297 JUMP JUMPDEST SWAP5 DUP6 SWAP5 SWAP2 SWAP4 DUP6 PUSH2 0x135C PUSH2 0x1343 PUSH1 0x2 SLOAD PUSH1 0x1 PUSH1 0x1 PUSH1 0x40 SHL SUB AND SWAP1 JUMP JUMPDEST PUSH1 0x1 PUSH1 0x1 PUSH1 0x40 SHL SUB AND PUSH1 0x0 MSTORE PUSH1 0x1 PUSH1 0x20 MSTORE PUSH1 0x40 PUSH1 0x0 KECCAK256 SWAP1 JUMP JUMPDEST SSTORE PUSH3 0xAA36A7 DUP1 CHAINID EQ DUP1 PUSH2 0x144A JUMPI JUMPDEST PUSH2 0x141F JUMPI JUMPDEST PUSH3 0x8274F CHAINID EQ SWAP2 DUP3 PUSH2 0x1415 JUMPI JUMPDEST POP POP PUSH2 0x13DC JUMPI JUMPDEST POP PUSH1 0x2 SLOAD PUSH1 0x1 PUSH1 0x1 PUSH1 0x40 SHL SUB AND PUSH2 0x13B8 PUSH2 0x139C DUP3 PUSH2 0x404E JUMP JUMPDEST PUSH1 0x1 PUSH1 0x1 PUSH1 0x40 SHL SUB AND PUSH1 0x1 PUSH1 0x1 PUSH1 0x40 SHL SUB NOT PUSH1 0x2 SLOAD AND OR PUSH1 0x2 SSTORE JUMP JUMPDEST PUSH2 0x13C9 PUSH1 0x40 MLOAD SWAP3 DUP4 SWAP3 AND SWAP5 DUP3 PUSH2 0x9C6 JUMP JUMPDEST SUB SWAP1 LOG3 PUSH1 0x40 MLOAD SWAP1 DUP2 MSTORE SWAP1 DUP2 SWAP1 PUSH1 0x20 DUP3 ADD SWAP1 JUMP JUMPDEST PUSH2 0x1409 PUSH2 0x13FC PUSH2 0x140F SWAP3 PUSH4 0xFFFFFFFF AND PUSH1 0x0 MSTORE PUSH1 0x33 PUSH1 0x20 MSTORE PUSH1 0x40 PUSH1 0x0 KECCAK256 SWAP1 JUMP JUMPDEST SLOAD PUSH1 0x1 PUSH1 0x1 PUSH1 0xA0 SHL SUB AND SWAP1 JUMP JUMPDEST DUP5 PUSH2 0x4220 JUMP JUMPDEST CODESIZE PUSH2 0x1383 JUMP JUMPDEST EQ SWAP1 POP CODESIZE DUP1 PUSH2 0x137C JUMP JUMPDEST PUSH2 0x1445 PUSH2 0x143F PUSH2 0x13FC DUP6 PUSH4 0xFFFFFFFF AND PUSH1 0x0 MSTORE PUSH1 0x33 PUSH1 0x20 MSTORE PUSH1 0x40 PUSH1 0x0 KECCAK256 SWAP1 JUMP JUMPDEST DUP8 PUSH2 0x40B5 JUMP JUMPDEST PUSH2 0x136F JUMP JUMPDEST POP PUSH3 0x8274F DUP3 EQ PUSH2 0x136A JUMP JUMPDEST PUSH1 0x40 MLOAD PUSH4 0xB0747D81 PUSH1 0xE0 SHL DUP2 MSTORE PUSH1 0x4 SWAP1 REVERT JUMPDEST PUSH1 0x40 MLOAD PUSH4 0x1492B62F PUSH1 0xE1 SHL DUP2 MSTORE PUSH1 0x4 SWAP1 REVERT JUMPDEST SWAP2 DUP2 PUSH1 0x1F DUP5 ADD SLT ISZERO PUSH2 0x4D1 JUMPI DUP3 CALLDATALOAD SWAP2 PUSH1 0x1 PUSH1 0x1 PUSH1 0x40 SHL SUB DUP4 GT PUSH2 0x4D1 JUMPI PUSH1 0x20 DUP1 DUP6 ADD SWAP5 DUP5 PUSH1 0x5 SHL ADD ADD GT PUSH2 0x4D1 JUMPI JUMP JUMPDEST POP CALLVALUE PUSH2 0x4D1 JUMPI PUSH1 0xC0 CALLDATASIZE PUSH1 0x3 NOT ADD SLT PUSH2 0x4D1 JUMPI PUSH1 0x4 CALLDATALOAD PUSH2 0x14C8 DUP2 PUSH2 0x57E JUMP JUMPDEST PUSH1 0x64 CALLDATALOAD PUSH2 0xFFFF DUP2 AND DUP2 SUB PUSH2 0x4D1 JUMPI PUSH1 0x1 PUSH1 0x1 PUSH1 0x40 SHL SUB SWAP2 PUSH1 0x84 CALLDATALOAD DUP4 DUP2 GT PUSH2 0x4D1 JUMPI PUSH2 0x14F7 SWAP1 CALLDATASIZE SWAP1 PUSH1 0x4 ADD PUSH2 0x125F JUMP JUMPDEST SWAP1 PUSH1 0xA4 CALLDATALOAD SWAP5 DUP6 GT PUSH2 0x4D1 JUMPI PUSH2 0x1513 PUSH2 0x21 SWAP6 CALLDATASIZE SWAP1 PUSH1 0x4 ADD PUSH2 0x147A JUMP JUMPDEST SWAP5 SWAP1 SWAP4 PUSH1 0x44 CALLDATALOAD SWAP1 PUSH1 0x24 CALLDATALOAD SWAP1 PUSH2 0x394C JUMP JUMPDEST POP CALLVALUE PUSH2 0x4D1 JUMPI PUSH1 0x20 CALLDATASIZE PUSH1 0x3 NOT ADD SLT PUSH2 0x4D1 JUMPI PUSH4 0xFFFFFFFF PUSH2 0x1542 PUSH2 0x7F6 JUMP JUMPDEST AND PUSH1 0x0 MSTORE PUSH1 0x4 PUSH1 0x20 MSTORE PUSH1 0x20 PUSH1 0x1 DUP1 PUSH1 0xA0 SHL SUB PUSH1 0x40 PUSH1 0x0 KECCAK256 SLOAD AND PUSH1 0x40 MLOAD SWAP1 DUP2 MSTORE RETURN JUMPDEST POP CALLVALUE PUSH2 0x4D1 JUMPI PUSH1 0x20 CALLDATASIZE PUSH1 0x3 NOT ADD SLT PUSH2 0x4D1 JUMPI PUSH1 0x4 CALLDATALOAD PUSH2 0x1581 DUP2 PUSH2 0x109D JUMP JUMPDEST PUSH1 0x0 DUP1 DUP1 MSTORE PUSH1 0xD6 PUSH1 0x20 MSTORE SWAP1 PUSH2 0x15B0 PUSH1 0xFF PUSH2 0x15A9 CALLER PUSH1 0x0 DUP1 MLOAD PUSH1 0x20 PUSH2 0x5E15 DUP4 CODECOPY DUP2 MLOAD SWAP2 MSTORE PUSH2 0x167A JUMP JUMPDEST SLOAD AND PUSH2 0x3563 JUMP JUMPDEST DUP2 SLOAD PUSH2 0xFF00 NOT AND SWAP1 ISZERO ISZERO PUSH1 0x8 SHL PUSH2 0xFF00 AND OR DUP2 SSTORE PUSH1 0x40 MLOAD RETURN JUMPDEST POP CALLVALUE PUSH2 0x4D1 JUMPI PUSH1 0x40 CALLDATASIZE PUSH1 0x3 NOT ADD SLT PUSH2 0x4D1 JUMPI PUSH2 0x15E3 PUSH2 0x7F6 JUMP JUMPDEST PUSH2 0x164B PUSH1 0x24 CALLDATALOAD PUSH2 0x15F2 DUP2 PUSH2 0x57E JUMP JUMPDEST PUSH1 0x0 DUP1 DUP1 MSTORE PUSH1 0xD6 PUSH1 0x20 MSTORE SWAP3 PUSH4 0xFFFFFFFF SWAP1 PUSH2 0x1620 PUSH1 0xFF PUSH2 0x15A9 CALLER PUSH1 0x0 DUP1 MLOAD PUSH1 0x20 PUSH2 0x5E15 DUP4 CODECOPY DUP2 MLOAD SWAP2 MSTORE PUSH2 0x167A JUMP JUMPDEST AND DUP4 MSTORE PUSH1 0x33 PUSH1 0x20 MSTORE PUSH1 0x40 DUP4 KECCAK256 DUP1 SLOAD PUSH1 0x1 PUSH1 0x1 PUSH1 0xA0 SHL SUB NOT AND PUSH1 0x1 PUSH1 0x1 PUSH1 0xA0 SHL SUB SWAP1 SWAP3 AND SWAP2 SWAP1 SWAP2 OR SWAP1 SSTORE JUMP JUMPDEST PUSH1 0x40 MLOAD RETURN JUMPDEST POP CALLVALUE PUSH2 0x4D1 JUMPI PUSH1 0x0 CALLDATASIZE PUSH1 0x3 NOT ADD SLT PUSH2 0x4D1 JUMPI PUSH1 0x3F SLOAD PUSH1 0x40 MLOAD PUSH1 0x1 PUSH1 0x1 PUSH1 0xA0 SHL SUB SWAP1 SWAP2 AND DUP2 MSTORE PUSH1 0x20 SWAP1 RETURN JUMPDEST SWAP1 PUSH1 0x1 DUP1 PUSH1 0xA0 SHL SUB AND PUSH1 0x0 MSTORE PUSH1 0x20 MSTORE PUSH1 0x40 PUSH1 0x0 KECCAK256 SWAP1 JUMP JUMPDEST POP CALLVALUE PUSH2 0x4D1 JUMPI PUSH1 0x20 CALLDATASIZE PUSH1 0x3 NOT ADD SLT PUSH2 0x4D1 JUMPI PUSH1 0x4 CALLDATALOAD PUSH2 0x16AF DUP2 PUSH2 0x57E JUMP JUMPDEST PUSH1 0x1 DUP1 PUSH1 0xA0 SHL SUB AND PUSH1 0x0 MSTORE PUSH1 0x32 PUSH1 0x20 MSTORE PUSH1 0x20 PUSH1 0xFF PUSH1 0x40 PUSH1 0x0 KECCAK256 SLOAD AND PUSH1 0x40 MLOAD SWAP1 ISZERO ISZERO DUP2 MSTORE RETURN JUMPDEST POP CALLVALUE PUSH2 0x4D1 JUMPI PUSH1 0x20 CALLDATASIZE PUSH1 0x3 NOT ADD SLT PUSH2 0x4D1 JUMPI PUSH1 0x4 CALLDATALOAD PUSH1 0x0 MSTORE PUSH1 0x9 PUSH1 0x20 MSTORE PUSH1 0x20 PUSH1 0x40 PUSH1 0x0 KECCAK256 SLOAD PUSH1 0x40 MLOAD SWAP1 DUP2 MSTORE RETURN JUMPDEST POP CALLVALUE PUSH2 0x4D1 JUMPI PUSH1 0x0 CALLDATASIZE PUSH1 0x3 NOT ADD SLT PUSH2 0x4D1 JUMPI PUSH1 0x34 SLOAD PUSH1 0x40 MLOAD PUSH1 0x1 PUSH1 0x1 PUSH1 0xA0 SHL SUB SWAP1 SWAP2 AND DUP2 MSTORE PUSH1 0x20 SWAP1 RETURN JUMPDEST POP CALLVALUE PUSH2 0x4D1 JUMPI PUSH1 0x60 CALLDATASIZE PUSH1 0x3 NOT ADD SLT PUSH2 0x4D1 JUMPI PUSH2 0x1745 PUSH2 0x7F6 JUMP JUMPDEST PUSH1 0x24 CALLDATALOAD PUSH2 0x1751 DUP2 PUSH2 0x57E JUMP JUMPDEST PUSH1 0x44 CALLDATALOAD SWAP2 PUSH2 0x175E DUP4 PUSH2 0x57E JUMP JUMPDEST PUSH1 0x0 DUP1 MLOAD PUSH1 0x20 PUSH2 0x5DF5 DUP4 CODECOPY DUP2 MLOAD SWAP2 MSTORE PUSH1 0x0 SWAP1 DUP2 MSTORE PUSH1 0xD6 PUSH1 0x20 MSTORE SWAP3 PUSH2 0x1795 PUSH1 0xFF PUSH2 0xCE3 CALLER PUSH1 0x0 DUP1 MLOAD PUSH1 0x20 PUSH2 0x5E35 DUP4 CODECOPY DUP2 MLOAD SWAP2 MSTORE PUSH2 0x167A JUMP JUMPDEST DUP4 SWAP3 DUP5 SWAP3 PUSH1 0x3 SLOAD PUSH4 0xFFFFFFFF DUP1 DUP4 AND SWAP6 JUMPDEST DUP3 DUP2 LT PUSH2 0x1892 JUMPI JUMPDEST POP POP POP DUP3 PUSH2 0x1807 PUSH2 0x183C SWAP3 PUSH32 0x205EAADBBED4FBE918B2A594D41BCEB212A89010CC678C6762B18D65679B2EF SWAP7 SWAP8 ISZERO PUSH2 0x185D JUMPI JUMPDEST PUSH4 0xFFFFFFFF DUP2 AND PUSH1 0x0 SWAP1 DUP2 MSTORE PUSH1 0x4 PUSH1 0x20 MSTORE PUSH1 0x40 SWAP1 KECCAK256 PUSH2 0x1826 SWAP1 PUSH1 0x1 PUSH1 0x1 PUSH1 0xA0 SHL SUB DUP8 AND SWAP1 JUMPDEST DUP1 SLOAD PUSH1 0x1 PUSH1 0x1 PUSH1 0xA0 SHL SUB NOT AND PUSH1 0x1 PUSH1 0x1 PUSH1 0xA0 SHL SUB SWAP1 SWAP3 AND SWAP2 SWAP1 SWAP2 OR SWAP1 SSTORE JUMP JUMPDEST PUSH4 0xFFFFFFFF AND PUSH1 0x0 MSTORE PUSH1 0x5 PUSH1 0x20 MSTORE PUSH1 0x40 PUSH1 0x0 KECCAK256 SWAP1 JUMP JUMPDEST PUSH1 0x40 DUP1 MLOAD PUSH1 0x1 PUSH1 0x1 PUSH1 0xA0 SHL SUB SWAP3 DUP4 AND DUP2 MSTORE SWAP3 SWAP1 SWAP2 AND PUSH1 0x20 DUP4 ADD MSTORE SWAP1 LOG2 PUSH1 0x40 MLOAD RETURN JUMPDEST PUSH2 0x1866 DUP2 PUSH2 0x34EB JUMP JUMPDEST DUP8 PUSH32 0x65A791DC0A39717013964ACE2B78F8307F275C293B7FDB425346CE8E18CB3188 DUP11 PUSH1 0x40 MLOAD LOG2 PUSH2 0x17E2 JUMP JUMPDEST DUP7 DUP3 PUSH2 0x18B0 PUSH2 0x18A0 DUP5 PUSH2 0x1DDC JUMP JUMPDEST SWAP1 SLOAD PUSH4 0xFFFFFFFF SWAP2 PUSH1 0x3 SHL SHR AND SWAP1 JUMP JUMPDEST AND EQ PUSH2 0x18C4 JUMPI PUSH2 0x18BF SWAP1 PUSH2 0x34DB JUMP JUMPDEST PUSH2 0x17A6 JUMP JUMPDEST POP PUSH1 0x1 SWAP7 POP DUP5 SWAP2 POP PUSH2 0x1807 SWAP1 POP PUSH2 0x183C PUSH2 0x17AE JUMP JUMPDEST POP CALLVALUE PUSH2 0x4D1 JUMPI PUSH1 0x40 CALLDATASIZE PUSH1 0x3 NOT ADD SLT PUSH2 0x4D1 JUMPI PUSH1 0x20 PUSH1 0xFF PUSH2 0x1912 PUSH1 0x24 CALLDATALOAD PUSH2 0x18FE DUP2 PUSH2 0x57E JUMP JUMPDEST PUSH1 0x4 CALLDATALOAD PUSH1 0x0 MSTORE PUSH1 0xD6 DUP5 MSTORE PUSH1 0x40 PUSH1 0x0 KECCAK256 PUSH2 0x167A JUMP JUMPDEST SLOAD AND PUSH1 0x40 MLOAD SWAP1 ISZERO ISZERO DUP2 MSTORE RETURN JUMPDEST POP CALLVALUE PUSH2 0x4D1 JUMPI PUSH1 0x80 CALLDATASIZE PUSH1 0x3 NOT ADD SLT PUSH2 0x4D1 JUMPI PUSH2 0x1938 PUSH2 0x52D JUMP JUMPDEST PUSH1 0x1 PUSH1 0x1 PUSH1 0x40 SHL SUB SWAP1 PUSH1 0x24 CALLDATALOAD DUP3 DUP2 GT PUSH2 0x4D1 JUMPI PUSH2 0x1959 SWAP1 CALLDATASIZE SWAP1 PUSH1 0x4 ADD PUSH2 0x125F JUMP JUMPDEST SWAP3 SWAP1 PUSH1 0x44 CALLDATALOAD DUP3 DUP2 GT PUSH2 0x4D1 JUMPI PUSH2 0x1973 SWAP1 CALLDATASIZE SWAP1 PUSH1 0x4 ADD PUSH2 0x147A JUMP JUMPDEST SWAP5 SWAP1 PUSH1 0x64 CALLDATALOAD SWAP4 DUP5 GT PUSH2 0x4D1 JUMPI PUSH2 0x1990 PUSH2 0x1BB8 SWAP5 CALLDATASIZE SWAP1 PUSH1 0x4 ADD PUSH2 0x147A JUMP JUMPDEST PUSH2 0x199B SWAP6 SWAP2 SWAP6 PUSH2 0x38BA JUMP JUMPDEST PUSH2 0x19A5 DUP5 DUP7 PUSH2 0x3DFB JUMP JUMPDEST SWAP7 DUP2 SWAP9 DUP9 SWAP6 PUSH1 0x40 SWAP12 DUP13 SWAP3 DUP4 DUP7 ADD SWAP2 PUSH2 0x19C9 PUSH2 0x19C4 DUP5 MLOAD PUSH4 0xFFFFFFFF AND SWAP1 JUMP JUMPDEST PUSH2 0x3FF6 JUMP JUMPDEST DUP3 MLOAD PUSH4 0xFFFFFFFF AND SWAP4 PUSH2 0x19EF PUSH2 0x13FC DUP7 PUSH4 0xFFFFFFFF AND PUSH1 0x0 MSTORE PUSH1 0x5 PUSH1 0x20 MSTORE PUSH1 0x40 PUSH1 0x0 KECCAK256 SWAP1 JUMP JUMPDEST DUP7 MLOAD PUSH1 0xE0 SWAP7 SWAP1 SWAP7 SHL PUSH1 0x1 PUSH1 0x1 PUSH1 0xE0 SHL SUB NOT AND PUSH1 0x20 DUP1 DUP9 ADD SWAP2 DUP3 MSTORE PUSH1 0xC0 DUP7 SWAP1 SHL PUSH1 0x1 PUSH1 0x1 PUSH1 0xC0 SHL SUB NOT AND PUSH1 0x24 DUP10 ADD MSTORE PUSH1 0x60 SWAP3 SWAP1 SWAP3 SHL PUSH12 0xFFFFFFFFFFFFFFFFFFFFFFFF NOT AND PUSH1 0x2C DUP9 ADD MSTORE DUP2 DUP8 MSTORE PUSH1 0x1F NOT SWAP7 SWAP2 SWAP6 SWAP2 PUSH2 0x1A4C PUSH1 0x40 DUP3 PUSH2 0x633 JUMP JUMPDEST MLOAD SWAP1 KECCAK256 SWAP4 PUSH2 0x1A64 DUP6 PUSH1 0x0 MSTORE PUSH1 0x9 PUSH1 0x20 MSTORE PUSH1 0x40 PUSH1 0x0 KECCAK256 SWAP1 JUMP JUMPDEST SLOAD PUSH2 0x1C72 JUMPI SWAP5 PUSH2 0x1B47 SWAP10 PUSH2 0x1BA7 SWAP6 PUSH2 0x1B34 PUSH2 0x1AEF DUP12 SWAP11 SWAP8 DUP6 SWAP8 DUP8 PUSH2 0x1BB2 SWAP16 SWAP15 PUSH2 0x1B9B SWAP14 DUP10 SWAP2 PUSH2 0x1AC5 PUSH2 0x1AB9 PUSH2 0x13FC PUSH2 0x1AA3 PUSH2 0x1B57 SWAP16 MLOAD PUSH4 0xFFFFFFFF AND SWAP1 JUMP JUMPDEST PUSH4 0xFFFFFFFF AND PUSH1 0x0 MSTORE PUSH1 0x4 PUSH1 0x20 MSTORE PUSH1 0x40 PUSH1 0x0 KECCAK256 SWAP1 JUMP JUMPDEST PUSH1 0x1 PUSH1 0x1 PUSH1 0xA0 SHL SUB AND SWAP1 JUMP JUMPDEST SWAP1 MLOAD DUP1 DUP1 SWAP9 DUP2 SWAP5 PUSH4 0x5FA21F91 PUSH1 0xE0 SHL DUP4 MSTORE PUSH1 0x4 DUP4 ADD SWAP2 SWAP1 SWAP2 PUSH1 0x1 PUSH1 0x1 PUSH1 0x40 SHL SUB PUSH1 0x20 DUP3 ADD SWAP4 AND SWAP1 MSTORE JUMP JUMPDEST SUB SWAP2 GAS STATICCALL SWAP4 DUP5 ISZERO PUSH2 0x1C65 JUMPI JUMPDEST PUSH1 0x0 SWAP5 PUSH2 0x1C24 JUMPI JUMPDEST POP SWAP1 PUSH2 0x1B27 PUSH2 0x13FC PUSH2 0x1826 PUSH2 0x1B2F SWAP5 PUSH2 0x1B1D DUP9 ISZERO ISZERO PUSH2 0x386E JUMP JUMPDEST MLOAD PUSH4 0xFFFFFFFF AND SWAP1 JUMP JUMPDEST SWAP3 CALLDATASIZE SWAP2 PUSH2 0x713 JUMP JUMPDEST PUSH2 0x5D1D JUMP JUMPDEST SWAP12 DUP13 SWAP2 PUSH1 0x0 MSTORE PUSH1 0x9 PUSH1 0x20 MSTORE PUSH1 0x40 PUSH1 0x0 KECCAK256 SWAP1 JUMP JUMPDEST SSTORE JUMPDEST ADD MLOAD PUSH1 0x1 PUSH1 0x1 PUSH1 0x40 SHL SUB AND SWAP1 JUMP JUMPDEST DUP6 MLOAD PUSH1 0x1 PUSH1 0x1 PUSH1 0x40 SHL SUB SWAP1 SWAP2 AND DUP3 DUP3 ADD SWAP1 DUP2 MSTORE PUSH1 0x1 PUSH1 0x20 DUP3 ADD MSTORE SWAP1 PUSH2 0x1B86 DUP2 PUSH1 0x40 DUP5 ADD SUB DUP6 DUP2 ADD DUP4 MSTORE DUP3 PUSH2 0x633 JUMP JUMPDEST MLOAD SWAP1 KECCAK256 SWAP5 MLOAD SWAP1 DUP2 ADD SWAP5 DUP6 MSTORE SWAP3 DUP4 SWAP1 PUSH1 0x20 DUP7 ADD SWAP1 JUMP JUMPDEST SUB SWAP1 DUP2 ADD DUP4 MSTORE DUP3 PUSH2 0x633 JUMP JUMPDEST MLOAD SWAP1 KECCAK256 SWAP4 CALLDATASIZE SWAP2 PUSH2 0x713 JUMP JUMPDEST SWAP2 PUSH2 0x452F JUMP JUMPDEST SUB PUSH2 0x1BE4 JUMPI SWAP2 PUSH2 0x1BD1 PUSH1 0x0 SWAP6 SWAP5 SWAP3 PUSH2 0x1BD7 SWAP5 CALLDATASIZE SWAP2 PUSH2 0x6BE JUMP JUMPDEST SWAP2 PUSH2 0x3C21 JUMP JUMPDEST PUSH2 0x1BE1 PUSH1 0x1 PUSH1 0x40 SSTORE JUMP JUMPDEST MLOAD RETURN JUMPDEST DUP5 MLOAD PUSH3 0x461BCD PUSH1 0xE5 SHL DUP2 MSTORE PUSH1 0x20 PUSH1 0x4 DUP3 ADD MSTORE PUSH1 0x15 PUSH1 0x24 DUP3 ADD MSTORE PUSH21 0x24B73B30B634B21036B2B9B9B0B3B2903430B9B417 PUSH1 0x59 SHL PUSH1 0x44 DUP3 ADD MSTORE PUSH1 0x64 SWAP1 REVERT JUMPDEST SUB SWAP1 REVERT JUMPDEST PUSH2 0x1B2F SWAP3 SWAP2 SWAP5 POP PUSH2 0x13FC PUSH2 0x1826 PUSH2 0x1C53 PUSH2 0x1B27 SWAP4 DUP13 DUP14 RETURNDATASIZE LT PUSH2 0x1C5E JUMPI JUMPDEST PUSH2 0x1C4B DUP2 DUP4 PUSH2 0x633 JUMP JUMPDEST DUP2 ADD SWAP1 PUSH2 0x2817 JUMP JUMPDEST SWAP7 SWAP4 SWAP5 POP POP POP PUSH2 0x1B03 JUMP JUMPDEST POP RETURNDATASIZE PUSH2 0x1C41 JUMP JUMPDEST PUSH2 0x1C6D PUSH2 0x2826 JUMP JUMPDEST PUSH2 0x1AFB JUMP JUMPDEST POP POP POP POP PUSH2 0x1BB2 SWAP5 SWAP4 SWAP3 DUP3 PUSH2 0x1B57 PUSH2 0x1B9B SWAP5 PUSH2 0x1C9B PUSH2 0x1BA7 SWAP6 PUSH1 0x0 MSTORE PUSH1 0x9 PUSH1 0x20 MSTORE PUSH1 0x40 PUSH1 0x0 KECCAK256 SWAP1 JUMP JUMPDEST SLOAD SWAP10 PUSH2 0x1B49 JUMP JUMPDEST POP CALLVALUE PUSH2 0x4D1 JUMPI PUSH1 0x0 DUP1 PUSH1 0x3 NOT CALLDATASIZE ADD SLT PUSH2 0x125C JUMPI PUSH1 0x0 DUP1 MLOAD PUSH1 0x20 PUSH2 0x5E95 DUP4 CODECOPY DUP2 MLOAD SWAP2 MSTORE DUP2 MSTORE PUSH1 0x20 PUSH1 0xD6 DUP2 MSTORE PUSH1 0x40 PUSH2 0x1CDF PUSH1 0xFF PUSH2 0x864 CALLER DUP5 DUP8 KECCAK256 PUSH2 0x167A JUMP JUMPDEST DUP3 JUMPDEST PUSH1 0x3 DUP1 SLOAD SWAP1 PUSH4 0xFFFFFFFF SWAP2 DUP3 DUP5 AND LT ISZERO PUSH2 0x1D28 JUMPI SWAP1 DUP3 SWAP2 PUSH2 0x1D04 PUSH2 0x1D23 SWAP5 PUSH2 0x1DDC JUMP JUMPDEST SWAP1 SLOAD SWAP2 SHL SHR AND DUP6 MSTORE PUSH1 0x6 DUP5 MSTORE DUP3 DUP6 KECCAK256 DUP1 SLOAD PUSH1 0xFF NOT AND PUSH1 0x1 OR SWAP1 SSTORE PUSH2 0x31A7 JUMP JUMPDEST PUSH2 0x1CE1 JUMP JUMPDEST DUP6 DUP5 MLOAD PUSH32 0x61340A1B154D5D21D259A74BF95379201799B9D12CC6509BB46CB56DC281DF55 DUP3 DUP3 LOG1 RETURN JUMPDEST POP CALLVALUE PUSH2 0x4D1 JUMPI PUSH1 0x20 CALLDATASIZE PUSH1 0x3 NOT ADD SLT PUSH2 0x4D1 JUMPI PUSH2 0x1D6B PUSH2 0x7F6 JUMP JUMPDEST PUSH4 0xFFFFFFFF PUSH1 0x0 SWAP2 PUSH1 0x0 DUP1 MLOAD PUSH1 0x20 PUSH2 0x5E95 DUP4 CODECOPY DUP2 MLOAD SWAP2 MSTORE DUP4 MSTORE PUSH1 0xD6 PUSH1 0x20 MSTORE PUSH2 0x1D9B PUSH1 0xFF PUSH2 0x864 CALLER PUSH1 0x40 DUP8 KECCAK256 PUSH2 0x167A JUMP JUMPDEST AND DUP1 DUP3 MSTORE PUSH1 0x6 PUSH1 0x20 MSTORE PUSH1 0x40 DUP1 DUP4 KECCAK256 DUP1 SLOAD PUSH1 0xFF NOT AND PUSH1 0x1 OR SWAP1 SSTORE MLOAD SWAP1 PUSH32 0xF6CF9095F1DCEA2429C26C832CBCC084FA0A1692B2C301601EDD75B9D83520B2 DUP4 DUP4 LOG2 RETURN JUMPDEST SWAP1 PUSH1 0x3 SLOAD DUP3 LT ISZERO PUSH2 0x1E01 JUMPI JUMPDEST PUSH1 0x3 PUSH1 0x0 MSTORE PUSH1 0x1C PUSH1 0x20 PUSH1 0x0 KECCAK256 DUP4 PUSH1 0x3 SHR ADD SWAP3 PUSH1 0x2 SHL AND SWAP1 JUMP JUMPDEST PUSH2 0x1E09 PUSH2 0x92D JUMP JUMPDEST PUSH2 0x1DE8 JUMP JUMPDEST POP CALLVALUE PUSH2 0x4D1 JUMPI PUSH1 0x20 CALLDATASIZE PUSH1 0x3 NOT ADD SLT PUSH2 0x4D1 JUMPI PUSH1 0x4 CALLDATALOAD PUSH1 0x3 SLOAD DUP2 LT ISZERO PUSH2 0x4D1 JUMPI PUSH1 0x20 SWAP1 PUSH1 0x3 PUSH1 0x0 MSTORE PUSH4 0xFFFFFFFF DUP3 PUSH1 0x0 KECCAK256 DUP3 PUSH1 0x3 SHR ADD SLOAD PUSH1 0xE0 PUSH1 0x40 MLOAD SWAP4 PUSH1 0x5 SHL AND SHR AND DUP2 MSTORE RETURN JUMPDEST POP CALLVALUE PUSH2 0x4D1 JUMPI PUSH1 0x20 CALLDATASIZE PUSH1 0x3 NOT ADD SLT PUSH2 0x4D1 JUMPI PUSH1 0x4 CALLDATALOAD PUSH1 0x1 PUSH1 0x1 PUSH1 0x40 SHL SUB DUP2 GT PUSH2 0x4D1 JUMPI PUSH2 0x1E88 PUSH2 0x1EC2 SWAP2 CALLDATASIZE SWAP1 PUSH1 0x4 ADD PUSH2 0x125F JUMP JUMPDEST SWAP1 PUSH2 0x1E91 PUSH2 0x38BA JUMP JUMPDEST CALLER PUSH1 0x0 MSTORE PUSH1 0x32 PUSH1 0x20 MSTORE PUSH2 0x1EAB PUSH1 0xFF PUSH1 0x40 PUSH1 0x0 KECCAK256 SLOAD AND PUSH2 0x3910 JUMP JUMPDEST PUSH2 0x1BD1 PUSH2 0x1EB8 DUP4 DUP4 PUSH2 0x3DFB JUMP JUMPDEST SWAP3 SWAP1 SWAP4 CALLDATASIZE SWAP2 PUSH2 0x6BE JUMP JUMPDEST PUSH1 0x1 PUSH1 0x40 SSTORE STOP JUMPDEST POP CALLVALUE PUSH2 0x4D1 JUMPI PUSH1 0x0 CALLDATASIZE PUSH1 0x3 NOT ADD SLT PUSH2 0x4D1 JUMPI PUSH1 0x20 PUSH1 0x40 MLOAD PUSH1 0x0 DUP2 MSTORE RETURN JUMPDEST POP CALLVALUE PUSH2 0x4D1 JUMPI PUSH1 0x0 CALLDATASIZE PUSH1 0x3 NOT ADD SLT PUSH2 0x4D1 JUMPI PUSH1 0x20 PUSH1 0x3D SLOAD PUSH1 0x40 MLOAD SWAP1 DUP2 MSTORE RETURN JUMPDEST POP CALLVALUE PUSH2 0x4D1 JUMPI PUSH1 0x0 CALLDATASIZE PUSH1 0x3 NOT ADD SLT PUSH2 0x4D1 JUMPI PUSH1 0x20 PUSH1 0x1 PUSH1 0x1 PUSH1 0x40 SHL SUB PUSH1 0x2 SLOAD AND PUSH1 0x40 MLOAD SWAP1 DUP2 MSTORE RETURN JUMPDEST POP CALLVALUE PUSH2 0x4D1 JUMPI PUSH1 0xA0 CALLDATASIZE PUSH1 0x3 NOT ADD SLT PUSH2 0x4D1 JUMPI PUSH1 0x4 CALLDATALOAD PUSH2 0x1F4B DUP2 PUSH2 0x57E JUMP JUMPDEST PUSH1 0x24 CALLDATALOAD PUSH2 0x1F57 DUP2 PUSH2 0x57E JUMP JUMPDEST PUSH1 0x64 CALLDATALOAD SWAP1 PUSH2 0x1F64 DUP3 PUSH2 0x57E JUMP JUMPDEST PUSH1 0x84 CALLDATALOAD SWAP1 PUSH2 0x1F71 DUP3 PUSH2 0x57E JUMP JUMPDEST PUSH1 0x0 DUP1 MSTORE PUSH1 0xD6 PUSH1 0x20 MSTORE PUSH2 0x1F97 PUSH1 0xFF PUSH2 0x15A9 CALLER PUSH1 0x0 DUP1 MLOAD PUSH1 0x20 PUSH2 0x5E15 DUP4 CODECOPY DUP2 MLOAD SWAP2 MSTORE PUSH2 0x167A JUMP JUMPDEST PUSH1 0x1 DUP1 PUSH1 0xA0 SHL SUB SWAP3 DUP4 DUP1 SWAP3 DUP2 PUSH1 0x1 DUP1 PUSH1 0xA0 SHL SUB NOT SWAP8 AND DUP8 PUSH1 0x3B SLOAD AND OR PUSH1 0x3B SSTORE AND DUP6 PUSH1 0x3C SLOAD AND OR PUSH1 0x3C SSTORE PUSH1 0x44 CALLDATALOAD PUSH1 0x3D SSTORE AND DUP4 PUSH1 0x3E SLOAD AND OR PUSH1 0x3E SSTORE AND SWAP1 PUSH1 0x3F SLOAD AND OR PUSH1 0x3F SSTORE PUSH1 0x0 PUSH1 0x40 MLOAD RETURN JUMPDEST POP CALLVALUE PUSH2 0x4D1 JUMPI PUSH1 0x0 CALLDATASIZE PUSH1 0x3 NOT ADD SLT PUSH2 0x4D1 JUMPI PUSH1 0x20 PUSH1 0xFF PUSH1 0x0 SLOAD PUSH1 0x8 SHR AND PUSH1 0x40 MLOAD SWAP1 ISZERO ISZERO DUP2 MSTORE RETURN JUMPDEST POP CALLVALUE PUSH2 0x4D1 JUMPI PUSH1 0x40 CALLDATASIZE PUSH1 0x3 NOT ADD SLT PUSH2 0x4D1 JUMPI PUSH2 0x21 PUSH1 0x24 CALLDATALOAD PUSH1 0x4 CALLDATALOAD PUSH2 0x202C DUP3 PUSH2 0x57E JUMP JUMPDEST DUP1 PUSH1 0x0 MSTORE PUSH1 0xD6 PUSH1 0x20 MSTORE PUSH2 0x2046 PUSH1 0x1 PUSH1 0x40 PUSH1 0x0 KECCAK256 ADD SLOAD PUSH2 0x23FB JUMP JUMPDEST PUSH2 0x268E JUMP JUMPDEST POP CALLVALUE PUSH2 0x4D1 JUMPI PUSH1 0x80 CALLDATASIZE PUSH1 0x3 NOT ADD SLT PUSH2 0x4D1 JUMPI PUSH1 0x1 PUSH1 0x1 PUSH1 0x40 SHL SUB PUSH1 0x44 CALLDATALOAD DUP2 DUP2 GT PUSH2 0x4D1 JUMPI PUSH2 0x207D SWAP1 CALLDATASIZE SWAP1 PUSH1 0x4 ADD PUSH2 0x125F JUMP JUMPDEST SWAP2 PUSH1 0x64 CALLDATALOAD SWAP1 DUP2 GT PUSH2 0x4D1 JUMPI PUSH2 0x2096 SWAP1 CALLDATASIZE SWAP1 PUSH1 0x4 ADD PUSH2 0x125F JUMP JUMPDEST SWAP2 PUSH2 0x209F PUSH2 0x38BA JUMP JUMPDEST CALLER PUSH1 0x0 SWAP1 DUP2 MSTORE PUSH1 0x32 PUSH1 0x20 MSTORE PUSH1 0x40 SWAP1 KECCAK256 PUSH2 0x20C3 SWAP1 PUSH2 0x20BE SWAP1 JUMPDEST SLOAD PUSH1 0xFF AND SWAP1 JUMP JUMPDEST PUSH2 0x3910 JUMP JUMPDEST PUSH2 0x20CD DUP4 DUP4 PUSH2 0x3DFB JUMP JUMPDEST PUSH1 0x3B SLOAD SWAP2 SWAP5 SWAP1 SWAP4 SWAP2 PUSH2 0x20E9 SWAP1 PUSH2 0x1AB9 SWAP1 PUSH1 0x1 PUSH1 0x1 PUSH1 0xA0 SHL SUB AND DUP2 JUMP JUMPDEST SWAP6 PUSH2 0x211A PUSH2 0x2104 PUSH2 0x13FC PUSH2 0x1826 PUSH1 0x40 DUP11 ADD MLOAD PUSH4 0xFFFFFFFF AND SWAP1 JUMP JUMPDEST SWAP5 PUSH2 0x210D PUSH2 0x654 JUMP JUMPDEST SWAP3 PUSH1 0x24 CALLDATALOAD DUP5 MSTORE CALLDATASIZE SWAP2 PUSH2 0x6BE JUMP JUMPDEST PUSH1 0x20 DUP3 ADD MSTORE DUP7 EXTCODESIZE ISZERO PUSH2 0x4D1 JUMPI PUSH1 0x0 DUP3 PUSH2 0x2171 SWAP9 DUP6 DUP4 PUSH2 0x1BD1 SWAP9 PUSH2 0x2159 PUSH1 0x40 MLOAD SWAP8 DUP9 SWAP7 DUP8 SWAP6 DUP7 SWAP5 PUSH4 0x30C46DBF PUSH1 0xE2 SHL DUP7 MSTORE PUSH1 0x4 CALLDATALOAD SWAP1 ADDRESS SWAP1 PUSH1 0x4 DUP9 ADD PUSH2 0x3B4D JUMP JUMPDEST SUB SWAP3 GAS CALL DUP1 ISZERO PUSH2 0x2194 JUMPI JUMPDEST PUSH2 0x217B JUMPI JUMPDEST POP CALLDATASIZE SWAP2 PUSH2 0x6BE JUMP JUMPDEST PUSH2 0x21 PUSH1 0x1 PUSH1 0x40 SSTORE JUMP JUMPDEST DUP1 PUSH2 0x2188 PUSH2 0x218E SWAP3 PUSH2 0x5C2 JUMP JUMPDEST DUP1 PUSH2 0x8D9 JUMP JUMPDEST CODESIZE PUSH2 0x2169 JUMP JUMPDEST PUSH2 0x219C PUSH2 0x2826 JUMP JUMPDEST PUSH2 0x2164 JUMP JUMPDEST POP CALLVALUE PUSH2 0x4D1 JUMPI PUSH1 0x0 CALLDATASIZE PUSH1 0x3 NOT ADD SLT PUSH2 0x4D1 JUMPI PUSH1 0x20 PUSH1 0x40 MLOAD PUSH1 0x78 DUP2 MSTORE RETURN JUMPDEST POP CALLVALUE PUSH2 0x4D1 JUMPI PUSH1 0x40 CALLDATASIZE PUSH1 0x3 NOT ADD SLT PUSH2 0x4D1 JUMPI PUSH1 0x4 CALLDATALOAD PUSH2 0x21DC DUP2 PUSH2 0x57E JUMP JUMPDEST PUSH1 0x24 CALLDATALOAD PUSH2 0x21E8 DUP2 PUSH2 0x109D JUMP JUMPDEST PUSH1 0x0 DUP1 DUP1 MSTORE PUSH1 0xD6 PUSH1 0x20 MSTORE SWAP2 PUSH2 0x2210 PUSH1 0xFF PUSH2 0x15A9 CALLER PUSH1 0x0 DUP1 MLOAD PUSH1 0x20 PUSH2 0x5E15 DUP4 CODECOPY DUP2 MLOAD SWAP2 MSTORE PUSH2 0x167A JUMP JUMPDEST PUSH1 0x1 DUP1 PUSH1 0xA0 SHL SUB AND DUP3 MSTORE PUSH1 0x32 PUSH1 0x20 MSTORE PUSH1 0x40 DUP3 KECCAK256 SWAP1 PUSH1 0xFF DUP1 NOT DUP4 SLOAD AND SWAP2 ISZERO ISZERO AND OR SWAP1 SSTORE PUSH1 0x40 MLOAD RETURN JUMPDEST POP CALLVALUE PUSH2 0x4D1 JUMPI PUSH1 0x20 CALLDATASIZE PUSH1 0x3 NOT ADD SLT PUSH2 0x4D1 JUMPI PUSH32 0x3EEA1DC6CE990571E1081137B38C853529A3893B52E9719A48A2F4AC5E3A956C PUSH1 0x20 PUSH1 0x4 CALLDATALOAD PUSH2 0x2278 DUP2 PUSH2 0x109D JUMP JUMPDEST PUSH1 0x0 DUP1 MLOAD PUSH1 0x20 PUSH2 0x5E95 DUP4 CODECOPY DUP2 MLOAD SWAP2 MSTORE PUSH1 0x0 MSTORE PUSH1 0xD6 DUP3 MSTORE PUSH2 0x22A1 PUSH1 0xFF PUSH2 0x864 CALLER PUSH1 0x40 PUSH1 0x0 KECCAK256 PUSH2 0x167A JUMP JUMPDEST ISZERO ISZERO PUSH1 0xFF NOT PUSH1 0x0 SLOAD AND PUSH1 0xFF DUP3 AND OR PUSH1 0x0 SSTORE PUSH1 0x40 MLOAD SWAP1 DUP2 MSTORE LOG1 STOP JUMPDEST POP CALLVALUE PUSH2 0x4D1 JUMPI PUSH1 0x0 CALLDATASIZE PUSH1 0x3 NOT ADD SLT PUSH2 0x4D1 JUMPI PUSH1 0x20 PUSH1 0x40 MLOAD PUSH1 0x0 DUP1 MLOAD PUSH1 0x20 PUSH2 0x5DF5 DUP4 CODECOPY DUP2 MLOAD SWAP2 MSTORE DUP2 MSTORE RETURN JUMPDEST POP CALLVALUE PUSH2 0x4D1 JUMPI PUSH1 0x20 CALLDATASIZE PUSH1 0x3 NOT ADD SLT PUSH2 0x4D1 JUMPI PUSH4 0xFFFFFFFF PUSH2 0x2304 PUSH2 0x7F6 JUMP JUMPDEST AND PUSH1 0x0 MSTORE PUSH1 0x33 PUSH1 0x20 MSTORE PUSH1 0x20 PUSH1 0x1 DUP1 PUSH1 0xA0 SHL SUB PUSH1 0x40 PUSH1 0x0 KECCAK256 SLOAD AND PUSH1 0x40 MLOAD SWAP1 DUP2 MSTORE RETURN JUMPDEST POP CALLVALUE PUSH2 0x4D1 JUMPI PUSH1 0x40 CALLDATASIZE PUSH1 0x3 NOT ADD SLT PUSH2 0x4D1 JUMPI PUSH1 0x4 CALLDATALOAD PUSH2 0x2343 DUP2 PUSH2 0x57E JUMP JUMPDEST PUSH1 0x0 DUP1 DUP1 DUP1 SWAP4 DUP2 DUP1 MSTORE PUSH1 0xD6 PUSH1 0x20 MSTORE PUSH2 0x2363 PUSH1 0xFF PUSH2 0x15A9 CALLER PUSH1 0x40 DUP7 KECCAK256 PUSH2 0x167A JUMP JUMPDEST PUSH1 0x40 MLOAD SWAP1 PUSH1 0x24 CALLDATALOAD SWAP1 PUSH1 0x1 PUSH1 0x1 PUSH1 0xA0 SHL SUB AND GAS CALL PUSH2 0x237E PUSH2 0x2C64 JUMP JUMPDEST POP ISZERO PUSH2 0x2389 JUMPI PUSH1 0x40 MLOAD RETURN JUMPDEST PUSH1 0x40 MLOAD PUSH3 0x461BCD PUSH1 0xE5 SHL DUP2 MSTORE PUSH1 0x20 PUSH1 0x4 DUP3 ADD MSTORE PUSH1 0xE PUSH1 0x24 DUP3 ADD MSTORE PUSH14 0x5769746864726177204661696C21 PUSH1 0x90 SHL PUSH1 0x44 DUP3 ADD MSTORE PUSH1 0x64 SWAP1 REVERT JUMPDEST POP CALLVALUE PUSH2 0x4D1 JUMPI PUSH1 0x0 CALLDATASIZE PUSH1 0x3 NOT ADD SLT PUSH2 0x4D1 JUMPI PUSH1 0x20 PUSH1 0x36 SLOAD PUSH1 0x40 MLOAD SWAP1 DUP2 MSTORE RETURN JUMPDEST POP CALLVALUE PUSH2 0x4D1 JUMPI PUSH1 0x0 CALLDATASIZE PUSH1 0x3 NOT ADD SLT PUSH2 0x4D1 JUMPI PUSH1 0x20 PUSH1 0x40 MLOAD PUSH1 0x1 DUP2 MSTORE RETURN JUMPDEST DUP1 PUSH1 0x0 MSTORE PUSH1 0xD6 PUSH1 0x20 MSTORE PUSH1 0xFF PUSH2 0x2414 CALLER PUSH1 0x40 PUSH1 0x0 KECCAK256 PUSH2 0x167A JUMP JUMPDEST SLOAD AND ISZERO PUSH2 0x241E JUMPI POP JUMP JUMPDEST CALLER SWAP1 PUSH2 0x2428 PUSH2 0x27CA JUMP JUMPDEST SWAP2 PUSH1 0x30 PUSH2 0x2434 DUP5 PUSH2 0x2D5C JUMP JUMPDEST MSTORE8 PUSH1 0x78 PUSH2 0x2440 DUP5 PUSH2 0x2D72 JUMP JUMPDEST MSTORE8 PUSH1 0x29 JUMPDEST PUSH1 0x1 DUP2 GT PUSH2 0x24E9 JUMPI PUSH2 0x1C20 PUSH2 0x24A6 PUSH2 0x24D1 DUP7 PUSH2 0x24C3 PUSH2 0x246C DUP9 PUSH2 0x2467 DUP10 ISZERO PUSH2 0x2DBD JUMP JUMPDEST PUSH2 0x2E08 JUMP JUMPDEST PUSH2 0x24A0 PUSH1 0x40 MLOAD SWAP6 DUP7 SWAP5 PUSH2 0x24A0 PUSH1 0x20 DUP8 ADD PUSH1 0x17 SWAP1 PUSH23 0x20B1B1B2B9B9A1B7B73A3937B61D1030B1B1B7BAB73A1 PUSH1 0x4D SHL DUP2 MSTORE ADD SWAP1 JUMP JUMPDEST SWAP1 PUSH2 0x2538 JUMP JUMPDEST PUSH17 0x1034B99036B4B9B9B4B733903937B6329 PUSH1 0x7D SHL DUP2 MSTORE PUSH1 0x11 ADD SWAP1 JUMP JUMPDEST SUB PUSH1 0x1F NOT DUP2 ADD DUP4 MSTORE DUP3 PUSH2 0x633 JUMP JUMPDEST PUSH1 0x40 MLOAD PUSH3 0x461BCD PUSH1 0xE5 SHL DUP2 MSTORE SWAP2 DUP3 SWAP2 PUSH1 0x4 DUP4 ADD PUSH2 0x9C6 JUMP JUMPDEST SWAP1 DUP1 PUSH1 0xF PUSH2 0x2526 SWAP3 AND PUSH1 0x10 DUP2 LT ISZERO PUSH2 0x252B JUMPI JUMPDEST PUSH16 0x181899199A1A9B1B9C1CB0B131B232B3 PUSH1 0x81 SHL SWAP1 BYTE PUSH2 0x251C DUP5 DUP8 PUSH2 0x2D83 JUMP JUMPDEST MSTORE8 PUSH1 0x4 SHR SWAP2 PUSH2 0x2DA2 JUMP JUMPDEST PUSH2 0x2444 JUMP JUMPDEST PUSH2 0x2533 PUSH2 0x92D JUMP JUMPDEST PUSH2 0x24FC JUMP JUMPDEST SWAP1 PUSH2 0x254B PUSH1 0x20 SWAP3 DUP3 DUP2 MLOAD SWAP5 DUP6 SWAP3 ADD PUSH2 0x97E JUMP JUMPDEST ADD SWAP1 JUMP JUMPDEST PUSH1 0x0 DUP1 MLOAD PUSH1 0x20 PUSH2 0x5E95 DUP4 CODECOPY DUP2 MLOAD SWAP2 MSTORE PUSH1 0x0 DUP2 SWAP1 MSTORE PUSH1 0xD6 PUSH1 0x20 MSTORE PUSH1 0xFF PUSH2 0x2594 DUP4 PUSH32 0xB682813E7AD91E8AE1709DC8D684694150F6A78D92AA45EA7CA5072704874001 PUSH2 0x167A JUMP JUMPDEST SLOAD AND ISZERO PUSH2 0x259F JUMPI POP POP JUMP JUMPDEST DUP1 PUSH1 0x0 MSTORE PUSH1 0xD6 PUSH1 0x20 MSTORE PUSH2 0x25B6 DUP3 PUSH1 0x40 PUSH1 0x0 KECCAK256 PUSH2 0x167A JUMP JUMPDEST DUP1 SLOAD PUSH1 0xFF NOT AND PUSH1 0x1 OR SWAP1 SSTORE PUSH1 0x40 MLOAD CALLER SWAP3 PUSH1 0x1 PUSH1 0x1 PUSH1 0xA0 SHL SUB AND SWAP2 SWAP1 PUSH1 0x0 DUP1 MLOAD PUSH1 0x20 PUSH2 0x5DD5 DUP4 CODECOPY DUP2 MLOAD SWAP2 MSTORE SWAP1 PUSH1 0x0 SWAP1 LOG4 JUMP JUMPDEST PUSH1 0x0 DUP1 MLOAD PUSH1 0x20 PUSH2 0x5DF5 DUP4 CODECOPY DUP2 MLOAD SWAP2 MSTORE PUSH1 0x0 DUP2 SWAP1 MSTORE PUSH1 0xD6 PUSH1 0x20 MSTORE PUSH1 0xFF PUSH2 0x2594 DUP4 PUSH1 0x0 DUP1 MLOAD PUSH1 0x20 PUSH2 0x5E35 DUP4 CODECOPY DUP2 MLOAD SWAP2 MSTORE PUSH2 0x167A JUMP JUMPDEST PUSH1 0x0 DUP1 DUP1 MSTORE PUSH1 0xD6 PUSH1 0x20 MSTORE PUSH1 0xFF PUSH2 0x263E DUP4 PUSH1 0x0 DUP1 MLOAD PUSH1 0x20 PUSH2 0x5E15 DUP4 CODECOPY DUP2 MLOAD SWAP2 MSTORE PUSH2 0x167A JUMP JUMPDEST SLOAD AND ISZERO PUSH2 0x2649 JUMPI POP POP JUMP JUMPDEST DUP1 DUP1 MSTORE PUSH1 0xD6 PUSH1 0x20 MSTORE PUSH2 0x265E DUP3 PUSH1 0x40 DUP4 KECCAK256 PUSH2 0x167A JUMP JUMPDEST DUP1 SLOAD PUSH1 0xFF NOT AND PUSH1 0x1 OR SWAP1 SSTORE PUSH1 0x40 MLOAD CALLER SWAP3 PUSH1 0x1 PUSH1 0x1 PUSH1 0xA0 SHL SUB AND SWAP2 SWAP1 PUSH1 0x0 DUP1 MLOAD PUSH1 0x20 PUSH2 0x5DD5 DUP4 CODECOPY DUP2 MLOAD SWAP2 MSTORE SWAP1 DUP3 SWAP1 LOG4 JUMP JUMPDEST DUP1 PUSH1 0x0 MSTORE PUSH1 0xD6 PUSH1 0x20 MSTORE PUSH1 0xFF PUSH2 0x26A7 DUP4 PUSH1 0x40 PUSH1 0x0 KECCAK256 PUSH2 0x167A JUMP JUMPDEST SLOAD AND PUSH2 0x26B1 JUMPI POP POP JUMP JUMPDEST DUP1 PUSH1 0x0 MSTORE PUSH1 0xD6 PUSH1 0x20 MSTORE PUSH2 0x26C8 DUP3 PUSH1 0x40 PUSH1 0x0 KECCAK256 PUSH2 0x167A JUMP JUMPDEST DUP1 SLOAD PUSH1 0xFF NOT AND SWAP1 SSTORE PUSH1 0x40 MLOAD CALLER SWAP3 PUSH1 0x1 PUSH1 0x1 PUSH1 0xA0 SHL SUB AND SWAP2 SWAP1 PUSH32 0xF6391F5C32D9C69D2A47EA670B442974B53935D1EDC7FD64EB21E047A839171B SWAP1 PUSH1 0x0 SWAP1 LOG4 JUMP JUMPDEST ISZERO PUSH2 0x270F JUMPI JUMP JUMPDEST PUSH1 0x40 MLOAD PUSH3 0x461BCD PUSH1 0xE5 SHL DUP2 MSTORE PUSH1 0x20 PUSH1 0x4 DUP3 ADD MSTORE PUSH1 0x2C PUSH1 0x24 DUP3 ADD MSTORE PUSH32 0x46756E6374696F6E206D7573742062652063616C6C6564207468726F75676820 PUSH1 0x44 DUP3 ADD MSTORE PUSH12 0x19195B1959D85D1958D85B1B PUSH1 0xA2 SHL PUSH1 0x64 DUP3 ADD MSTORE PUSH1 0x84 SWAP1 REVERT JUMPDEST ISZERO PUSH2 0x2770 JUMPI JUMP JUMPDEST PUSH1 0x40 MLOAD PUSH3 0x461BCD PUSH1 0xE5 SHL DUP2 MSTORE PUSH1 0x20 PUSH1 0x4 DUP3 ADD MSTORE PUSH1 0x2C PUSH1 0x24 DUP3 ADD MSTORE PUSH32 0x46756E6374696F6E206D7573742062652063616C6C6564207468726F75676820 PUSH1 0x44 DUP3 ADD MSTORE PUSH12 0x6163746976652070726F7879 PUSH1 0xA0 SHL PUSH1 0x64 DUP3 ADD MSTORE PUSH1 0x84 SWAP1 REVERT JUMPDEST PUSH1 0x40 MLOAD SWAP1 PUSH2 0x27D7 DUP3 PUSH2 0x5FD JUMP JUMPDEST PUSH1 0x2A DUP3 MSTORE PUSH1 0x40 CALLDATASIZE PUSH1 0x20 DUP5 ADD CALLDATACOPY JUMP JUMPDEST SWAP1 PUSH2 0x27EF DUP3 PUSH2 0x694 JUMP JUMPDEST PUSH2 0x27FC PUSH1 0x40 MLOAD SWAP2 DUP3 PUSH2 0x633 JUMP JUMPDEST DUP3 DUP2 MSTORE DUP1 SWAP3 PUSH2 0x280D PUSH1 0x1F NOT SWAP2 PUSH2 0x694 JUMP JUMPDEST ADD SWAP1 PUSH1 0x20 CALLDATASIZE SWAP2 ADD CALLDATACOPY JUMP JUMPDEST SWAP1 DUP2 PUSH1 0x20 SWAP2 SUB SLT PUSH2 0x4D1 JUMPI MLOAD SWAP1 JUMP JUMPDEST POP PUSH1 0x40 MLOAD RETURNDATASIZE PUSH1 0x0 DUP3 RETURNDATACOPY RETURNDATASIZE SWAP1 REVERT JUMPDEST ISZERO PUSH2 0x283A JUMPI JUMP JUMPDEST PUSH1 0x40 MLOAD PUSH3 0x461BCD PUSH1 0xE5 SHL DUP2 MSTORE PUSH1 0x20 PUSH1 0x4 DUP3 ADD MSTORE PUSH1 0x29 PUSH1 0x24 DUP3 ADD MSTORE PUSH32 0x45524331393637557067726164653A20756E737570706F727465642070726F78 PUSH1 0x44 DUP3 ADD MSTORE PUSH9 0x1A58589B1955555251 PUSH1 0xBA SHL PUSH1 0x64 DUP3 ADD MSTORE PUSH1 0x84 SWAP1 REVERT JUMPDEST PUSH1 0x80 SWAP1 PUSH1 0x20 DUP2 MSTORE PUSH1 0x2E PUSH1 0x20 DUP3 ADD MSTORE PUSH32 0x45524331393637557067726164653A206E657720696D706C656D656E74617469 PUSH1 0x40 DUP3 ADD MSTORE PUSH14 0x6F6E206973206E6F742055555053 PUSH1 0x90 SHL PUSH1 0x60 DUP3 ADD MSTORE ADD SWAP1 JUMP JUMPDEST SWAP1 PUSH2 0x290C PUSH32 0x4910FDFA16FED3260ED0E7147F7CC6DA11A60208B5B9406D12A635614FFD9143 SLOAD PUSH1 0xFF AND SWAP1 JUMP JUMPDEST ISZERO PUSH2 0x291B JUMPI POP PUSH2 0x59C SWAP1 PUSH2 0x2A66 JUMP JUMPDEST PUSH1 0x40 MLOAD PUSH4 0x52D1902D PUSH1 0xE0 SHL DUP2 MSTORE SWAP2 PUSH1 0x20 DUP4 PUSH1 0x4 DUP2 PUSH1 0x1 PUSH1 0x1 PUSH1 0xA0 SHL SUB DUP6 AND GAS STATICCALL PUSH1 0x0 SWAP4 DUP2 PUSH2 0x2983 JUMPI JUMPDEST POP PUSH2 0x2962 JUMPI PUSH1 0x40 MLOAD PUSH3 0x461BCD PUSH1 0xE5 SHL DUP2 MSTORE DUP1 PUSH2 0x1C20 PUSH1 0x4 DUP3 ADD PUSH2 0x2891 JUMP JUMPDEST PUSH2 0x297E PUSH1 0x0 DUP1 MLOAD PUSH1 0x20 PUSH2 0x5E75 DUP4 CODECOPY DUP2 MLOAD SWAP2 MSTORE PUSH2 0x59C SWAP5 EQ PUSH2 0x2833 JUMP JUMPDEST PUSH2 0x2AF6 JUMP JUMPDEST PUSH2 0x299C SWAP2 SWAP5 POP PUSH1 0x20 RETURNDATASIZE DUP2 GT PUSH2 0x1C5E JUMPI PUSH2 0x1C4B DUP2 DUP4 PUSH2 0x633 JUMP JUMPDEST SWAP3 CODESIZE PUSH2 0x2944 JUMP JUMPDEST SWAP1 PUSH2 0x29CF PUSH32 0x4910FDFA16FED3260ED0E7147F7CC6DA11A60208B5B9406D12A635614FFD9143 SLOAD PUSH1 0xFF AND SWAP1 JUMP JUMPDEST ISZERO PUSH2 0x29DE JUMPI POP PUSH2 0x59C SWAP1 PUSH2 0x2A66 JUMP JUMPDEST PUSH1 0x40 MLOAD PUSH4 0x52D1902D PUSH1 0xE0 SHL DUP2 MSTORE SWAP2 PUSH1 0x20 DUP4 PUSH1 0x4 DUP2 PUSH1 0x1 PUSH1 0x1 PUSH1 0xA0 SHL SUB DUP6 AND GAS STATICCALL PUSH1 0x0 SWAP4 DUP2 PUSH2 0x2A46 JUMPI JUMPDEST POP PUSH2 0x2A25 JUMPI PUSH1 0x40 MLOAD PUSH3 0x461BCD PUSH1 0xE5 SHL DUP2 MSTORE DUP1 PUSH2 0x1C20 PUSH1 0x4 DUP3 ADD PUSH2 0x2891 JUMP JUMPDEST PUSH2 0x2A41 PUSH1 0x0 DUP1 MLOAD PUSH1 0x20 PUSH2 0x5E75 DUP4 CODECOPY DUP2 MLOAD SWAP2 MSTORE PUSH2 0x59C SWAP5 EQ PUSH2 0x2833 JUMP JUMPDEST PUSH2 0x2C0E JUMP JUMPDEST PUSH2 0x2A5F SWAP2 SWAP5 POP PUSH1 0x20 RETURNDATASIZE DUP2 GT PUSH2 0x1C5E JUMPI PUSH2 0x1C4B DUP2 DUP4 PUSH2 0x633 JUMP JUMPDEST SWAP3 CODESIZE PUSH2 0x2A07 JUMP JUMPDEST DUP1 EXTCODESIZE ISZERO PUSH2 0x2A9B JUMPI PUSH1 0x0 DUP1 MLOAD PUSH1 0x20 PUSH2 0x5E75 DUP4 CODECOPY DUP2 MLOAD SWAP2 MSTORE DUP1 SLOAD PUSH1 0x1 PUSH1 0x1 PUSH1 0xA0 SHL SUB NOT AND PUSH1 0x1 PUSH1 0x1 PUSH1 0xA0 SHL SUB SWAP1 SWAP3 AND SWAP2 SWAP1 SWAP2 OR SWAP1 SSTORE JUMP JUMPDEST PUSH1 0x40 MLOAD PUSH3 0x461BCD PUSH1 0xE5 SHL DUP2 MSTORE PUSH1 0x20 PUSH1 0x4 DUP3 ADD MSTORE PUSH1 0x2D PUSH1 0x24 DUP3 ADD MSTORE PUSH32 0x455243313936373A206E657720696D706C656D656E746174696F6E206973206E PUSH1 0x44 DUP3 ADD MSTORE PUSH13 0x1BDD08184818DBDB9D1C9858DD PUSH1 0x9A SHL PUSH1 0x64 DUP3 ADD MSTORE PUSH1 0x84 SWAP1 REVERT JUMPDEST PUSH2 0x2AFF DUP2 PUSH2 0x2A66 JUMP JUMPDEST PUSH1 0x40 MLOAD PUSH1 0x1 PUSH1 0x1 PUSH1 0xA0 SHL SUB DUP3 AND PUSH32 0xBC7CD75A20EE27FD9ADEBAB32041F755214DBC6BFFA90CC0225B39DA2E5C2D3B PUSH1 0x0 DUP4 LOG2 DUP3 MLOAD ISZERO DUP1 ISZERO SWAP1 PUSH2 0x2C06 JUMPI JUMPDEST PUSH2 0x2B45 JUMPI POP POP POP JUMP JUMPDEST DUP2 EXTCODESIZE ISZERO PUSH2 0x2BB5 JUMPI POP PUSH1 0x0 DUP3 DUP2 SWAP3 PUSH1 0x20 PUSH2 0x2BB2 SWAP6 MLOAD SWAP3 ADD SWAP1 GAS DELEGATECALL PUSH2 0x2B66 PUSH2 0x2C64 JUMP JUMPDEST PUSH1 0x40 MLOAD SWAP2 PUSH2 0x2B73 DUP4 PUSH2 0x5FD JUMP JUMPDEST PUSH1 0x27 DUP4 MSTORE PUSH32 0x416464726573733A206C6F772D6C6576656C2064656C65676174652063616C6C PUSH1 0x20 DUP5 ADD MSTORE PUSH7 0x819985A5B1959 PUSH1 0xCA SHL PUSH1 0x40 DUP5 ADD MSTORE PUSH2 0x2C94 JUMP JUMPDEST POP JUMP JUMPDEST PUSH3 0x461BCD PUSH1 0xE5 SHL DUP2 MSTORE PUSH1 0x20 PUSH1 0x4 DUP3 ADD MSTORE PUSH1 0x26 PUSH1 0x24 DUP3 ADD MSTORE PUSH32 0x416464726573733A2064656C65676174652063616C6C20746F206E6F6E2D636F PUSH1 0x44 DUP3 ADD MSTORE PUSH6 0x1B9D1C9858DD PUSH1 0xD2 SHL PUSH1 0x64 DUP3 ADD MSTORE PUSH1 0x84 SWAP1 REVERT JUMPDEST POP PUSH1 0x0 PUSH2 0x2B3C JUMP JUMPDEST PUSH2 0x2C17 DUP2 PUSH2 0x2A66 JUMP JUMPDEST PUSH1 0x40 MLOAD PUSH1 0x1 PUSH1 0x1 PUSH1 0xA0 SHL SUB DUP3 AND PUSH32 0xBC7CD75A20EE27FD9ADEBAB32041F755214DBC6BFFA90CC0225B39DA2E5C2D3B PUSH1 0x0 DUP4 LOG2 DUP3 MLOAD ISZERO DUP1 ISZERO SWAP1 PUSH2 0x2C5C JUMPI PUSH2 0x2B45 JUMPI POP POP POP JUMP JUMPDEST POP PUSH1 0x1 PUSH2 0x2B3C JUMP JUMPDEST RETURNDATASIZE ISZERO PUSH2 0x2C8F JUMPI RETURNDATASIZE SWAP1 PUSH2 0x2C75 DUP3 PUSH2 0x694 JUMP JUMPDEST SWAP2 PUSH2 0x2C83 PUSH1 0x40 MLOAD SWAP4 DUP5 PUSH2 0x633 JUMP JUMPDEST DUP3 MSTORE RETURNDATASIZE PUSH1 0x0 PUSH1 0x20 DUP5 ADD RETURNDATACOPY JUMP JUMPDEST PUSH1 0x60 SWAP1 JUMP JUMPDEST SWAP1 SWAP2 SWAP1 ISZERO PUSH2 0x2CA0 JUMPI POP SWAP1 JUMP JUMPDEST DUP2 MLOAD ISZERO PUSH2 0x2CB0 JUMPI POP DUP1 MLOAD SWAP1 PUSH1 0x20 ADD REVERT JUMPDEST PUSH1 0x40 MLOAD PUSH3 0x461BCD PUSH1 0xE5 SHL DUP2 MSTORE PUSH1 0x20 PUSH1 0x4 DUP3 ADD MSTORE SWAP1 DUP2 SWAP1 PUSH2 0x1C20 SWAP1 PUSH1 0x24 DUP4 ADD SWAP1 PUSH2 0x9A1 JUMP JUMPDEST POP PUSH4 0x4E487B71 PUSH1 0xE0 SHL PUSH1 0x0 MSTORE PUSH1 0x11 PUSH1 0x4 MSTORE PUSH1 0x24 PUSH1 0x0 REVERT JUMPDEST DUP1 PUSH1 0x0 NOT DIV PUSH1 0x2 GT DUP2 ISZERO ISZERO AND PUSH2 0x2D02 JUMPI JUMPDEST PUSH1 0x1 SHL SWAP1 JUMP JUMPDEST PUSH2 0x2D0A PUSH2 0x2CD4 JUMP JUMPDEST PUSH2 0x2CFC JUMP JUMPDEST SWAP1 PUSH1 0x1 DUP3 ADD DUP1 SWAP3 GT PUSH2 0x2D1D JUMPI JUMP JUMPDEST PUSH2 0x59C PUSH2 0x2CD4 JUMP JUMPDEST SWAP1 PUSH1 0x1F DUP3 ADD DUP1 SWAP3 GT PUSH2 0x2D1D JUMPI JUMP JUMPDEST PUSH1 0x1 ADD SWAP1 DUP2 PUSH1 0x1 GT PUSH2 0x2D1D JUMPI JUMP JUMPDEST PUSH1 0x45 ADD SWAP1 DUP2 PUSH1 0x45 GT PUSH2 0x2D1D JUMPI JUMP JUMPDEST SWAP2 SWAP1 DUP3 ADD DUP1 SWAP3 GT PUSH2 0x2D1D JUMPI JUMP JUMPDEST PUSH1 0x20 SWAP1 DUP1 MLOAD ISZERO PUSH2 0x2D6A JUMPI ADD SWAP1 JUMP JUMPDEST PUSH2 0x254B PUSH2 0x92D JUMP JUMPDEST PUSH1 0x21 SWAP1 DUP1 MLOAD PUSH1 0x1 LT ISZERO PUSH2 0x2D6A JUMPI ADD SWAP1 JUMP JUMPDEST SWAP1 PUSH1 0x20 SWAP2 DUP1 MLOAD DUP3 LT ISZERO PUSH2 0x2D95 JUMPI ADD ADD SWAP1 JUMP JUMPDEST PUSH2 0x2D9D PUSH2 0x92D JUMP JUMPDEST ADD ADD SWAP1 JUMP JUMPDEST DUP1 ISZERO PUSH2 0x2DB0 JUMPI JUMPDEST PUSH1 0x0 NOT ADD SWAP1 JUMP JUMPDEST PUSH2 0x2DB8 PUSH2 0x2CD4 JUMP JUMPDEST PUSH2 0x2DA9 JUMP JUMPDEST ISZERO PUSH2 0x2DC4 JUMPI JUMP JUMPDEST PUSH1 0x64 PUSH1 0x40 MLOAD PUSH3 0x461BCD PUSH1 0xE5 SHL DUP2 MSTORE PUSH1 0x20 PUSH1 0x4 DUP3 ADD MSTORE PUSH1 0x20 PUSH1 0x24 DUP3 ADD MSTORE PUSH32 0x537472696E67733A20686578206C656E67746820696E73756666696369656E74 PUSH1 0x44 DUP3 ADD MSTORE REVERT JUMPDEST PUSH1 0x40 MLOAD SWAP1 PUSH1 0x80 DUP3 ADD DUP3 DUP2 LT PUSH1 0x1 PUSH1 0x1 PUSH1 0x40 SHL SUB DUP3 GT OR PUSH2 0x2EA6 JUMPI JUMPDEST PUSH1 0x40 MSTORE PUSH1 0x42 DUP3 MSTORE PUSH1 0x60 CALLDATASIZE PUSH1 0x20 DUP5 ADD CALLDATACOPY PUSH1 0x30 PUSH2 0x2E3D DUP4 PUSH2 0x2D5C JUMP JUMPDEST MSTORE8 PUSH1 0x78 PUSH2 0x2E49 DUP4 PUSH2 0x2D72 JUMP JUMPDEST MSTORE8 PUSH1 0x41 SWAP1 JUMPDEST PUSH1 0x1 DUP3 GT PUSH2 0x2E61 JUMPI PUSH2 0x710 SWAP2 POP ISZERO PUSH2 0x2DBD JUMP JUMPDEST DUP1 PUSH1 0xF PUSH2 0x2E93 SWAP3 AND PUSH1 0x10 DUP2 LT ISZERO PUSH2 0x2E99 JUMPI JUMPDEST PUSH16 0x181899199A1A9B1B9C1CB0B131B232B3 PUSH1 0x81 SHL SWAP1 BYTE PUSH2 0x251C DUP5 DUP7 PUSH2 0x2D83 JUMP JUMPDEST SWAP1 PUSH2 0x2E4E JUMP JUMPDEST PUSH2 0x2EA1 PUSH2 0x92D JUMP JUMPDEST PUSH2 0x2E73 JUMP JUMPDEST PUSH2 0x2EAE PUSH2 0x5AB JUMP JUMPDEST PUSH2 0x2E23 JUMP JUMPDEST SWAP4 SWAP2 SWAP5 SWAP3 SWAP1 SWAP5 PUSH1 0x3F SLOAD SWAP6 PUSH1 0xFF DUP8 PUSH1 0xA8 SHR AND ISZERO DUP1 SWAP8 DUP2 SWAP9 PUSH2 0x2FD5 JUMPI JUMPDEST DUP2 ISZERO PUSH2 0x2FB2 JUMPI JUMPDEST POP ISZERO PUSH2 0x2F56 JUMPI PUSH1 0x3F DUP1 SLOAD PUSH1 0xFF PUSH1 0xA0 SHL NOT AND PUSH1 0x1 PUSH1 0xA0 SHL OR SWAP1 SSTORE PUSH2 0x2EFC SWAP6 DUP8 PUSH2 0x2F3E JUMPI PUSH2 0x321B JUMP JUMPDEST PUSH2 0x2F02 JUMPI JUMP JUMPDEST PUSH1 0x3F DUP1 SLOAD PUSH1 0xFF PUSH1 0xA8 SHL NOT AND SWAP1 SSTORE PUSH1 0x40 MLOAD PUSH1 0x1 DUP2 MSTORE PUSH32 0x7F26B83FF96E1F2B6A682F133852F6798A09C465DA95921460CEFB3847402498 SWAP1 PUSH1 0x20 SWAP1 LOG1 JUMP JUMPDEST PUSH1 0x3F DUP1 SLOAD PUSH1 0xFF PUSH1 0xA8 SHL NOT AND PUSH1 0x1 PUSH1 0xA8 SHL OR SWAP1 SSTORE PUSH2 0x321B JUMP JUMPDEST PUSH1 0x40 MLOAD PUSH3 0x461BCD PUSH1 0xE5 SHL DUP2 MSTORE PUSH1 0x20 PUSH1 0x4 DUP3 ADD MSTORE PUSH1 0x2E PUSH1 0x24 DUP3 ADD MSTORE PUSH32 0x496E697469616C697A61626C653A20636F6E747261637420697320616C726561 PUSH1 0x44 DUP3 ADD MSTORE PUSH14 0x191E481A5B9A5D1A585B1A5E9959 PUSH1 0x92 SHL PUSH1 0x64 DUP3 ADD MSTORE PUSH1 0x84 SWAP1 REVERT JUMPDEST ADDRESS EXTCODESIZE ISZERO SWAP2 POP DUP2 PUSH2 0x2FC4 JUMPI JUMPDEST POP CODESIZE PUSH2 0x2ED5 JUMP JUMPDEST PUSH1 0xA0 SHR PUSH1 0xFF AND PUSH1 0x1 EQ SWAP1 POP CODESIZE PUSH2 0x2FBD JUMP JUMPDEST SWAP1 POP PUSH1 0x1 PUSH1 0xFF DUP3 PUSH1 0xA0 SHR AND LT SWAP1 PUSH2 0x2ECE JUMP JUMPDEST ISZERO PUSH2 0x4D1 JUMPI JUMP JUMPDEST DUP2 DUP2 LT PUSH2 0x2FF9 JUMPI POP POP JUMP JUMPDEST PUSH1 0x0 DUP2 SSTORE PUSH1 0x1 ADD PUSH2 0x2FEE JUMP JUMPDEST PUSH1 0x1 PUSH1 0x40 SHL DUP2 GT PUSH2 0x306E JUMPI JUMPDEST PUSH1 0x3 SWAP1 DUP2 SLOAD DUP2 DUP4 SSTORE DUP1 DUP3 LT PUSH2 0x3025 JUMPI POP POP POP JUMP JUMPDEST DUP3 PUSH2 0x59C SWAP4 PUSH1 0x0 MSTORE PUSH1 0x7 PUSH1 0x20 PUSH1 0x0 KECCAK256 SWAP3 PUSH1 0x1C DUP3 DUP7 ADD DUP5 SHR DUP6 ADD SWAP6 PUSH1 0x2 SHL AND DUP1 PUSH2 0x3054 JUMPI JUMPDEST POP ADD SWAP1 SHR ADD SWAP1 PUSH2 0x2FEE JUMP JUMPDEST PUSH1 0x0 NOT SWAP1 DUP2 DUP8 ADD SWAP2 DUP3 SLOAD SWAP2 PUSH1 0x20 SUB DUP7 SHL SHR AND SWAP1 SSTORE CODESIZE PUSH2 0x3049 JUMP JUMPDEST PUSH2 0x3076 PUSH2 0x5AB JUMP JUMPDEST PUSH2 0x3011 JUMP JUMPDEST DUP1 MLOAD SWAP1 PUSH1 0x1 PUSH1 0x1 PUSH1 0x40 SHL SUB DUP3 GT PUSH2 0x319A JUMPI JUMPDEST PUSH2 0x3096 DUP3 PUSH2 0x3005 JUMP JUMPDEST PUSH1 0x3 PUSH1 0x0 MSTORE PUSH1 0x20 SWAP1 DUP2 ADD SWAP2 PUSH32 0xC2575A0E9E593C00F959F8C92F12DB2869C3395A3B0502D05E2516446F71F85B SWAP1 DUP1 PUSH1 0x3 SHR SWAP3 PUSH1 0x0 JUMPDEST DUP5 DUP2 LT PUSH2 0x3146 JUMPI POP PUSH1 0x7 NOT DUP3 AND SWAP1 SWAP2 SUB SWAP1 DUP2 PUSH2 0x30E9 JUMPI JUMPDEST POP POP POP POP POP JUMP JUMPDEST SWAP4 SWAP1 PUSH1 0x0 SWAP5 DUP6 JUMPDEST DUP3 DUP2 LT PUSH2 0x3107 JUMPI POP POP POP POP ADD SSTORE CODESIZE DUP1 DUP1 DUP1 DUP1 PUSH2 0x30E2 JUMP JUMPDEST SWAP1 SWAP2 SWAP3 SWAP6 DUP3 PUSH2 0x313B PUSH1 0x1 SWAP3 PUSH2 0x3120 DUP11 MLOAD PUSH4 0xFFFFFFFF AND SWAP1 JUMP JUMPDEST SWAP1 DUP6 PUSH1 0x2 SHL PUSH1 0x3 SHL PUSH4 0xFFFFFFFF DUP2 SHL SWAP3 DUP4 SWAP2 SHL AND SWAP2 NOT AND OR SWAP1 JUMP JUMPDEST SWAP8 ADD SWAP4 SWAP3 SWAP2 ADD PUSH2 0x30F0 JUMP JUMPDEST PUSH1 0x0 DUP1 JUMPDEST PUSH1 0x8 DUP2 LT PUSH2 0x315F JUMPI POP DUP5 DUP3 ADD SSTORE PUSH1 0x1 ADD PUSH2 0x30CB JUMP JUMPDEST SWAP7 SWAP1 DUP4 PUSH2 0x3191 PUSH1 0x1 SWAP3 PUSH2 0x3176 DUP6 MLOAD PUSH4 0xFFFFFFFF AND SWAP1 JUMP JUMPDEST SWAP1 DUP12 PUSH1 0x2 SHL PUSH1 0x3 SHL PUSH4 0xFFFFFFFF DUP2 SHL SWAP3 DUP4 SWAP2 SHL AND SWAP2 NOT AND OR SWAP1 JUMP JUMPDEST SWAP3 ADD SWAP8 ADD PUSH2 0x314A JUMP JUMPDEST PUSH2 0x31A2 PUSH2 0x5AB JUMP JUMPDEST PUSH2 0x308D JUMP JUMPDEST PUSH1 0x1 SWAP1 PUSH4 0xFFFFFFFF DUP1 SWAP2 AND SWAP1 DUP2 EQ PUSH2 0x31BD JUMPI ADD SWAP1 JUMP JUMPDEST PUSH2 0x254B PUSH2 0x2CD4 JUMP JUMPDEST PUSH1 0x40 SWAP1 DUP1 MLOAD PUSH1 0x1 LT ISZERO PUSH2 0x2D6A JUMPI ADD SWAP1 JUMP JUMPDEST PUSH2 0x220 SWAP1 DUP1 MLOAD PUSH1 0x10 LT ISZERO PUSH2 0x2D6A JUMPI ADD SWAP1 JUMP JUMPDEST PUSH1 0x60 SWAP1 DUP1 MLOAD PUSH1 0x2 LT ISZERO PUSH2 0x2D6A JUMPI ADD SWAP1 JUMP JUMPDEST PUSH1 0x20 SWAP2 DUP2 MLOAD DUP2 LT ISZERO PUSH2 0x320E JUMPI JUMPDEST PUSH1 0x5 SHL ADD ADD SWAP1 JUMP JUMPDEST PUSH2 0x3216 PUSH2 0x92D JUMP JUMPDEST PUSH2 0x3206 JUMP JUMPDEST SWAP1 SWAP3 PUSH2 0x324F SWAP1 PUSH2 0x3241 PUSH2 0x32A6 SWAP5 SWAP7 SWAP9 SWAP8 SWAP9 PUSH2 0x3234 PUSH2 0x33B5 JUMP JUMPDEST PUSH2 0x323C PUSH2 0x33A4 JUMP JUMPDEST PUSH2 0x254F JUMP JUMPDEST PUSH2 0x324A DUP2 PUSH2 0x25E7 JUMP JUMPDEST PUSH2 0x261A JUMP JUMPDEST PUSH2 0x3257 PUSH2 0x33A4 JUMP JUMPDEST PUSH2 0x3261 PUSH1 0x0 PUSH1 0x35 SSTORE JUMP JUMPDEST PUSH2 0x326D PUSH3 0x1E8480 PUSH1 0x36 SSTORE JUMP JUMPDEST PUSH2 0x3278 PUSH2 0x320 PUSH1 0x37 SSTORE JUMP JUMPDEST PUSH2 0x3288 PUSH7 0x38D7EA4C68000 PUSH1 0x3A SSTORE JUMP JUMPDEST PUSH2 0x32A1 DUP2 MLOAD PUSH2 0x3299 DUP6 MLOAD DUP3 EQ PUSH2 0x2FE7 JUMP JUMPDEST DUP6 MLOAD EQ PUSH2 0x2FE7 JUMP JUMPDEST PUSH2 0x307B JUMP JUMPDEST PUSH1 0x0 JUMPDEST PUSH1 0x3 SLOAD PUSH4 0xFFFFFFFF DUP3 AND SWAP1 DUP2 LT ISZERO PUSH2 0x3317 JUMPI SWAP1 PUSH2 0x330D PUSH2 0x32FE PUSH2 0x32DC DUP5 PUSH2 0x32F8 PUSH2 0x32E9 PUSH2 0x1AB9 PUSH2 0x32DC PUSH2 0x3312 SWAP10 DUP12 PUSH2 0x31F9 JUMP JUMPDEST MLOAD PUSH1 0x1 PUSH1 0x1 PUSH1 0xA0 SHL SUB AND SWAP1 JUMP JUMPDEST PUSH2 0x1807 PUSH2 0x1AA3 PUSH2 0x18A0 DUP10 PUSH2 0x1DDC JUMP JUMPDEST DUP8 PUSH2 0x31F9 JUMP JUMPDEST PUSH2 0x1807 PUSH2 0x1826 PUSH2 0x18A0 DUP6 PUSH2 0x1DDC JUMP JUMPDEST PUSH2 0x31A7 JUMP JUMPDEST PUSH2 0x32A9 JUMP JUMPDEST POP POP POP POP SWAP1 PUSH2 0x3332 SWAP1 PUSH1 0xFF DUP1 NOT PUSH1 0x0 SLOAD AND SWAP2 ISZERO ISZERO AND OR PUSH1 0x0 SSTORE JUMP JUMPDEST PUSH2 0x59C PUSH1 0x1 PUSH1 0xFF NOT PUSH1 0x8 SLOAD AND OR PUSH1 0x8 SSTORE JUMP JUMPDEST ISZERO PUSH2 0x334B JUMPI JUMP JUMPDEST PUSH1 0x40 MLOAD PUSH3 0x461BCD PUSH1 0xE5 SHL DUP2 MSTORE PUSH1 0x20 PUSH1 0x4 DUP3 ADD MSTORE PUSH1 0x2B PUSH1 0x24 DUP3 ADD MSTORE PUSH32 0x496E697469616C697A61626C653A20636F6E7472616374206973206E6F742069 PUSH1 0x44 DUP3 ADD MSTORE PUSH11 0x6E697469616C697A696E67 PUSH1 0xA8 SHL PUSH1 0x64 DUP3 ADD MSTORE PUSH1 0x84 SWAP1 REVERT JUMPDEST PUSH2 0x59C PUSH1 0xFF PUSH1 0x3F SLOAD PUSH1 0xA8 SHR AND PUSH2 0x3344 JUMP JUMPDEST PUSH2 0x33CF PUSH1 0xFF PUSH1 0x3F SLOAD PUSH1 0xA8 SHR AND PUSH2 0x33CA DUP2 PUSH2 0x3344 JUMP JUMPDEST PUSH2 0x3344 JUMP JUMPDEST PUSH1 0x1 PUSH1 0x40 SSTORE JUMP JUMPDEST ISZERO PUSH2 0x33DD JUMPI JUMP JUMPDEST PUSH1 0x40 MLOAD PUSH3 0x461BCD PUSH1 0xE5 SHL DUP2 MSTORE PUSH1 0x20 PUSH1 0x4 DUP3 ADD MSTORE PUSH1 0x35 PUSH1 0x24 DUP3 ADD MSTORE PUSH32 0x4D6573736167696E674163636573733A206F6E6C792074696D656C6F636B2063 PUSH1 0x44 DUP3 ADD MSTORE PUSH21 0x30B71031B0B636103A3434B990333AB731BA34B7B7 PUSH1 0x59 SHL PUSH1 0x64 DUP3 ADD MSTORE PUSH1 0x84 SWAP1 REVERT JUMPDEST PUSH32 0x88A5966D370B9919B20F3E2C13FF65706F196A4E32CC2C12BF57088F88525874 PUSH1 0x40 DUP1 MLOAD CALLER DUP2 MSTORE CALLVALUE PUSH1 0x20 DUP3 ADD MSTORE LOG1 JUMP JUMPDEST ISZERO PUSH2 0x3478 JUMPI JUMP JUMPDEST PUSH1 0x40 MLOAD PUSH3 0x461BCD PUSH1 0xE5 SHL DUP2 MSTORE PUSH1 0x20 PUSH1 0x4 DUP3 ADD MSTORE PUSH1 0x35 PUSH1 0x24 DUP3 ADD MSTORE PUSH32 0x4D6573736167696E674163636573733A206F6E6C7920677561726469616E2063 PUSH1 0x44 DUP3 ADD MSTORE PUSH21 0x30B71031B0B636103A3434B990333AB731BA34B7B7 PUSH1 0x59 SHL PUSH1 0x64 DUP3 ADD MSTORE PUSH1 0x84 SWAP1 REVERT JUMPDEST PUSH1 0x1 SWAP1 PUSH1 0x0 NOT DUP2 EQ PUSH2 0x31BD JUMPI ADD SWAP1 JUMP JUMPDEST PUSH1 0x3 SLOAD PUSH2 0x3545 SWAP1 PUSH1 0x1 PUSH1 0x40 SHL DUP2 LT ISZERO PUSH2 0x3556 JUMPI JUMPDEST PUSH1 0x1 DUP2 ADD DUP1 PUSH1 0x3 SSTORE DUP2 LT ISZERO PUSH2 0x3549 JUMPI JUMPDEST PUSH1 0x3 PUSH1 0x0 MSTORE PUSH1 0x1C PUSH4 0xFFFFFFFF PUSH1 0x20 PUSH1 0x0 KECCAK256 DUP4 PUSH1 0x3 SHR ADD SWAP5 AND SWAP2 PUSH1 0x2 SHL AND DUP4 SLOAD SWAP1 PUSH1 0x3 SHL PUSH4 0xFFFFFFFF DUP2 SHL SWAP3 DUP4 SWAP2 SHL AND SWAP2 NOT AND OR SWAP1 JUMP JUMPDEST SWAP1 SSTORE JUMP JUMPDEST PUSH2 0x3551 PUSH2 0x92D JUMP JUMPDEST PUSH2 0x350F JUMP JUMPDEST PUSH2 0x355E PUSH2 0x5AB JUMP JUMPDEST PUSH2 0x34FF JUMP JUMPDEST ISZERO PUSH2 0x356A JUMPI JUMP JUMPDEST PUSH1 0x40 MLOAD PUSH3 0x461BCD PUSH1 0xE5 SHL DUP2 MSTORE PUSH1 0x20 PUSH1 0x4 DUP3 ADD MSTORE PUSH1 0x32 PUSH1 0x24 DUP3 ADD MSTORE PUSH32 0x4D6573736167696E674163636573733A206F6E6C792061646D696E2063616E20 PUSH1 0x44 DUP3 ADD MSTORE PUSH18 0x31B0B636103A3434B990333AB731BA34B7B7 PUSH1 0x71 SHL PUSH1 0x64 DUP3 ADD MSTORE PUSH1 0x84 SWAP1 REVERT JUMPDEST SWAP2 SWAP3 SWAP1 SWAP3 PUSH1 0x0 SWAP4 DUP5 DUP1 MSTORE PUSH1 0x20 SWAP4 PUSH1 0xD6 DUP6 MSTORE PUSH2 0x35ED PUSH1 0xFF PUSH2 0x15A9 CALLER PUSH1 0x40 DUP11 KECCAK256 PUSH2 0x167A JUMP JUMPDEST PUSH1 0x34 DUP1 SLOAD PUSH1 0x1 PUSH1 0x1 PUSH1 0xA0 SHL SUB NOT AND PUSH1 0x1 PUSH1 0x1 PUSH1 0xA0 SHL SUB SWAP3 SWAP1 SWAP3 AND SWAP2 SWAP1 SWAP2 OR SWAP1 SSTORE PUSH1 0x35 SSTORE PUSH1 0x36 SSTORE PUSH1 0x37 SSTORE DUP3 MLOAD SWAP3 DUP2 SWAP1 PUSH1 0x1 PUSH1 0x40 SHL DUP6 GT PUSH2 0x3740 JUMPI JUMPDEST PUSH1 0x38 SLOAD DUP6 PUSH1 0x38 SSTORE DUP1 DUP7 LT PUSH2 0x36B8 JUMPI JUMPDEST POP PUSH1 0x38 PUSH1 0x0 MSTORE PUSH32 0x38395C5DCEADE9603479B177B68959049485DF8AA97B39F3533039AF5F456199 SWAP2 ADD JUMPDEST DUP5 DUP5 LT PUSH2 0x369C JUMPI POP POP PUSH1 0x39 DUP1 SLOAD PUSH1 0x1 PUSH1 0x1 PUSH1 0xA0 SHL SUB NOT AND PUSH1 0x1 PUSH1 0x1 PUSH1 0xA0 SHL SUB SWAP1 SWAP6 AND SWAP5 SWAP1 SWAP5 OR SWAP1 SWAP4 SSTORE POP PUSH2 0x59C SWAP3 SWAP2 POP PUSH2 0x3697 SWAP1 POP JUMP JUMPDEST PUSH1 0x3A SSTORE JUMP JUMPDEST PUSH1 0x1 DUP4 DUP3 PUSH2 0x36AC DUP4 SWAP5 MLOAD DUP7 PUSH2 0x3792 JUMP JUMPDEST ADD SWAP3 ADD SWAP4 ADD SWAP3 SWAP1 PUSH2 0x3660 JUMP JUMPDEST PUSH1 0x38 DUP6 MSTORE DUP6 DUP4 DUP7 KECCAK256 SWAP2 DUP3 ADD SWAP2 ADD JUMPDEST DUP2 DUP2 LT PUSH2 0x36D3 JUMPI POP PUSH2 0x3636 JUMP JUMPDEST PUSH1 0x1 SWAP2 SWAP3 SWAP4 POP PUSH2 0x36E3 DUP2 SLOAD PUSH2 0x944 JUMP JUMPDEST DUP1 PUSH2 0x36F4 JUMPI JUMPDEST POP ADD SWAP1 DUP4 SWAP3 SWAP2 PUSH2 0x36C6 JUMP JUMPDEST PUSH1 0x1F SWAP1 DUP2 DUP2 GT DUP5 EQ PUSH2 0x370C JUMPI POP POP DUP6 DUP2 SSTORE JUMPDEST CODESIZE PUSH2 0x36E9 JUMP JUMPDEST DUP4 PUSH2 0x372E SWAP3 PUSH2 0x3720 DUP6 PUSH1 0x0 MSTORE PUSH1 0x20 PUSH1 0x0 KECCAK256 SWAP1 JUMP JUMPDEST SWAP3 ADD PUSH1 0x5 SHR DUP3 ADD SWAP2 ADD PUSH2 0x2FEE JUMP JUMPDEST PUSH1 0x0 DUP2 DUP2 MSTORE PUSH1 0x20 DUP2 KECCAK256 DUP2 DUP4 SSTORE SSTORE PUSH2 0x3706 JUMP JUMPDEST PUSH2 0x3748 PUSH2 0x5AB JUMP JUMPDEST PUSH2 0x3627 JUMP JUMPDEST SWAP2 SWAP1 PUSH1 0x1F DUP2 GT PUSH2 0x375C JUMPI POP POP POP JUMP JUMPDEST PUSH2 0x59C SWAP3 PUSH1 0x0 MSTORE PUSH1 0x20 PUSH1 0x0 KECCAK256 SWAP1 PUSH1 0x20 PUSH1 0x1F DUP5 ADD PUSH1 0x5 SHR DUP4 ADD SWAP4 LT PUSH2 0x3788 JUMPI JUMPDEST PUSH1 0x1F ADD PUSH1 0x5 SHR ADD SWAP1 PUSH2 0x2FEE JUMP JUMPDEST SWAP1 SWAP2 POP DUP2 SWAP1 PUSH2 0x377B JUMP JUMPDEST SWAP2 SWAP1 SWAP2 DUP3 MLOAD PUSH1 0x1 PUSH1 0x1 PUSH1 0x40 SHL SUB DUP2 GT PUSH2 0x3861 JUMPI JUMPDEST PUSH2 0x37BA DUP2 PUSH2 0x37B4 DUP5 SLOAD PUSH2 0x944 JUMP JUMPDEST DUP5 PUSH2 0x374D JUMP JUMPDEST PUSH1 0x20 DUP1 PUSH1 0x1F DUP4 GT PUSH1 0x1 EQ PUSH2 0x37F6 JUMPI POP DUP2 SWAP3 SWAP4 SWAP5 PUSH1 0x0 SWAP3 PUSH2 0x37EB JUMPI JUMPDEST POP POP DUP2 PUSH1 0x1 SHL SWAP2 PUSH1 0x0 NOT SWAP1 PUSH1 0x3 SHL SHR NOT AND OR SWAP1 SSTORE JUMP JUMPDEST ADD MLOAD SWAP1 POP CODESIZE DUP1 PUSH2 0x37D5 JUMP JUMPDEST SWAP1 PUSH1 0x1F NOT DUP4 AND SWAP6 PUSH2 0x380C DUP6 PUSH1 0x0 MSTORE PUSH1 0x20 PUSH1 0x0 KECCAK256 SWAP1 JUMP JUMPDEST SWAP3 PUSH1 0x0 SWAP1 JUMPDEST DUP9 DUP3 LT PUSH2 0x3849 JUMPI POP POP DUP4 PUSH1 0x1 SWAP6 SWAP7 SWAP8 LT PUSH2 0x3830 JUMPI JUMPDEST POP POP POP DUP2 SHL ADD SWAP1 SSTORE JUMP JUMPDEST ADD MLOAD PUSH1 0x0 NOT PUSH1 0xF8 DUP5 PUSH1 0x3 SHL AND SHR NOT AND SWAP1 SSTORE CODESIZE DUP1 DUP1 PUSH2 0x3826 JUMP JUMPDEST DUP1 PUSH1 0x1 DUP6 SWAP7 DUP3 SWAP5 SWAP7 DUP7 ADD MLOAD DUP2 SSTORE ADD SWAP6 ADD SWAP4 ADD SWAP1 PUSH2 0x3811 JUMP JUMPDEST PUSH2 0x3869 PUSH2 0x5AB JUMP JUMPDEST PUSH2 0x37A6 JUMP JUMPDEST ISZERO PUSH2 0x3875 JUMPI JUMP JUMPDEST PUSH1 0x40 MLOAD PUSH3 0x461BCD PUSH1 0xE5 SHL DUP2 MSTORE PUSH1 0x20 PUSH1 0x4 DUP3 ADD MSTORE PUSH1 0x1F PUSH1 0x24 DUP3 ADD MSTORE PUSH32 0x457865637574696F6E20537461746520526F6F74206973206E6F742073657400 PUSH1 0x44 DUP3 ADD MSTORE PUSH1 0x64 SWAP1 REVERT JUMPDEST PUSH1 0x2 PUSH1 0x40 SLOAD EQ PUSH2 0x38CB JUMPI PUSH1 0x2 PUSH1 0x40 SSTORE JUMP JUMPDEST PUSH1 0x40 MLOAD PUSH3 0x461BCD PUSH1 0xE5 SHL DUP2 MSTORE PUSH1 0x20 PUSH1 0x4 DUP3 ADD MSTORE PUSH1 0x1F PUSH1 0x24 DUP3 ADD MSTORE PUSH32 0x5265656E7472616E637947756172643A207265656E7472616E742063616C6C00 PUSH1 0x44 DUP3 ADD MSTORE PUSH1 0x64 SWAP1 REVERT JUMPDEST ISZERO PUSH2 0x3917 JUMPI JUMP JUMPDEST PUSH1 0x40 MLOAD PUSH3 0x461BCD PUSH1 0xE5 SHL DUP2 MSTORE PUSH1 0x20 PUSH1 0x4 DUP3 ADD MSTORE PUSH1 0xD PUSH1 0x24 DUP3 ADD MSTORE PUSH13 0x57726F6E672053656E64657221 PUSH1 0x98 SHL PUSH1 0x44 DUP3 ADD MSTORE PUSH1 0x64 SWAP1 REVERT JUMPDEST SWAP6 PUSH1 0x20 PUSH2 0x1BD1 SWAP6 SWAP5 PUSH2 0x3A2A SWAP10 SWAP9 PUSH2 0x3A00 SWAP9 SWAP6 PUSH2 0x3A23 SWAP6 PUSH2 0x396A PUSH2 0x38BA JUMP JUMPDEST CALLER PUSH1 0x0 SWAP1 DUP2 MSTORE PUSH1 0x32 PUSH1 0x20 MSTORE PUSH1 0x40 SWAP1 KECCAK256 PUSH2 0x3986 SWAP1 PUSH2 0x20BE SWAP1 PUSH2 0x20B7 JUMP JUMPDEST PUSH2 0x3990 DUP9 DUP11 PUSH2 0x3DFB JUMP JUMPDEST PUSH1 0x34 SLOAD SWAP2 SWAP14 SWAP1 SWAP13 SWAP2 PUSH2 0x39D3 SWAP1 PUSH2 0x39AE SWAP1 PUSH1 0x1 PUSH1 0x1 PUSH1 0xA0 SHL SUB AND PUSH2 0x1AB9 JUMP JUMPDEST SWAP6 PUSH2 0x39C4 PUSH2 0x39BA PUSH2 0x661 JUMP JUMPDEST PUSH2 0xFFFF SWAP1 SWAP10 AND DUP10 MSTORE JUMP JUMPDEST PUSH1 0x1 PUSH1 0x1 PUSH1 0xA0 SHL SUB AND DUP8 DUP10 ADD MSTORE JUMP JUMPDEST PUSH2 0x39DE CALLDATASIZE DUP12 DUP14 PUSH2 0x6BE JUMP JUMPDEST PUSH1 0x40 DUP8 ADD MSTORE PUSH1 0x40 MLOAD SWAP8 DUP9 SWAP7 DUP8 SWAP6 DUP7 SWAP6 PUSH4 0xE4948F43 PUSH1 0xE0 SHL DUP8 MSTORE PUSH1 0x4 DUP8 ADD PUSH2 0x3A84 JUMP JUMPDEST SUB SWAP2 PUSH1 0x1 PUSH1 0x1 PUSH1 0xA0 SHL SUB AND GAS STATICCALL SWAP1 DUP2 ISZERO PUSH2 0x3A62 JUMPI JUMPDEST PUSH1 0x0 SWAP2 PUSH2 0x3A34 JUMPI JUMPDEST POP PUSH2 0x3AF7 JUMP JUMPDEST CALLDATASIZE SWAP2 PUSH2 0x6BE JUMP JUMPDEST PUSH2 0x59C PUSH1 0x1 PUSH1 0x40 SSTORE JUMP JUMPDEST PUSH2 0x3A55 SWAP2 POP PUSH1 0x20 RETURNDATASIZE DUP2 GT PUSH2 0x3A5B JUMPI JUMPDEST PUSH2 0x3A4D DUP2 DUP4 PUSH2 0x633 JUMP JUMPDEST DUP2 ADD SWAP1 PUSH2 0x3A6F JUMP JUMPDEST CODESIZE PUSH2 0x3A1D JUMP JUMPDEST POP RETURNDATASIZE PUSH2 0x3A43 JUMP JUMPDEST PUSH2 0x3A6A PUSH2 0x2826 JUMP JUMPDEST PUSH2 0x3A15 JUMP JUMPDEST SWAP1 DUP2 PUSH1 0x20 SWAP2 SUB SLT PUSH2 0x4D1 JUMPI MLOAD PUSH2 0x710 DUP2 PUSH2 0x109D JUMP JUMPDEST SWAP3 PUSH2 0x3AC9 SWAP3 PUSH1 0x40 SWAP3 DUP6 MSTORE PUSH1 0x20 DUP6 ADD MSTORE PUSH1 0x80 DUP3 DUP6 ADD MSTORE PUSH2 0xFFFF DUP2 MLOAD AND PUSH1 0x80 DUP6 ADD MSTORE PUSH1 0x1 DUP1 PUSH1 0xA0 SHL SUB PUSH1 0x20 DUP3 ADD MLOAD AND PUSH1 0xA0 DUP6 ADD MSTORE ADD MLOAD PUSH1 0x60 PUSH1 0xC0 DUP5 ADD MSTORE PUSH1 0xE0 DUP4 ADD SWAP1 PUSH2 0x9A1 JUMP JUMPDEST DUP2 DUP2 SUB PUSH1 0x60 SWAP1 SWAP3 ADD SWAP2 SWAP1 SWAP2 MSTORE DUP3 DUP2 MSTORE PUSH1 0x1 PUSH1 0x1 PUSH1 0xFB SHL SUB DUP4 GT PUSH2 0x4D1 JUMPI PUSH1 0x20 SWAP3 PUSH1 0x5 SHL DUP1 SWAP3 DUP5 DUP4 ADD CALLDATACOPY ADD ADD SWAP1 JUMP JUMPDEST ISZERO PUSH2 0x3AFE JUMPI JUMP JUMPDEST PUSH1 0x40 MLOAD PUSH3 0x461BCD PUSH1 0xE5 SHL DUP2 MSTORE PUSH1 0x20 PUSH1 0x4 DUP3 ADD MSTORE PUSH1 0x21 PUSH1 0x24 DUP3 ADD MSTORE PUSH32 0x4661696C656420746F2070726F7665206D65737361676520696E636C7573696F PUSH1 0x44 DUP3 ADD MSTORE PUSH1 0x37 PUSH1 0xF9 SHL PUSH1 0x64 DUP3 ADD MSTORE PUSH1 0x84 SWAP1 REVERT JUMPDEST SWAP5 PUSH2 0x120 SWAP5 PUSH1 0x20 SWAP5 DUP3 SWAP4 PUSH2 0x710 SWAP10 SWAP6 PUSH1 0x1 DUP1 PUSH1 0xA0 SHL SUB DUP1 SWAP3 AND DUP11 MSTORE AND DUP7 DUP10 ADD MSTORE PUSH1 0x0 PUSH1 0x40 DUP10 ADD MSTORE PUSH1 0x60 DUP9 ADD MSTORE PUSH1 0xC0 PUSH1 0x80 DUP9 ADD MSTORE DUP2 PUSH1 0xC0 DUP9 ADD MSTORE PUSH1 0xE0 DUP8 ADD CALLDATACOPY PUSH1 0x0 PUSH1 0xE0 DUP3 DUP8 ADD ADD MSTORE PUSH1 0x1F DUP1 NOT SWAP2 ADD AND DUP5 ADD SWAP4 PUSH1 0xA0 PUSH1 0xE0 DUP3 DUP8 SUB ADD SWAP2 ADD MSTORE DUP1 MLOAD PUSH1 0xE0 DUP6 ADD MSTORE ADD MLOAD SWAP2 PUSH1 0x40 PUSH2 0x100 DUP3 ADD MSTORE ADD SWAP1 PUSH2 0x9A1 JUMP JUMPDEST PUSH2 0x710 SWAP4 SWAP3 PUSH4 0xFFFFFFFF PUSH1 0x60 SWAP4 AND DUP3 MSTORE PUSH1 0x1 DUP1 PUSH1 0xA0 SHL SUB AND PUSH1 0x20 DUP3 ADD MSTORE DUP2 PUSH1 0x40 DUP3 ADD MSTORE ADD SWAP1 PUSH2 0x9A1 JUMP JUMPDEST SWAP1 DUP2 PUSH1 0x20 SWAP2 SUB SLT PUSH2 0x4D1 JUMPI MLOAD PUSH2 0x710 DUP2 PUSH2 0x4BF JUMP JUMPDEST SWAP1 PUSH2 0x3C19 PUSH1 0x20 SWAP2 SWAP5 SWAP4 SWAP5 PUSH1 0x40 DUP5 MSTORE PUSH1 0x40 DUP5 ADD SWAP1 PUSH2 0x9A1 JUMP JUMPDEST SWAP4 ISZERO ISZERO SWAP2 ADD MSTORE JUMP JUMPDEST SWAP1 SWAP2 PUSH1 0x40 DUP3 ADD DUP1 MLOAD PUSH2 0x3C36 SWAP1 PUSH4 0xFFFFFFFF AND SWAP1 JUMP JUMPDEST PUSH1 0x60 DUP5 ADD MLOAD PUSH1 0x1 PUSH1 0x1 PUSH1 0xA0 SHL SUB AND PUSH1 0xC0 DUP6 ADD MLOAD PUSH1 0x40 MLOAD PUSH4 0xB958FBBF PUSH1 0xE0 SHL PUSH1 0x20 DUP3 ADD DUP2 DUP2 MSTORE SWAP1 SWAP5 SWAP1 SWAP4 SWAP2 SWAP3 DUP4 SWAP3 PUSH2 0x3C70 SWAP3 PUSH1 0x24 DUP6 ADD PUSH2 0x3BC2 JUMP JUMPDEST SUB PUSH1 0x1F NOT DUP2 ADD DUP3 MSTORE PUSH2 0x3C82 SWAP1 DUP3 PUSH2 0x633 JUMP JUMPDEST PUSH1 0xA0 DUP7 ADD MLOAD PUSH1 0x1 PUSH1 0x1 PUSH1 0xA0 SHL SUB AND SWAP1 MLOAD GAS SWAP3 PUSH1 0x0 DUP1 SWAP5 SWAP4 DUP2 SWAP5 CALL DUP1 SWAP2 PUSH2 0x3CA6 PUSH2 0x2C64 JUMP JUMPDEST SWAP1 PUSH1 0x0 SWAP2 DUP1 MLOAD SWAP1 PUSH1 0x20 DUP3 EQ SWAP7 PUSH1 0x1 PUSH1 0x1 PUSH1 0x40 SHL SUB SWAP7 PUSH2 0x3D49 SWAP6 PUSH2 0x3D33 SWAP6 PUSH1 0x20 SWAP6 PUSH2 0x3D24 SWAP6 PUSH32 0x11C6A43A0A4BFFC4A181A856A4C71D63B723A7AD77E3F135784091FD7C9BF45 SWAP13 PUSH2 0x3D7F JUMPI JUMPDEST POP POP POP DUP2 PUSH2 0x3D77 JUMPI JUMPDEST POP ISZERO PUSH2 0x3D4E JUMPI PUSH2 0x1B1D PUSH2 0x3D17 DUP13 PUSH1 0x0 MSTORE PUSH1 0x7 PUSH1 0x20 MSTORE PUSH1 0x40 PUSH1 0x0 KECCAK256 SWAP1 JUMP JUMPDEST DUP1 SLOAD PUSH1 0xFF NOT AND PUSH1 0x2 OR SWAP1 SSTORE JUMP JUMPDEST SWAP8 ADD MLOAD PUSH1 0x1 PUSH1 0x1 PUSH1 0x40 SHL SUB AND SWAP1 JUMP JUMPDEST SWAP2 PUSH4 0xFFFFFFFF PUSH1 0x40 MLOAD SWAP5 DUP6 SWAP5 AND SWAP8 AND SWAP6 DUP4 PUSH2 0x3C01 JUMP JUMPDEST SUB SWAP1 LOG4 JUMP JUMPDEST PUSH2 0x3D72 PUSH2 0x3D65 DUP13 PUSH1 0x0 MSTORE PUSH1 0x7 PUSH1 0x20 MSTORE PUSH1 0x40 PUSH1 0x0 KECCAK256 SWAP1 JUMP JUMPDEST DUP1 SLOAD PUSH1 0xFF NOT AND PUSH1 0x1 OR SWAP1 SSTORE JUMP JUMPDEST PUSH2 0x1B1D JUMP JUMPDEST SWAP1 POP CODESIZE PUSH2 0x3CFA JUMP JUMPDEST SWAP2 SWAP3 POP PUSH1 0x1 PUSH1 0x1 PUSH1 0xE0 SHL SUB NOT SWAP2 PUSH2 0x3D9C SWAP2 DUP2 ADD DUP9 ADD SWAP1 DUP9 ADD PUSH2 0x3BEC JUMP JUMPDEST AND EQ CODESIZE DUP1 DUP1 PUSH2 0x3CF1 JUMP JUMPDEST PUSH1 0x40 MLOAD SWAP1 PUSH1 0xE0 DUP3 ADD DUP3 DUP2 LT PUSH1 0x1 PUSH1 0x1 PUSH1 0x40 SHL SUB DUP3 GT OR PUSH2 0x3DEE JUMPI JUMPDEST PUSH1 0x40 MSTORE PUSH1 0x60 PUSH1 0xC0 DUP4 PUSH1 0x0 DUP1 DUP3 MSTORE DUP1 PUSH1 0x20 DUP4 ADD MSTORE DUP1 PUSH1 0x40 DUP4 ADD MSTORE DUP1 DUP5 DUP4 ADD MSTORE DUP1 PUSH1 0x80 DUP4 ADD MSTORE PUSH1 0xA0 DUP3 ADD MSTORE ADD MSTORE JUMP JUMPDEST PUSH2 0x3DF6 PUSH2 0x5AB JUMP JUMPDEST PUSH2 0x3DC1 JUMP JUMPDEST PUSH2 0x3E26 SWAP1 SWAP3 SWAP2 SWAP3 PUSH2 0x3E0A PUSH2 0x3DA6 JUMP JUMPDEST POP PUSH2 0x3E1E PUSH2 0x3E19 CALLDATASIZE DUP7 DUP5 PUSH2 0x6BE JUMP JUMPDEST PUSH2 0x439B JUMP JUMPDEST SWAP4 CALLDATASIZE SWAP2 PUSH2 0x6BE JUMP JUMPDEST PUSH1 0x20 DUP2 MLOAD SWAP2 ADD KECCAK256 SWAP2 PUSH2 0x3E45 PUSH2 0x20B7 DUP5 PUSH1 0x0 MSTORE PUSH1 0x7 PUSH1 0x20 MSTORE PUSH1 0x40 PUSH1 0x0 KECCAK256 SWAP1 JUMP JUMPDEST PUSH2 0x3E4E DUP2 PUSH2 0xD54 JUMP JUMPDEST ISZERO PUSH2 0x3E94 JUMPI PUSH1 0x40 MLOAD PUSH3 0x461BCD PUSH1 0xE5 SHL DUP2 MSTORE PUSH1 0x20 PUSH1 0x4 DUP3 ADD MSTORE PUSH1 0x19 PUSH1 0x24 DUP3 ADD MSTORE PUSH25 0x26B2B9B9B0B3B29030B63932B0B23C9032BC32B1BABA32B217 PUSH1 0x39 SHL PUSH1 0x44 DUP3 ADD MSTORE PUSH1 0x64 SWAP1 REVERT JUMPDEST PUSH1 0x80 DUP2 ADD MLOAD PUSH4 0xFFFFFFFF AND PUSH4 0xFFFFFFFF AND CHAINID EQ PUSH2 0x3EDF JUMPI PUSH1 0x40 MLOAD PUSH3 0x461BCD PUSH1 0xE5 SHL DUP2 MSTORE PUSH1 0x20 PUSH1 0x4 DUP3 ADD MSTORE PUSH1 0xC PUSH1 0x24 DUP3 ADD MSTORE PUSH12 0x2BB937B7339031B430B4B717 PUSH1 0xA1 SHL PUSH1 0x44 DUP3 ADD MSTORE PUSH1 0x64 SWAP1 REVERT JUMPDEST DUP1 MLOAD PUSH1 0xFF AND PUSH1 0xFF PUSH2 0x3EFB PUSH2 0x3EF5 PUSH1 0x8 SLOAD PUSH1 0xFF AND SWAP1 JUMP JUMPDEST PUSH1 0xFF AND SWAP1 JUMP JUMPDEST SWAP2 AND EQ PUSH2 0x3F38 JUMPI PUSH1 0x40 MLOAD PUSH3 0x461BCD PUSH1 0xE5 SHL DUP2 MSTORE PUSH1 0x20 PUSH1 0x4 DUP3 ADD MSTORE PUSH1 0xE PUSH1 0x24 DUP3 ADD MSTORE PUSH14 0x2BB937B733903B32B939B4B7B717 PUSH1 0x91 SHL PUSH1 0x44 DUP3 ADD MSTORE PUSH1 0x64 SWAP1 REVERT JUMPDEST PUSH1 0x40 DUP2 ADD DUP1 MLOAD PUSH1 0x1 PUSH1 0x1 PUSH1 0xA0 SHL SUB SWAP1 PUSH2 0x3F5E SWAP1 PUSH2 0x1AB9 SWAP1 PUSH2 0x13FC SWAP1 PUSH4 0xFFFFFFFF AND PUSH2 0x1AA3 JUMP JUMPDEST AND ISZERO SWAP1 DUP2 ISZERO PUSH2 0x3FD6 JUMPI JUMPDEST POP PUSH2 0x3F71 JUMPI SWAP2 SWAP1 JUMP JUMPDEST PUSH1 0x40 MLOAD PUSH3 0x461BCD PUSH1 0xE5 SHL DUP2 MSTORE PUSH1 0x20 PUSH1 0x4 DUP3 ADD MSTORE PUSH1 0x37 PUSH1 0x24 DUP3 ADD MSTORE PUSH32 0x4C6967687420636C69656E74206F722062726F616463617374657220666F7220 PUSH1 0x44 DUP3 ADD MSTORE PUSH23 0x1CDBDD5C98D94818DA185A5B881A5CC81B9BDD081CD95D PUSH1 0x4A SHL PUSH1 0x64 DUP3 ADD MSTORE PUSH1 0x84 SWAP1 REVERT JUMPDEST PUSH2 0x3FEF SWAP2 POP PUSH2 0x13FC PUSH2 0x1826 PUSH2 0x1AB9 SWAP3 MLOAD PUSH4 0xFFFFFFFF AND SWAP1 JUMP JUMPDEST ISZERO CODESIZE PUSH2 0x3F68 JUMP JUMPDEST PUSH4 0xFFFFFFFF AND PUSH1 0x0 MSTORE PUSH1 0x6 PUSH1 0x20 MSTORE PUSH1 0xFF PUSH1 0x40 PUSH1 0x0 KECCAK256 SLOAD AND PUSH2 0x4013 JUMPI JUMP JUMPDEST PUSH1 0x40 MLOAD PUSH3 0x461BCD PUSH1 0xE5 SHL DUP2 MSTORE PUSH1 0x20 PUSH1 0x4 DUP3 ADD MSTORE PUSH1 0x13 PUSH1 0x24 DUP3 ADD MSTORE PUSH19 0x21B7B73A3930B1BA1034B990333937BD32B717 PUSH1 0x69 SHL PUSH1 0x44 DUP3 ADD MSTORE PUSH1 0x64 SWAP1 REVERT JUMPDEST PUSH1 0x1 SWAP1 PUSH1 0x1 PUSH1 0x1 PUSH1 0x40 SHL SUB DUP1 SWAP2 AND SWAP1 DUP2 EQ PUSH2 0x31BD JUMPI ADD SWAP1 JUMP JUMPDEST SWAP1 DUP2 PUSH1 0x20 SWAP2 SUB SLT PUSH2 0x4D1 JUMPI MLOAD PUSH2 0x710 DUP2 PUSH2 0x57E JUMP JUMPDEST SWAP3 SWAP5 SWAP4 PUSH2 0x40A9 PUSH1 0x80 SWAP4 PUSH1 0x1 DUP1 PUSH1 0xA0 SHL SUB DUP1 SWAP5 AND DUP7 MSTORE PUSH1 0x0 PUSH1 0x20 DUP8 ADD MSTORE PUSH1 0xA0 PUSH1 0x40 DUP8 ADD MSTORE PUSH1 0xA0 DUP7 ADD SWAP1 PUSH2 0x9A1 JUMP JUMPDEST SWAP6 PUSH1 0x60 DUP6 ADD MSTORE AND SWAP2 ADD MSTORE JUMP JUMPDEST SWAP1 PUSH1 0x40 MLOAD PUSH2 0x40D8 DUP2 PUSH2 0x24C3 PUSH1 0x20 SWAP6 PUSH4 0x9FB4159B PUSH1 0xE0 SHL DUP8 DUP5 ADD MSTORE PUSH1 0x24 DUP4 ADD PUSH2 0x9C6 JUMP JUMPDEST PUSH1 0x3B SLOAD PUSH2 0x40EF SWAP1 PUSH2 0x1AB9 SWAP1 PUSH1 0x1 PUSH1 0x1 PUSH1 0xA0 SHL SUB AND DUP2 JUMP JUMPDEST PUSH1 0x40 MLOAD PUSH4 0x1DB860C5 PUSH1 0xE1 SHL DUP2 MSTORE SWAP2 DUP5 DUP4 PUSH1 0x4 DUP2 DUP6 GAS STATICCALL SWAP3 DUP4 ISZERO PUSH2 0x4213 JUMPI JUMPDEST PUSH1 0x0 SWAP4 PUSH2 0x41E4 JUMPI JUMPDEST POP PUSH1 0x3D SLOAD PUSH1 0x40 MLOAD PUSH4 0x6BB825D7 PUSH1 0xE1 SHL DUP2 MSTORE PUSH1 0x4 DUP2 ADD DUP3 SWAP1 MSTORE SWAP1 SWAP4 DUP7 SWAP1 DUP3 SWAP1 PUSH1 0x24 SWAP1 DUP3 SWAP1 PUSH1 0x1 PUSH1 0x1 PUSH1 0xA0 SHL SUB AND GAS STATICCALL SWAP6 DUP7 ISZERO PUSH2 0x41D7 JUMPI JUMPDEST PUSH1 0x0 SWAP7 PUSH2 0x41B8 JUMPI JUMPDEST POP POP PUSH1 0x3F SLOAD PUSH1 0x1 PUSH1 0x1 PUSH1 0xA0 SHL SUB AND SWAP5 DUP3 EXTCODESIZE ISZERO PUSH2 0x4D1 JUMPI PUSH1 0x0 SWAP5 PUSH2 0x418C PUSH1 0x40 MLOAD SWAP8 DUP9 SWAP7 DUP8 SWAP6 DUP7 SWAP5 PUSH4 0x5F7B1577 PUSH1 0xE0 SHL DUP7 MSTORE PUSH1 0x4 DUP7 ADD PUSH2 0x407C JUMP JUMPDEST SUB SWAP3 GAS CALL DUP1 ISZERO PUSH2 0x41AB JUMPI JUMPDEST PUSH2 0x419E JUMPI POP JUMP JUMPDEST DUP1 PUSH2 0x2188 PUSH2 0x59C SWAP3 PUSH2 0x5C2 JUMP JUMPDEST PUSH2 0x41B3 PUSH2 0x2826 JUMP JUMPDEST PUSH2 0x4197 JUMP JUMPDEST PUSH2 0x41CF SWAP3 SWAP7 POP DUP1 RETURNDATASIZE LT PUSH2 0x1C5E JUMPI PUSH2 0x1C4B DUP2 DUP4 PUSH2 0x633 JUMP JUMPDEST SWAP4 CODESIZE DUP1 PUSH2 0x4153 JUMP JUMPDEST PUSH2 0x41DF PUSH2 0x2826 JUMP JUMPDEST PUSH2 0x414B JUMP JUMPDEST PUSH2 0x4205 SWAP2 SWAP4 POP DUP6 RETURNDATASIZE DUP8 GT PUSH2 0x420C JUMPI JUMPDEST PUSH2 0x41FD DUP2 DUP4 PUSH2 0x633 JUMP JUMPDEST DUP2 ADD SWAP1 PUSH2 0x4067 JUMP JUMPDEST SWAP2 CODESIZE PUSH2 0x4115 JUMP JUMPDEST POP RETURNDATASIZE PUSH2 0x41F3 JUMP JUMPDEST PUSH2 0x421B PUSH2 0x2826 JUMP JUMPDEST PUSH2 0x410D JUMP JUMPDEST PUSH1 0x3C SLOAD PUSH1 0x3D SLOAD PUSH1 0x3E SLOAD SWAP1 SWAP3 SWAP2 PUSH1 0x1 PUSH1 0x1 PUSH1 0xA0 SHL SUB SWAP1 DUP2 AND SWAP2 DUP2 AND DUP3 EXTCODESIZE ISZERO PUSH2 0x4D1 JUMPI PUSH2 0x427B SWAP6 PUSH1 0x0 SWAP6 DUP7 SWAP3 PUSH1 0x40 MLOAD SWAP9 DUP10 SWAP8 DUP9 SWAP7 DUP8 SWAP6 PUSH4 0x5F7B1577 PUSH1 0xE0 SHL DUP8 MSTORE AND PUSH1 0x4 DUP7 ADD MSTORE DUP6 PUSH1 0x24 DUP7 ADD MSTORE PUSH1 0xA0 PUSH1 0x44 DUP7 ADD MSTORE PUSH1 0xA4 DUP6 ADD SWAP1 PUSH2 0x9A1 JUMP JUMPDEST SWAP2 PUSH1 0x64 DUP5 ADD MSTORE PUSH1 0x84 DUP4 ADD MSTORE SUB SWAP3 GAS CALL DUP1 ISZERO PUSH2 0x41AB JUMPI PUSH2 0x419E JUMPI POP JUMP JUMPDEST SWAP4 SWAP3 PUSH1 0x65 SWAP1 PUSH2 0x432D SWAP3 PUSH2 0x42B2 PUSH1 0x8 SLOAD SWAP6 PUSH1 0x2 SLOAD SWAP4 CALLDATASIZE SWAP2 PUSH2 0x6BE JUMP JUMPDEST SWAP1 PUSH1 0x40 MLOAD SWAP8 DUP9 SWAP4 PUSH1 0x20 DUP6 ADD SWAP8 PUSH1 0xFF PUSH1 0xF8 SHL SWAP1 PUSH1 0xF8 SHL AND DUP9 MSTORE PUSH1 0x1 PUSH1 0x1 PUSH1 0x40 SHL SUB PUSH1 0xC0 SHL SWAP1 PUSH1 0xC0 SHL AND PUSH1 0x21 DUP6 ADD MSTORE PUSH4 0xFFFFFFFF PUSH1 0xE0 SHL SWAP1 DUP2 CHAINID PUSH1 0xE0 SHL AND PUSH1 0x29 DUP7 ADD MSTORE CALLER PUSH1 0x60 SHL PUSH1 0x2D DUP7 ADD MSTORE PUSH1 0xE0 SHL AND PUSH1 0x41 DUP5 ADD MSTORE PUSH1 0x45 DUP4 ADD MSTORE PUSH2 0x431D DUP2 MLOAD DUP1 SWAP3 PUSH1 0x20 DUP7 DUP7 ADD SWAP2 ADD PUSH2 0x97E JUMP JUMPDEST DUP2 ADD SUB PUSH1 0x45 DUP2 ADD DUP7 MSTORE ADD DUP5 PUSH2 0x633 JUMP JUMPDEST DUP3 MLOAD SWAP1 KECCAK256 SWAP1 JUMP JUMPDEST PUSH1 0x44 NOT DUP2 ADD SWAP2 SWAP1 DUP3 GT PUSH2 0x2D1D JUMPI JUMP JUMPDEST PUSH1 0xF6 NOT DUP2 ADD SWAP2 SWAP1 DUP3 GT PUSH2 0x2D1D JUMPI JUMP JUMPDEST PUSH1 0xBF NOT DUP2 ADD SWAP2 SWAP1 DUP3 GT PUSH2 0x2D1D JUMPI JUMP JUMPDEST PUSH1 0xB6 NOT DUP2 ADD SWAP2 SWAP1 DUP3 GT PUSH2 0x2D1D JUMPI JUMP JUMPDEST PUSH1 0x7F NOT DUP2 ADD SWAP2 SWAP1 DUP3 GT PUSH2 0x2D1D JUMPI JUMP JUMPDEST PUSH1 0x0 NOT DUP2 ADD SWAP2 SWAP1 DUP3 GT PUSH2 0x2D1D JUMPI JUMP JUMPDEST SWAP2 SWAP1 DUP3 SUB SWAP2 DUP3 GT PUSH2 0x2D1D JUMPI JUMP JUMPDEST SWAP1 PUSH2 0x4420 PUSH2 0x43A7 PUSH2 0x3DA6 JUMP JUMPDEST SWAP3 PUSH1 0x1 DUP2 ADD MLOAD PUSH2 0x440B PUSH1 0x9 DUP4 ADD MLOAD PUSH2 0x43FE PUSH1 0xD DUP6 ADD MLOAD PUSH4 0xFFFFFFFF PUSH1 0x21 DUP8 ADD MLOAD SWAP2 PUSH1 0x1 PUSH1 0x1 PUSH1 0x40 SHL SUB PUSH1 0x25 DUP10 ADD MLOAD SWAP6 PUSH1 0xFF PUSH1 0x45 DUP12 ADD MLOAD SWAP10 AND DUP14 MSTORE AND PUSH1 0x20 DUP13 ADD MSTORE AND PUSH1 0x40 DUP11 ADD MSTORE PUSH1 0x60 DUP10 ADD SWAP1 PUSH1 0x1 DUP1 PUSH1 0xA0 SHL SUB AND SWAP1 MSTORE JUMP JUMPDEST PUSH4 0xFFFFFFFF AND PUSH1 0x80 DUP8 ADD MSTORE JUMP JUMPDEST PUSH1 0xA0 DUP6 ADD MSTORE PUSH2 0x441A DUP2 MLOAD PUSH2 0x4334 JUMP JUMPDEST SWAP1 PUSH2 0x44A4 JUMP JUMPDEST PUSH1 0xC0 DUP4 ADD MSTORE JUMP JUMPDEST ISZERO PUSH2 0x442E JUMPI JUMP JUMPDEST PUSH1 0x40 MLOAD PUSH3 0x461BCD PUSH1 0xE5 SHL DUP2 MSTORE PUSH1 0x20 PUSH1 0x4 DUP3 ADD MSTORE PUSH1 0xE PUSH1 0x24 DUP3 ADD MSTORE PUSH14 0x736C6963655F6F766572666C6F77 PUSH1 0x90 SHL PUSH1 0x44 DUP3 ADD MSTORE PUSH1 0x64 SWAP1 REVERT JUMPDEST ISZERO PUSH2 0x446B JUMPI JUMP JUMPDEST PUSH1 0x40 MLOAD PUSH3 0x461BCD PUSH1 0xE5 SHL DUP2 MSTORE PUSH1 0x20 PUSH1 0x4 DUP3 ADD MSTORE PUSH1 0x11 PUSH1 0x24 DUP3 ADD MSTORE PUSH17 0x736C6963655F6F75744F66426F756E6473 PUSH1 0x78 SHL PUSH1 0x44 DUP3 ADD MSTORE PUSH1 0x64 SWAP1 REVERT JUMPDEST PUSH2 0x44B8 DUP3 PUSH2 0x44B1 DUP2 PUSH2 0x2D25 JUMP JUMPDEST LT ISZERO PUSH2 0x4427 JUMP JUMPDEST PUSH2 0x44CD DUP2 MLOAD PUSH2 0x44C6 DUP5 PUSH2 0x2D41 JUMP JUMPDEST GT ISZERO PUSH2 0x4464 JUMP JUMPDEST DUP2 PUSH2 0x44E5 JUMPI POP POP PUSH1 0x40 MLOAD PUSH1 0x0 DUP2 MSTORE PUSH1 0x20 DUP2 ADD PUSH1 0x40 MSTORE SWAP1 JUMP JUMPDEST PUSH1 0x40 MLOAD SWAP2 PUSH1 0x1F DUP2 AND SWAP2 PUSH1 0x45 DUP4 ISZERO PUSH1 0x5 SHL DUP1 DUP6 DUP8 ADD ADD SWAP5 DUP5 DUP7 ADD SWAP4 ADD ADD ADD SWAP1 JUMPDEST DUP1 DUP5 LT PUSH2 0x451C JUMPI POP POP DUP3 MSTORE PUSH1 0x1F ADD PUSH1 0x1F NOT AND PUSH1 0x40 MSTORE SWAP1 JUMP JUMPDEST SWAP1 SWAP3 DUP4 MLOAD DUP2 MSTORE PUSH1 0x20 DUP1 SWAP2 ADD SWAP4 ADD SWAP1 PUSH2 0x4504 JUMP JUMPDEST SWAP2 SWAP1 PUSH2 0x4550 SWAP2 PUSH1 0x40 MLOAD PUSH1 0x20 SWAP5 DUP6 DUP3 ADD MSTORE DUP5 DUP2 MSTORE PUSH2 0x454B DUP2 PUSH2 0x5E2 JUMP JUMPDEST PUSH2 0x5270 JUMP JUMPDEST DUP1 MLOAD ISZERO PUSH2 0x45CF JUMPI PUSH2 0x4560 SWAP1 PUSH2 0x46B2 JUMP JUMPDEST PUSH2 0x456E PUSH1 0x21 DUP3 MLOAD GT ISZERO PUSH2 0x46E4 JUMP JUMPDEST PUSH2 0x4590 DUP3 PUSH2 0x457B DUP4 PUSH2 0x4C8E JUMP JUMPDEST PUSH1 0x2 DUP2 SWAP7 SWAP4 SWAP6 SWAP3 SWAP7 LT ISZERO PUSH2 0x45C2 JUMPI JUMPDEST ISZERO PUSH2 0x46E4 JUMP JUMPDEST ADD MLOAD SWAP1 DUP2 ADD DUP1 SWAP2 GT PUSH2 0x45B5 JUMPI JUMPDEST MLOAD SWAP2 DUP1 DUP3 LT PUSH2 0x45AB JUMPI POP POP SWAP1 JUMP JUMPDEST SUB PUSH2 0x100 EXP SWAP1 DIV SWAP1 JUMP JUMPDEST PUSH2 0x45BD PUSH2 0x2CD4 JUMP JUMPDEST PUSH2 0x459D JUMP JUMPDEST PUSH2 0x45CA PUSH2 0xD3D JUMP JUMPDEST PUSH2 0x458A JUMP JUMPDEST PUSH1 0x40 MLOAD PUSH3 0x461BCD PUSH1 0xE5 SHL DUP2 MSTORE PUSH1 0x4 DUP2 ADD DUP4 SWAP1 MSTORE PUSH1 0x1C PUSH1 0x24 DUP3 ADD MSTORE PUSH32 0x53746F726167652076616C756520646F6573206E6F7420657869737400000000 PUSH1 0x44 DUP3 ADD MSTORE PUSH1 0x64 SWAP1 REVERT JUMPDEST PUSH1 0x40 MLOAD SWAP1 PUSH2 0x4621 DUP3 PUSH2 0x5E2 JUMP JUMPDEST PUSH1 0x0 PUSH1 0x20 DUP4 DUP3 DUP2 MSTORE ADD MSTORE JUMP JUMPDEST ISZERO PUSH2 0x4634 JUMPI JUMP JUMPDEST PUSH1 0x40 MLOAD PUSH3 0x461BCD PUSH1 0xE5 SHL DUP2 MSTORE PUSH1 0x20 PUSH1 0x4 DUP3 ADD MSTORE PUSH1 0x4A PUSH1 0x24 DUP3 ADD MSTORE PUSH32 0x524C505265616465723A206C656E677468206F6620616E20524C50206974656D PUSH1 0x44 DUP3 ADD MSTORE PUSH32 0x206D7573742062652067726561746572207468616E207A65726F20746F206265 PUSH1 0x64 DUP3 ADD MSTORE PUSH10 0x206465636F6461626C65 PUSH1 0xB0 SHL PUSH1 0x84 DUP3 ADD MSTORE PUSH1 0xA4 SWAP1 REVERT JUMPDEST PUSH2 0x46BA PUSH2 0x4614 JUMP JUMPDEST POP PUSH2 0x46C7 DUP2 MLOAD ISZERO ISZERO PUSH2 0x462D JUMP JUMPDEST PUSH1 0x20 DUP2 MLOAD SWAP2 PUSH1 0x40 MLOAD SWAP3 PUSH2 0x46D9 DUP5 PUSH2 0x5E2 JUMP JUMPDEST DUP4 MSTORE ADD PUSH1 0x20 DUP3 ADD MSTORE SWAP1 JUMP JUMPDEST ISZERO PUSH2 0x46EB JUMPI JUMP JUMPDEST PUSH1 0x40 MLOAD PUSH3 0x461BCD PUSH1 0xE5 SHL DUP2 MSTORE PUSH1 0x20 PUSH1 0x4 DUP3 ADD MSTORE PUSH1 0x1A PUSH1 0x24 DUP3 ADD MSTORE PUSH32 0x496E76616C696420524C5020627974657333322076616C75652E000000000000 PUSH1 0x44 DUP3 ADD MSTORE PUSH1 0x64 SWAP1 REVERT JUMPDEST PUSH2 0x473E PUSH1 0x21 DUP3 MLOAD GT ISZERO PUSH2 0x46E4 JUMP JUMPDEST PUSH2 0x474C PUSH1 0x20 PUSH2 0x457B DUP4 PUSH2 0x4C8E JUMP JUMPDEST ADD MLOAD SWAP1 DUP2 ADD DUP1 SWAP2 GT PUSH2 0x4773 JUMPI JUMPDEST MLOAD SWAP1 PUSH1 0x20 DUP2 LT PUSH2 0x4767 JUMPI POP SWAP1 JUMP JUMPDEST PUSH1 0x20 SUB PUSH2 0x100 EXP SWAP1 DIV SWAP1 JUMP JUMPDEST PUSH2 0x477B PUSH2 0x2CD4 JUMP JUMPDEST PUSH2 0x4759 JUMP JUMPDEST ISZERO PUSH2 0x4787 JUMPI JUMP JUMPDEST PUSH1 0x40 MLOAD PUSH3 0x461BCD PUSH1 0xE5 SHL DUP2 MSTORE PUSH1 0x20 PUSH1 0x4 DUP3 ADD MSTORE PUSH1 0x4D PUSH1 0x24 DUP3 ADD MSTORE PUSH1 0x0 DUP1 MLOAD PUSH1 0x20 PUSH2 0x5E55 DUP4 CODECOPY DUP2 MLOAD SWAP2 MSTORE PUSH1 0x44 DUP3 ADD MSTORE PUSH32 0x74206265203E207468616E206C656E677468206F66206C697374206C656E6774 PUSH1 0x64 DUP3 ADD MSTORE PUSH13 0x6820286C6F6E67206C69737429 PUSH1 0x98 SHL PUSH1 0x84 DUP3 ADD MSTORE PUSH1 0xA4 SWAP1 REVERT JUMPDEST ISZERO PUSH2 0x47FD JUMPI JUMP JUMPDEST PUSH1 0x40 MLOAD PUSH3 0x461BCD PUSH1 0xE5 SHL DUP2 MSTORE PUSH1 0x20 PUSH1 0x4 DUP3 ADD MSTORE PUSH1 0x48 PUSH1 0x24 DUP3 ADD MSTORE PUSH1 0x0 DUP1 MLOAD PUSH1 0x20 PUSH2 0x5E55 DUP4 CODECOPY DUP2 MLOAD SWAP2 MSTORE PUSH1 0x44 DUP3 ADD MSTORE PUSH32 0x74206E6F74206861766520616E79206C656164696E67207A65726F7320286C6F PUSH1 0x64 DUP3 ADD MSTORE PUSH8 0x6E67206C69737429 PUSH1 0xC0 SHL PUSH1 0x84 DUP3 ADD MSTORE PUSH1 0xA4 SWAP1 REVERT JUMPDEST ISZERO PUSH2 0x486E JUMPI JUMP JUMPDEST PUSH1 0x40 MLOAD PUSH3 0x461BCD PUSH1 0xE5 SHL DUP2 MSTORE PUSH1 0x20 PUSH1 0x4 DUP3 ADD MSTORE PUSH1 0x46 PUSH1 0x24 DUP3 ADD MSTORE PUSH1 0x0 DUP1 MLOAD PUSH1 0x20 PUSH2 0x5E55 DUP4 CODECOPY DUP2 MLOAD SWAP2 MSTORE PUSH1 0x44 DUP3 ADD MSTORE PUSH32 0x742062652067726561746572207468616E20353520627974657320286C6F6E67 PUSH1 0x64 DUP3 ADD MSTORE PUSH6 0x206C69737429 PUSH1 0xD0 SHL PUSH1 0x84 DUP3 ADD MSTORE PUSH1 0xA4 SWAP1 REVERT JUMPDEST ISZERO PUSH2 0x48DD JUMPI JUMP JUMPDEST PUSH1 0x40 MLOAD PUSH3 0x461BCD PUSH1 0xE5 SHL DUP2 MSTORE PUSH1 0x20 PUSH1 0x4 DUP3 ADD MSTORE PUSH1 0x4A PUSH1 0x24 DUP3 ADD MSTORE PUSH1 0x0 DUP1 MLOAD PUSH1 0x20 PUSH2 0x5E55 DUP4 CODECOPY DUP2 MLOAD SWAP2 MSTORE PUSH1 0x44 DUP3 ADD MSTORE PUSH32 0x742062652067726561746572207468616E20746F74616C206C656E6774682028 PUSH1 0x64 DUP3 ADD MSTORE PUSH10 0x6C6F6E67206C69737429 PUSH1 0xB0 SHL PUSH1 0x84 DUP3 ADD MSTORE PUSH1 0xA4 SWAP1 REVERT JUMPDEST ISZERO PUSH2 0x4950 JUMPI JUMP JUMPDEST PUSH1 0x40 MLOAD PUSH3 0x461BCD PUSH1 0xE5 SHL DUP2 MSTORE PUSH1 0x20 PUSH1 0x4 DUP3 ADD MSTORE PUSH1 0x4A PUSH1 0x24 DUP3 ADD MSTORE PUSH1 0x0 DUP1 MLOAD PUSH1 0x20 PUSH2 0x5E55 DUP4 CODECOPY DUP2 MLOAD SWAP2 MSTORE PUSH1 0x44 DUP3 ADD MSTORE PUSH32 0x742062652067726561746572207468616E206C697374206C656E677468202873 PUSH1 0x64 DUP3 ADD MSTORE PUSH10 0x686F7274206C69737429 PUSH1 0xB0 SHL PUSH1 0x84 DUP3 ADD MSTORE PUSH1 0xA4 SWAP1 REVERT JUMPDEST ISZERO PUSH2 0x49C3 JUMPI JUMP JUMPDEST PUSH1 0x40 MLOAD PUSH3 0x461BCD PUSH1 0xE5 SHL DUP2 MSTORE PUSH1 0x20 PUSH1 0x4 DUP3 ADD MSTORE PUSH1 0x51 PUSH1 0x24 DUP3 ADD MSTORE PUSH1 0x0 DUP1 MLOAD PUSH1 0x20 PUSH2 0x5E55 DUP4 CODECOPY DUP2 MLOAD SWAP2 MSTORE PUSH1 0x44 DUP3 ADD MSTORE PUSH32 0x74206265203E207468616E206C656E677468206F6620737472696E67206C656E PUSH1 0x64 DUP3 ADD MSTORE PUSH17 0x67746820286C6F6E6720737472696E6729 PUSH1 0x78 SHL PUSH1 0x84 DUP3 ADD MSTORE PUSH1 0xA4 SWAP1 REVERT JUMPDEST ISZERO PUSH2 0x4A3D JUMPI JUMP JUMPDEST PUSH1 0x40 MLOAD PUSH3 0x461BCD PUSH1 0xE5 SHL DUP2 MSTORE PUSH1 0x20 PUSH1 0x4 DUP3 ADD MSTORE PUSH1 0x4A PUSH1 0x24 DUP3 ADD MSTORE PUSH1 0x0 DUP1 MLOAD PUSH1 0x20 PUSH2 0x5E55 DUP4 CODECOPY DUP2 MLOAD SWAP2 MSTORE PUSH1 0x44 DUP3 ADD MSTORE PUSH32 0x74206E6F74206861766520616E79206C656164696E67207A65726F7320286C6F PUSH1 0x64 DUP3 ADD MSTORE PUSH10 0x6E6720737472696E6729 PUSH1 0xB0 SHL PUSH1 0x84 DUP3 ADD MSTORE PUSH1 0xA4 SWAP1 REVERT JUMPDEST ISZERO PUSH2 0x4AB0 JUMPI JUMP JUMPDEST PUSH1 0x40 MLOAD PUSH3 0x461BCD PUSH1 0xE5 SHL DUP2 MSTORE PUSH1 0x20 PUSH1 0x4 DUP3 ADD MSTORE PUSH1 0x48 PUSH1 0x24 DUP3 ADD MSTORE PUSH1 0x0 DUP1 MLOAD PUSH1 0x20 PUSH2 0x5E55 DUP4 CODECOPY DUP2 MLOAD SWAP2 MSTORE PUSH1 0x44 DUP3 ADD MSTORE PUSH32 0x742062652067726561746572207468616E20353520627974657320286C6F6E67 PUSH1 0x64 DUP3 ADD MSTORE PUSH8 0x20737472696E6729 PUSH1 0xC0 SHL PUSH1 0x84 DUP3 ADD MSTORE PUSH1 0xA4 SWAP1 REVERT JUMPDEST ISZERO PUSH2 0x4B21 JUMPI JUMP JUMPDEST PUSH1 0x40 MLOAD PUSH3 0x461BCD PUSH1 0xE5 SHL DUP2 MSTORE PUSH1 0x20 PUSH1 0x4 DUP3 ADD MSTORE PUSH1 0x4C PUSH1 0x24 DUP3 ADD MSTORE PUSH1 0x0 DUP1 MLOAD PUSH1 0x20 PUSH2 0x5E55 DUP4 CODECOPY DUP2 MLOAD SWAP2 MSTORE PUSH1 0x44 DUP3 ADD MSTORE PUSH32 0x742062652067726561746572207468616E20746F74616C206C656E6774682028 PUSH1 0x64 DUP3 ADD MSTORE PUSH12 0x6C6F6E6720737472696E6729 PUSH1 0xA0 SHL PUSH1 0x84 DUP3 ADD MSTORE PUSH1 0xA4 SWAP1 REVERT JUMPDEST ISZERO PUSH2 0x4B96 JUMPI JUMP JUMPDEST PUSH1 0x40 MLOAD PUSH3 0x461BCD PUSH1 0xE5 SHL DUP2 MSTORE PUSH1 0x20 PUSH1 0x4 DUP3 ADD MSTORE PUSH1 0x4E PUSH1 0x24 DUP3 ADD MSTORE PUSH1 0x0 DUP1 MLOAD PUSH1 0x20 PUSH2 0x5E55 DUP4 CODECOPY DUP2 MLOAD SWAP2 MSTORE PUSH1 0x44 DUP3 ADD MSTORE PUSH32 0x742062652067726561746572207468616E20737472696E67206C656E67746820 PUSH1 0x64 DUP3 ADD MSTORE PUSH14 0x2873686F727420737472696E6729 PUSH1 0x90 SHL PUSH1 0x84 DUP3 ADD MSTORE PUSH1 0xA4 SWAP1 REVERT JUMPDEST ISZERO PUSH2 0x4C0D JUMPI JUMP JUMPDEST PUSH1 0x40 MLOAD PUSH3 0x461BCD PUSH1 0xE5 SHL DUP2 MSTORE PUSH1 0x20 PUSH1 0x4 DUP3 ADD MSTORE PUSH1 0x4D PUSH1 0x24 DUP3 ADD MSTORE PUSH32 0x524C505265616465723A20696E76616C6964207072656669782C2073696E676C PUSH1 0x44 DUP3 ADD MSTORE PUSH32 0x652062797465203C203078383020617265206E6F742070726566697865642028 PUSH1 0x64 DUP3 ADD MSTORE PUSH13 0x73686F727420737472696E6729 PUSH1 0x98 SHL PUSH1 0x84 DUP3 ADD MSTORE PUSH1 0xA4 SWAP1 REVERT JUMPDEST SWAP1 PUSH2 0x4C9B DUP3 MLOAD ISZERO ISZERO PUSH2 0x462D JUMP JUMPDEST PUSH1 0x20 DUP3 ADD MLOAD DUP1 MLOAD PUSH1 0x0 BYTE SWAP1 PUSH1 0x7F DUP3 GT PUSH2 0x4CBB JUMPI POP PUSH1 0x0 SWAP3 POP PUSH1 0x1 SWAP2 DUP4 SWAP2 POP JUMP JUMPDEST PUSH1 0xB7 DUP3 GT PUSH2 0x4D15 JUMPI PUSH2 0x4CDB PUSH2 0x4CD2 PUSH2 0x4CFD SWAP4 PUSH2 0x4370 JUMP JUMPDEST DUP1 SWAP6 MLOAD GT PUSH2 0x4B8F JUMP JUMPDEST PUSH1 0x1 SWAP1 DUP2 ADD MLOAD SWAP1 DUP5 EQ DUP1 ISZERO SWAP2 PUSH1 0x1 PUSH1 0x1 PUSH1 0xF8 SHL SUB NOT AND SWAP1 PUSH2 0x4D06 JUMPI JUMPDEST POP PUSH2 0x4C06 JUMP JUMPDEST PUSH1 0x1 SWAP2 SWAP1 PUSH1 0x0 SWAP1 JUMP JUMPDEST PUSH1 0x1 PUSH1 0xFF SHL GT ISZERO SWAP1 POP CODESIZE PUSH2 0x4CF7 JUMP JUMPDEST PUSH1 0xBF DUP3 GT PUSH2 0x4D87 JUMPI PUSH2 0x4D7B PUSH1 0x1 PUSH2 0x4D2E PUSH2 0x4D80 SWAP5 PUSH2 0x4361 JUMP JUMPDEST SWAP3 PUSH2 0x4D3B DUP5 DUP9 MLOAD GT PUSH2 0x49BC JUMP JUMPDEST ADD DUP1 MLOAD PUSH2 0x4D53 SWAP1 PUSH1 0x1 PUSH1 0x1 PUSH1 0xF8 SHL SUB NOT AND ISZERO ISZERO PUSH2 0x4A36 JUMP JUMPDEST MLOAD DUP3 PUSH1 0x3 SHL PUSH2 0x100 SUB SHR SWAP5 PUSH2 0x4D6A PUSH1 0x37 DUP8 GT PUSH2 0x4AA9 JUMP JUMPDEST MLOAD PUSH2 0x4D75 DUP7 DUP5 PUSH2 0x2D4F JUMP JUMPDEST LT PUSH2 0x4B1A JUMP JUMPDEST PUSH2 0x2D33 JUMP JUMPDEST SWAP2 SWAP1 PUSH1 0x0 SWAP1 JUMP JUMPDEST PUSH1 0xF7 DUP3 GT PUSH2 0x4DAD JUMPI POP PUSH2 0x4D9C PUSH2 0x4DA5 SWAP2 PUSH2 0x4352 JUMP JUMPDEST DUP1 SWAP4 MLOAD GT PUSH2 0x4949 JUMP JUMPDEST PUSH1 0x1 SWAP2 SWAP1 DUP3 SWAP1 JUMP JUMPDEST PUSH2 0x4D7B PUSH1 0x1 PUSH2 0x4DBE PUSH2 0x4E0B SWAP5 PUSH2 0x4343 JUMP JUMPDEST SWAP3 PUSH2 0x4DCB DUP5 DUP9 MLOAD GT PUSH2 0x4780 JUMP JUMPDEST ADD DUP1 MLOAD PUSH2 0x4DE3 SWAP1 PUSH1 0x1 PUSH1 0x1 PUSH1 0xF8 SHL SUB NOT AND ISZERO ISZERO PUSH2 0x47F6 JUMP JUMPDEST MLOAD DUP3 PUSH1 0x3 SHL PUSH2 0x100 SUB SHR SWAP5 PUSH2 0x4DFA PUSH1 0x37 DUP8 GT PUSH2 0x4867 JUMP JUMPDEST MLOAD PUSH2 0x4E05 DUP7 DUP5 PUSH2 0x2D4F JUMP JUMPDEST LT PUSH2 0x48D6 JUMP JUMPDEST SWAP2 SWAP1 PUSH1 0x1 SWAP1 JUMP JUMPDEST ISZERO PUSH2 0x4E19 JUMPI JUMP JUMPDEST PUSH1 0x40 MLOAD PUSH3 0x461BCD PUSH1 0xE5 SHL DUP2 MSTORE PUSH1 0x20 PUSH1 0x4 DUP3 ADD MSTORE PUSH1 0x15 PUSH1 0x24 DUP3 ADD MSTORE PUSH21 0x4D65726B6C65547269653A20656D707479206B6579 PUSH1 0x58 SHL PUSH1 0x44 DUP3 ADD MSTORE PUSH1 0x64 SWAP1 REVERT JUMPDEST ISZERO PUSH2 0x4E5D JUMPI JUMP JUMPDEST PUSH1 0x40 MLOAD PUSH3 0x461BCD PUSH1 0xE5 SHL DUP2 MSTORE PUSH1 0x20 PUSH1 0x4 DUP3 ADD MSTORE PUSH1 0x2E PUSH1 0x24 DUP3 ADD MSTORE PUSH32 0x4D65726B6C65547269653A206B657920696E646578206578636565647320746F PUSH1 0x44 DUP3 ADD MSTORE PUSH14 0xE8C2D840D6CAF240D8CADCCEE8D PUSH1 0x93 SHL PUSH1 0x64 DUP3 ADD MSTORE PUSH1 0x84 SWAP1 REVERT JUMPDEST ISZERO PUSH2 0x4EC0 JUMPI JUMP JUMPDEST PUSH1 0x40 MLOAD PUSH3 0x461BCD PUSH1 0xE5 SHL DUP2 MSTORE PUSH1 0x20 PUSH1 0x4 DUP3 ADD MSTORE PUSH1 0x26 PUSH1 0x24 DUP3 ADD MSTORE PUSH32 0x4D65726B6C65547269653A20696E76616C696420696E7465726E616C206E6F64 PUSH1 0x44 DUP3 ADD MSTORE PUSH6 0xCA40D0C2E6D PUSH1 0xD3 SHL PUSH1 0x64 DUP3 ADD MSTORE PUSH1 0x84 SWAP1 REVERT JUMPDEST ISZERO PUSH2 0x4F1B JUMPI JUMP JUMPDEST PUSH1 0x40 MLOAD PUSH3 0x461BCD PUSH1 0xE5 SHL DUP2 MSTORE PUSH1 0x20 PUSH1 0x4 DUP3 ADD MSTORE PUSH1 0x27 PUSH1 0x24 DUP3 ADD MSTORE PUSH32 0x4D65726B6C65547269653A20696E76616C6964206C6172676520696E7465726E PUSH1 0x44 DUP3 ADD MSTORE PUSH7 0xC2D840D0C2E6D PUSH1 0xCB SHL PUSH1 0x64 DUP3 ADD MSTORE PUSH1 0x84 SWAP1 REVERT JUMPDEST ISZERO PUSH2 0x4F77 JUMPI JUMP JUMPDEST PUSH1 0x40 MLOAD PUSH3 0x461BCD PUSH1 0xE5 SHL DUP2 MSTORE PUSH1 0x20 PUSH1 0x4 DUP3 ADD MSTORE PUSH1 0x1D PUSH1 0x24 DUP3 ADD MSTORE PUSH32 0x4D65726B6C65547269653A20696E76616C696420726F6F742068617368000000 PUSH1 0x44 DUP3 ADD MSTORE PUSH1 0x64 SWAP1 REVERT JUMPDEST PUSH1 0xFF AND PUSH1 0x2 SUB SWAP1 PUSH1 0xFF DUP3 GT PUSH2 0x2D1D JUMPI JUMP JUMPDEST ISZERO PUSH2 0x4FD4 JUMPI JUMP JUMPDEST PUSH1 0x40 MLOAD PUSH3 0x461BCD PUSH1 0xE5 SHL DUP2 MSTORE PUSH1 0x20 PUSH1 0x4 DUP3 ADD MSTORE PUSH1 0x3A PUSH1 0x24 DUP3 ADD MSTORE PUSH32 0x4D65726B6C65547269653A20706174682072656D61696E646572206D75737420 PUSH1 0x44 DUP3 ADD MSTORE PUSH32 0x736861726520616C6C206E6962626C65732077697468206B6579000000000000 PUSH1 0x64 DUP3 ADD MSTORE PUSH1 0x84 SWAP1 REVERT JUMPDEST ISZERO PUSH2 0x5046 JUMPI JUMP JUMPDEST PUSH1 0x40 MLOAD PUSH3 0x461BCD PUSH1 0xE5 SHL DUP2 MSTORE PUSH1 0x20 PUSH1 0x4 DUP3 ADD MSTORE PUSH1 0x3D PUSH1 0x24 DUP3 ADD MSTORE PUSH32 0x4D65726B6C65547269653A206B65792072656D61696E646572206D7573742062 PUSH1 0x44 DUP3 ADD MSTORE PUSH32 0x65206964656E746963616C20746F20706174682072656D61696E646572000000 PUSH1 0x64 DUP3 ADD MSTORE PUSH1 0x84 SWAP1 REVERT JUMPDEST ISZERO PUSH2 0x50B8 JUMPI JUMP JUMPDEST PUSH1 0x40 MLOAD PUSH3 0x461BCD PUSH1 0xE5 SHL DUP2 MSTORE PUSH1 0x20 PUSH1 0x4 DUP3 ADD MSTORE PUSH1 0x39 PUSH1 0x24 DUP3 ADD MSTORE PUSH32 0x4D65726B6C65547269653A2076616C7565206C656E677468206D757374206265 PUSH1 0x44 DUP3 ADD MSTORE PUSH25 0x2067726561746572207468616E207A65726F20286C65616629 PUSH1 0x38 SHL PUSH1 0x64 DUP3 ADD MSTORE PUSH1 0x84 SWAP1 REVERT JUMPDEST ISZERO PUSH2 0x5126 JUMPI JUMP JUMPDEST PUSH1 0x40 MLOAD PUSH3 0x461BCD PUSH1 0xE5 SHL DUP2 MSTORE PUSH1 0x20 PUSH1 0x4 DUP3 ADD MSTORE PUSH1 0x38 PUSH1 0x24 DUP3 ADD MSTORE PUSH32 0x4D65726B6C65547269653A2076616C7565206E6F6465206D757374206265206C PUSH1 0x44 DUP3 ADD MSTORE PUSH24 0x617374206E6F646520696E2070726F6F6620286C65616629 PUSH1 0x40 SHL PUSH1 0x64 DUP3 ADD MSTORE PUSH1 0x84 SWAP1 REVERT JUMPDEST ISZERO PUSH2 0x5193 JUMPI JUMP JUMPDEST PUSH1 0x40 MLOAD PUSH3 0x461BCD PUSH1 0xE5 SHL DUP2 MSTORE PUSH1 0x20 PUSH1 0x4 DUP3 ADD MSTORE PUSH1 0x3B PUSH1 0x24 DUP3 ADD MSTORE PUSH32 0x4D65726B6C65547269653A2076616C7565206C656E677468206D757374206265 PUSH1 0x44 DUP3 ADD MSTORE PUSH32 0x2067726561746572207468616E207A65726F20286272616E6368290000000000 PUSH1 0x64 DUP3 ADD MSTORE PUSH1 0x84 SWAP1 REVERT JUMPDEST ISZERO PUSH2 0x5205 JUMPI JUMP JUMPDEST PUSH1 0x40 MLOAD PUSH3 0x461BCD PUSH1 0xE5 SHL DUP2 MSTORE PUSH1 0x20 PUSH1 0x4 DUP3 ADD MSTORE PUSH1 0x3A PUSH1 0x24 DUP3 ADD MSTORE PUSH32 0x4D65726B6C65547269653A2076616C7565206E6F6465206D757374206265206C PUSH1 0x44 DUP3 ADD MSTORE PUSH32 0x617374206E6F646520696E2070726F6F6620286272616E636829000000000000 PUSH1 0x64 DUP3 ADD MSTORE PUSH1 0x84 SWAP1 REVERT JUMPDEST SWAP2 SWAP1 PUSH2 0x528A PUSH2 0x5290 SWAP2 PUSH2 0x5285 DUP6 MLOAD ISZERO ISZERO PUSH2 0x4E12 JUMP JUMPDEST PUSH2 0x596C JUMP JUMPDEST SWAP3 PUSH2 0x5709 JUMP JUMPDEST SWAP1 PUSH1 0x40 DUP1 MLOAD SWAP1 DUP2 PUSH2 0x52A9 PUSH1 0x20 SWAP5 DUP6 DUP4 ADD PUSH1 0x20 SWAP2 DUP2 MSTORE ADD SWAP1 JUMP JUMPDEST SUB SWAP2 PUSH2 0x52BD PUSH1 0x1F NOT SWAP4 DUP5 DUP2 ADD DUP4 MSTORE DUP3 PUSH2 0x633 JUMP JUMPDEST SWAP4 PUSH1 0x0 SWAP3 DUP4 SWAP5 JUMPDEST DUP8 MLOAD DUP7 LT ISZERO PUSH2 0x55F1 JUMPI PUSH2 0x52D7 DUP7 DUP10 PUSH2 0x31F9 JUMP JUMPDEST MLOAD SWAP7 PUSH2 0x52E6 DUP5 MLOAD DUP8 GT ISZERO PUSH2 0x4E56 JUMP JUMPDEST DUP6 PUSH2 0x559D JUMPI PUSH2 0x5330 PUSH2 0x5335 SWAP2 PUSH2 0x5311 PUSH2 0x531D DUP12 MLOAD DUP7 DUP2 MLOAD SWAP2 ADD KECCAK256 DUP10 MLOAD SWAP3 DUP4 SWAP2 DUP9 DUP4 ADD PUSH1 0x20 SWAP2 DUP2 MSTORE ADD SWAP1 JUMP JUMPDEST SUB DUP8 DUP2 ADD DUP4 MSTORE DUP3 PUSH2 0x633 JUMP JUMPDEST PUSH1 0x20 DUP2 MLOAD SWAP2 ADD KECCAK256 SWAP1 PUSH1 0x20 DUP2 MLOAD SWAP2 ADD KECCAK256 EQ SWAP1 JUMP JUMPDEST PUSH2 0x4F70 JUMP JUMPDEST DUP1 DUP8 ADD SWAP7 DUP8 MLOAD MLOAD PUSH1 0x11 DUP2 EQ PUSH1 0x0 EQ PUSH2 0x53E6 JUMPI POP POP DUP3 MLOAD DUP6 SUB PUSH2 0x5388 JUMPI POP POP POP POP POP PUSH2 0x5382 PUSH2 0x536F PUSH2 0x5369 PUSH2 0x710 SWAP5 MLOAD PUSH2 0x31D6 JUMP JUMPDEST MLOAD PUSH2 0x57A1 JUMP JUMPDEST SWAP4 PUSH2 0x537C DUP6 MLOAD ISZERO ISZERO PUSH2 0x518C JUMP JUMPDEST MLOAD PUSH2 0x437F JUMP JUMPDEST EQ PUSH2 0x51FE JUMP JUMPDEST SWAP1 SWAP2 SWAP3 SWAP5 SWAP4 SWAP6 PUSH2 0x53D7 PUSH2 0x53D1 PUSH2 0x53CB PUSH2 0x53DD SWAP4 PUSH1 0xFF PUSH2 0x53C1 PUSH2 0x53BB PUSH2 0x53AD DUP15 DUP13 PUSH2 0x2D83 JUMP JUMPDEST MLOAD PUSH1 0x1 PUSH1 0x1 PUSH1 0xF8 SHL SUB NOT AND SWAP1 JUMP JUMPDEST PUSH1 0xF8 SHR SWAP1 JUMP JUMPDEST SWAP2 MLOAD SWAP2 AND SWAP1 PUSH2 0x31F9 JUMP JUMPDEST MLOAD PUSH2 0x5C64 JUMP JUMPDEST SWAP8 PUSH2 0x2D0F JUMP JUMPDEST SWAP5 PUSH2 0x34DB JUMP JUMPDEST SWAP5 SWAP3 SWAP2 SWAP1 PUSH2 0x52C4 JUMP JUMPDEST SWAP5 SWAP3 SWAP1 SWAP10 SWAP9 SWAP8 SWAP6 SWAP4 SWAP2 PUSH1 0x2 DUP1 SWAP7 EQ PUSH1 0x0 EQ PUSH2 0x5548 JUMPI PUSH2 0x5408 PUSH1 0xFF SWAP10 SWAP11 SWAP12 PUSH2 0x5C89 JUMP JUMPDEST SWAP6 PUSH2 0x5418 PUSH2 0x53BB PUSH2 0x53AD DUP10 PUSH2 0x2D5C JUMP JUMPDEST SWAP7 PUSH2 0x5433 PUSH1 0x1 SWAP2 PUSH2 0x542D PUSH2 0x3EF5 DUP5 DUP13 AND PUSH2 0x4FBC JUMP JUMPDEST SWAP1 PUSH2 0x5643 JUMP JUMPDEST SWAP11 DUP12 SWAP9 PUSH2 0x5456 PUSH2 0x544D PUSH2 0x5446 DUP12 DUP11 PUSH2 0x5643 JUMP JUMPDEST DUP1 SWAP13 PUSH2 0x5CB6 JUMP JUMPDEST DUP1 SWAP15 MLOAD EQ PUSH2 0x4FCD JUMP JUMPDEST AND SWAP2 DUP3 EQ DUP1 ISZERO PUSH2 0x553E JUMPI JUMPDEST ISZERO PUSH2 0x549F JUMPI POP POP POP POP POP POP POP PUSH2 0x5369 PUSH2 0x5499 SWAP3 PUSH2 0x5486 PUSH2 0x710 SWAP7 PUSH2 0x548C SWAP5 MLOAD EQ PUSH2 0x503F JUMP JUMPDEST MLOAD PUSH2 0x31C5 JUMP JUMPDEST SWAP4 PUSH2 0x537C DUP6 MLOAD ISZERO ISZERO PUSH2 0x50B1 JUMP JUMPDEST EQ PUSH2 0x511F JUMP JUMPDEST SWAP1 DUP1 SWAP3 SWAP6 SWAP10 SWAP9 SWAP4 SWAP7 SWAP11 SWAP5 SWAP8 POP ISZERO SWAP2 DUP3 ISZERO PUSH2 0x5534 JUMPI JUMPDEST POP POP ISZERO PUSH2 0x54D5 JUMPI PUSH2 0x53DD SWAP2 PUSH2 0x54CF PUSH2 0x53CB PUSH2 0x53D7 SWAP4 MLOAD PUSH2 0x31C5 JUMP JUMPDEST SWAP9 PUSH2 0x2D4F JUMP JUMPDEST DUP7 MLOAD PUSH3 0x461BCD PUSH1 0xE5 SHL DUP2 MSTORE PUSH1 0x20 PUSH1 0x4 DUP3 ADD MSTORE PUSH1 0x32 PUSH1 0x24 DUP3 ADD MSTORE PUSH32 0x4D65726B6C65547269653A2072656365697665642061206E6F64652077697468 PUSH1 0x44 DUP3 ADD MSTORE PUSH18 0x40C2DC40EADCD6DCDEEEDC40E0E4CACCD2F PUSH1 0x73 SHL PUSH1 0x64 DUP3 ADD MSTORE PUSH1 0x84 SWAP1 REVERT JUMPDEST EQ SWAP1 POP CODESIZE DUP1 PUSH2 0x54B4 JUMP JUMPDEST POP PUSH1 0x3 DUP3 EQ PUSH2 0x5461 JUMP JUMPDEST DUP4 MLOAD PUSH3 0x461BCD PUSH1 0xE5 SHL DUP2 MSTORE PUSH1 0x20 PUSH1 0x4 DUP3 ADD MSTORE PUSH1 0x28 PUSH1 0x24 DUP3 ADD MSTORE PUSH32 0x4D65726B6C65547269653A20726563656976656420616E20756E706172736561 PUSH1 0x44 DUP3 ADD MSTORE PUSH8 0x626C65206E6F6465 PUSH1 0xC0 SHL PUSH1 0x64 DUP3 ADD MSTORE PUSH1 0x84 SWAP1 REVERT JUMPDEST DUP8 MLOAD DUP1 MLOAD DUP4 GT PUSH2 0x55D8 JUMPI POP PUSH2 0x55CE PUSH2 0x55D3 SWAP2 PUSH2 0x5311 PUSH2 0x531D DUP12 MLOAD DUP7 DUP2 MLOAD SWAP2 ADD KECCAK256 DUP10 MLOAD SWAP3 DUP4 SWAP2 DUP9 DUP4 ADD PUSH1 0x20 SWAP2 DUP2 MSTORE ADD SWAP1 JUMP JUMPDEST PUSH2 0x4F14 JUMP JUMPDEST PUSH2 0x5335 JUMP JUMPDEST DUP1 MLOAD PUSH1 0x20 SWAP2 DUP3 ADD KECCAK256 DUP3 MLOAD SWAP2 SWAP1 SWAP3 ADD KECCAK256 PUSH2 0x55D3 SWAP2 EQ PUSH2 0x4EB9 JUMP JUMPDEST DUP4 MLOAD PUSH3 0x461BCD PUSH1 0xE5 SHL DUP2 MSTORE PUSH1 0x20 PUSH1 0x4 DUP3 ADD MSTORE PUSH1 0x25 PUSH1 0x24 DUP3 ADD MSTORE PUSH32 0x4D65726B6C65547269653A2072616E206F7574206F662070726F6F6620656C65 PUSH1 0x44 DUP3 ADD MSTORE PUSH5 0x6D656E7473 PUSH1 0xD8 SHL PUSH1 0x64 DUP3 ADD MSTORE PUSH1 0x84 SWAP1 REVERT JUMPDEST SWAP1 DUP2 MLOAD DUP2 LT ISZERO PUSH2 0x56F4 JUMPI DUP2 MLOAD DUP2 DUP1 DUP3 SUB SWAP2 DUP1 DUP4 GT PUSH2 0x56E7 JUMPI JUMPDEST PUSH2 0x566B DUP4 PUSH1 0x1F DUP2 ADD LT ISZERO PUSH2 0x4427 JUMP JUMPDEST PUSH2 0x5686 DUP4 DUP4 ADD PUSH2 0x567D DUP5 DUP3 LT ISZERO PUSH2 0x4427 JUMP JUMPDEST DUP7 MLOAD LT ISZERO PUSH2 0x4464 JUMP JUMPDEST SUB PUSH2 0x569F JUMPI POP POP POP PUSH1 0x40 MLOAD PUSH1 0x0 DUP2 MSTORE PUSH1 0x20 DUP2 ADD PUSH1 0x40 MSTORE SWAP1 JUMP JUMPDEST PUSH1 0x40 MLOAD SWAP3 PUSH1 0x1F DUP3 AND SWAP3 DUP4 ISZERO PUSH1 0x5 SHL DUP1 DUP6 DUP8 ADD ADD SWAP5 DUP5 DUP7 ADD SWAP4 ADD ADD ADD SWAP1 JUMPDEST DUP1 DUP5 LT PUSH2 0x56D4 JUMPI POP POP DUP3 MSTORE PUSH1 0x1F ADD PUSH1 0x1F NOT AND PUSH1 0x40 MSTORE SWAP1 JUMP JUMPDEST SWAP1 SWAP3 DUP4 MLOAD DUP2 MSTORE PUSH1 0x20 DUP1 SWAP2 ADD SWAP4 ADD SWAP1 PUSH2 0x56BC JUMP JUMPDEST PUSH2 0x56EF PUSH2 0x2CD4 JUMP JUMPDEST PUSH2 0x565C JUMP JUMPDEST POP POP PUSH1 0x40 MLOAD PUSH2 0x5702 DUP2 PUSH2 0x618 JUMP JUMPDEST PUSH1 0x0 DUP2 MSTORE SWAP1 JUMP JUMPDEST DUP1 MLOAD DUP1 PUSH1 0x0 NOT DIV PUSH1 0x2 GT DUP2 ISZERO ISZERO AND PUSH2 0x5794 JUMPI JUMPDEST PUSH1 0x1 SWAP1 PUSH2 0x572A DUP2 DUP4 SHL PUSH2 0x27E5 JUMP JUMPDEST SWAP3 PUSH1 0x0 SWAP1 DUP2 JUMPDEST DUP4 DUP2 LT PUSH2 0x573F JUMPI POP POP POP POP POP SWAP1 JUMP JUMPDEST DUP1 PUSH2 0x574B DUP7 SWAP3 DUP5 PUSH2 0x2D83 JUMP JUMPDEST MLOAD PUSH2 0x578D PUSH2 0x5758 DUP4 PUSH2 0x2CEB JUMP JUMPDEST PUSH1 0xF PUSH1 0xF8 SHL SWAP1 PUSH2 0x5770 DUP3 DUP6 PUSH1 0x4 SHR AND DUP10 BYTE SWAP2 DUP13 PUSH2 0x2D83 JUMP JUMPDEST MSTORE8 PUSH2 0x5782 PUSH2 0x577D DUP6 PUSH2 0x2CEB JUMP JUMPDEST PUSH2 0x2D0F JUMP JUMPDEST SWAP3 AND DUP7 BYTE SWAP2 DUP10 PUSH2 0x2D83 JUMP JUMPDEST MSTORE8 ADD PUSH2 0x5730 JUMP JUMPDEST PUSH2 0x579C PUSH2 0x2CD4 JUMP JUMPDEST PUSH2 0x571C JUMP JUMPDEST PUSH2 0x57AA DUP2 PUSH2 0x4C8E JUMP JUMPDEST PUSH1 0x2 DUP2 SWAP4 SWAP3 SWAP4 LT ISZERO PUSH2 0x58B1 JUMPI JUMPDEST PUSH2 0x584A JUMPI DUP3 MLOAD DUP3 DUP3 ADD SWAP1 DUP2 DUP4 GT PUSH2 0x583D JUMPI JUMPDEST SUB PUSH2 0x57DB JUMPI PUSH1 0x20 PUSH2 0x710 SWAP4 ADD MLOAD PUSH2 0x590E JUMP JUMPDEST PUSH1 0x40 MLOAD PUSH3 0x461BCD PUSH1 0xE5 SHL DUP2 MSTORE PUSH1 0x20 PUSH1 0x4 DUP3 ADD MSTORE PUSH1 0x34 PUSH1 0x24 DUP3 ADD MSTORE PUSH32 0x524C505265616465723A2062797465732076616C756520636F6E7461696E7320 PUSH1 0x44 DUP3 ADD MSTORE PUSH20 0x30B71034B73B30B634B2103932B6B0B4B73232B9 PUSH1 0x61 SHL PUSH1 0x64 DUP3 ADD MSTORE PUSH1 0x84 SWAP1 REVERT JUMPDEST PUSH2 0x5845 PUSH2 0x2CD4 JUMP JUMPDEST PUSH2 0x57C9 JUMP JUMPDEST PUSH1 0x40 MLOAD PUSH3 0x461BCD PUSH1 0xE5 SHL DUP2 MSTORE PUSH1 0x20 PUSH1 0x4 DUP3 ADD MSTORE PUSH1 0x39 PUSH1 0x24 DUP3 ADD MSTORE PUSH32 0x524C505265616465723A206465636F646564206974656D207479706520666F72 PUSH1 0x44 DUP3 ADD MSTORE PUSH25 0x206279746573206973206E6F7420612064617461206974656D PUSH1 0x38 SHL PUSH1 0x64 DUP3 ADD MSTORE PUSH1 0x84 SWAP1 REVERT JUMPDEST PUSH2 0x58B9 PUSH2 0xD3D JUMP JUMPDEST PUSH2 0x57B7 JUMP JUMPDEST SWAP1 PUSH2 0x58C8 DUP2 PUSH2 0x27E5 JUMP JUMPDEST SWAP2 DUP2 ISZERO PUSH2 0x5909 JUMPI DUP2 SWAP1 PUSH1 0x0 SWAP1 JUMPDEST DUP3 DUP3 LT PUSH2 0x58F2 JUMPI POP GT PUSH2 0x58E6 JUMPI POP SWAP1 JUMP JUMPDEST PUSH1 0x20 PUSH1 0x0 SWAP2 DUP4 ADD ADD MSTORE SWAP1 JUMP JUMPDEST SWAP2 POP DUP1 PUSH1 0x20 SWAP2 DUP4 ADD MLOAD DUP3 DUP3 DUP8 ADD ADD MSTORE ADD DUP3 SWAP2 PUSH2 0x58D5 JUMP JUMPDEST POP POP SWAP1 JUMP JUMPDEST SWAP2 SWAP1 SWAP2 PUSH2 0x591A DUP3 PUSH2 0x27E5 JUMP JUMPDEST SWAP3 DUP3 ISZERO PUSH2 0x5966 JUMPI DUP2 ADD DUP1 SWAP2 GT PUSH2 0x5959 JUMPI JUMPDEST DUP2 SWAP1 PUSH1 0x0 SWAP1 JUMPDEST DUP3 DUP3 LT PUSH2 0x5942 JUMPI POP GT PUSH2 0x58E6 JUMPI POP SWAP1 JUMP JUMPDEST SWAP2 POP DUP1 PUSH1 0x20 SWAP2 DUP4 ADD MLOAD DUP3 DUP3 DUP8 ADD ADD MSTORE ADD DUP3 SWAP2 PUSH2 0x5931 JUMP JUMPDEST PUSH2 0x5961 PUSH2 0x2CD4 JUMP JUMPDEST PUSH2 0x592B JUMP JUMPDEST POP POP POP SWAP1 JUMP JUMPDEST DUP1 MLOAD PUSH2 0x5977 DUP2 PUSH2 0x66E JUMP JUMPDEST SWAP2 PUSH1 0x40 PUSH2 0x5986 DUP2 MLOAD SWAP5 DUP6 PUSH2 0x633 JUMP JUMPDEST DUP3 DUP5 MSTORE PUSH1 0x1F NOT PUSH2 0x5995 DUP5 PUSH2 0x66E JUMP JUMPDEST ADD SWAP1 PUSH1 0x0 JUMPDEST DUP3 DUP2 LT PUSH2 0x5A01 JUMPI POP POP POP PUSH1 0x0 JUMPDEST DUP3 DUP2 LT PUSH2 0x59B4 JUMPI POP POP POP SWAP1 JUMP JUMPDEST DUP1 PUSH2 0x59C1 PUSH1 0x1 SWAP3 DUP5 PUSH2 0x31F9 JUMP JUMPDEST MLOAD PUSH2 0x59D5 PUSH2 0x59CF DUP4 DUP7 PUSH2 0x31F9 JUMP JUMPDEST MLOAD PUSH2 0x5A24 JUMP JUMPDEST PUSH2 0x59DD PUSH2 0x654 JUMP JUMPDEST SWAP2 DUP3 MSTORE PUSH1 0x20 DUP3 ADD MSTORE PUSH2 0x59EF DUP3 DUP8 PUSH2 0x31F9 JUMP JUMPDEST MSTORE PUSH2 0x59FA DUP2 DUP7 PUSH2 0x31F9 JUMP JUMPDEST POP ADD PUSH2 0x59A7 JUMP JUMPDEST PUSH1 0x20 SWAP1 DUP3 MLOAD PUSH2 0x5A0F DUP2 PUSH2 0x5E2 JUMP JUMPDEST PUSH1 0x60 DUP1 DUP3 MSTORE DUP4 DUP3 ADD MSTORE DUP8 DUP3 ADD DUP4 ADD MSTORE ADD PUSH2 0x599A JUMP JUMPDEST PUSH2 0x5A30 PUSH2 0x710 SWAP2 PUSH2 0x46B2 JUMP JUMPDEST PUSH2 0x5B62 JUMP JUMPDEST ISZERO PUSH2 0x5A3C JUMPI JUMP JUMPDEST PUSH1 0x40 MLOAD PUSH3 0x461BCD PUSH1 0xE5 SHL DUP2 MSTORE PUSH1 0x20 PUSH1 0x4 DUP3 ADD MSTORE PUSH1 0x38 PUSH1 0x24 DUP3 ADD MSTORE PUSH32 0x524C505265616465723A206465636F646564206974656D207479706520666F72 PUSH1 0x44 DUP3 ADD MSTORE PUSH24 0x206C697374206973206E6F742061206C697374206974656D PUSH1 0x40 SHL PUSH1 0x64 DUP3 ADD MSTORE PUSH1 0x84 SWAP1 REVERT JUMPDEST ISZERO PUSH2 0x5AA9 JUMPI JUMP JUMPDEST PUSH1 0x40 MLOAD PUSH3 0x461BCD PUSH1 0xE5 SHL DUP2 MSTORE PUSH1 0x20 PUSH1 0x4 DUP3 ADD MSTORE PUSH1 0x32 PUSH1 0x24 DUP3 ADD MSTORE PUSH32 0x524C505265616465723A206C697374206974656D2068617320616E20696E7661 PUSH1 0x44 DUP3 ADD MSTORE PUSH18 0x3634B2103230BA30903932B6B0B4B73232B9 PUSH1 0x71 SHL PUSH1 0x64 DUP3 ADD MSTORE PUSH1 0x84 SWAP1 REVERT JUMPDEST PUSH1 0x40 MLOAD SWAP1 PUSH2 0x420 DUP3 ADD DUP3 DUP2 LT PUSH1 0x1 PUSH1 0x1 PUSH1 0x40 SHL SUB DUP3 GT OR PUSH2 0x5B55 JUMPI JUMPDEST PUSH1 0x40 MSTORE PUSH1 0x20 DUP1 DUP4 MSTORE DUP3 PUSH1 0x0 JUMPDEST PUSH2 0x400 DUP2 LT PUSH2 0x5B3F JUMPI POP POP POP JUMP JUMPDEST DUP3 SWAP1 PUSH2 0x5B49 PUSH2 0x4614 JUMP JUMPDEST DUP3 DUP3 DUP6 ADD ADD MSTORE ADD PUSH2 0x5B31 JUMP JUMPDEST PUSH2 0x5B5D PUSH2 0x5AB JUMP JUMPDEST PUSH2 0x5B25 JUMP JUMPDEST PUSH2 0x5B92 PUSH2 0x5B9A PUSH2 0x5B71 DUP4 PUSH2 0x4C8E JUMP JUMPDEST SWAP3 SWAP2 SWAP4 SWAP1 PUSH1 0x2 DUP5 LT ISZERO PUSH2 0x5C57 JUMPI JUMPDEST PUSH2 0x5B8C PUSH1 0x1 DUP1 SWAP6 EQ PUSH2 0x5A35 JUMP JUMPDEST DUP5 PUSH2 0x2D4F JUMP JUMPDEST DUP5 MLOAD EQ PUSH2 0x5AA2 JUMP JUMPDEST PUSH2 0x5BA2 PUSH2 0x5B09 JUMP JUMPDEST SWAP3 PUSH1 0x0 SWAP3 DUP3 JUMPDEST PUSH2 0x5BB5 JUMPI JUMPDEST POP POP POP DUP2 MSTORE SWAP1 JUMP JUMPDEST DUP2 MLOAD SWAP1 DUP2 DUP2 LT ISZERO PUSH2 0x5C51 JUMPI PUSH2 0x5C45 PUSH2 0x5BD0 DUP3 PUSH2 0x5C4B SWAP5 PUSH2 0x438E JUMP JUMPDEST PUSH2 0x5C3F PUSH1 0x20 SWAP8 PUSH2 0x5BFC DUP10 DUP9 ADD SWAP4 PUSH2 0x5BE8 DUP8 DUP7 MLOAD PUSH2 0x2D4F JUMP JUMPDEST PUSH2 0x5BF0 PUSH2 0x654 JUMP JUMPDEST SWAP2 DUP3 MSTORE DUP12 DUP3 ADD MSTORE PUSH2 0x4C8E JUMP JUMPDEST POP SWAP4 SWAP1 SWAP10 PUSH2 0x5C15 DUP8 PUSH2 0x5C0E DUP14 DUP9 PUSH2 0x2D4F JUMP JUMPDEST SWAP4 MLOAD PUSH2 0x2D4F JUMP JUMPDEST SWAP1 PUSH2 0x5C1E PUSH2 0x654 JUMP JUMPDEST SWAP3 DUP4 MSTORE DUP3 ADD MSTORE PUSH2 0x5C2E DUP3 DUP13 PUSH2 0x31F9 JUMP JUMPDEST MSTORE PUSH2 0x5C39 DUP2 DUP12 PUSH2 0x31F9 JUMP JUMPDEST POP PUSH2 0x2D0F JUMP JUMPDEST SWAP7 PUSH2 0x2D4F JUMP JUMPDEST SWAP1 PUSH2 0x2D4F JUMP JUMPDEST DUP3 PUSH2 0x5BA8 JUMP JUMPDEST POP PUSH2 0x5BAD JUMP JUMPDEST PUSH2 0x5C5F PUSH2 0xD3D JUMP JUMPDEST PUSH2 0x5B7F JUMP JUMPDEST PUSH1 0x20 DUP2 MLOAD LT PUSH1 0x0 EQ PUSH2 0x5C80 JUMPI PUSH1 0x20 DUP2 ADD MLOAD SWAP1 MLOAD PUSH2 0x710 SWAP2 PUSH2 0x58BE JUMP JUMPDEST PUSH2 0x710 SWAP1 PUSH2 0x57A1 JUMP JUMPDEST PUSH2 0x5CA4 PUSH1 0x20 DUP1 PUSH2 0x710 SWAP4 ADD MLOAD DUP1 MLOAD ISZERO PUSH2 0x5CA9 JUMPI JUMPDEST ADD MLOAD PUSH2 0x57A1 JUMP JUMPDEST PUSH2 0x5709 JUMP JUMPDEST PUSH2 0x5CB1 PUSH2 0x92D JUMP JUMPDEST PUSH2 0x5C9D JUMP JUMPDEST PUSH1 0x0 SWAP2 DUP3 DUP3 MLOAD DUP3 MLOAD DUP1 DUP3 LT PUSH1 0x0 EQ PUSH2 0x5D14 JUMPI POP SWAP4 POP JUMPDEST JUMPDEST DUP4 DUP2 LT DUP1 PUSH2 0x5CEA JUMPI JUMPDEST ISZERO PUSH2 0x5CE3 JUMPI PUSH1 0x1 ADD PUSH2 0x5CCD JUMP JUMPDEST SWAP3 POP POP POP SWAP1 JUMP JUMPDEST POP PUSH1 0x1 PUSH1 0x1 PUSH1 0xF8 SHL SUB NOT DUP1 PUSH2 0x5CFF DUP4 DUP7 PUSH2 0x2D83 JUMP JUMPDEST MLOAD AND SWAP1 PUSH2 0x5D0C DUP4 DUP6 PUSH2 0x2D83 JUMP JUMPDEST MLOAD AND EQ PUSH2 0x5CD6 JUMP JUMPDEST SWAP1 POP SWAP4 POP PUSH2 0x5CCC JUMP JUMPDEST PUSH2 0x5D65 SWAP3 SWAP2 PUSH1 0x40 MLOAD PUSH1 0x20 DUP2 ADD SWAP2 PUSH12 0xFFFFFFFFFFFFFFFFFFFFFFFF NOT SWAP1 PUSH1 0x60 SHL AND DUP3 MSTORE PUSH1 0x14 DUP2 MSTORE PUSH2 0x5D4C DUP2 PUSH2 0x5E2 JUMP JUMPDEST MLOAD SWAP1 KECCAK256 PUSH1 0x40 MLOAD SWAP1 PUSH1 0x20 DUP3 ADD MSTORE PUSH1 0x20 DUP2 MSTORE PUSH2 0x454B DUP2 PUSH2 0x5E2 JUMP JUMPDEST DUP1 MLOAD ISZERO PUSH2 0x5D96 JUMPI PUSH2 0x5D90 PUSH2 0x5D7E PUSH2 0x5A30 PUSH2 0x710 SWAP4 PUSH2 0x46B2 JUMP JUMPDEST PUSH2 0x5D8B PUSH1 0x4 DUP3 MLOAD EQ PUSH2 0x2FE7 JUMP JUMPDEST PUSH2 0x31E8 JUMP JUMPDEST MLOAD PUSH2 0x4730 JUMP JUMPDEST PUSH1 0x40 MLOAD PUSH3 0x461BCD PUSH1 0xE5 SHL DUP2 MSTORE PUSH1 0x20 PUSH1 0x4 DUP3 ADD MSTORE PUSH1 0x16 PUSH1 0x24 DUP3 ADD MSTORE PUSH22 0x1058D8DBDD5B9D08191BD95CC81B9BDD08195E1A5CDD PUSH1 0x52 SHL PUSH1 0x44 DUP3 ADD MSTORE PUSH1 0x64 SWAP1 REVERT INVALID 0x2F DUP8 DUP9 GT PUSH31 0x7EFF1D82E926EC794901D17C78024A50270940304540A733656F0DF6684641 0x5D 0x2B 0xF9 0xEA 0xBD 0xA9 0xE8 SELFBALANCE SWAP4 SELFDESTRUCT SWAP13 0xE 0xA9 PUSH14 0x87F50FC41E66AA16469C6A442F05 SWAP10 MLOAD 0xD6 ISZERO 0xD3 CALLDATALOAD 0xCF DUP6 0xB8 CODESIZE 0xCA PUSH28 0x834E1C7DF53135F0FF2DFF3F1ACE9EBA31CF1EFC90A8EADBAE9DDCD1 0x4F 0xC9 PUSH10 0xB0548795BCDE0C54009A 0xD2 COINBASE SWAP8 SWAP16 0xC7 LOG2 CREATE2 PUSH30 0x7A0904524C505265616465723A206C656E677468206F6620636F6E74656E PUSH21 0x206D7573360894A13BA1A3210667C828492DB98DCA RETURNDATACOPY KECCAK256 PUSH23 0xCC3735A920A3CA505D382BBC55435DD261A4B9B3364963 0xF7 PUSH20 0x8A7A662AD9C84396D64BE3365284BB7F0A5041A2 PUSH5 0x6970667358 0x22 SLT KECCAK256 0xA5 AND DUP8 SWAP14 0xB3 0xDC OR 0x21 0x2B SWAP2 0xF6 OR 0xDB GAS 0x49 0xC3 PUSH14 0xEAE9FEF1C79ADAFDB383F071021C PUSH28 0x64736F6C634300081000330000000000000000000000000000000000 "
		},
		"gasEstimates": {
			"creation": {
				"codeDepositCost": "4859600",
				"executionCost": "infinite",
				"totalCost": "infinite"
			},
			"external": {
				"DEFAULT_ADMIN_ROLE()": "1134",
				"GUARDIAN_ROLE()": "309",
				"MIN_LIGHT_CLIENT_DELAY()": "1288",
				"TIMELOCK_ROLE()": "1387",
				"VERSION()": "1436",
				"broadcasters(uint32)": "2920",
				"chainRouter(uint32)": "3624",
				"changeDebugMode(bool)": "infinite",
				"freeze(uint32)": "infinite",
				"freezeAll()": "infinite",
				"frozen(uint32)": "2694",
				"getRoleAdmin(bytes32)": "2429",
				"grantRole(bytes32,address)": "infinite",
				"hasRole(bytes32,address)": "3339",
				"initialize(uint32[],address[],address[],address,address,bool)": "infinite",
				"isDebugMode()": "3343",
				"l1RefundAddress()": "2711",
				"l2RefundAddress()": "2997",
				"lightClients(uint32)": "3052",
				"messageStatus(bytes32)": "2710",
				"messages(uint64)": "2442",
				"msgRelayer(address)": "3155",
				"nonce()": "3299",
				"proxiableUUID()": "infinite",
				"renounceRole(bytes32,address)": "infinite",
				"revokeRole(bytes32,address)": "infinite",
				"scrollL1Messager()": "2689",
				"scrollL2GasLimit()": "3259",
				"scrollL2Messager()": "2469",
				"send(uint32,address,bytes)": "infinite",
				"sendingEnabled()": "2611",
				"setChainRouter(uint32,address)": "infinite",
				"setLightClientAndBroadcaster(uint32,address,address)": "infinite",
				"setRelayer(address,bool)": "infinite",
				"setScroll(address,address,uint256,address,address)": "infinite",
				"setSendingEnabled(bool)": "infinite",
				"setZKSync(address,uint256,uint256,uint256,bytes[],address,uint256)": "infinite",
				"sourceChainIds(uint256)": "5386",
				"sourceChainIdsLength()": "2643",
				"storageRootCache(bytes32)": "3083",
				"supportsInterface(bytes4)": "328",
				"unfreeze(uint32)": "infinite",
				"unfreezeAll()": "infinite",
				"upgradeTo(address)": "infinite",
				"upgradeToAndCall(address,bytes)": "infinite",
				"vMsg(uint64,bytes,bytes[],bytes[])": "infinite",
				"vMsgScrollL1ToL2(bytes)": "infinite",
				"vMsgScrollL2ToL1(uint256,uint256,bytes,bytes)": "infinite",
				"vMsgZkSyncL1ToL2(bytes)": "infinite",
				"vMsgZkSyncL2ToL1(address,uint256,uint256,uint16,bytes,bytes32[])": "infinite",
				"version()": "2759",
				"withdraw(address,uint256)": "infinite",
				"zkSyncAddress()": "3063",
				"zkSyncFactoryDeps(uint256)": "infinite",
				"zkSyncL2GasLimit()": "3523",
				"zkSyncL2GasPerPubdataByteLimit()": "2401",
				"zkSyncL2Value()": "2819",
				"zkSyncRefundRecipient()": "2513",
				"zkSyncToL2Value()": "2621"
			},
			"internal": {
				"_authorizeUpgrade(address)": "infinite"
			}
		},
		"methodIdentifiers": {
			"DEFAULT_ADMIN_ROLE()": "a217fddf",
			"GUARDIAN_ROLE()": "24ea54f4",
			"MIN_LIGHT_CLIENT_DELAY()": "e4407b15",
			"TIMELOCK_ROLE()": "f288a2e2",
			"VERSION()": "ffa1ad74",
			"broadcasters(uint32)": "59f89787",
			"chainRouter(uint32)": "f3764826",
			"changeDebugMode(bool)": "80a0567c",
			"freeze(uint32)": "9a2ed203",
			"freezeAll()": "99464c89",
			"frozen(uint32)": "36ae7c18",
			"getRoleAdmin(bytes32)": "248a9ca3",
			"grantRole(bytes32,address)": "2f2ff15d",
			"hasRole(bytes32,address)": "91d14854",
			"initialize(uint32[],address[],address[],address,address,bool)": "5cb77819",
			"isDebugMode()": "c7b51826",
			"l1RefundAddress()": "4be7f463",
			"l2RefundAddress()": "8446ec81",
			"lightClients(uint32)": "7599735c",
			"messageStatus(bytes32)": "3c6cf473",
			"messages(uint64)": "029d6713",
			"msgRelayer(address)": "858616aa",
			"nonce()": "affed0e0",
			"proxiableUUID()": "52d1902d",
			"renounceRole(bytes32,address)": "36568abe",
			"revokeRole(bytes32,address)": "d547741f",
			"scrollL1Messager()": "45c10b68",
			"scrollL2GasLimit()": "a542648b",
			"scrollL2Messager()": "2ef423aa",
			"send(uint32,address,bytes)": "68346a92",
			"sendingEnabled()": "3e99e9ce",
			"setChainRouter(uint32,address)": "8380a479",
			"setLightClientAndBroadcaster(uint32,address,address)": "91cd8bfd",
			"setRelayer(address,bool)": "ecd8dc3a",
			"setScroll(address,address,uint256,address,address)": "bebbdf64",
			"setSendingEnabled(bool)": "ed762d44",
			"setZKSync(address,uint256,uint256,uint256,bytes[],address,uint256)": "1d6e477a",
			"sourceChainIds(uint256)": "9efeff1c",
			"sourceChainIdsLength()": "4552f563",
			"storageRootCache(bytes32)": "8d080d1d",
			"supportsInterface(bytes4)": "01ffc9a7",
			"unfreeze(uint32)": "1f3d25a9",
			"unfreezeAll()": "66c5c4a0",
			"upgradeTo(address)": "3659cfe6",
			"upgradeToAndCall(address,bytes)": "4f1ef286",
			"vMsg(uint64,bytes,bytes[],bytes[])": "98825f98",
			"vMsgScrollL1ToL2(bytes)": "9fb4159b",
			"vMsgScrollL2ToL1(uint256,uint256,bytes,bytes)": "dfe942d1",
			"vMsgZkSyncL1ToL2(bytes)": "a196e766",
			"vMsgZkSyncL2ToL1(address,uint256,uint256,uint16,bytes,bytes32[])": "6a7ea822",
			"version()": "54fd4d50",
			"withdraw(address,uint256)": "f3fef3a3",
			"zkSyncAddress()": "8db4e89d",
			"zkSyncFactoryDeps(uint256)": "274f28ce",
			"zkSyncL2GasLimit()": "fdf928cf",
			"zkSyncL2GasPerPubdataByteLimit()": "27240768",
			"zkSyncL2Value()": "64a9c88a",
			"zkSyncRefundRecipient()": "30009341",
			"zkSyncToL2Value()": "3eb0b2ad"
		}
	},
	"abi": [
		{
			"inputs": [],
			"stateMutability": "nonpayable",
			"type": "constructor"
		},
		{
			"inputs": [],
			"name": "CannotSendToSameChain",
			"type": "error"
		},
		{
			"inputs": [],
			"name": "SendingDisabled",
			"type": "error"
		},
		{
			"anonymous": false,
			"inputs": [
				{
					"indexed": false,
					"internalType": "address",
					"name": "previousAdmin",
					"type": "address"
				},
				{
					"indexed": false,
					"internalType": "address",
					"name": "newAdmin",
					"type": "address"
				}
			],
			"name": "AdminChanged",
			"type": "event"
		},
		{
			"anonymous": false,
			"inputs": [
				{
					"indexed": true,
					"internalType": "address",
					"name": "beacon",
					"type": "address"
				}
			],
			"name": "BeaconUpgraded",
			"type": "event"
		},
		{
			"anonymous": false,
			"inputs": [
				{
					"indexed": true,
					"internalType": "uint32",
					"name": "chainId",
					"type": "uint32"
				}
			],
			"name": "Freeze",
			"type": "event"
		},
		{
			"anonymous": false,
			"inputs": [],
			"name": "FreezeAll",
			"type": "event"
		},
		{
			"anonymous": false,
			"inputs": [
				{
					"indexed": false,
					"internalType": "uint8",
					"name": "version",
					"type": "uint8"
				}
			],
			"name": "Initialized",
			"type": "event"
		},
		{
			"anonymous": false,
			"inputs": [
				{
					"indexed": true,
					"internalType": "uint32",
					"name": "sourceChainId",
					"type": "uint32"
				},
				{
					"indexed": true,
					"internalType": "uint64",
					"name": "nonce",
					"type": "uint64"
				},
				{
					"indexed": true,
					"internalType": "bytes32",
					"name": "msgHash",
					"type": "bytes32"
				},
				{
					"indexed": false,
					"internalType": "bytes",
					"name": "message",
					"type": "bytes"
				},
				{
					"indexed": false,
					"internalType": "bool",
					"name": "status",
					"type": "bool"
				}
			],
			"name": "PassMsg",
			"type": "event"
		},
		{
			"anonymous": false,
			"inputs": [
				{
					"indexed": false,
					"internalType": "address",
					"name": "",
					"type": "address"
				},
				{
					"indexed": false,
					"internalType": "uint256",
					"name": "",
					"type": "uint256"
				}
			],
			"name": "Received",
			"type": "event"
		},
		{
			"anonymous": false,
			"inputs": [
				{
					"indexed": true,
					"internalType": "bytes32",
					"name": "role",
					"type": "bytes32"
				},
				{
					"indexed": true,
					"internalType": "bytes32",
					"name": "previousAdminRole",
					"type": "bytes32"
				},
				{
					"indexed": true,
					"internalType": "bytes32",
					"name": "newAdminRole",
					"type": "bytes32"
				}
			],
			"name": "RoleAdminChanged",
			"type": "event"
		},
		{
			"anonymous": false,
			"inputs": [
				{
					"indexed": true,
					"internalType": "bytes32",
					"name": "role",
					"type": "bytes32"
				},
				{
					"indexed": true,
					"internalType": "address",
					"name": "account",
					"type": "address"
				},
				{
					"indexed": true,
					"internalType": "address",
					"name": "sender",
					"type": "address"
				}
			],
			"name": "RoleGranted",
			"type": "event"
		},
		{
			"anonymous": false,
			"inputs": [
				{
					"indexed": true,
					"internalType": "bytes32",
					"name": "role",
					"type": "bytes32"
				},
				{
					"indexed": true,
					"internalType": "address",
					"name": "account",
					"type": "address"
				},
				{
					"indexed": true,
					"internalType": "address",
					"name": "sender",
					"type": "address"
				}
			],
			"name": "RoleRevoked",
			"type": "event"
		},
		{
			"anonymous": false,
			"inputs": [
				{
					"indexed": true,
					"internalType": "uint64",
					"name": "nonce",
					"type": "uint64"
				},
				{
					"indexed": true,
					"internalType": "bytes32",
					"name": "msgHash",
					"type": "bytes32"
				},
				{
					"indexed": false,
					"internalType": "bytes",
					"name": "message",
					"type": "bytes"
				}
			],
			"name": "SendMsg",
			"type": "event"
		},
		{
			"anonymous": false,
			"inputs": [
				{
					"indexed": true,
					"internalType": "uint64",
					"name": "nonce",
					"type": "uint64"
				},
				{
					"indexed": true,
					"internalType": "bytes32",
					"name": "msgHash",
					"type": "bytes32"
				},
				{
					"indexed": false,
					"internalType": "bytes",
					"name": "message",
					"type": "bytes"
				}
			],
			"name": "SendZkSyncMsgL1ToL2",
			"type": "event"
		},
		{
			"anonymous": false,
			"inputs": [
				{
					"indexed": false,
					"internalType": "bool",
					"name": "enabled",
					"type": "bool"
				}
			],
			"name": "SendingEnabled",
			"type": "event"
		},
		{
			"anonymous": false,
			"inputs": [
				{
					"indexed": true,
					"internalType": "uint32",
					"name": "chainId",
					"type": "uint32"
				},
				{
					"indexed": false,
					"internalType": "address",
					"name": "lightClient",
					"type": "address"
				},
				{
					"indexed": false,
					"internalType": "address",
					"name": "broadcaster",
					"type": "address"
				}
			],
			"name": "SetLightClientAndBroadcaster",
			"type": "event"
		},
		{
			"anonymous": false,
			"inputs": [
				{
					"indexed": true,
					"internalType": "uint32",
					"name": "chainId",
					"type": "uint32"
				}
			],
			"name": "SourceChainAdded",
			"type": "event"
		},
		{
			"anonymous": false,
			"inputs": [
				{
					"indexed": true,
					"internalType": "uint32",
					"name": "chainId",
					"type": "uint32"
				}
			],
			"name": "Unfreeze",
			"type": "event"
		},
		{
			"anonymous": false,
			"inputs": [],
			"name": "UnfreezeAll",
			"type": "event"
		},
		{
			"anonymous": false,
			"inputs": [
				{
					"indexed": true,
					"internalType": "address",
					"name": "implementation",
					"type": "address"
				}
			],
			"name": "Upgraded",
			"type": "event"
		},
		{
			"inputs": [],
			"name": "DEFAULT_ADMIN_ROLE",
			"outputs": [
				{
					"internalType": "bytes32",
					"name": "",
					"type": "bytes32"
				}
			],
			"stateMutability": "view",
			"type": "function"
		},
		{
			"inputs": [],
			"name": "GUARDIAN_ROLE",
			"outputs": [
				{
					"internalType": "bytes32",
					"name": "",
					"type": "bytes32"
				}
			],
			"stateMutability": "view",
			"type": "function"
		},
		{
			"inputs": [],
			"name": "MIN_LIGHT_CLIENT_DELAY",
			"outputs": [
				{
					"internalType": "uint256",
					"name": "",
					"type": "uint256"
				}
			],
			"stateMutability": "view",
			"type": "function"
		},
		{
			"inputs": [],
			"name": "TIMELOCK_ROLE",
			"outputs": [
				{
					"internalType": "bytes32",
					"name": "",
					"type": "bytes32"
				}
			],
			"stateMutability": "view",
			"type": "function"
		},
		{
			"inputs": [],
			"name": "VERSION",
			"outputs": [
				{
					"internalType": "uint8",
					"name": "",
					"type": "uint8"
				}
			],
			"stateMutability": "view",
			"type": "function"
		},
		{
			"inputs": [
				{
					"internalType": "uint32",
					"name": "",
					"type": "uint32"
				}
			],
			"name": "broadcasters",
			"outputs": [
				{
					"internalType": "address",
					"name": "",
					"type": "address"
				}
			],
			"stateMutability": "view",
			"type": "function"
		},
		{
			"inputs": [
				{
					"internalType": "uint32",
					"name": "",
					"type": "uint32"
				}
			],
			"name": "chainRouter",
			"outputs": [
				{
					"internalType": "address",
					"name": "",
					"type": "address"
				}
			],
			"stateMutability": "view",
			"type": "function"
		},
		{
			"inputs": [
				{
					"internalType": "bool",
					"name": "isDebug",
					"type": "bool"
				}
			],
			"name": "changeDebugMode",
			"outputs": [],
			"stateMutability": "nonpayable",
			"type": "function"
		},
		{
			"inputs": [
				{
					"internalType": "uint32",
					"name": "chainId",
					"type": "uint32"
				}
			],
			"name": "freeze",
			"outputs": [],
			"stateMutability": "nonpayable",
			"type": "function"
		},
		{
			"inputs": [],
			"name": "freezeAll",
			"outputs": [],
			"stateMutability": "nonpayable",
			"type": "function"
		},
		{
			"inputs": [
				{
					"internalType": "uint32",
					"name": "",
					"type": "uint32"
				}
			],
			"name": "frozen",
			"outputs": [
				{
					"internalType": "bool",
					"name": "",
					"type": "bool"
				}
			],
			"stateMutability": "view",
			"type": "function"
		},
		{
			"inputs": [
				{
					"internalType": "bytes32",
					"name": "role",
					"type": "bytes32"
				}
			],
			"name": "getRoleAdmin",
			"outputs": [
				{
					"internalType": "bytes32",
					"name": "",
					"type": "bytes32"
				}
			],
			"stateMutability": "view",
			"type": "function"
		},
		{
			"inputs": [
				{
					"internalType": "bytes32",
					"name": "role",
					"type": "bytes32"
				},
				{
					"internalType": "address",
					"name": "account",
					"type": "address"
				}
			],
			"name": "grantRole",
			"outputs": [],
			"stateMutability": "nonpayable",
			"type": "function"
		},
		{
			"inputs": [
				{
					"internalType": "bytes32",
					"name": "role",
					"type": "bytes32"
				},
				{
					"internalType": "address",
					"name": "account",
					"type": "address"
				}
			],
			"name": "hasRole",
			"outputs": [
				{
					"internalType": "bool",
					"name": "",
					"type": "bool"
				}
			],
			"stateMutability": "view",
			"type": "function"
		},
		{
			"inputs": [
				{
					"internalType": "uint32[]",
					"name": "_sourceChainIds",
					"type": "uint32[]"
				},
				{
					"internalType": "address[]",
					"name": "_lightClients",
					"type": "address[]"
				},
				{
					"internalType": "address[]",
					"name": "_broadcasters",
					"type": "address[]"
				},
				{
					"internalType": "address",
					"name": "_timelock",
					"type": "address"
				},
				{
					"internalType": "address",
					"name": "_guardian",
					"type": "address"
				},
				{
					"internalType": "bool",
					"name": "_sendingEnabled",
					"type": "bool"
				}
			],
			"name": "initialize",
			"outputs": [],
			"stateMutability": "nonpayable",
			"type": "function"
		},
		{
			"inputs": [],
			"name": "isDebugMode",
			"outputs": [
				{
					"internalType": "bool",
					"name": "",
					"type": "bool"
				}
			],
			"stateMutability": "view",
			"type": "function"
		},
		{
			"inputs": [],
			"name": "l1RefundAddress",
			"outputs": [
				{
					"internalType": "address",
					"name": "",
					"type": "address"
				}
			],
			"stateMutability": "view",
			"type": "function"
		},
		{
			"inputs": [],
			"name": "l2RefundAddress",
			"outputs": [
				{
					"internalType": "address",
					"name": "",
					"type": "address"
				}
			],
			"stateMutability": "view",
			"type": "function"
		},
		{
			"inputs": [
				{
					"internalType": "uint32",
					"name": "",
					"type": "uint32"
				}
			],
			"name": "lightClients",
			"outputs": [
				{
					"internalType": "contract ILightClientGetter",
					"name": "",
					"type": "address"
				}
			],
			"stateMutability": "view",
			"type": "function"
		},
		{
			"inputs": [
				{
					"internalType": "bytes32",
					"name": "",
					"type": "bytes32"
				}
			],
			"name": "messageStatus",
			"outputs": [
				{
					"internalType": "enum MessageStatus",
					"name": "",
					"type": "uint8"
				}
			],
			"stateMutability": "view",
			"type": "function"
		},
		{
			"inputs": [
				{
					"internalType": "uint64",
					"name": "",
					"type": "uint64"
				}
			],
			"name": "messages",
			"outputs": [
				{
					"internalType": "bytes32",
					"name": "",
					"type": "bytes32"
				}
			],
			"stateMutability": "view",
			"type": "function"
		},
		{
			"inputs": [
				{
					"internalType": "address",
					"name": "",
					"type": "address"
				}
			],
			"name": "msgRelayer",
			"outputs": [
				{
					"internalType": "bool",
					"name": "",
					"type": "bool"
				}
			],
			"stateMutability": "view",
			"type": "function"
		},
		{
			"inputs": [],
			"name": "nonce",
			"outputs": [
				{
					"internalType": "uint64",
					"name": "",
					"type": "uint64"
				}
			],
			"stateMutability": "view",
			"type": "function"
		},
		{
			"inputs": [],
			"name": "proxiableUUID",
			"outputs": [
				{
					"internalType": "bytes32",
					"name": "",
					"type": "bytes32"
				}
			],
			"stateMutability": "view",
			"type": "function"
		},
		{
			"inputs": [
				{
					"internalType": "bytes32",
					"name": "role",
					"type": "bytes32"
				},
				{
					"internalType": "address",
					"name": "account",
					"type": "address"
				}
			],
			"name": "renounceRole",
			"outputs": [],
			"stateMutability": "nonpayable",
			"type": "function"
		},
		{
			"inputs": [
				{
					"internalType": "bytes32",
					"name": "role",
					"type": "bytes32"
				},
				{
					"internalType": "address",
					"name": "account",
					"type": "address"
				}
			],
			"name": "revokeRole",
			"outputs": [],
			"stateMutability": "nonpayable",
			"type": "function"
		},
		{
			"inputs": [],
			"name": "scrollL1Messager",
			"outputs": [
				{
					"internalType": "address",
					"name": "",
					"type": "address"
				}
			],
			"stateMutability": "view",
			"type": "function"
		},
		{
			"inputs": [],
			"name": "scrollL2GasLimit",
			"outputs": [
				{
					"internalType": "uint256",
					"name": "",
					"type": "uint256"
				}
			],
			"stateMutability": "view",
			"type": "function"
		},
		{
			"inputs": [],
			"name": "scrollL2Messager",
			"outputs": [
				{
					"internalType": "address",
					"name": "",
					"type": "address"
				}
			],
			"stateMutability": "view",
			"type": "function"
		},
		{
			"inputs": [
				{
					"internalType": "uint32",
					"name": "targetChainId",
					"type": "uint32"
				},
				{
					"internalType": "address",
					"name": "targetAddr",
					"type": "address"
				},
				{
					"internalType": "bytes",
					"name": "message",
					"type": "bytes"
				}
			],
			"name": "send",
			"outputs": [
				{
					"internalType": "bytes32",
					"name": "",
					"type": "bytes32"
				}
			],
			"stateMutability": "nonpayable",
			"type": "function"
		},
		{
			"inputs": [],
			"name": "sendingEnabled",
			"outputs": [
				{
					"internalType": "bool",
					"name": "",
					"type": "bool"
				}
			],
			"stateMutability": "view",
			"type": "function"
		},
		{
			"inputs": [
				{
					"internalType": "uint32",
					"name": "_chainId",
					"type": "uint32"
				},
				{
					"internalType": "address",
					"name": "_routerAddress",
					"type": "address"
				}
			],
			"name": "setChainRouter",
			"outputs": [],
			"stateMutability": "nonpayable",
			"type": "function"
		},
		{
			"inputs": [
				{
					"internalType": "uint32",
					"name": "chainId",
					"type": "uint32"
				},
				{
					"internalType": "address",
					"name": "lightclient",
					"type": "address"
				},
				{
					"internalType": "address",
					"name": "broadcaster",
					"type": "address"
				}
			],
			"name": "setLightClientAndBroadcaster",
			"outputs": [],
			"stateMutability": "nonpayable",
			"type": "function"
		},
		{
			"inputs": [
				{
					"internalType": "address",
					"name": "_relayer",
					"type": "address"
				},
				{
					"internalType": "bool",
					"name": "_isTrue",
					"type": "bool"
				}
			],
			"name": "setRelayer",
			"outputs": [],
			"stateMutability": "nonpayable",
			"type": "function"
		},
		{
			"inputs": [
				{
					"internalType": "address",
					"name": "_scrollL1Messager",
					"type": "address"
				},
				{
					"internalType": "address",
					"name": "_scrollL2Messager",
					"type": "address"
				},
				{
					"internalType": "uint256",
					"name": "_scrollL2GasLimit",
					"type": "uint256"
				},
				{
					"internalType": "address",
					"name": "_l1RefundAddress",
					"type": "address"
				},
				{
					"internalType": "address",
					"name": "_l2RefundAddress",
					"type": "address"
				}
			],
			"name": "setScroll",
			"outputs": [],
			"stateMutability": "nonpayable",
			"type": "function"
		},
		{
			"inputs": [
				{
					"internalType": "bool",
					"name": "enabled",
					"type": "bool"
				}
			],
			"name": "setSendingEnabled",
			"outputs": [],
			"stateMutability": "nonpayable",
			"type": "function"
		},
		{
			"inputs": [
				{
					"internalType": "address",
					"name": "_zkSyncAddress",
					"type": "address"
				},
				{
					"internalType": "uint256",
					"name": "_l2Value",
					"type": "uint256"
				},
				{
					"internalType": "uint256",
					"name": "_gasLimit",
					"type": "uint256"
				},
				{
					"internalType": "uint256",
					"name": "_byteLimit",
					"type": "uint256"
				},
				{
					"internalType": "bytes[]",
					"name": "_factoryDeps",
					"type": "bytes[]"
				},
				{
					"internalType": "address",
					"name": "_recipient",
					"type": "address"
				},
				{
					"internalType": "uint256",
					"name": "_value",
					"type": "uint256"
				}
			],
			"name": "setZKSync",
			"outputs": [],
			"stateMutability": "nonpayable",
			"type": "function"
		},
		{
			"inputs": [
				{
					"internalType": "uint256",
					"name": "",
					"type": "uint256"
				}
			],
			"name": "sourceChainIds",
			"outputs": [
				{
					"internalType": "uint32",
					"name": "",
					"type": "uint32"
				}
			],
			"stateMutability": "view",
			"type": "function"
		},
		{
			"inputs": [],
			"name": "sourceChainIdsLength",
			"outputs": [
				{
					"internalType": "uint256",
					"name": "",
					"type": "uint256"
				}
			],
			"stateMutability": "view",
			"type": "function"
		},
		{
			"inputs": [
				{
					"internalType": "bytes32",
					"name": "",
					"type": "bytes32"
				}
			],
			"name": "storageRootCache",
			"outputs": [
				{
					"internalType": "bytes32",
					"name": "",
					"type": "bytes32"
				}
			],
			"stateMutability": "view",
			"type": "function"
		},
		{
			"inputs": [
				{
					"internalType": "bytes4",
					"name": "interfaceId",
					"type": "bytes4"
				}
			],
			"name": "supportsInterface",
			"outputs": [
				{
					"internalType": "bool",
					"name": "",
					"type": "bool"
				}
			],
			"stateMutability": "view",
			"type": "function"
		},
		{
			"inputs": [
				{
					"internalType": "uint32",
					"name": "chainId",
					"type": "uint32"
				}
			],
			"name": "unfreeze",
			"outputs": [],
			"stateMutability": "nonpayable",
			"type": "function"
		},
		{
			"inputs": [],
			"name": "unfreezeAll",
			"outputs": [],
			"stateMutability": "nonpayable",
			"type": "function"
		},
		{
			"inputs": [
				{
					"internalType": "address",
					"name": "newImplementation",
					"type": "address"
				}
			],
			"name": "upgradeTo",
			"outputs": [],
			"stateMutability": "nonpayable",
			"type": "function"
		},
		{
			"inputs": [
				{
					"internalType": "address",
					"name": "newImplementation",
					"type": "address"
				},
				{
					"internalType": "bytes",
					"name": "data",
					"type": "bytes"
				}
			],
			"name": "upgradeToAndCall",
			"outputs": [],
			"stateMutability": "payable",
			"type": "function"
		},
		{
			"inputs": [
				{
					"internalType": "uint64",
					"name": "slot",
					"type": "uint64"
				},
				{
					"internalType": "bytes",
					"name": "messageBytes",
					"type": "bytes"
				},
				{
					"internalType": "bytes[]",
					"name": "accountProof",
					"type": "bytes[]"
				},
				{
					"internalType": "bytes[]",
					"name": "storageProof",
					"type": "bytes[]"
				}
			],
			"name": "vMsg",
			"outputs": [],
			"stateMutability": "nonpayable",
			"type": "function"
		},
		{
			"inputs": [
				{
					"internalType": "bytes",
					"name": "messageBytes",
					"type": "bytes"
				}
			],
			"name": "vMsgScrollL1ToL2",
			"outputs": [],
			"stateMutability": "nonpayable",
			"type": "function"
		},
		{
			"inputs": [
				{
					"internalType": "uint256",
					"name": "nonce",
					"type": "uint256"
				},
				{
					"internalType": "uint256",
					"name": "batchIndex",
					"type": "uint256"
				},
				{
					"internalType": "bytes",
					"name": "proof",
					"type": "bytes"
				},
				{
					"internalType": "bytes",
					"name": "messageBytes",
					"type": "bytes"
				}
			],
			"name": "vMsgScrollL2ToL1",
			"outputs": [],
			"stateMutability": "nonpayable",
			"type": "function"
		},
		{
			"inputs": [
				{
					"internalType": "bytes",
					"name": "messageBytes",
					"type": "bytes"
				}
			],
			"name": "vMsgZkSyncL1ToL2",
			"outputs": [],
			"stateMutability": "nonpayable",
			"type": "function"
		},
		{
			"inputs": [
				{
					"internalType": "address",
					"name": "someSender",
					"type": "address"
				},
				{
					"internalType": "uint256",
					"name": "l1BatchNumber",
					"type": "uint256"
				},
				{
					"internalType": "uint256",
					"name": "proofId",
					"type": "uint256"
				},
				{
					"internalType": "uint16",
					"name": "trxIndex",
					"type": "uint16"
				},
				{
					"internalType": "bytes",
					"name": "messageBytes",
					"type": "bytes"
				},
				{
					"internalType": "bytes32[]",
					"name": "proof",
					"type": "bytes32[]"
				}
			],
			"name": "vMsgZkSyncL2ToL1",
			"outputs": [],
			"stateMutability": "nonpayable",
			"type": "function"
		},
		{
			"inputs": [],
			"name": "version",
			"outputs": [
				{
					"internalType": "uint8",
					"name": "",
					"type": "uint8"
				}
			],
			"stateMutability": "view",
			"type": "function"
		},
		{
			"inputs": [
				{
					"internalType": "address",
					"name": "receiver",
					"type": "address"
				},
				{
					"internalType": "uint256",
					"name": "amount",
					"type": "uint256"
				}
			],
			"name": "withdraw",
			"outputs": [],
			"stateMutability": "nonpayable",
			"type": "function"
		},
		{
			"inputs": [],
			"name": "zkSyncAddress",
			"outputs": [
				{
					"internalType": "address",
					"name": "",
					"type": "address"
				}
			],
			"stateMutability": "view",
			"type": "function"
		},
		{
			"inputs": [
				{
					"internalType": "uint256",
					"name": "",
					"type": "uint256"
				}
			],
			"name": "zkSyncFactoryDeps",
			"outputs": [
				{
					"internalType": "bytes",
					"name": "",
					"type": "bytes"
				}
			],
			"stateMutability": "view",
			"type": "function"
		},
		{
			"inputs": [],
			"name": "zkSyncL2GasLimit",
			"outputs": [
				{
					"internalType": "uint256",
					"name": "",
					"type": "uint256"
				}
			],
			"stateMutability": "view",
			"type": "function"
		},
		{
			"inputs": [],
			"name": "zkSyncL2GasPerPubdataByteLimit",
			"outputs": [
				{
					"internalType": "uint256",
					"name": "",
					"type": "uint256"
				}
			],
			"stateMutability": "view",
			"type": "function"
		},
		{
			"inputs": [],
			"name": "zkSyncL2Value",
			"outputs": [
				{
					"internalType": "uint256",
					"name": "",
					"type": "uint256"
				}
			],
			"stateMutability": "view",
			"type": "function"
		},
		{
			"inputs": [],
			"name": "zkSyncRefundRecipient",
			"outputs": [
				{
					"internalType": "address",
					"name": "",
					"type": "address"
				}
			],
			"stateMutability": "view",
			"type": "function"
		},
		{
			"inputs": [],
			"name": "zkSyncToL2Value",
			"outputs": [
				{
					"internalType": "uint256",
					"name": "",
					"type": "uint256"
				}
			],
			"stateMutability": "view",
			"type": "function"
		},
		{
			"stateMutability": "payable",
			"type": "receive"
		}
	]
}